{
	"rockpaperscissors.sol": {
		"RockPaperScissors": {
			"abi": [
				{
					"constant": true,
					"inputs": [],
					"name": "BET_MIN",
					"outputs": [
						{
							"internalType": "uint256",
							"name": "",
							"type": "uint256"
						}
					],
					"payable": false,
					"stateMutability": "view",
					"type": "function"
				},
				{
					"constant": true,
					"inputs": [],
					"name": "REVEAL_TIMEOUT",
					"outputs": [
						{
							"internalType": "uint256",
							"name": "",
							"type": "uint256"
						}
					],
					"payable": false,
					"stateMutability": "view",
					"type": "function"
				},
				{
					"constant": true,
					"inputs": [],
					"name": "bothPlayed",
					"outputs": [
						{
							"internalType": "bool",
							"name": "",
							"type": "bool"
						}
					],
					"payable": false,
					"stateMutability": "view",
					"type": "function"
				},
				{
					"constant": true,
					"inputs": [],
					"name": "bothRevealed",
					"outputs": [
						{
							"internalType": "bool",
							"name": "",
							"type": "bool"
						}
					],
					"payable": false,
					"stateMutability": "view",
					"type": "function"
				},
				{
					"constant": true,
					"inputs": [],
					"name": "getContractBalance",
					"outputs": [
						{
							"internalType": "uint256",
							"name": "",
							"type": "uint256"
						}
					],
					"payable": false,
					"stateMutability": "view",
					"type": "function"
				},
				{
					"constant": false,
					"inputs": [],
					"name": "getOutcome",
					"outputs": [
						{
							"internalType": "enum RockPaperScissors.Outcomes",
							"name": "",
							"type": "uint8"
						}
					],
					"payable": false,
					"stateMutability": "nonpayable",
					"type": "function"
				},
				{
					"constant": true,
					"inputs": [],
					"name": "initialBet",
					"outputs": [
						{
							"internalType": "uint256",
							"name": "",
							"type": "uint256"
						}
					],
					"payable": false,
					"stateMutability": "view",
					"type": "function"
				},
				{
					"constant": false,
					"inputs": [
						{
							"internalType": "bytes32",
							"name": "encrMove",
							"type": "bytes32"
						}
					],
					"name": "play",
					"outputs": [
						{
							"internalType": "bool",
							"name": "",
							"type": "bool"
						}
					],
					"payable": false,
					"stateMutability": "nonpayable",
					"type": "function"
				},
				{
					"constant": false,
					"inputs": [],
					"name": "register",
					"outputs": [
						{
							"internalType": "uint256",
							"name": "",
							"type": "uint256"
						}
					],
					"payable": true,
					"stateMutability": "payable",
					"type": "function"
				},
				{
					"constant": false,
					"inputs": [
						{
							"internalType": "string",
							"name": "clearMove",
							"type": "string"
						}
					],
					"name": "reveal",
					"outputs": [
						{
							"internalType": "enum RockPaperScissors.Moves",
							"name": "",
							"type": "uint8"
						}
					],
					"payable": false,
					"stateMutability": "nonpayable",
					"type": "function"
				},
				{
					"constant": true,
					"inputs": [],
					"name": "revealTimeLeft",
					"outputs": [
						{
							"internalType": "int256",
							"name": "",
							"type": "int256"
						}
					],
					"payable": false,
					"stateMutability": "view",
					"type": "function"
				},
				{
					"constant": true,
					"inputs": [],
					"name": "whoAmI",
					"outputs": [
						{
							"internalType": "uint256",
							"name": "",
							"type": "uint256"
						}
					],
					"payable": false,
					"stateMutability": "view",
					"type": "function"
				}
			],
			"devdoc": {
				"methods": {}
			},
			"evm": {
				"assembly": "    /* \"rockpaperscissors.sol\":25:8395  contract RockPaperScissors {... */\n  mstore(0x40, 0x80)\n  callvalue\n    /* \"--CODEGEN--\":8:17   */\n  dup1\n    /* \"--CODEGEN--\":5:7   */\n  iszero\n  tag_1\n  jumpi\n    /* \"--CODEGEN--\":30:31   */\n  0x00\n    /* \"--CODEGEN--\":27:28   */\n  dup1\n    /* \"--CODEGEN--\":20:32   */\n  revert\n    /* \"--CODEGEN--\":5:7   */\ntag_1:\n    /* \"rockpaperscissors.sol\":25:8395  contract RockPaperScissors {... */\n  pop\n  dataSize(sub_0)\n  dup1\n  dataOffset(sub_0)\n  0x00\n  codecopy\n  0x00\n  return\nstop\n\nsub_0: assembly {\n        /* \"rockpaperscissors.sol\":25:8395  contract RockPaperScissors {... */\n      mstore(0x40, 0x80)\n      jumpi(tag_1, lt(calldatasize, 0x04))\n      shr(0xe0, calldataload(0x00))\n      dup1\n      0x51dcb1c3\n      gt\n      tag_14\n      jumpi\n      dup1\n      0x51dcb1c3\n      eq\n      tag_8\n      jumpi\n      dup1\n      0x6f9fb98a\n      eq\n      tag_9\n      jumpi\n      dup1\n      0x7e7e4b47\n      eq\n      tag_10\n      jumpi\n      dup1\n      0x807c8504\n      eq\n      tag_11\n      jumpi\n      dup1\n      0xc7a1865b\n      eq\n      tag_12\n      jumpi\n      dup1\n      0xda91254c\n      eq\n      tag_13\n      jumpi\n      jump(tag_1)\n    tag_14:\n      dup1\n      0x1aa3a008\n      eq\n      tag_2\n      jumpi\n      dup1\n      0x1d73c64c\n      eq\n      tag_3\n      jumpi\n      dup1\n      0x2626ab08\n      eq\n      tag_4\n      jumpi\n      dup1\n      0x3d6ae3a7\n      eq\n      tag_5\n      jumpi\n      dup1\n      0x43445ca8\n      eq\n      tag_6\n      jumpi\n      dup1\n      0x4c261247\n      eq\n      tag_7\n      jumpi\n    tag_1:\n      0x00\n      dup1\n      revert\n        /* \"rockpaperscissors.sol\":1503:1854  function register() public payable validBet notAlreadyRegistered returns (uint) {... */\n    tag_2:\n      tag_15\n      tag_16\n      jump\t// in\n    tag_15:\n      mload(0x40)\n      dup1\n      dup3\n      dup2\n      mstore\n      0x20\n      add\n      swap2\n      pop\n      pop\n      mload(0x40)\n      dup1\n      swap2\n      sub\n      swap1\n      return\n        /* \"rockpaperscissors.sol\":218:240  uint public initialBet */\n    tag_3:\n      callvalue\n        /* \"--CODEGEN--\":8:17   */\n      dup1\n        /* \"--CODEGEN--\":5:7   */\n      iszero\n      tag_17\n      jumpi\n        /* \"--CODEGEN--\":30:31   */\n      0x00\n        /* \"--CODEGEN--\":27:28   */\n      dup1\n        /* \"--CODEGEN--\":20:32   */\n      revert\n        /* \"--CODEGEN--\":5:7   */\n    tag_17:\n        /* \"rockpaperscissors.sol\":218:240  uint public initialBet */\n      pop\n      tag_18\n      tag_19\n      jump\t// in\n    tag_18:\n      mload(0x40)\n      dup1\n      dup3\n      dup2\n      mstore\n      0x20\n      add\n      swap2\n      pop\n      pop\n      mload(0x40)\n      dup1\n      swap2\n      sub\n      swap1\n      return\n        /* \"rockpaperscissors.sol\":59:102  uint constant public BET_MIN        = 1 wei */\n    tag_4:\n      callvalue\n        /* \"--CODEGEN--\":8:17   */\n      dup1\n        /* \"--CODEGEN--\":5:7   */\n      iszero\n      tag_20\n      jumpi\n        /* \"--CODEGEN--\":30:31   */\n      0x00\n        /* \"--CODEGEN--\":27:28   */\n      dup1\n        /* \"--CODEGEN--\":20:32   */\n      revert\n        /* \"--CODEGEN--\":5:7   */\n    tag_20:\n        /* \"rockpaperscissors.sol\":59:102  uint constant public BET_MIN        = 1 wei */\n      pop\n      tag_21\n      tag_22\n      jump\t// in\n    tag_21:\n      mload(0x40)\n      dup1\n      dup3\n      dup2\n      mstore\n      0x20\n      add\n      swap2\n      pop\n      pop\n      mload(0x40)\n      dup1\n      swap2\n      sub\n      swap1\n      return\n        /* \"rockpaperscissors.sol\":130:178  uint constant public REVEAL_TIMEOUT = 10 minutes */\n    tag_5:\n      callvalue\n        /* \"--CODEGEN--\":8:17   */\n      dup1\n        /* \"--CODEGEN--\":5:7   */\n      iszero\n      tag_23\n      jumpi\n        /* \"--CODEGEN--\":30:31   */\n      0x00\n        /* \"--CODEGEN--\":27:28   */\n      dup1\n        /* \"--CODEGEN--\":20:32   */\n      revert\n        /* \"--CODEGEN--\":5:7   */\n    tag_23:\n        /* \"rockpaperscissors.sol\":130:178  uint constant public REVEAL_TIMEOUT = 10 minutes */\n      pop\n      tag_24\n      tag_25\n      jump\t// in\n    tag_24:\n      mload(0x40)\n      dup1\n      dup3\n      dup2\n      mstore\n      0x20\n      add\n      swap2\n      pop\n      pop\n      mload(0x40)\n      dup1\n      swap2\n      sub\n      swap1\n      return\n        /* \"rockpaperscissors.sol\":7993:8124  function bothRevealed() public view returns (bool) {... */\n    tag_6:\n      callvalue\n        /* \"--CODEGEN--\":8:17   */\n      dup1\n        /* \"--CODEGEN--\":5:7   */\n      iszero\n      tag_26\n      jumpi\n        /* \"--CODEGEN--\":30:31   */\n      0x00\n        /* \"--CODEGEN--\":27:28   */\n      dup1\n        /* \"--CODEGEN--\":20:32   */\n      revert\n        /* \"--CODEGEN--\":5:7   */\n    tag_26:\n        /* \"rockpaperscissors.sol\":7993:8124  function bothRevealed() public view returns (bool) {... */\n      pop\n      tag_27\n      tag_28\n      jump\t// in\n    tag_27:\n      mload(0x40)\n      dup1\n      dup3\n      iszero\n      iszero\n      iszero\n      iszero\n      dup2\n      mstore\n      0x20\n      add\n      swap2\n      pop\n      pop\n      mload(0x40)\n      dup1\n      swap2\n      sub\n      swap1\n      return\n        /* \"rockpaperscissors.sol\":3180:4084  function reveal(string memory clearMove) public isRegistered commitPhaseEnded returns (Moves) {... */\n    tag_7:\n      callvalue\n        /* \"--CODEGEN--\":8:17   */\n      dup1\n        /* \"--CODEGEN--\":5:7   */\n      iszero\n      tag_29\n      jumpi\n        /* \"--CODEGEN--\":30:31   */\n      0x00\n        /* \"--CODEGEN--\":27:28   */\n      dup1\n        /* \"--CODEGEN--\":20:32   */\n      revert\n        /* \"--CODEGEN--\":5:7   */\n    tag_29:\n        /* \"rockpaperscissors.sol\":3180:4084  function reveal(string memory clearMove) public isRegistered commitPhaseEnded returns (Moves) {... */\n      pop\n      tag_30\n      0x04\n      dup1\n      calldatasize\n      sub\n        /* \"--CODEGEN--\":13:15   */\n      0x20\n        /* \"--CODEGEN--\":8:11   */\n      dup2\n        /* \"--CODEGEN--\":5:16   */\n      lt\n        /* \"--CODEGEN--\":2:4   */\n      iszero\n      tag_31\n      jumpi\n        /* \"--CODEGEN--\":29:30   */\n      0x00\n        /* \"--CODEGEN--\":26:27   */\n      dup1\n        /* \"--CODEGEN--\":19:31   */\n      revert\n        /* \"--CODEGEN--\":2:4   */\n    tag_31:\n        /* \"rockpaperscissors.sol\":3180:4084  function reveal(string memory clearMove) public isRegistered commitPhaseEnded returns (Moves) {... */\n      dup2\n      add\n      swap1\n      dup1\n      dup1\n      calldataload\n      swap1\n      0x20\n      add\n      swap1\n        /* \"--CODEGEN--\":21:32   */\n      0x0100000000\n        /* \"--CODEGEN--\":8:19   */\n      dup2\n        /* \"--CODEGEN--\":5:33   */\n      gt\n        /* \"--CODEGEN--\":2:4   */\n      iszero\n      tag_32\n      jumpi\n        /* \"--CODEGEN--\":46:47   */\n      0x00\n        /* \"--CODEGEN--\":43:44   */\n      dup1\n        /* \"--CODEGEN--\":36:48   */\n      revert\n        /* \"--CODEGEN--\":2:4   */\n    tag_32:\n        /* \"rockpaperscissors.sol\":3180:4084  function reveal(string memory clearMove) public isRegistered commitPhaseEnded returns (Moves) {... */\n      dup3\n      add\n        /* \"--CODEGEN--\":35:44   */\n      dup4\n        /* \"--CODEGEN--\":28:32   */\n      0x20\n        /* \"--CODEGEN--\":12:26   */\n      dup3\n        /* \"--CODEGEN--\":8:33   */\n      add\n        /* \"--CODEGEN--\":5:45   */\n      gt\n        /* \"--CODEGEN--\":2:4   */\n      iszero\n      tag_33\n      jumpi\n        /* \"--CODEGEN--\":58:59   */\n      0x00\n        /* \"--CODEGEN--\":55:56   */\n      dup1\n        /* \"--CODEGEN--\":48:60   */\n      revert\n        /* \"--CODEGEN--\":2:4   */\n    tag_33:\n        /* \"rockpaperscissors.sol\":3180:4084  function reveal(string memory clearMove) public isRegistered commitPhaseEnded returns (Moves) {... */\n      dup1\n      calldataload\n      swap1\n      0x20\n      add\n      swap2\n        /* \"--CODEGEN--\":100:109   */\n      dup5\n        /* \"--CODEGEN--\":95:96   */\n      0x01\n        /* \"--CODEGEN--\":81:93   */\n      dup4\n        /* \"--CODEGEN--\":77:97   */\n      mul\n        /* \"--CODEGEN--\":67:75   */\n      dup5\n        /* \"--CODEGEN--\":63:98   */\n      add\n        /* \"--CODEGEN--\":60:110   */\n      gt\n        /* \"--CODEGEN--\":39:50   */\n      0x0100000000\n        /* \"--CODEGEN--\":25:37   */\n      dup4\n        /* \"--CODEGEN--\":22:51   */\n      gt\n        /* \"--CODEGEN--\":11:118   */\n      or\n        /* \"--CODEGEN--\":8:10   */\n      iszero\n      tag_34\n      jumpi\n        /* \"--CODEGEN--\":131:132   */\n      0x00\n        /* \"--CODEGEN--\":128:129   */\n      dup1\n        /* \"--CODEGEN--\":121:133   */\n      revert\n        /* \"--CODEGEN--\":8:10   */\n    tag_34:\n        /* \"rockpaperscissors.sol\":3180:4084  function reveal(string memory clearMove) public isRegistered commitPhaseEnded returns (Moves) {... */\n      swap2\n      swap1\n      dup1\n      dup1\n      0x1f\n      add\n      0x20\n      dup1\n      swap2\n      div\n      mul\n      0x20\n      add\n      mload(0x40)\n      swap1\n      dup2\n      add\n      0x40\n      mstore\n      dup1\n      swap4\n      swap3\n      swap2\n      swap1\n      dup2\n      dup2\n      mstore\n      0x20\n      add\n      dup4\n      dup4\n        /* \"--CODEGEN--\":30:33   */\n      dup1\n        /* \"--CODEGEN--\":22:28   */\n      dup3\n        /* \"--CODEGEN--\":14:20   */\n      dup5\n        /* \"--CODEGEN--\":1:34   */\n      calldatacopy\n        /* \"--CODEGEN--\":99:100   */\n      0x00\n        /* \"--CODEGEN--\":93:96   */\n      dup2\n        /* \"--CODEGEN--\":85:91   */\n      dup5\n        /* \"--CODEGEN--\":81:97   */\n      add\n        /* \"--CODEGEN--\":74:101   */\n      mstore\n        /* \"--CODEGEN--\":137:141   */\n      0x1f\n        /* \"--CODEGEN--\":133:142   */\n      not\n        /* \"--CODEGEN--\":126:130   */\n      0x1f\n        /* \"--CODEGEN--\":121:124   */\n      dup3\n        /* \"--CODEGEN--\":117:131   */\n      add\n        /* \"--CODEGEN--\":113:143   */\n      and\n        /* \"--CODEGEN--\":106:143   */\n      swap1\n      pop\n        /* \"--CODEGEN--\":169:172   */\n      dup1\n        /* \"--CODEGEN--\":161:167   */\n      dup4\n        /* \"--CODEGEN--\":157:173   */\n      add\n        /* \"--CODEGEN--\":147:173   */\n      swap3\n      pop\n        /* \"rockpaperscissors.sol\":3180:4084  function reveal(string memory clearMove) public isRegistered commitPhaseEnded returns (Moves) {... */\n      pop\n      pop\n      pop\n      pop\n      pop\n      pop\n      swap2\n      swap3\n      swap2\n      swap3\n      swap1\n      pop\n      pop\n      pop\n      tag_35\n      jump\t// in\n    tag_30:\n      mload(0x40)\n      dup1\n      dup3\n      0x03\n      dup2\n      gt\n      iszero\n      tag_36\n      jumpi\n      invalid\n    tag_36:\n      0xff\n      and\n      dup2\n      mstore\n      0x20\n      add\n      swap2\n      pop\n      pop\n      mload(0x40)\n      dup1\n      swap2\n      sub\n      swap1\n      return\n        /* \"rockpaperscissors.sol\":8194:8393  function revealTimeLeft() public view returns (int) {... */\n    tag_8:\n      callvalue\n        /* \"--CODEGEN--\":8:17   */\n      dup1\n        /* \"--CODEGEN--\":5:7   */\n      iszero\n      tag_37\n      jumpi\n        /* \"--CODEGEN--\":30:31   */\n      0x00\n        /* \"--CODEGEN--\":27:28   */\n      dup1\n        /* \"--CODEGEN--\":20:32   */\n      revert\n        /* \"--CODEGEN--\":5:7   */\n    tag_37:\n        /* \"rockpaperscissors.sol\":8194:8393  function revealTimeLeft() public view returns (int) {... */\n      pop\n      tag_38\n      tag_39\n      jump\t// in\n    tag_38:\n      mload(0x40)\n      dup1\n      dup3\n      dup2\n      mstore\n      0x20\n      add\n      swap2\n      pop\n      pop\n      mload(0x40)\n      dup1\n      swap2\n      sub\n      swap1\n      return\n        /* \"rockpaperscissors.sol\":7338:7440  function getContractBalance() public view returns (uint) {... */\n    tag_9:\n      callvalue\n        /* \"--CODEGEN--\":8:17   */\n      dup1\n        /* \"--CODEGEN--\":5:7   */\n      iszero\n      tag_40\n      jumpi\n        /* \"--CODEGEN--\":30:31   */\n      0x00\n        /* \"--CODEGEN--\":27:28   */\n      dup1\n        /* \"--CODEGEN--\":20:32   */\n      revert\n        /* \"--CODEGEN--\":5:7   */\n    tag_40:\n        /* \"rockpaperscissors.sol\":7338:7440  function getContractBalance() public view returns (uint) {... */\n      pop\n      tag_41\n      tag_42\n      jump\t// in\n    tag_41:\n      mload(0x40)\n      dup1\n      dup3\n      dup2\n      mstore\n      0x20\n      add\n      swap2\n      pop\n      pop\n      mload(0x40)\n      dup1\n      swap2\n      sub\n      swap1\n      return\n        /* \"rockpaperscissors.sol\":5013:5916  function getOutcome() public revealPhaseEnded returns (Outcomes) {... */\n    tag_10:\n      callvalue\n        /* \"--CODEGEN--\":8:17   */\n      dup1\n        /* \"--CODEGEN--\":5:7   */\n      iszero\n      tag_43\n      jumpi\n        /* \"--CODEGEN--\":30:31   */\n      0x00\n        /* \"--CODEGEN--\":27:28   */\n      dup1\n        /* \"--CODEGEN--\":20:32   */\n      revert\n        /* \"--CODEGEN--\":5:7   */\n    tag_43:\n        /* \"rockpaperscissors.sol\":5013:5916  function getOutcome() public revealPhaseEnded returns (Outcomes) {... */\n      pop\n      tag_44\n      tag_45\n      jump\t// in\n    tag_44:\n      mload(0x40)\n      dup1\n      dup3\n      0x03\n      dup2\n      gt\n      iszero\n      tag_46\n      jumpi\n      invalid\n    tag_46:\n      0xff\n      and\n      dup2\n      mstore\n      0x20\n      add\n      swap2\n      pop\n      pop\n      mload(0x40)\n      dup1\n      swap2\n      sub\n      swap1\n      return\n        /* \"rockpaperscissors.sol\":7782:7905  function bothPlayed() public view returns (bool) {... */\n    tag_11:\n      callvalue\n        /* \"--CODEGEN--\":8:17   */\n      dup1\n        /* \"--CODEGEN--\":5:7   */\n      iszero\n      tag_47\n      jumpi\n        /* \"--CODEGEN--\":30:31   */\n      0x00\n        /* \"--CODEGEN--\":27:28   */\n      dup1\n        /* \"--CODEGEN--\":20:32   */\n      revert\n        /* \"--CODEGEN--\":5:7   */\n    tag_47:\n        /* \"rockpaperscissors.sol\":7782:7905  function bothPlayed() public view returns (bool) {... */\n      pop\n      tag_48\n      tag_49\n      jump\t// in\n    tag_48:\n      mload(0x40)\n      dup1\n      dup3\n      iszero\n      iszero\n      iszero\n      iszero\n      dup2\n      mstore\n      0x20\n      add\n      swap2\n      pop\n      pop\n      mload(0x40)\n      dup1\n      swap2\n      sub\n      swap1\n      return\n        /* \"rockpaperscissors.sol\":2314:2675  function play(bytes32 encrMove) public isRegistered returns (bool) {... */\n    tag_12:\n      callvalue\n        /* \"--CODEGEN--\":8:17   */\n      dup1\n        /* \"--CODEGEN--\":5:7   */\n      iszero\n      tag_50\n      jumpi\n        /* \"--CODEGEN--\":30:31   */\n      0x00\n        /* \"--CODEGEN--\":27:28   */\n      dup1\n        /* \"--CODEGEN--\":20:32   */\n      revert\n        /* \"--CODEGEN--\":5:7   */\n    tag_50:\n        /* \"rockpaperscissors.sol\":2314:2675  function play(bytes32 encrMove) public isRegistered returns (bool) {... */\n      pop\n      tag_51\n      0x04\n      dup1\n      calldatasize\n      sub\n        /* \"--CODEGEN--\":13:15   */\n      0x20\n        /* \"--CODEGEN--\":8:11   */\n      dup2\n        /* \"--CODEGEN--\":5:16   */\n      lt\n        /* \"--CODEGEN--\":2:4   */\n      iszero\n      tag_52\n      jumpi\n        /* \"--CODEGEN--\":29:30   */\n      0x00\n        /* \"--CODEGEN--\":26:27   */\n      dup1\n        /* \"--CODEGEN--\":19:31   */\n      revert\n        /* \"--CODEGEN--\":2:4   */\n    tag_52:\n        /* \"rockpaperscissors.sol\":2314:2675  function play(bytes32 encrMove) public isRegistered returns (bool) {... */\n      dup2\n      add\n      swap1\n      dup1\n      dup1\n      calldataload\n      swap1\n      0x20\n      add\n      swap1\n      swap3\n      swap2\n      swap1\n      pop\n      pop\n      pop\n      tag_53\n      jump\t// in\n    tag_51:\n      mload(0x40)\n      dup1\n      dup3\n      iszero\n      iszero\n      iszero\n      iszero\n      dup2\n      mstore\n      0x20\n      add\n      swap2\n      pop\n      pop\n      mload(0x40)\n      dup1\n      swap2\n      sub\n      swap1\n      return\n        /* \"rockpaperscissors.sol\":7472:7698  function whoAmI() public view returns (uint) {... */\n    tag_13:\n      callvalue\n        /* \"--CODEGEN--\":8:17   */\n      dup1\n        /* \"--CODEGEN--\":5:7   */\n      iszero\n      tag_54\n      jumpi\n        /* \"--CODEGEN--\":30:31   */\n      0x00\n        /* \"--CODEGEN--\":27:28   */\n      dup1\n        /* \"--CODEGEN--\":20:32   */\n      revert\n        /* \"--CODEGEN--\":5:7   */\n    tag_54:\n        /* \"rockpaperscissors.sol\":7472:7698  function whoAmI() public view returns (uint) {... */\n      pop\n      tag_55\n      tag_56\n      jump\t// in\n    tag_55:\n      mload(0x40)\n      dup1\n      dup3\n      dup2\n      mstore\n      0x20\n      add\n      swap2\n      pop\n      pop\n      mload(0x40)\n      dup1\n      swap2\n      sub\n      swap1\n      return\n        /* \"rockpaperscissors.sol\":1503:1854  function register() public payable validBet notAlreadyRegistered returns (uint) {... */\n    tag_16:\n        /* \"rockpaperscissors.sol\":1577:1581  uint */\n      0x00\n        /* \"rockpaperscissors.sol\":97:102  1 wei */\n      0x01\n        /* \"rockpaperscissors.sol\":1194:1203  msg.value */\n      callvalue\n        /* \"rockpaperscissors.sol\":1194:1214  msg.value >= BET_MIN */\n      lt\n      iszero\n        /* \"rockpaperscissors.sol\":1186:1215  require(msg.value >= BET_MIN) */\n      tag_58\n      jumpi\n      0x00\n      dup1\n      revert\n    tag_58:\n        /* \"rockpaperscissors.sol\":1247:1248  0 */\n      0x00\n        /* \"rockpaperscissors.sol\":1233:1243  initialBet */\n      dup1\n      sload\n        /* \"rockpaperscissors.sol\":1233:1248  initialBet == 0 */\n      eq\n        /* \"rockpaperscissors.sol\":1233:1275  initialBet == 0 || msg.value >= initialBet */\n      dup1\n      tag_59\n      jumpi\n      pop\n        /* \"rockpaperscissors.sol\":1265:1275  initialBet */\n      sload(0x00)\n        /* \"rockpaperscissors.sol\":1252:1261  msg.value */\n      callvalue\n        /* \"rockpaperscissors.sol\":1252:1275  msg.value >= initialBet */\n      lt\n      iszero\n        /* \"rockpaperscissors.sol\":1233:1275  initialBet == 0 || msg.value >= initialBet */\n    tag_59:\n        /* \"rockpaperscissors.sol\":1225:1276  require(initialBet == 0 || msg.value >= initialBet) */\n      tag_60\n      jumpi\n      0x00\n      dup1\n      revert\n    tag_60:\n        /* \"rockpaperscissors.sol\":1364:1371  playerA */\n      0x02\n      0x00\n      swap1\n      sload\n      swap1\n      0x0100\n      exp\n      swap1\n      div\n      0xffffffffffffffffffffffffffffffffffffffff\n      and\n        /* \"rockpaperscissors.sol\":1350:1371  msg.sender != playerA */\n      0xffffffffffffffffffffffffffffffffffffffff\n      and\n        /* \"rockpaperscissors.sol\":1350:1360  msg.sender */\n      caller\n        /* \"rockpaperscissors.sol\":1350:1371  msg.sender != playerA */\n      0xffffffffffffffffffffffffffffffffffffffff\n      and\n      eq\n      iszero\n        /* \"rockpaperscissors.sol\":1350:1396  msg.sender != playerA && msg.sender != playerB */\n      dup1\n      iszero\n      tag_62\n      jumpi\n      pop\n        /* \"rockpaperscissors.sol\":1389:1396  playerB */\n      0x03\n      0x00\n      swap1\n      sload\n      swap1\n      0x0100\n      exp\n      swap1\n      div\n      0xffffffffffffffffffffffffffffffffffffffff\n      and\n        /* \"rockpaperscissors.sol\":1375:1396  msg.sender != playerB */\n      0xffffffffffffffffffffffffffffffffffffffff\n      and\n        /* \"rockpaperscissors.sol\":1375:1385  msg.sender */\n      caller\n        /* \"rockpaperscissors.sol\":1375:1396  msg.sender != playerB */\n      0xffffffffffffffffffffffffffffffffffffffff\n      and\n      eq\n      iszero\n        /* \"rockpaperscissors.sol\":1350:1396  msg.sender != playerA && msg.sender != playerB */\n    tag_62:\n        /* \"rockpaperscissors.sol\":1342:1397  require(msg.sender != playerA && msg.sender != playerB) */\n      tag_63\n      jumpi\n      0x00\n      dup1\n      revert\n    tag_63:\n        /* \"rockpaperscissors.sol\":1616:1619  0x0 */\n      0x00\n        /* \"rockpaperscissors.sol\":1597:1620  playerA == address(0x0) */\n      0xffffffffffffffffffffffffffffffffffffffff\n      and\n        /* \"rockpaperscissors.sol\":1597:1604  playerA */\n      0x02\n      0x00\n      swap1\n      sload\n      swap1\n      0x0100\n      exp\n      swap1\n      div\n      0xffffffffffffffffffffffffffffffffffffffff\n      and\n        /* \"rockpaperscissors.sol\":1597:1620  playerA == address(0x0) */\n      0xffffffffffffffffffffffffffffffffffffffff\n      and\n      eq\n        /* \"rockpaperscissors.sol\":1593:1830  if (playerA == address(0x0)) {... */\n      iszero\n      tag_65\n      jumpi\n        /* \"rockpaperscissors.sol\":1649:1659  msg.sender */\n      caller\n        /* \"rockpaperscissors.sol\":1636:1643  playerA */\n      0x02\n      0x00\n        /* \"rockpaperscissors.sol\":1636:1659  playerA    = msg.sender */\n      0x0100\n      exp\n      dup2\n      sload\n      dup2\n      0xffffffffffffffffffffffffffffffffffffffff\n      mul\n      not\n      and\n      swap1\n      dup4\n      0xffffffffffffffffffffffffffffffffffffffff\n      and\n      mul\n      or\n      swap1\n      sstore\n      pop\n        /* \"rockpaperscissors.sol\":1686:1695  msg.value */\n      callvalue\n        /* \"rockpaperscissors.sol\":1673:1683  initialBet */\n      0x00\n        /* \"rockpaperscissors.sol\":1673:1695  initialBet = msg.value */\n      dup2\n      swap1\n      sstore\n      pop\n        /* \"rockpaperscissors.sol\":1716:1717  1 */\n      0x01\n        /* \"rockpaperscissors.sol\":1709:1717  return 1 */\n      swap1\n      pop\n      jump(tag_64)\n        /* \"rockpaperscissors.sol\":1593:1830  if (playerA == address(0x0)) {... */\n    tag_65:\n        /* \"rockpaperscissors.sol\":1757:1760  0x0 */\n      0x00\n        /* \"rockpaperscissors.sol\":1738:1761  playerB == address(0x0) */\n      0xffffffffffffffffffffffffffffffffffffffff\n      and\n        /* \"rockpaperscissors.sol\":1738:1745  playerB */\n      0x03\n      0x00\n      swap1\n      sload\n      swap1\n      0x0100\n      exp\n      swap1\n      div\n      0xffffffffffffffffffffffffffffffffffffffff\n      and\n        /* \"rockpaperscissors.sol\":1738:1761  playerB == address(0x0) */\n      0xffffffffffffffffffffffffffffffffffffffff\n      and\n      eq\n        /* \"rockpaperscissors.sol\":1734:1830  if (playerB == address(0x0)) {... */\n      iszero\n      tag_67\n      jumpi\n        /* \"rockpaperscissors.sol\":1787:1797  msg.sender */\n      caller\n        /* \"rockpaperscissors.sol\":1777:1784  playerB */\n      0x03\n      0x00\n        /* \"rockpaperscissors.sol\":1777:1797  playerB = msg.sender */\n      0x0100\n      exp\n      dup2\n      sload\n      dup2\n      0xffffffffffffffffffffffffffffffffffffffff\n      mul\n      not\n      and\n      swap1\n      dup4\n      0xffffffffffffffffffffffffffffffffffffffff\n      and\n      mul\n      or\n      swap1\n      sstore\n      pop\n        /* \"rockpaperscissors.sol\":1818:1819  2 */\n      0x02\n        /* \"rockpaperscissors.sol\":1811:1819  return 2 */\n      swap1\n      pop\n      jump(tag_64)\n        /* \"rockpaperscissors.sol\":1734:1830  if (playerB == address(0x0)) {... */\n    tag_67:\n        /* \"rockpaperscissors.sol\":1846:1847  0 */\n      0x00\n        /* \"rockpaperscissors.sol\":1839:1847  return 0 */\n      swap1\n      pop\n        /* \"rockpaperscissors.sol\":1407:1408  _ */\n    tag_64:\n        /* \"rockpaperscissors.sol\":1503:1854  function register() public payable validBet notAlreadyRegistered returns (uint) {... */\n      swap1\n      jump\t// out\n        /* \"rockpaperscissors.sol\":218:240  uint public initialBet */\n    tag_19:\n      sload(0x00)\n      dup2\n      jump\t// out\n        /* \"rockpaperscissors.sol\":59:102  uint constant public BET_MIN        = 1 wei */\n    tag_22:\n        /* \"rockpaperscissors.sol\":97:102  1 wei */\n      0x01\n        /* \"rockpaperscissors.sol\":59:102  uint constant public BET_MIN        = 1 wei */\n      dup2\n      jump\t// out\n        /* \"rockpaperscissors.sol\":130:178  uint constant public REVEAL_TIMEOUT = 10 minutes */\n    tag_25:\n        /* \"rockpaperscissors.sol\":168:178  10 minutes */\n      0x0258\n        /* \"rockpaperscissors.sol\":130:178  uint constant public REVEAL_TIMEOUT = 10 minutes */\n      dup2\n      jump\t// out\n        /* \"rockpaperscissors.sol\":7993:8124  function bothRevealed() public view returns (bool) {... */\n    tag_28:\n        /* \"rockpaperscissors.sol\":8038:8042  bool */\n      0x00\n        /* \"rockpaperscissors.sol\":8077:8087  Moves.None */\n      dup1\n        /* \"rockpaperscissors.sol\":8062:8087  movePlayerA != Moves.None */\n      0x03\n      dup2\n      gt\n      iszero\n      tag_69\n      jumpi\n      invalid\n    tag_69:\n        /* \"rockpaperscissors.sol\":8062:8073  movePlayerA */\n      0x06\n      0x00\n      swap1\n      sload\n      swap1\n      0x0100\n      exp\n      swap1\n      div\n      0xff\n      and\n        /* \"rockpaperscissors.sol\":8062:8087  movePlayerA != Moves.None */\n      0x03\n      dup2\n      gt\n      iszero\n      tag_70\n      jumpi\n      invalid\n    tag_70:\n      eq\n      iszero\n        /* \"rockpaperscissors.sol\":8062:8116  movePlayerA != Moves.None && movePlayerB != Moves.None */\n      dup1\n      iszero\n      tag_71\n      jumpi\n      pop\n        /* \"rockpaperscissors.sol\":8106:8116  Moves.None */\n      0x00\n        /* \"rockpaperscissors.sol\":8091:8116  movePlayerB != Moves.None */\n      0x03\n      dup2\n      gt\n      iszero\n      tag_72\n      jumpi\n      invalid\n    tag_72:\n        /* \"rockpaperscissors.sol\":8091:8102  movePlayerB */\n      0x06\n      0x01\n      swap1\n      sload\n      swap1\n      0x0100\n      exp\n      swap1\n      div\n      0xff\n      and\n        /* \"rockpaperscissors.sol\":8091:8116  movePlayerB != Moves.None */\n      0x03\n      dup2\n      gt\n      iszero\n      tag_73\n      jumpi\n      invalid\n    tag_73:\n      eq\n      iszero\n        /* \"rockpaperscissors.sol\":8062:8116  movePlayerA != Moves.None && movePlayerB != Moves.None */\n    tag_71:\n        /* \"rockpaperscissors.sol\":8054:8117  return (movePlayerA != Moves.None && movePlayerB != Moves.None) */\n      swap1\n      pop\n        /* \"rockpaperscissors.sol\":7993:8124  function bothRevealed() public view returns (bool) {... */\n      swap1\n      jump\t// out\n        /* \"rockpaperscissors.sol\":3180:4084  function reveal(string memory clearMove) public isRegistered commitPhaseEnded returns (Moves) {... */\n    tag_35:\n        /* \"rockpaperscissors.sol\":3267:3272  Moves */\n      0x00\n        /* \"rockpaperscissors.sol\":2161:2168  playerA */\n      0x02\n      0x00\n      swap1\n      sload\n      swap1\n      0x0100\n      exp\n      swap1\n      div\n      0xffffffffffffffffffffffffffffffffffffffff\n      and\n        /* \"rockpaperscissors.sol\":2147:2168  msg.sender == playerA */\n      0xffffffffffffffffffffffffffffffffffffffff\n      and\n        /* \"rockpaperscissors.sol\":2147:2157  msg.sender */\n      caller\n        /* \"rockpaperscissors.sol\":2147:2168  msg.sender == playerA */\n      0xffffffffffffffffffffffffffffffffffffffff\n      and\n      eq\n        /* \"rockpaperscissors.sol\":2147:2193  msg.sender == playerA || msg.sender == playerB */\n      dup1\n      tag_75\n      jumpi\n      pop\n        /* \"rockpaperscissors.sol\":2186:2193  playerB */\n      0x03\n      0x00\n      swap1\n      sload\n      swap1\n      0x0100\n      exp\n      swap1\n      div\n      0xffffffffffffffffffffffffffffffffffffffff\n      and\n        /* \"rockpaperscissors.sol\":2172:2193  msg.sender == playerB */\n      0xffffffffffffffffffffffffffffffffffffffff\n      and\n        /* \"rockpaperscissors.sol\":2172:2182  msg.sender */\n      caller\n        /* \"rockpaperscissors.sol\":2172:2193  msg.sender == playerB */\n      0xffffffffffffffffffffffffffffffffffffffff\n      and\n      eq\n        /* \"rockpaperscissors.sol\":2147:2193  msg.sender == playerA || msg.sender == playerB */\n    tag_75:\n        /* \"rockpaperscissors.sol\":2138:2194  require (msg.sender == playerA || msg.sender == playerB) */\n      tag_76\n      jumpi\n      0x00\n      dup1\n      revert\n    tag_76:\n        /* \"rockpaperscissors.sol\":2990:2993  0x0 */\n      0x00\n        /* \"rockpaperscissors.sol\":2971:2993  encrMovePlayerA != 0x0 */\n      dup1\n      shl\n        /* \"rockpaperscissors.sol\":2971:2986  encrMovePlayerA */\n      sload(0x04)\n        /* \"rockpaperscissors.sol\":2971:2993  encrMovePlayerA != 0x0 */\n      eq\n      iszero\n        /* \"rockpaperscissors.sol\":2971:3019  encrMovePlayerA != 0x0 && encrMovePlayerB != 0x0 */\n      dup1\n      iszero\n      tag_78\n      jumpi\n      pop\n        /* \"rockpaperscissors.sol\":3016:3019  0x0 */\n      0x00\n        /* \"rockpaperscissors.sol\":2997:3019  encrMovePlayerB != 0x0 */\n      dup1\n      shl\n        /* \"rockpaperscissors.sol\":2997:3012  encrMovePlayerB */\n      sload(0x05)\n        /* \"rockpaperscissors.sol\":2997:3019  encrMovePlayerB != 0x0 */\n      eq\n      iszero\n        /* \"rockpaperscissors.sol\":2971:3019  encrMovePlayerA != 0x0 && encrMovePlayerB != 0x0 */\n    tag_78:\n        /* \"rockpaperscissors.sol\":2963:3020  require(encrMovePlayerA != 0x0 && encrMovePlayerB != 0x0) */\n      tag_79\n      jumpi\n      0x00\n      dup1\n      revert\n    tag_79:\n        /* \"rockpaperscissors.sol\":3284:3300  bytes32 encrMove */\n      0x00\n        /* \"rockpaperscissors.sol\":3303:3338  sha256(abi.encodePacked(clearMove)) */\n      0x02\n        /* \"rockpaperscissors.sol\":3327:3336  clearMove */\n      dup4\n        /* \"rockpaperscissors.sol\":3310:3337  abi.encodePacked(clearMove) */\n      add(0x20, mload(0x40))\n      dup1\n      dup3\n      dup1\n      mload\n      swap1\n      0x20\n      add\n      swap1\n      dup1\n      dup4\n      dup4\n        /* \"--CODEGEN--\":36:189   */\n    tag_81:\n        /* \"--CODEGEN--\":66:68   */\n      0x20\n        /* \"--CODEGEN--\":61:64   */\n      dup4\n        /* \"--CODEGEN--\":58:69   */\n      lt\n        /* \"--CODEGEN--\":36:189   */\n      tag_83\n      jumpi\n        /* \"--CODEGEN--\":182:185   */\n      dup1\n        /* \"--CODEGEN--\":176:186   */\n      mload\n        /* \"--CODEGEN--\":171:174   */\n      dup3\n        /* \"--CODEGEN--\":164:187   */\n      mstore\n        /* \"--CODEGEN--\":98:100   */\n      0x20\n        /* \"--CODEGEN--\":93:96   */\n      dup3\n        /* \"--CODEGEN--\":89:101   */\n      add\n        /* \"--CODEGEN--\":82:101   */\n      swap2\n      pop\n        /* \"--CODEGEN--\":123:125   */\n      0x20\n        /* \"--CODEGEN--\":118:121   */\n      dup2\n        /* \"--CODEGEN--\":114:126   */\n      add\n        /* \"--CODEGEN--\":107:126   */\n      swap1\n      pop\n        /* \"--CODEGEN--\":148:150   */\n      0x20\n        /* \"--CODEGEN--\":143:146   */\n      dup4\n        /* \"--CODEGEN--\":139:151   */\n      sub\n        /* \"--CODEGEN--\":132:151   */\n      swap3\n      pop\n        /* \"--CODEGEN--\":36:189   */\n      jump(tag_81)\n    tag_83:\n        /* \"--CODEGEN--\":274:275   */\n      0x01\n        /* \"--CODEGEN--\":267:270   */\n      dup4\n        /* \"--CODEGEN--\":263:265   */\n      0x20\n        /* \"--CODEGEN--\":259:271   */\n      sub\n        /* \"--CODEGEN--\":254:257   */\n      0x0100\n        /* \"--CODEGEN--\":250:272   */\n      exp\n        /* \"--CODEGEN--\":246:276   */\n      sub\n        /* \"--CODEGEN--\":315:319   */\n      dup1\n        /* \"--CODEGEN--\":311:320   */\n      not\n        /* \"--CODEGEN--\":305:308   */\n      dup3\n        /* \"--CODEGEN--\":299:309   */\n      mload\n        /* \"--CODEGEN--\":295:321   */\n      and\n        /* \"--CODEGEN--\":356:360   */\n      dup2\n        /* \"--CODEGEN--\":350:353   */\n      dup5\n        /* \"--CODEGEN--\":344:354   */\n      mload\n        /* \"--CODEGEN--\":340:361   */\n      and\n        /* \"--CODEGEN--\":389:396   */\n      dup1\n        /* \"--CODEGEN--\":380:387   */\n      dup3\n        /* \"--CODEGEN--\":377:397   */\n      or\n        /* \"--CODEGEN--\":372:375   */\n      dup6\n        /* \"--CODEGEN--\":365:398   */\n      mstore\n        /* \"--CODEGEN--\":3:402   */\n      pop\n      pop\n      pop\n        /* \"rockpaperscissors.sol\":3310:3337  abi.encodePacked(clearMove) */\n      pop\n      pop\n      pop\n      swap1\n      pop\n      add\n      swap2\n      pop\n      pop\n      mload(0x40)\n        /* \"--CODEGEN--\":49:53   */\n      0x20\n        /* \"--CODEGEN--\":39:46   */\n      dup2\n        /* \"--CODEGEN--\":30:37   */\n      dup4\n        /* \"--CODEGEN--\":26:47   */\n      sub\n        /* \"--CODEGEN--\":22:54   */\n      sub\n        /* \"--CODEGEN--\":13:20   */\n      dup2\n        /* \"--CODEGEN--\":6:55   */\n      mstore\n        /* \"rockpaperscissors.sol\":3310:3337  abi.encodePacked(clearMove) */\n      swap1\n      0x40\n      mstore\n        /* \"rockpaperscissors.sol\":3303:3338  sha256(abi.encodePacked(clearMove)) */\n      mload(0x40)\n      dup1\n      dup3\n      dup1\n      mload\n      swap1\n      0x20\n      add\n      swap1\n      dup1\n      dup4\n      dup4\n        /* \"--CODEGEN--\":36:189   */\n    tag_84:\n        /* \"--CODEGEN--\":66:68   */\n      0x20\n        /* \"--CODEGEN--\":61:64   */\n      dup4\n        /* \"--CODEGEN--\":58:69   */\n      lt\n        /* \"--CODEGEN--\":36:189   */\n      tag_86\n      jumpi\n        /* \"--CODEGEN--\":182:185   */\n      dup1\n        /* \"--CODEGEN--\":176:186   */\n      mload\n        /* \"--CODEGEN--\":171:174   */\n      dup3\n        /* \"--CODEGEN--\":164:187   */\n      mstore\n        /* \"--CODEGEN--\":98:100   */\n      0x20\n        /* \"--CODEGEN--\":93:96   */\n      dup3\n        /* \"--CODEGEN--\":89:101   */\n      add\n        /* \"--CODEGEN--\":82:101   */\n      swap2\n      pop\n        /* \"--CODEGEN--\":123:125   */\n      0x20\n        /* \"--CODEGEN--\":118:121   */\n      dup2\n        /* \"--CODEGEN--\":114:126   */\n      add\n        /* \"--CODEGEN--\":107:126   */\n      swap1\n      pop\n        /* \"--CODEGEN--\":148:150   */\n      0x20\n        /* \"--CODEGEN--\":143:146   */\n      dup4\n        /* \"--CODEGEN--\":139:151   */\n      sub\n        /* \"--CODEGEN--\":132:151   */\n      swap3\n      pop\n        /* \"--CODEGEN--\":36:189   */\n      jump(tag_84)\n    tag_86:\n        /* \"--CODEGEN--\":274:275   */\n      0x01\n        /* \"--CODEGEN--\":267:270   */\n      dup4\n        /* \"--CODEGEN--\":263:265   */\n      0x20\n        /* \"--CODEGEN--\":259:271   */\n      sub\n        /* \"--CODEGEN--\":254:257   */\n      0x0100\n        /* \"--CODEGEN--\":250:272   */\n      exp\n        /* \"--CODEGEN--\":246:276   */\n      sub\n        /* \"--CODEGEN--\":315:319   */\n      dup1\n        /* \"--CODEGEN--\":311:320   */\n      not\n        /* \"--CODEGEN--\":305:308   */\n      dup3\n        /* \"--CODEGEN--\":299:309   */\n      mload\n        /* \"--CODEGEN--\":295:321   */\n      and\n        /* \"--CODEGEN--\":356:360   */\n      dup2\n        /* \"--CODEGEN--\":350:353   */\n      dup5\n        /* \"--CODEGEN--\":344:354   */\n      mload\n        /* \"--CODEGEN--\":340:361   */\n      and\n        /* \"--CODEGEN--\":389:396   */\n      dup1\n        /* \"--CODEGEN--\":380:387   */\n      dup3\n        /* \"--CODEGEN--\":377:397   */\n      or\n        /* \"--CODEGEN--\":372:375   */\n      dup6\n        /* \"--CODEGEN--\":365:398   */\n      mstore\n        /* \"--CODEGEN--\":3:402   */\n      pop\n      pop\n      pop\n        /* \"rockpaperscissors.sol\":3303:3338  sha256(abi.encodePacked(clearMove)) */\n      pop\n      pop\n      pop\n      swap1\n      pop\n      add\n      swap2\n      pop\n      pop\n      0x20\n      mload(0x40)\n      dup1\n      dup4\n      sub\n      dup2\n      dup6\n      gas\n      staticcall\n      iszero\n        /* \"--CODEGEN--\":8:17   */\n      dup1\n        /* \"--CODEGEN--\":5:7   */\n      iszero\n      tag_87\n      jumpi\n        /* \"--CODEGEN--\":45:61   */\n      returndatasize\n        /* \"--CODEGEN--\":42:43   */\n      0x00\n        /* \"--CODEGEN--\":39:40   */\n      dup1\n        /* \"--CODEGEN--\":24:62   */\n      returndatacopy\n        /* \"--CODEGEN--\":77:93   */\n      returndatasize\n        /* \"--CODEGEN--\":74:75   */\n      0x00\n        /* \"--CODEGEN--\":67:94   */\n      revert\n        /* \"--CODEGEN--\":5:7   */\n    tag_87:\n        /* \"rockpaperscissors.sol\":3303:3338  sha256(abi.encodePacked(clearMove)) */\n      pop\n      pop\n      pop\n      mload(0x40)\n      returndatasize\n        /* \"--CODEGEN--\":13:15   */\n      0x20\n        /* \"--CODEGEN--\":8:11   */\n      dup2\n        /* \"--CODEGEN--\":5:16   */\n      lt\n        /* \"--CODEGEN--\":2:4   */\n      iszero\n      tag_88\n      jumpi\n        /* \"--CODEGEN--\":29:30   */\n      0x00\n        /* \"--CODEGEN--\":26:27   */\n      dup1\n        /* \"--CODEGEN--\":19:31   */\n      revert\n        /* \"--CODEGEN--\":2:4   */\n    tag_88:\n        /* \"rockpaperscissors.sol\":3303:3338  sha256(abi.encodePacked(clearMove)) */\n      dup2\n      add\n      swap1\n      dup1\n      dup1\n      mload\n      swap1\n      0x20\n      add\n      swap1\n      swap3\n      swap2\n      swap1\n      pop\n      pop\n      pop\n        /* \"rockpaperscissors.sol\":3284:3338  bytes32 encrMove = sha256(abi.encodePacked(clearMove)) */\n      swap1\n      pop\n        /* \"rockpaperscissors.sol\":3392:3402  Moves move */\n      0x00\n        /* \"rockpaperscissors.sol\":3417:3440  getFirstChar(clearMove) */\n      tag_89\n        /* \"rockpaperscissors.sol\":3430:3439  clearMove */\n      dup5\n        /* \"rockpaperscissors.sol\":3417:3429  getFirstChar */\n      tag_90\n        /* \"rockpaperscissors.sol\":3417:3440  getFirstChar(clearMove) */\n      jump\t// in\n    tag_89:\n        /* \"rockpaperscissors.sol\":3411:3441  Moves(getFirstChar(clearMove)) */\n      0x03\n      dup2\n      gt\n      iszero\n      tag_91\n      jumpi\n      invalid\n    tag_91:\n        /* \"rockpaperscissors.sol\":3392:3441  Moves move       = Moves(getFirstChar(clearMove)) */\n      swap1\n      pop\n        /* \"rockpaperscissors.sol\":3544:3554  Moves.None */\n      0x00\n        /* \"rockpaperscissors.sol\":3536:3554  move == Moves.None */\n      0x03\n      dup2\n      gt\n      iszero\n      tag_92\n      jumpi\n      invalid\n    tag_92:\n        /* \"rockpaperscissors.sol\":3536:3540  move */\n      dup2\n        /* \"rockpaperscissors.sol\":3536:3554  move == Moves.None */\n      0x03\n      dup2\n      gt\n      iszero\n      tag_93\n      jumpi\n      invalid\n    tag_93:\n      eq\n        /* \"rockpaperscissors.sol\":3532:3598  if (move == Moves.None) {... */\n      iszero\n      tag_94\n      jumpi\n        /* \"rockpaperscissors.sol\":3577:3587  Moves.None */\n      0x00\n        /* \"rockpaperscissors.sol\":3570:3587  return Moves.None */\n      swap3\n      pop\n      pop\n      pop\n      jump(tag_80)\n        /* \"rockpaperscissors.sol\":3532:3598  if (move == Moves.None) {... */\n    tag_94:\n        /* \"rockpaperscissors.sol\":3674:3681  playerA */\n      0x02\n      0x00\n      swap1\n      sload\n      swap1\n      0x0100\n      exp\n      swap1\n      div\n      0xffffffffffffffffffffffffffffffffffffffff\n      and\n        /* \"rockpaperscissors.sol\":3660:3681  msg.sender == playerA */\n      0xffffffffffffffffffffffffffffffffffffffff\n      and\n        /* \"rockpaperscissors.sol\":3660:3670  msg.sender */\n      caller\n        /* \"rockpaperscissors.sol\":3660:3681  msg.sender == playerA */\n      0xffffffffffffffffffffffffffffffffffffffff\n      and\n      eq\n        /* \"rockpaperscissors.sol\":3660:3712  msg.sender == playerA && encrMove == encrMovePlayerA */\n      dup1\n      iszero\n      tag_95\n      jumpi\n      pop\n        /* \"rockpaperscissors.sol\":3697:3712  encrMovePlayerA */\n      sload(0x04)\n        /* \"rockpaperscissors.sol\":3685:3693  encrMove */\n      dup3\n        /* \"rockpaperscissors.sol\":3685:3712  encrMove == encrMovePlayerA */\n      eq\n        /* \"rockpaperscissors.sol\":3660:3712  msg.sender == playerA && encrMove == encrMovePlayerA */\n    tag_95:\n        /* \"rockpaperscissors.sol\":3656:3912  if (msg.sender == playerA && encrMove == encrMovePlayerA) {... */\n      iszero\n      tag_96\n      jumpi\n        /* \"rockpaperscissors.sol\":3742:3746  move */\n      dup1\n        /* \"rockpaperscissors.sol\":3728:3739  movePlayerA */\n      0x06\n      0x00\n        /* \"rockpaperscissors.sol\":3728:3746  movePlayerA = move */\n      0x0100\n      exp\n      dup2\n      sload\n      dup2\n      0xff\n      mul\n      not\n      and\n      swap1\n      dup4\n      0x03\n      dup2\n      gt\n      iszero\n      tag_97\n      jumpi\n      invalid\n    tag_97:\n      mul\n      or\n      swap1\n      sstore\n      pop\n        /* \"rockpaperscissors.sol\":3656:3912  if (msg.sender == playerA && encrMove == encrMovePlayerA) {... */\n      jump(tag_98)\n    tag_96:\n        /* \"rockpaperscissors.sol\":3781:3788  playerB */\n      0x03\n      0x00\n      swap1\n      sload\n      swap1\n      0x0100\n      exp\n      swap1\n      div\n      0xffffffffffffffffffffffffffffffffffffffff\n      and\n        /* \"rockpaperscissors.sol\":3767:3788  msg.sender == playerB */\n      0xffffffffffffffffffffffffffffffffffffffff\n      and\n        /* \"rockpaperscissors.sol\":3767:3777  msg.sender */\n      caller\n        /* \"rockpaperscissors.sol\":3767:3788  msg.sender == playerB */\n      0xffffffffffffffffffffffffffffffffffffffff\n      and\n      eq\n        /* \"rockpaperscissors.sol\":3767:3819  msg.sender == playerB && encrMove == encrMovePlayerB */\n      dup1\n      iszero\n      tag_99\n      jumpi\n      pop\n        /* \"rockpaperscissors.sol\":3804:3819  encrMovePlayerB */\n      sload(0x05)\n        /* \"rockpaperscissors.sol\":3792:3800  encrMove */\n      dup3\n        /* \"rockpaperscissors.sol\":3792:3819  encrMove == encrMovePlayerB */\n      eq\n        /* \"rockpaperscissors.sol\":3767:3819  msg.sender == playerB && encrMove == encrMovePlayerB */\n    tag_99:\n        /* \"rockpaperscissors.sol\":3763:3912  if (msg.sender == playerB && encrMove == encrMovePlayerB) {... */\n      iszero\n      tag_100\n      jumpi\n        /* \"rockpaperscissors.sol\":3849:3853  move */\n      dup1\n        /* \"rockpaperscissors.sol\":3835:3846  movePlayerB */\n      0x06\n      0x01\n        /* \"rockpaperscissors.sol\":3835:3853  movePlayerB = move */\n      0x0100\n      exp\n      dup2\n      sload\n      dup2\n      0xff\n      mul\n      not\n      and\n      swap1\n      dup4\n      0x03\n      dup2\n      gt\n      iszero\n      tag_101\n      jumpi\n      invalid\n    tag_101:\n      mul\n      or\n      swap1\n      sstore\n      pop\n        /* \"rockpaperscissors.sol\":3763:3912  if (msg.sender == playerB && encrMove == encrMovePlayerB) {... */\n      jump(tag_102)\n    tag_100:\n        /* \"rockpaperscissors.sol\":3891:3901  Moves.None */\n      0x00\n        /* \"rockpaperscissors.sol\":3884:3901  return Moves.None */\n      swap3\n      pop\n      pop\n      pop\n      jump(tag_80)\n        /* \"rockpaperscissors.sol\":3763:3912  if (msg.sender == playerB && encrMove == encrMovePlayerB) {... */\n    tag_102:\n        /* \"rockpaperscissors.sol\":3656:3912  if (msg.sender == playerA && encrMove == encrMovePlayerA) {... */\n    tag_98:\n        /* \"rockpaperscissors.sol\":4011:4012  0 */\n      0x00\n        /* \"rockpaperscissors.sol\":3996:4007  firstReveal */\n      sload(0x01)\n        /* \"rockpaperscissors.sol\":3996:4012  firstReveal == 0 */\n      eq\n        /* \"rockpaperscissors.sol\":3992:4056  if (firstReveal == 0) {... */\n      iszero\n      tag_103\n      jumpi\n        /* \"rockpaperscissors.sol\":4042:4045  now */\n      timestamp\n        /* \"rockpaperscissors.sol\":4028:4039  firstReveal */\n      0x01\n        /* \"rockpaperscissors.sol\":4028:4045  firstReveal = now */\n      dup2\n      swap1\n      sstore\n      pop\n        /* \"rockpaperscissors.sol\":3992:4056  if (firstReveal == 0) {... */\n    tag_103:\n        /* \"rockpaperscissors.sol\":4073:4077  move */\n      dup1\n        /* \"rockpaperscissors.sol\":4066:4077  return move */\n      swap3\n      pop\n      pop\n      pop\n        /* \"rockpaperscissors.sol\":3030:3031  _ */\n    tag_80:\n        /* \"rockpaperscissors.sol\":3180:4084  function reveal(string memory clearMove) public isRegistered commitPhaseEnded returns (Moves) {... */\n      swap2\n      swap1\n      pop\n      jump\t// out\n        /* \"rockpaperscissors.sol\":8194:8393  function revealTimeLeft() public view returns (int) {... */\n    tag_39:\n        /* \"rockpaperscissors.sol\":8241:8244  int */\n      0x00\n        /* \"rockpaperscissors.sol\":8275:8276  0 */\n      dup1\n        /* \"rockpaperscissors.sol\":8260:8271  firstReveal */\n      sload(0x01)\n        /* \"rockpaperscissors.sol\":8260:8276  firstReveal != 0 */\n      eq\n        /* \"rockpaperscissors.sol\":8256:8351  if (firstReveal != 0) {... */\n      tag_105\n      jumpi\n        /* \"rockpaperscissors.sol\":8336:8339  now */\n      timestamp\n        /* \"rockpaperscissors.sol\":168:178  10 minutes */\n      0x0258\n        /* \"rockpaperscissors.sol\":8304:8315  firstReveal */\n      sload(0x01)\n        /* \"rockpaperscissors.sol\":8304:8332  firstReveal + REVEAL_TIMEOUT */\n      add\n        /* \"rockpaperscissors.sol\":8303:8339  (firstReveal + REVEAL_TIMEOUT) - now */\n      sub\n        /* \"rockpaperscissors.sol\":8292:8340  return int((firstReveal + REVEAL_TIMEOUT) - now) */\n      swap1\n      pop\n      jump(tag_104)\n        /* \"rockpaperscissors.sol\":8256:8351  if (firstReveal != 0) {... */\n    tag_105:\n        /* \"rockpaperscissors.sol\":168:178  10 minutes */\n      0x0258\n        /* \"rockpaperscissors.sol\":8360:8386  return int(REVEAL_TIMEOUT) */\n      swap1\n      pop\n        /* \"rockpaperscissors.sol\":8194:8393  function revealTimeLeft() public view returns (int) {... */\n    tag_104:\n      swap1\n      jump\t// out\n        /* \"rockpaperscissors.sol\":7338:7440  function getContractBalance() public view returns (uint) {... */\n    tag_42:\n        /* \"rockpaperscissors.sol\":7389:7393  uint */\n      0x00\n        /* \"rockpaperscissors.sol\":7412:7433  address(this).balance */\n      selfbalance\n        /* \"rockpaperscissors.sol\":7405:7433  return address(this).balance */\n      swap1\n      pop\n        /* \"rockpaperscissors.sol\":7338:7440  function getContractBalance() public view returns (uint) {... */\n      swap1\n      jump\t// out\n        /* \"rockpaperscissors.sol\":5013:5916  function getOutcome() public revealPhaseEnded returns (Outcomes) {... */\n    tag_45:\n        /* \"rockpaperscissors.sol\":5068:5076  Outcomes */\n      0x00\n        /* \"rockpaperscissors.sol\":4795:4805  Moves.None */\n      dup1\n        /* \"rockpaperscissors.sol\":4780:4805  movePlayerA != Moves.None */\n      0x03\n      dup2\n      gt\n      iszero\n      tag_108\n      jumpi\n      invalid\n    tag_108:\n        /* \"rockpaperscissors.sol\":4780:4791  movePlayerA */\n      0x06\n      0x00\n      swap1\n      sload\n      swap1\n      0x0100\n      exp\n      swap1\n      div\n      0xff\n      and\n        /* \"rockpaperscissors.sol\":4780:4805  movePlayerA != Moves.None */\n      0x03\n      dup2\n      gt\n      iszero\n      tag_109\n      jumpi\n      invalid\n    tag_109:\n      eq\n      iszero\n        /* \"rockpaperscissors.sol\":4780:4834  movePlayerA != Moves.None && movePlayerB != Moves.None */\n      dup1\n      iszero\n      tag_110\n      jumpi\n      pop\n        /* \"rockpaperscissors.sol\":4824:4834  Moves.None */\n      0x00\n        /* \"rockpaperscissors.sol\":4809:4834  movePlayerB != Moves.None */\n      0x03\n      dup2\n      gt\n      iszero\n      tag_111\n      jumpi\n      invalid\n    tag_111:\n        /* \"rockpaperscissors.sol\":4809:4820  movePlayerB */\n      0x06\n      0x01\n      swap1\n      sload\n      swap1\n      0x0100\n      exp\n      swap1\n      div\n      0xff\n      and\n        /* \"rockpaperscissors.sol\":4809:4834  movePlayerB != Moves.None */\n      0x03\n      dup2\n      gt\n      iszero\n      tag_112\n      jumpi\n      invalid\n    tag_112:\n      eq\n      iszero\n        /* \"rockpaperscissors.sol\":4780:4834  movePlayerA != Moves.None && movePlayerB != Moves.None */\n    tag_110:\n        /* \"rockpaperscissors.sol\":4779:4911  (movePlayerA != Moves.None && movePlayerB != Moves.None) ||... */\n      dup1\n      tag_113\n      jumpi\n      pop\n        /* \"rockpaperscissors.sol\":4871:4872  0 */\n      0x00\n        /* \"rockpaperscissors.sol\":4856:4867  firstReveal */\n      sload(0x01)\n        /* \"rockpaperscissors.sol\":4856:4872  firstReveal != 0 */\n      eq\n      iszero\n        /* \"rockpaperscissors.sol\":4856:4910  firstReveal != 0 && now > firstReveal + REVEAL_TIMEOUT */\n      dup1\n      iszero\n      tag_114\n      jumpi\n      pop\n        /* \"rockpaperscissors.sol\":168:178  10 minutes */\n      0x0258\n        /* \"rockpaperscissors.sol\":4882:4893  firstReveal */\n      sload(0x01)\n        /* \"rockpaperscissors.sol\":4882:4910  firstReveal + REVEAL_TIMEOUT */\n      add\n        /* \"rockpaperscissors.sol\":4876:4879  now */\n      timestamp\n        /* \"rockpaperscissors.sol\":4876:4910  now > firstReveal + REVEAL_TIMEOUT */\n      gt\n        /* \"rockpaperscissors.sol\":4856:4910  firstReveal != 0 && now > firstReveal + REVEAL_TIMEOUT */\n    tag_114:\n        /* \"rockpaperscissors.sol\":4779:4911  (movePlayerA != Moves.None && movePlayerB != Moves.None) ||... */\n    tag_113:\n        /* \"rockpaperscissors.sol\":4771:4912  require((movePlayerA != Moves.None && movePlayerB != Moves.None) ||... */\n      tag_115\n      jumpi\n      0x00\n      dup1\n      revert\n    tag_115:\n        /* \"rockpaperscissors.sol\":5088:5104  Outcomes outcome */\n      0x00\n        /* \"rockpaperscissors.sol\":5134:5145  movePlayerB */\n      0x06\n      0x01\n      swap1\n      sload\n      swap1\n      0x0100\n      exp\n      swap1\n      div\n      0xff\n      and\n        /* \"rockpaperscissors.sol\":5119:5145  movePlayerA == movePlayerB */\n      0x03\n      dup2\n      gt\n      iszero\n      tag_117\n      jumpi\n      invalid\n    tag_117:\n        /* \"rockpaperscissors.sol\":5119:5130  movePlayerA */\n      0x06\n      0x00\n      swap1\n      sload\n      swap1\n      0x0100\n      exp\n      swap1\n      div\n      0xff\n      and\n        /* \"rockpaperscissors.sol\":5119:5145  movePlayerA == movePlayerB */\n      0x03\n      dup2\n      gt\n      iszero\n      tag_118\n      jumpi\n      invalid\n    tag_118:\n      eq\n        /* \"rockpaperscissors.sol\":5115:5636  if (movePlayerA == movePlayerB) {... */\n      iszero\n      tag_119\n      jumpi\n        /* \"rockpaperscissors.sol\":5171:5184  Outcomes.Draw */\n      0x03\n        /* \"rockpaperscissors.sol\":5161:5184  outcome = Outcomes.Draw */\n      swap1\n      pop\n        /* \"rockpaperscissors.sol\":5115:5636  if (movePlayerA == movePlayerB) {... */\n      jump(tag_120)\n    tag_119:\n        /* \"rockpaperscissors.sol\":5221:5231  Moves.Rock */\n      0x01\n        /* \"rockpaperscissors.sol\":5206:5231  movePlayerA == Moves.Rock */\n      0x03\n      dup2\n      gt\n      iszero\n      tag_121\n      jumpi\n      invalid\n    tag_121:\n        /* \"rockpaperscissors.sol\":5206:5217  movePlayerA */\n      0x06\n      0x00\n      swap1\n      sload\n      swap1\n      0x0100\n      exp\n      swap1\n      div\n      0xff\n      and\n        /* \"rockpaperscissors.sol\":5206:5231  movePlayerA == Moves.Rock */\n      0x03\n      dup2\n      gt\n      iszero\n      tag_122\n      jumpi\n      invalid\n    tag_122:\n      eq\n        /* \"rockpaperscissors.sol\":5206:5268  movePlayerA == Moves.Rock     && movePlayerB == Moves.Scissors */\n      dup1\n      iszero\n      tag_123\n      jumpi\n      pop\n        /* \"rockpaperscissors.sol\":5254:5268  Moves.Scissors */\n      0x03\n        /* \"rockpaperscissors.sol\":5239:5268  movePlayerB == Moves.Scissors */\n      dup1\n      dup2\n      gt\n      iszero\n      tag_124\n      jumpi\n      invalid\n    tag_124:\n        /* \"rockpaperscissors.sol\":5239:5250  movePlayerB */\n      0x06\n      0x01\n      swap1\n      sload\n      swap1\n      0x0100\n      exp\n      swap1\n      div\n      0xff\n      and\n        /* \"rockpaperscissors.sol\":5239:5268  movePlayerB == Moves.Scissors */\n      0x03\n      dup2\n      gt\n      iszero\n      tag_125\n      jumpi\n      invalid\n    tag_125:\n      eq\n        /* \"rockpaperscissors.sol\":5206:5268  movePlayerA == Moves.Rock     && movePlayerB == Moves.Scissors */\n    tag_123:\n        /* \"rockpaperscissors.sol\":5205:5352  (movePlayerA == Moves.Rock     && movePlayerB == Moves.Scissors) ||... */\n      dup1\n      tag_126\n      jumpi\n      pop\n        /* \"rockpaperscissors.sol\":5308:5319  Moves.Paper */\n      0x02\n        /* \"rockpaperscissors.sol\":5293:5319  movePlayerA == Moves.Paper */\n      0x03\n      dup2\n      gt\n      iszero\n      tag_127\n      jumpi\n      invalid\n    tag_127:\n        /* \"rockpaperscissors.sol\":5293:5304  movePlayerA */\n      0x06\n      0x00\n      swap1\n      sload\n      swap1\n      0x0100\n      exp\n      swap1\n      div\n      0xff\n      and\n        /* \"rockpaperscissors.sol\":5293:5319  movePlayerA == Moves.Paper */\n      0x03\n      dup2\n      gt\n      iszero\n      tag_128\n      jumpi\n      invalid\n    tag_128:\n      eq\n        /* \"rockpaperscissors.sol\":5293:5351  movePlayerA == Moves.Paper    && movePlayerB == Moves.Rock */\n      dup1\n      iszero\n      tag_129\n      jumpi\n      pop\n        /* \"rockpaperscissors.sol\":5341:5351  Moves.Rock */\n      0x01\n        /* \"rockpaperscissors.sol\":5326:5351  movePlayerB == Moves.Rock */\n      0x03\n      dup2\n      gt\n      iszero\n      tag_130\n      jumpi\n      invalid\n    tag_130:\n        /* \"rockpaperscissors.sol\":5326:5337  movePlayerB */\n      0x06\n      0x01\n      swap1\n      sload\n      swap1\n      0x0100\n      exp\n      swap1\n      div\n      0xff\n      and\n        /* \"rockpaperscissors.sol\":5326:5351  movePlayerB == Moves.Rock */\n      0x03\n      dup2\n      gt\n      iszero\n      tag_131\n      jumpi\n      invalid\n    tag_131:\n      eq\n        /* \"rockpaperscissors.sol\":5293:5351  movePlayerA == Moves.Paper    && movePlayerB == Moves.Rock */\n    tag_129:\n        /* \"rockpaperscissors.sol\":5205:5352  (movePlayerA == Moves.Rock     && movePlayerB == Moves.Scissors) ||... */\n    tag_126:\n        /* \"rockpaperscissors.sol\":5205:5440  (movePlayerA == Moves.Rock     && movePlayerB == Moves.Scissors) ||... */\n      dup1\n      tag_132\n      jumpi\n      pop\n        /* \"rockpaperscissors.sol\":5395:5409  Moves.Scissors */\n      0x03\n        /* \"rockpaperscissors.sol\":5380:5409  movePlayerA == Moves.Scissors */\n      dup1\n      dup2\n      gt\n      iszero\n      tag_133\n      jumpi\n      invalid\n    tag_133:\n        /* \"rockpaperscissors.sol\":5380:5391  movePlayerA */\n      0x06\n      0x00\n      swap1\n      sload\n      swap1\n      0x0100\n      exp\n      swap1\n      div\n      0xff\n      and\n        /* \"rockpaperscissors.sol\":5380:5409  movePlayerA == Moves.Scissors */\n      0x03\n      dup2\n      gt\n      iszero\n      tag_134\n      jumpi\n      invalid\n    tag_134:\n      eq\n        /* \"rockpaperscissors.sol\":5380:5439  movePlayerA == Moves.Scissors && movePlayerB == Moves.Paper */\n      dup1\n      iszero\n      tag_135\n      jumpi\n      pop\n        /* \"rockpaperscissors.sol\":5428:5439  Moves.Paper */\n      0x02\n        /* \"rockpaperscissors.sol\":5413:5439  movePlayerB == Moves.Paper */\n      0x03\n      dup2\n      gt\n      iszero\n      tag_136\n      jumpi\n      invalid\n    tag_136:\n        /* \"rockpaperscissors.sol\":5413:5424  movePlayerB */\n      0x06\n      0x01\n      swap1\n      sload\n      swap1\n      0x0100\n      exp\n      swap1\n      div\n      0xff\n      and\n        /* \"rockpaperscissors.sol\":5413:5439  movePlayerB == Moves.Paper */\n      0x03\n      dup2\n      gt\n      iszero\n      tag_137\n      jumpi\n      invalid\n    tag_137:\n      eq\n        /* \"rockpaperscissors.sol\":5380:5439  movePlayerA == Moves.Scissors && movePlayerB == Moves.Paper */\n    tag_135:\n        /* \"rockpaperscissors.sol\":5205:5440  (movePlayerA == Moves.Rock     && movePlayerB == Moves.Scissors) ||... */\n    tag_132:\n        /* \"rockpaperscissors.sol\":5205:5526  (movePlayerA == Moves.Rock     && movePlayerB == Moves.Scissors) ||... */\n      dup1\n      tag_138\n      jumpi\n      pop\n        /* \"rockpaperscissors.sol\":5482:5492  Moves.None */\n      0x00\n        /* \"rockpaperscissors.sol\":5467:5492  movePlayerA != Moves.None */\n      0x03\n      dup2\n      gt\n      iszero\n      tag_139\n      jumpi\n      invalid\n    tag_139:\n        /* \"rockpaperscissors.sol\":5467:5478  movePlayerA */\n      0x06\n      0x00\n      swap1\n      sload\n      swap1\n      0x0100\n      exp\n      swap1\n      div\n      0xff\n      and\n        /* \"rockpaperscissors.sol\":5467:5492  movePlayerA != Moves.None */\n      0x03\n      dup2\n      gt\n      iszero\n      tag_140\n      jumpi\n      invalid\n    tag_140:\n      eq\n      iszero\n        /* \"rockpaperscissors.sol\":5467:5525  movePlayerA != Moves.None     && movePlayerB == Moves.None */\n      dup1\n      iszero\n      tag_141\n      jumpi\n      pop\n        /* \"rockpaperscissors.sol\":5515:5525  Moves.None */\n      0x00\n        /* \"rockpaperscissors.sol\":5500:5525  movePlayerB == Moves.None */\n      0x03\n      dup2\n      gt\n      iszero\n      tag_142\n      jumpi\n      invalid\n    tag_142:\n        /* \"rockpaperscissors.sol\":5500:5511  movePlayerB */\n      0x06\n      0x01\n      swap1\n      sload\n      swap1\n      0x0100\n      exp\n      swap1\n      div\n      0xff\n      and\n        /* \"rockpaperscissors.sol\":5500:5525  movePlayerB == Moves.None */\n      0x03\n      dup2\n      gt\n      iszero\n      tag_143\n      jumpi\n      invalid\n    tag_143:\n      eq\n        /* \"rockpaperscissors.sol\":5467:5525  movePlayerA != Moves.None     && movePlayerB == Moves.None */\n    tag_141:\n        /* \"rockpaperscissors.sol\":5205:5526  (movePlayerA == Moves.Rock     && movePlayerB == Moves.Scissors) ||... */\n    tag_138:\n        /* \"rockpaperscissors.sol\":5201:5636  if ((movePlayerA == Moves.Rock     && movePlayerB == Moves.Scissors) ||... */\n      iszero\n      tag_144\n      jumpi\n        /* \"rockpaperscissors.sol\":5552:5568  Outcomes.PlayerA */\n      0x01\n        /* \"rockpaperscissors.sol\":5542:5568  outcome = Outcomes.PlayerA */\n      swap1\n      pop\n        /* \"rockpaperscissors.sol\":5201:5636  if ((movePlayerA == Moves.Rock     && movePlayerB == Moves.Scissors) ||... */\n      jump(tag_145)\n    tag_144:\n        /* \"rockpaperscissors.sol\":5609:5625  Outcomes.PlayerB */\n      0x02\n        /* \"rockpaperscissors.sol\":5599:5625  outcome = Outcomes.PlayerB */\n      swap1\n      pop\n        /* \"rockpaperscissors.sol\":5201:5636  if ((movePlayerA == Moves.Rock     && movePlayerB == Moves.Scissors) ||... */\n    tag_145:\n        /* \"rockpaperscissors.sol\":5115:5636  if (movePlayerA == movePlayerB) {... */\n    tag_120:\n        /* \"rockpaperscissors.sol\":5646:5667  address payable addrA */\n      0x00\n        /* \"rockpaperscissors.sol\":5670:5677  playerA */\n      0x02\n      0x00\n      swap1\n      sload\n      swap1\n      0x0100\n      exp\n      swap1\n      div\n      0xffffffffffffffffffffffffffffffffffffffff\n      and\n        /* \"rockpaperscissors.sol\":5646:5677  address payable addrA = playerA */\n      swap1\n      pop\n        /* \"rockpaperscissors.sol\":5687:5708  address payable addrB */\n      0x00\n        /* \"rockpaperscissors.sol\":5711:5718  playerB */\n      0x03\n      0x00\n      swap1\n      sload\n      swap1\n      0x0100\n      exp\n      swap1\n      div\n      0xffffffffffffffffffffffffffffffffffffffff\n      and\n        /* \"rockpaperscissors.sol\":5687:5718  address payable addrB = playerB */\n      swap1\n      pop\n        /* \"rockpaperscissors.sol\":5728:5743  uint betPlayerA */\n      0x00\n        /* \"rockpaperscissors.sol\":5752:5762  initialBet */\n      dup1\n      sload\n        /* \"rockpaperscissors.sol\":5728:5762  uint betPlayerA       = initialBet */\n      swap1\n      pop\n        /* \"rockpaperscissors.sol\":5772:5779  reset() */\n      tag_146\n        /* \"rockpaperscissors.sol\":5772:5777  reset */\n      tag_147\n        /* \"rockpaperscissors.sol\":5772:5779  reset() */\n      jump\t// in\n    tag_146:\n        /* \"rockpaperscissors.sol\":5846:5884  pay(addrA, addrB, betPlayerA, outcome) */\n      tag_148\n        /* \"rockpaperscissors.sol\":5850:5855  addrA */\n      dup4\n        /* \"rockpaperscissors.sol\":5857:5862  addrB */\n      dup4\n        /* \"rockpaperscissors.sol\":5864:5874  betPlayerA */\n      dup4\n        /* \"rockpaperscissors.sol\":5876:5883  outcome */\n      dup8\n        /* \"rockpaperscissors.sol\":5846:5849  pay */\n      tag_149\n        /* \"rockpaperscissors.sol\":5846:5884  pay(addrA, addrB, betPlayerA, outcome) */\n      jump\t// in\n    tag_148:\n        /* \"rockpaperscissors.sol\":5902:5909  outcome */\n      dup4\n        /* \"rockpaperscissors.sol\":5895:5909  return outcome */\n      swap5\n      pop\n      pop\n      pop\n      pop\n      pop\n        /* \"rockpaperscissors.sol\":5013:5916  function getOutcome() public revealPhaseEnded returns (Outcomes) {... */\n      swap1\n      jump\t// out\n        /* \"rockpaperscissors.sol\":7782:7905  function bothPlayed() public view returns (bool) {... */\n    tag_49:\n        /* \"rockpaperscissors.sol\":7825:7829  bool */\n      0x00\n        /* \"rockpaperscissors.sol\":7868:7871  0x0 */\n      dup1\n        /* \"rockpaperscissors.sol\":7849:7871  encrMovePlayerA != 0x0 */\n      0x00\n      shl\n        /* \"rockpaperscissors.sol\":7849:7864  encrMovePlayerA */\n      sload(0x04)\n        /* \"rockpaperscissors.sol\":7849:7871  encrMovePlayerA != 0x0 */\n      eq\n      iszero\n        /* \"rockpaperscissors.sol\":7849:7897  encrMovePlayerA != 0x0 && encrMovePlayerB != 0x0 */\n      dup1\n      iszero\n      tag_151\n      jumpi\n      pop\n        /* \"rockpaperscissors.sol\":7894:7897  0x0 */\n      0x00\n        /* \"rockpaperscissors.sol\":7875:7897  encrMovePlayerB != 0x0 */\n      dup1\n      shl\n        /* \"rockpaperscissors.sol\":7875:7890  encrMovePlayerB */\n      sload(0x05)\n        /* \"rockpaperscissors.sol\":7875:7897  encrMovePlayerB != 0x0 */\n      eq\n      iszero\n        /* \"rockpaperscissors.sol\":7849:7897  encrMovePlayerA != 0x0 && encrMovePlayerB != 0x0 */\n    tag_151:\n        /* \"rockpaperscissors.sol\":7841:7898  return (encrMovePlayerA != 0x0 && encrMovePlayerB != 0x0) */\n      swap1\n      pop\n        /* \"rockpaperscissors.sol\":7782:7905  function bothPlayed() public view returns (bool) {... */\n      swap1\n      jump\t// out\n        /* \"rockpaperscissors.sol\":2314:2675  function play(bytes32 encrMove) public isRegistered returns (bool) {... */\n    tag_53:\n        /* \"rockpaperscissors.sol\":2375:2379  bool */\n      0x00\n        /* \"rockpaperscissors.sol\":2161:2168  playerA */\n      0x02\n      0x00\n      swap1\n      sload\n      swap1\n      0x0100\n      exp\n      swap1\n      div\n      0xffffffffffffffffffffffffffffffffffffffff\n      and\n        /* \"rockpaperscissors.sol\":2147:2168  msg.sender == playerA */\n      0xffffffffffffffffffffffffffffffffffffffff\n      and\n        /* \"rockpaperscissors.sol\":2147:2157  msg.sender */\n      caller\n        /* \"rockpaperscissors.sol\":2147:2168  msg.sender == playerA */\n      0xffffffffffffffffffffffffffffffffffffffff\n      and\n      eq\n        /* \"rockpaperscissors.sol\":2147:2193  msg.sender == playerA || msg.sender == playerB */\n      dup1\n      tag_153\n      jumpi\n      pop\n        /* \"rockpaperscissors.sol\":2186:2193  playerB */\n      0x03\n      0x00\n      swap1\n      sload\n      swap1\n      0x0100\n      exp\n      swap1\n      div\n      0xffffffffffffffffffffffffffffffffffffffff\n      and\n        /* \"rockpaperscissors.sol\":2172:2193  msg.sender == playerB */\n      0xffffffffffffffffffffffffffffffffffffffff\n      and\n        /* \"rockpaperscissors.sol\":2172:2182  msg.sender */\n      caller\n        /* \"rockpaperscissors.sol\":2172:2193  msg.sender == playerB */\n      0xffffffffffffffffffffffffffffffffffffffff\n      and\n      eq\n        /* \"rockpaperscissors.sol\":2147:2193  msg.sender == playerA || msg.sender == playerB */\n    tag_153:\n        /* \"rockpaperscissors.sol\":2138:2194  require (msg.sender == playerA || msg.sender == playerB) */\n      tag_154\n      jumpi\n      0x00\n      dup1\n      revert\n    tag_154:\n        /* \"rockpaperscissors.sol\":2409:2416  playerA */\n      0x02\n      0x00\n      swap1\n      sload\n      swap1\n      0x0100\n      exp\n      swap1\n      div\n      0xffffffffffffffffffffffffffffffffffffffff\n      and\n        /* \"rockpaperscissors.sol\":2395:2416  msg.sender == playerA */\n      0xffffffffffffffffffffffffffffffffffffffff\n      and\n        /* \"rockpaperscissors.sol\":2395:2405  msg.sender */\n      caller\n        /* \"rockpaperscissors.sol\":2395:2416  msg.sender == playerA */\n      0xffffffffffffffffffffffffffffffffffffffff\n      and\n      eq\n        /* \"rockpaperscissors.sol\":2395:2442  msg.sender == playerA && encrMovePlayerA == 0x0 */\n      dup1\n      iszero\n      tag_156\n      jumpi\n      pop\n        /* \"rockpaperscissors.sol\":2439:2442  0x0 */\n      0x00\n        /* \"rockpaperscissors.sol\":2420:2442  encrMovePlayerA == 0x0 */\n      dup1\n      shl\n        /* \"rockpaperscissors.sol\":2420:2435  encrMovePlayerA */\n      sload(0x04)\n        /* \"rockpaperscissors.sol\":2420:2442  encrMovePlayerA == 0x0 */\n      eq\n        /* \"rockpaperscissors.sol\":2395:2442  msg.sender == playerA && encrMovePlayerA == 0x0 */\n    tag_156:\n        /* \"rockpaperscissors.sol\":2391:2648  if (msg.sender == playerA && encrMovePlayerA == 0x0) {... */\n      iszero\n      tag_157\n      jumpi\n        /* \"rockpaperscissors.sol\":2476:2484  encrMove */\n      dup2\n        /* \"rockpaperscissors.sol\":2458:2473  encrMovePlayerA */\n      0x04\n        /* \"rockpaperscissors.sol\":2458:2484  encrMovePlayerA = encrMove */\n      dup2\n      swap1\n      sstore\n      pop\n        /* \"rockpaperscissors.sol\":2391:2648  if (msg.sender == playerA && encrMovePlayerA == 0x0) {... */\n      jump(tag_158)\n    tag_157:\n        /* \"rockpaperscissors.sol\":2519:2526  playerB */\n      0x03\n      0x00\n      swap1\n      sload\n      swap1\n      0x0100\n      exp\n      swap1\n      div\n      0xffffffffffffffffffffffffffffffffffffffff\n      and\n        /* \"rockpaperscissors.sol\":2505:2526  msg.sender == playerB */\n      0xffffffffffffffffffffffffffffffffffffffff\n      and\n        /* \"rockpaperscissors.sol\":2505:2515  msg.sender */\n      caller\n        /* \"rockpaperscissors.sol\":2505:2526  msg.sender == playerB */\n      0xffffffffffffffffffffffffffffffffffffffff\n      and\n      eq\n        /* \"rockpaperscissors.sol\":2505:2552  msg.sender == playerB && encrMovePlayerB == 0x0 */\n      dup1\n      iszero\n      tag_159\n      jumpi\n      pop\n        /* \"rockpaperscissors.sol\":2549:2552  0x0 */\n      0x00\n        /* \"rockpaperscissors.sol\":2530:2552  encrMovePlayerB == 0x0 */\n      dup1\n      shl\n        /* \"rockpaperscissors.sol\":2530:2545  encrMovePlayerB */\n      sload(0x05)\n        /* \"rockpaperscissors.sol\":2530:2552  encrMovePlayerB == 0x0 */\n      eq\n        /* \"rockpaperscissors.sol\":2505:2552  msg.sender == playerB && encrMovePlayerB == 0x0 */\n    tag_159:\n        /* \"rockpaperscissors.sol\":2501:2648  if (msg.sender == playerB && encrMovePlayerB == 0x0) {... */\n      iszero\n      tag_160\n      jumpi\n        /* \"rockpaperscissors.sol\":2586:2594  encrMove */\n      dup2\n        /* \"rockpaperscissors.sol\":2568:2583  encrMovePlayerB */\n      0x05\n        /* \"rockpaperscissors.sol\":2568:2594  encrMovePlayerB = encrMove */\n      dup2\n      swap1\n      sstore\n      pop\n        /* \"rockpaperscissors.sol\":2501:2648  if (msg.sender == playerB && encrMovePlayerB == 0x0) {... */\n      jump(tag_161)\n    tag_160:\n        /* \"rockpaperscissors.sol\":2632:2637  false */\n      0x00\n        /* \"rockpaperscissors.sol\":2625:2637  return false */\n      swap1\n      pop\n      jump(tag_155)\n        /* \"rockpaperscissors.sol\":2501:2648  if (msg.sender == playerB && encrMovePlayerB == 0x0) {... */\n    tag_161:\n        /* \"rockpaperscissors.sol\":2391:2648  if (msg.sender == playerA && encrMovePlayerA == 0x0) {... */\n    tag_158:\n        /* \"rockpaperscissors.sol\":2664:2668  true */\n      0x01\n        /* \"rockpaperscissors.sol\":2657:2668  return true */\n      swap1\n      pop\n        /* \"rockpaperscissors.sol\":2204:2205  _ */\n    tag_155:\n        /* \"rockpaperscissors.sol\":2314:2675  function play(bytes32 encrMove) public isRegistered returns (bool) {... */\n      swap2\n      swap1\n      pop\n      jump\t// out\n        /* \"rockpaperscissors.sol\":7472:7698  function whoAmI() public view returns (uint) {... */\n    tag_56:\n        /* \"rockpaperscissors.sol\":7511:7515  uint */\n      0x00\n        /* \"rockpaperscissors.sol\":7545:7552  playerA */\n      0x02\n      0x00\n      swap1\n      sload\n      swap1\n      0x0100\n      exp\n      swap1\n      div\n      0xffffffffffffffffffffffffffffffffffffffff\n      and\n        /* \"rockpaperscissors.sol\":7531:7552  msg.sender == playerA */\n      0xffffffffffffffffffffffffffffffffffffffff\n      and\n        /* \"rockpaperscissors.sol\":7531:7541  msg.sender */\n      caller\n        /* \"rockpaperscissors.sol\":7531:7552  msg.sender == playerA */\n      0xffffffffffffffffffffffffffffffffffffffff\n      and\n      eq\n        /* \"rockpaperscissors.sol\":7527:7692  if (msg.sender == playerA) {... */\n      iszero\n      tag_163\n      jumpi\n        /* \"rockpaperscissors.sol\":7575:7576  1 */\n      0x01\n        /* \"rockpaperscissors.sol\":7568:7576  return 1 */\n      swap1\n      pop\n      jump(tag_162)\n        /* \"rockpaperscissors.sol\":7527:7692  if (msg.sender == playerA) {... */\n    tag_163:\n        /* \"rockpaperscissors.sol\":7611:7618  playerB */\n      0x03\n      0x00\n      swap1\n      sload\n      swap1\n      0x0100\n      exp\n      swap1\n      div\n      0xffffffffffffffffffffffffffffffffffffffff\n      and\n        /* \"rockpaperscissors.sol\":7597:7618  msg.sender == playerB */\n      0xffffffffffffffffffffffffffffffffffffffff\n      and\n        /* \"rockpaperscissors.sol\":7597:7607  msg.sender */\n      caller\n        /* \"rockpaperscissors.sol\":7597:7618  msg.sender == playerB */\n      0xffffffffffffffffffffffffffffffffffffffff\n      and\n      eq\n        /* \"rockpaperscissors.sol\":7593:7692  if (msg.sender == playerB) {... */\n      iszero\n      tag_165\n      jumpi\n        /* \"rockpaperscissors.sol\":7641:7642  2 */\n      0x02\n        /* \"rockpaperscissors.sol\":7634:7642  return 2 */\n      swap1\n      pop\n      jump(tag_162)\n        /* \"rockpaperscissors.sol\":7593:7692  if (msg.sender == playerB) {... */\n    tag_165:\n        /* \"rockpaperscissors.sol\":7680:7681  0 */\n      0x00\n        /* \"rockpaperscissors.sol\":7673:7681  return 0 */\n      swap1\n      pop\n        /* \"rockpaperscissors.sol\":7472:7698  function whoAmI() public view returns (uint) {... */\n    tag_162:\n      swap1\n      jump\t// out\n        /* \"rockpaperscissors.sol\":4139:4483  function getFirstChar(string memory str) private pure returns (uint) {... */\n    tag_90:\n        /* \"rockpaperscissors.sol\":4202:4206  uint */\n      0x00\n        /* \"rockpaperscissors.sol\":4218:4232  byte firstByte */\n      dup1\n        /* \"rockpaperscissors.sol\":4241:4244  str */\n      dup3\n        /* \"rockpaperscissors.sol\":4246:4247  0 */\n      0x00\n        /* \"rockpaperscissors.sol\":4235:4248  bytes(str)[0] */\n      dup2\n      mload\n      dup2\n      lt\n      tag_168\n      jumpi\n      invalid\n    tag_168:\n      0x20\n      add\n      add\n      mload\n      0xf8\n      shr\n      0xf8\n      shl\n        /* \"rockpaperscissors.sol\":4218:4248  byte firstByte = bytes(str)[0] */\n      swap1\n      pop\n        /* \"rockpaperscissors.sol\":4275:4279  0x31 */\n      0x31\n        /* \"rockpaperscissors.sol\":4262:4279  firstByte == 0x31 */\n      0xf8\n      shl\n        /* \"rockpaperscissors.sol\":4262:4271  firstByte */\n      dup2\n        /* \"rockpaperscissors.sol\":4262:4279  firstByte == 0x31 */\n      not(0xffffffffffffffffffffffffffffffffffffffffffffffffffffffffffffff)\n      and\n      eq\n        /* \"rockpaperscissors.sol\":4258:4477  if (firstByte == 0x31) {... */\n      iszero\n      tag_169\n      jumpi\n        /* \"rockpaperscissors.sol\":4302:4303  1 */\n      0x01\n        /* \"rockpaperscissors.sol\":4295:4303  return 1 */\n      swap2\n      pop\n      pop\n      jump(tag_167)\n        /* \"rockpaperscissors.sol\":4258:4477  if (firstByte == 0x31) {... */\n    tag_169:\n        /* \"rockpaperscissors.sol\":4337:4341  0x32 */\n      0x32\n        /* \"rockpaperscissors.sol\":4324:4341  firstByte == 0x32 */\n      0xf8\n      shl\n        /* \"rockpaperscissors.sol\":4324:4333  firstByte */\n      dup2\n        /* \"rockpaperscissors.sol\":4324:4341  firstByte == 0x32 */\n      not(0xffffffffffffffffffffffffffffffffffffffffffffffffffffffffffffff)\n      and\n      eq\n        /* \"rockpaperscissors.sol\":4320:4477  if (firstByte == 0x32) {... */\n      iszero\n      tag_171\n      jumpi\n        /* \"rockpaperscissors.sol\":4364:4365  2 */\n      0x02\n        /* \"rockpaperscissors.sol\":4357:4365  return 2 */\n      swap2\n      pop\n      pop\n      jump(tag_167)\n        /* \"rockpaperscissors.sol\":4320:4477  if (firstByte == 0x32) {... */\n    tag_171:\n        /* \"rockpaperscissors.sol\":4399:4403  0x33 */\n      0x33\n        /* \"rockpaperscissors.sol\":4386:4403  firstByte == 0x33 */\n      0xf8\n      shl\n        /* \"rockpaperscissors.sol\":4386:4395  firstByte */\n      dup2\n        /* \"rockpaperscissors.sol\":4386:4403  firstByte == 0x33 */\n      not(0xffffffffffffffffffffffffffffffffffffffffffffffffffffffffffffff)\n      and\n      eq\n        /* \"rockpaperscissors.sol\":4382:4477  if (firstByte == 0x33) {... */\n      iszero\n      tag_173\n      jumpi\n        /* \"rockpaperscissors.sol\":4426:4427  3 */\n      0x03\n        /* \"rockpaperscissors.sol\":4419:4427  return 3 */\n      swap2\n      pop\n      pop\n      jump(tag_167)\n        /* \"rockpaperscissors.sol\":4382:4477  if (firstByte == 0x33) {... */\n    tag_173:\n        /* \"rockpaperscissors.sol\":4465:4466  0 */\n      0x00\n        /* \"rockpaperscissors.sol\":4458:4466  return 0 */\n      swap2\n      pop\n      pop\n        /* \"rockpaperscissors.sol\":4139:4483  function getFirstChar(string memory str) private pure returns (uint) {... */\n    tag_167:\n      swap2\n      swap1\n      pop\n      jump\t// out\n        /* \"rockpaperscissors.sol\":6749:7057  function reset() private {... */\n    tag_147:\n        /* \"rockpaperscissors.sol\":6802:6803  0 */\n      0x00\n        /* \"rockpaperscissors.sol\":6784:6794  initialBet */\n      dup1\n        /* \"rockpaperscissors.sol\":6784:6803  initialBet      = 0 */\n      dup2\n      swap1\n      sstore\n      pop\n        /* \"rockpaperscissors.sol\":6831:6832  0 */\n      0x00\n        /* \"rockpaperscissors.sol\":6813:6824  firstReveal */\n      0x01\n        /* \"rockpaperscissors.sol\":6813:6832  firstReveal     = 0 */\n      dup2\n      swap1\n      sstore\n      pop\n        /* \"rockpaperscissors.sol\":6868:6871  0x0 */\n      0x00\n        /* \"rockpaperscissors.sol\":6842:6849  playerA */\n      0x02\n      0x00\n        /* \"rockpaperscissors.sol\":6842:6872  playerA         = address(0x0) */\n      0x0100\n      exp\n      dup2\n      sload\n      dup2\n      0xffffffffffffffffffffffffffffffffffffffff\n      mul\n      not\n      and\n      swap1\n      dup4\n      0xffffffffffffffffffffffffffffffffffffffff\n      and\n      mul\n      or\n      swap1\n      sstore\n      pop\n        /* \"rockpaperscissors.sol\":6908:6911  0x0 */\n      0x00\n        /* \"rockpaperscissors.sol\":6882:6889  playerB */\n      0x03\n      0x00\n        /* \"rockpaperscissors.sol\":6882:6912  playerB         = address(0x0) */\n      0x0100\n      exp\n      dup2\n      sload\n      dup2\n      0xffffffffffffffffffffffffffffffffffffffff\n      mul\n      not\n      and\n      swap1\n      dup4\n      0xffffffffffffffffffffffffffffffffffffffff\n      and\n      mul\n      or\n      swap1\n      sstore\n      pop\n        /* \"rockpaperscissors.sol\":6940:6943  0x0 */\n      0x00\n        /* \"rockpaperscissors.sol\":6922:6943  encrMovePlayerA = 0x0 */\n      dup1\n      shl\n        /* \"rockpaperscissors.sol\":6922:6937  encrMovePlayerA */\n      0x04\n        /* \"rockpaperscissors.sol\":6922:6943  encrMovePlayerA = 0x0 */\n      dup2\n      swap1\n      sstore\n      pop\n        /* \"rockpaperscissors.sol\":6971:6974  0x0 */\n      0x00\n        /* \"rockpaperscissors.sol\":6953:6974  encrMovePlayerB = 0x0 */\n      dup1\n      shl\n        /* \"rockpaperscissors.sol\":6953:6968  encrMovePlayerB */\n      0x05\n        /* \"rockpaperscissors.sol\":6953:6974  encrMovePlayerB = 0x0 */\n      dup2\n      swap1\n      sstore\n      pop\n        /* \"rockpaperscissors.sol\":7002:7012  Moves.None */\n      0x00\n        /* \"rockpaperscissors.sol\":6984:6995  movePlayerA */\n      0x06\n      0x00\n        /* \"rockpaperscissors.sol\":6984:7012  movePlayerA     = Moves.None */\n      0x0100\n      exp\n      dup2\n      sload\n      dup2\n      0xff\n      mul\n      not\n      and\n      swap1\n      dup4\n      0x03\n      dup2\n      gt\n      iszero\n      tag_176\n      jumpi\n      invalid\n    tag_176:\n      mul\n      or\n      swap1\n      sstore\n      pop\n        /* \"rockpaperscissors.sol\":7040:7050  Moves.None */\n      0x00\n        /* \"rockpaperscissors.sol\":7022:7033  movePlayerB */\n      0x06\n      0x01\n        /* \"rockpaperscissors.sol\":7022:7050  movePlayerB     = Moves.None */\n      0x0100\n      exp\n      dup2\n      sload\n      dup2\n      0xff\n      mul\n      not\n      and\n      swap1\n      dup4\n      0x03\n      dup2\n      gt\n      iszero\n      tag_177\n      jumpi\n      invalid\n    tag_177:\n      mul\n      or\n      swap1\n      sstore\n      pop\n        /* \"rockpaperscissors.sol\":6749:7057  function reset() private {... */\n      jump\t// out\n        /* \"rockpaperscissors.sol\":5948:6720  function pay(address payable addrA, address payable addrB, uint betPlayerA, Outcomes outcome) private {... */\n    tag_149:\n        /* \"rockpaperscissors.sol\":6144:6160  Outcomes.PlayerA */\n      0x01\n        /* \"rockpaperscissors.sol\":6133:6160  outcome == Outcomes.PlayerA */\n      0x03\n      dup2\n      gt\n      iszero\n      tag_179\n      jumpi\n      invalid\n    tag_179:\n        /* \"rockpaperscissors.sol\":6133:6140  outcome */\n      dup2\n        /* \"rockpaperscissors.sol\":6133:6160  outcome == Outcomes.PlayerA */\n      0x03\n      dup2\n      gt\n      iszero\n      tag_180\n      jumpi\n      invalid\n    tag_180:\n      eq\n        /* \"rockpaperscissors.sol\":6129:6714  if (outcome == Outcomes.PlayerA) {... */\n      iszero\n      tag_181\n      jumpi\n        /* \"rockpaperscissors.sol\":6176:6181  addrA */\n      dup4\n        /* \"rockpaperscissors.sol\":6176:6190  addrA.transfer */\n      0xffffffffffffffffffffffffffffffffffffffff\n      and\n        /* \"rockpaperscissors.sol\":6176:6213  addrA.transfer(address(this).balance) */\n      0x08fc\n        /* \"rockpaperscissors.sol\":6191:6212  address(this).balance */\n      selfbalance\n        /* \"rockpaperscissors.sol\":6176:6213  addrA.transfer(address(this).balance) */\n      swap1\n      dup2\n      iszero\n      mul\n      swap1\n      mload(0x40)\n      0x00\n      mload(0x40)\n      dup1\n      dup4\n      sub\n      dup2\n      dup6\n      dup9\n      dup9\n      call\n      swap4\n      pop\n      pop\n      pop\n      pop\n      iszero\n        /* \"--CODEGEN--\":8:17   */\n      dup1\n        /* \"--CODEGEN--\":5:7   */\n      iszero\n      tag_182\n      jumpi\n        /* \"--CODEGEN--\":45:61   */\n      returndatasize\n        /* \"--CODEGEN--\":42:43   */\n      0x00\n        /* \"--CODEGEN--\":39:40   */\n      dup1\n        /* \"--CODEGEN--\":24:62   */\n      returndatacopy\n        /* \"--CODEGEN--\":77:93   */\n      returndatasize\n        /* \"--CODEGEN--\":74:75   */\n      0x00\n        /* \"--CODEGEN--\":67:94   */\n      revert\n        /* \"--CODEGEN--\":5:7   */\n    tag_182:\n        /* \"rockpaperscissors.sol\":6176:6213  addrA.transfer(address(this).balance) */\n      pop\n        /* \"rockpaperscissors.sol\":6129:6714  if (outcome == Outcomes.PlayerA) {... */\n      jump(tag_183)\n    tag_181:\n        /* \"rockpaperscissors.sol\":6318:6334  Outcomes.PlayerB */\n      0x02\n        /* \"rockpaperscissors.sol\":6307:6334  outcome == Outcomes.PlayerB */\n      0x03\n      dup2\n      gt\n      iszero\n      tag_184\n      jumpi\n      invalid\n    tag_184:\n        /* \"rockpaperscissors.sol\":6307:6314  outcome */\n      dup2\n        /* \"rockpaperscissors.sol\":6307:6334  outcome == Outcomes.PlayerB */\n      0x03\n      dup2\n      gt\n      iszero\n      tag_185\n      jumpi\n      invalid\n    tag_185:\n      eq\n        /* \"rockpaperscissors.sol\":6303:6714  if (outcome == Outcomes.PlayerB) {... */\n      iszero\n      tag_186\n      jumpi\n        /* \"rockpaperscissors.sol\":6350:6355  addrB */\n      dup3\n        /* \"rockpaperscissors.sol\":6350:6364  addrB.transfer */\n      0xffffffffffffffffffffffffffffffffffffffff\n      and\n        /* \"rockpaperscissors.sol\":6350:6387  addrB.transfer(address(this).balance) */\n      0x08fc\n        /* \"rockpaperscissors.sol\":6365:6386  address(this).balance */\n      selfbalance\n        /* \"rockpaperscissors.sol\":6350:6387  addrB.transfer(address(this).balance) */\n      swap1\n      dup2\n      iszero\n      mul\n      swap1\n      mload(0x40)\n      0x00\n      mload(0x40)\n      dup1\n      dup4\n      sub\n      dup2\n      dup6\n      dup9\n      dup9\n      call\n      swap4\n      pop\n      pop\n      pop\n      pop\n      iszero\n        /* \"--CODEGEN--\":8:17   */\n      dup1\n        /* \"--CODEGEN--\":5:7   */\n      iszero\n      tag_187\n      jumpi\n        /* \"--CODEGEN--\":45:61   */\n      returndatasize\n        /* \"--CODEGEN--\":42:43   */\n      0x00\n        /* \"--CODEGEN--\":39:40   */\n      dup1\n        /* \"--CODEGEN--\":24:62   */\n      returndatacopy\n        /* \"--CODEGEN--\":77:93   */\n      returndatasize\n        /* \"--CODEGEN--\":74:75   */\n      0x00\n        /* \"--CODEGEN--\":67:94   */\n      revert\n        /* \"--CODEGEN--\":5:7   */\n    tag_187:\n        /* \"rockpaperscissors.sol\":6350:6387  addrB.transfer(address(this).balance) */\n      pop\n        /* \"rockpaperscissors.sol\":6303:6714  if (outcome == Outcomes.PlayerB) {... */\n      jump(tag_188)\n    tag_186:\n        /* \"rockpaperscissors.sol\":6491:6496  addrA */\n      dup4\n        /* \"rockpaperscissors.sol\":6491:6505  addrA.transfer */\n      0xffffffffffffffffffffffffffffffffffffffff\n      and\n        /* \"rockpaperscissors.sol\":6491:6517  addrA.transfer(betPlayerA) */\n      0x08fc\n        /* \"rockpaperscissors.sol\":6506:6516  betPlayerA */\n      dup4\n        /* \"rockpaperscissors.sol\":6491:6517  addrA.transfer(betPlayerA) */\n      swap1\n      dup2\n      iszero\n      mul\n      swap1\n      mload(0x40)\n      0x00\n      mload(0x40)\n      dup1\n      dup4\n      sub\n      dup2\n      dup6\n      dup9\n      dup9\n      call\n      swap4\n      pop\n      pop\n      pop\n      pop\n      iszero\n        /* \"--CODEGEN--\":8:17   */\n      dup1\n        /* \"--CODEGEN--\":5:7   */\n      iszero\n      tag_189\n      jumpi\n        /* \"--CODEGEN--\":45:61   */\n      returndatasize\n        /* \"--CODEGEN--\":42:43   */\n      0x00\n        /* \"--CODEGEN--\":39:40   */\n      dup1\n        /* \"--CODEGEN--\":24:62   */\n      returndatacopy\n        /* \"--CODEGEN--\":77:93   */\n      returndatasize\n        /* \"--CODEGEN--\":74:75   */\n      0x00\n        /* \"--CODEGEN--\":67:94   */\n      revert\n        /* \"--CODEGEN--\":5:7   */\n    tag_189:\n        /* \"rockpaperscissors.sol\":6491:6517  addrA.transfer(betPlayerA) */\n      pop\n        /* \"rockpaperscissors.sol\":6531:6536  addrB */\n      dup3\n        /* \"rockpaperscissors.sol\":6531:6545  addrB.transfer */\n      0xffffffffffffffffffffffffffffffffffffffff\n      and\n        /* \"rockpaperscissors.sol\":6531:6568  addrB.transfer(address(this).balance) */\n      0x08fc\n        /* \"rockpaperscissors.sol\":6546:6567  address(this).balance */\n      selfbalance\n        /* \"rockpaperscissors.sol\":6531:6568  addrB.transfer(address(this).balance) */\n      swap1\n      dup2\n      iszero\n      mul\n      swap1\n      mload(0x40)\n      0x00\n      mload(0x40)\n      dup1\n      dup4\n      sub\n      dup2\n      dup6\n      dup9\n      dup9\n      call\n      swap4\n      pop\n      pop\n      pop\n      pop\n      iszero\n        /* \"--CODEGEN--\":8:17   */\n      dup1\n        /* \"--CODEGEN--\":5:7   */\n      iszero\n      tag_190\n      jumpi\n        /* \"--CODEGEN--\":45:61   */\n      returndatasize\n        /* \"--CODEGEN--\":42:43   */\n      0x00\n        /* \"--CODEGEN--\":39:40   */\n      dup1\n        /* \"--CODEGEN--\":24:62   */\n      returndatacopy\n        /* \"--CODEGEN--\":77:93   */\n      returndatasize\n        /* \"--CODEGEN--\":74:75   */\n      0x00\n        /* \"--CODEGEN--\":67:94   */\n      revert\n        /* \"--CODEGEN--\":5:7   */\n    tag_190:\n        /* \"rockpaperscissors.sol\":6531:6568  addrB.transfer(address(this).balance) */\n      pop\n        /* \"rockpaperscissors.sol\":6303:6714  if (outcome == Outcomes.PlayerB) {... */\n    tag_188:\n        /* \"rockpaperscissors.sol\":6129:6714  if (outcome == Outcomes.PlayerA) {... */\n    tag_183:\n        /* \"rockpaperscissors.sol\":5948:6720  function pay(address payable addrA, address payable addrB, uint betPlayerA, Outcomes outcome) private {... */\n      pop\n      pop\n      pop\n      pop\n      jump\t// out\n\n    auxdata: 0xa265627a7a723158201a68f8dbcee516ab099ea1f8e91597563872c242735c8c5454b6abda95af9d6d64736f6c63430005110032\n}\n",
				"bytecode": {
					"linkReferences": {},
					"object": "608060405234801561001057600080fd5b5061129a806100206000396000f3fe6080604052600436106100a75760003560e01c806351dcb1c31161006457806351dcb1c3146102645780636f9fb98a1461028f5780637e7e4b47146102ba578063807c8504146102f3578063c7a1865b14610322578063da91254c14610375576100a7565b80631aa3a008146100ac5780631d73c64c146100ca5780632626ab08146100f55780633d6ae3a71461012057806343445ca81461014b5780634c2612471461017a575b600080fd5b6100b46103a0565b6040518082815260200191505060405180910390f35b3480156100d657600080fd5b506100df6105d1565b6040518082815260200191505060405180910390f35b34801561010157600080fd5b5061010a6105d7565b6040518082815260200191505060405180910390f35b34801561012c57600080fd5b506101356105dc565b6040518082815260200191505060405180910390f35b34801561015757600080fd5b506101606105e2565b604051808215151515815260200191505060405180910390f35b34801561018657600080fd5b506102406004803603602081101561019d57600080fd5b81019080803590602001906401000000008111156101ba57600080fd5b8201836020820111156101cc57600080fd5b803590602001918460018302840111640100000000831117156101ee57600080fd5b91908080601f016020809104026020016040519081016040528093929190818152602001838380828437600081840152601f19601f820116905080830192505050505050509192919290505050610644565b6040518082600381111561025057fe5b60ff16815260200191505060405180910390f35b34801561027057600080fd5b506102796109a9565b6040518082815260200191505060405180910390f35b34801561029b57600080fd5b506102a46109cd565b6040518082815260200191505060405180910390f35b3480156102c657600080fd5b506102cf6109d5565b604051808260038111156102df57fe5b60ff16815260200191505060405180910390f35b3480156102ff57600080fd5b50610308610ca3565b604051808215151515815260200191505060405180910390f35b34801561032e57600080fd5b5061035b6004803603602081101561034557600080fd5b8101908080359060200190929190505050610cc4565b604051808215151515815260200191505060405180910390f35b34801561038157600080fd5b5061038a610e70565b6040518082815260200191505060405180910390f35b600060013410156103b057600080fd5b6000805414806103c257506000543410155b6103cb57600080fd5b600260009054906101000a900473ffffffffffffffffffffffffffffffffffffffff1673ffffffffffffffffffffffffffffffffffffffff163373ffffffffffffffffffffffffffffffffffffffff16141580156104775750600360009054906101000a900473ffffffffffffffffffffffffffffffffffffffff1673ffffffffffffffffffffffffffffffffffffffff163373ffffffffffffffffffffffffffffffffffffffff1614155b61048057600080fd5b600073ffffffffffffffffffffffffffffffffffffffff16600260009054906101000a900473ffffffffffffffffffffffffffffffffffffffff1673ffffffffffffffffffffffffffffffffffffffff1614156105285733600260006101000a81548173ffffffffffffffffffffffffffffffffffffffff021916908373ffffffffffffffffffffffffffffffffffffffff16021790555034600081905550600190506105ce565b600073ffffffffffffffffffffffffffffffffffffffff16600360009054906101000a900473ffffffffffffffffffffffffffffffffffffffff1673ffffffffffffffffffffffffffffffffffffffff1614156105c95733600360006101000a81548173ffffffffffffffffffffffffffffffffffffffff021916908373ffffffffffffffffffffffffffffffffffffffff160217905550600290506105ce565b600090505b90565b60005481565b600181565b61025881565b60008060038111156105f057fe5b600660009054906101000a900460ff16600381111561060b57fe5b1415801561063f57506000600381111561062157fe5b600660019054906101000a900460ff16600381111561063c57fe5b14155b905090565b6000600260009054906101000a900473ffffffffffffffffffffffffffffffffffffffff1673ffffffffffffffffffffffffffffffffffffffff163373ffffffffffffffffffffffffffffffffffffffff1614806106ef5750600360009054906101000a900473ffffffffffffffffffffffffffffffffffffffff1673ffffffffffffffffffffffffffffffffffffffff163373ffffffffffffffffffffffffffffffffffffffff16145b6106f857600080fd5b6000801b6004541415801561071257506000801b60055414155b61071b57600080fd5b60006002836040516020018082805190602001908083835b602083106107565780518252602082019150602081019050602083039250610733565b6001836020036101000a0380198251168184511680821785525050505050509050019150506040516020818303038152906040526040518082805190602001908083835b602083106107bd578051825260208201915060208101905060208303925061079a565b6001836020036101000a038019825116818451168082178552505050505050905001915050602060405180830381855afa1580156107ff573d6000803e3d6000fd5b5050506040513d602081101561081457600080fd5b81019080805190602001909291905050509050600061083284610f38565b600381111561083d57fe5b90506000600381111561084c57fe5b81600381111561085857fe5b1415610869576000925050506109a4565b600260009054906101000a900473ffffffffffffffffffffffffffffffffffffffff1673ffffffffffffffffffffffffffffffffffffffff163373ffffffffffffffffffffffffffffffffffffffff161480156108c7575060045482145b156108f45780600660006101000a81548160ff021916908360038111156108ea57fe5b021790555061098b565b600360009054906101000a900473ffffffffffffffffffffffffffffffffffffffff1673ffffffffffffffffffffffffffffffffffffffff163373ffffffffffffffffffffffffffffffffffffffff16148015610952575060055482145b1561097f5780600660016101000a81548160ff0219169083600381111561097557fe5b021790555061098a565b6000925050506109a4565b5b6000600154141561099e57426001819055505b80925050505b919050565b600080600154146109c45742610258600154010390506109ca565b61025890505b90565b600047905090565b60008060038111156109e357fe5b600660009054906101000a900460ff1660038111156109fe57fe5b14158015610a32575060006003811115610a1457fe5b600660019054906101000a900460ff166003811115610a2f57fe5b14155b80610a515750600060015414158015610a5057506102586001540142115b5b610a5a57600080fd5b6000600660019054906101000a900460ff166003811115610a7757fe5b600660009054906101000a900460ff166003811115610a9257fe5b1415610aa15760039050610c31565b60016003811115610aae57fe5b600660009054906101000a900460ff166003811115610ac957fe5b148015610afa5750600380811115610add57fe5b600660019054906101000a900460ff166003811115610af857fe5b145b80610b5b575060026003811115610b0d57fe5b600660009054906101000a900460ff166003811115610b2857fe5b148015610b5a575060016003811115610b3d57fe5b600660019054906101000a900460ff166003811115610b5857fe5b145b5b80610bbb5750600380811115610b6d57fe5b600660009054906101000a900460ff166003811115610b8857fe5b148015610bba575060026003811115610b9d57fe5b600660019054906101000a900460ff166003811115610bb857fe5b145b5b80610c1d575060006003811115610bce57fe5b600660009054906101000a900460ff166003811115610be957fe5b14158015610c1c575060006003811115610bff57fe5b600660019054906101000a900460ff166003811115610c1a57fe5b145b5b15610c2b5760019050610c30565b600290505b5b6000600260009054906101000a900473ffffffffffffffffffffffffffffffffffffffff1690506000600360009054906101000a900473ffffffffffffffffffffffffffffffffffffffff169050600080549050610c8d611008565b610c99838383876110f9565b8394505050505090565b60008060001b60045414158015610cbf57506000801b60055414155b905090565b6000600260009054906101000a900473ffffffffffffffffffffffffffffffffffffffff1673ffffffffffffffffffffffffffffffffffffffff163373ffffffffffffffffffffffffffffffffffffffff161480610d6f5750600360009054906101000a900473ffffffffffffffffffffffffffffffffffffffff1673ffffffffffffffffffffffffffffffffffffffff163373ffffffffffffffffffffffffffffffffffffffff16145b610d7857600080fd5b600260009054906101000a900473ffffffffffffffffffffffffffffffffffffffff1673ffffffffffffffffffffffffffffffffffffffff163373ffffffffffffffffffffffffffffffffffffffff16148015610dd957506000801b600454145b15610dea5781600481905550610e66565b600360009054906101000a900473ffffffffffffffffffffffffffffffffffffffff1673ffffffffffffffffffffffffffffffffffffffff163373ffffffffffffffffffffffffffffffffffffffff16148015610e4b57506000801b600554145b15610e5c5781600581905550610e65565b60009050610e6b565b5b600190505b919050565b6000600260009054906101000a900473ffffffffffffffffffffffffffffffffffffffff1673ffffffffffffffffffffffffffffffffffffffff163373ffffffffffffffffffffffffffffffffffffffff161415610ed15760019050610f35565b600360009054906101000a900473ffffffffffffffffffffffffffffffffffffffff1673ffffffffffffffffffffffffffffffffffffffff163373ffffffffffffffffffffffffffffffffffffffff161415610f305760029050610f35565b600090505b90565b60008082600081518110610f4857fe5b602001015160f81c60f81b9050603160f81b817effffffffffffffffffffffffffffffffffffffffffffffffffffffffffffff19161415610f8d576001915050611003565b603260f81b817effffffffffffffffffffffffffffffffffffffffffffffffffffffffffffff19161415610fc5576002915050611003565b603360f81b817effffffffffffffffffffffffffffffffffffffffffffffffffffffffffffff19161415610ffd576003915050611003565b60009150505b919050565b6000808190555060006001819055506000600260006101000a81548173ffffffffffffffffffffffffffffffffffffffff021916908373ffffffffffffffffffffffffffffffffffffffff1602179055506000600360006101000a81548173ffffffffffffffffffffffffffffffffffffffff021916908373ffffffffffffffffffffffffffffffffffffffff1602179055506000801b6004819055506000801b6005819055506000600660006101000a81548160ff021916908360038111156110ce57fe5b02179055506000600660016101000a81548160ff021916908360038111156110f257fe5b0217905550565b6001600381111561110657fe5b81600381111561111257fe5b1415611164578373ffffffffffffffffffffffffffffffffffffffff166108fc479081150290604051600060405180830381858888f1935050505015801561115e573d6000803e3d6000fd5b5061125f565b6002600381111561117157fe5b81600381111561117d57fe5b14156111cf578273ffffffffffffffffffffffffffffffffffffffff166108fc479081150290604051600060405180830381858888f193505050501580156111c9573d6000803e3d6000fd5b5061125e565b8373ffffffffffffffffffffffffffffffffffffffff166108fc839081150290604051600060405180830381858888f19350505050158015611215573d6000803e3d6000fd5b508273ffffffffffffffffffffffffffffffffffffffff166108fc479081150290604051600060405180830381858888f1935050505015801561125c573d6000803e3d6000fd5b505b5b5050505056fea265627a7a723158201a68f8dbcee516ab099ea1f8e91597563872c242735c8c5454b6abda95af9d6d64736f6c63430005110032",
					"opcodes": "PUSH1 0x80 PUSH1 0x40 MSTORE CALLVALUE DUP1 ISZERO PUSH2 0x10 JUMPI PUSH1 0x0 DUP1 REVERT JUMPDEST POP PUSH2 0x129A DUP1 PUSH2 0x20 PUSH1 0x0 CODECOPY PUSH1 0x0 RETURN INVALID PUSH1 0x80 PUSH1 0x40 MSTORE PUSH1 0x4 CALLDATASIZE LT PUSH2 0xA7 JUMPI PUSH1 0x0 CALLDATALOAD PUSH1 0xE0 SHR DUP1 PUSH4 0x51DCB1C3 GT PUSH2 0x64 JUMPI DUP1 PUSH4 0x51DCB1C3 EQ PUSH2 0x264 JUMPI DUP1 PUSH4 0x6F9FB98A EQ PUSH2 0x28F JUMPI DUP1 PUSH4 0x7E7E4B47 EQ PUSH2 0x2BA JUMPI DUP1 PUSH4 0x807C8504 EQ PUSH2 0x2F3 JUMPI DUP1 PUSH4 0xC7A1865B EQ PUSH2 0x322 JUMPI DUP1 PUSH4 0xDA91254C EQ PUSH2 0x375 JUMPI PUSH2 0xA7 JUMP JUMPDEST DUP1 PUSH4 0x1AA3A008 EQ PUSH2 0xAC JUMPI DUP1 PUSH4 0x1D73C64C EQ PUSH2 0xCA JUMPI DUP1 PUSH4 0x2626AB08 EQ PUSH2 0xF5 JUMPI DUP1 PUSH4 0x3D6AE3A7 EQ PUSH2 0x120 JUMPI DUP1 PUSH4 0x43445CA8 EQ PUSH2 0x14B JUMPI DUP1 PUSH4 0x4C261247 EQ PUSH2 0x17A JUMPI JUMPDEST PUSH1 0x0 DUP1 REVERT JUMPDEST PUSH2 0xB4 PUSH2 0x3A0 JUMP JUMPDEST PUSH1 0x40 MLOAD DUP1 DUP3 DUP2 MSTORE PUSH1 0x20 ADD SWAP2 POP POP PUSH1 0x40 MLOAD DUP1 SWAP2 SUB SWAP1 RETURN JUMPDEST CALLVALUE DUP1 ISZERO PUSH2 0xD6 JUMPI PUSH1 0x0 DUP1 REVERT JUMPDEST POP PUSH2 0xDF PUSH2 0x5D1 JUMP JUMPDEST PUSH1 0x40 MLOAD DUP1 DUP3 DUP2 MSTORE PUSH1 0x20 ADD SWAP2 POP POP PUSH1 0x40 MLOAD DUP1 SWAP2 SUB SWAP1 RETURN JUMPDEST CALLVALUE DUP1 ISZERO PUSH2 0x101 JUMPI PUSH1 0x0 DUP1 REVERT JUMPDEST POP PUSH2 0x10A PUSH2 0x5D7 JUMP JUMPDEST PUSH1 0x40 MLOAD DUP1 DUP3 DUP2 MSTORE PUSH1 0x20 ADD SWAP2 POP POP PUSH1 0x40 MLOAD DUP1 SWAP2 SUB SWAP1 RETURN JUMPDEST CALLVALUE DUP1 ISZERO PUSH2 0x12C JUMPI PUSH1 0x0 DUP1 REVERT JUMPDEST POP PUSH2 0x135 PUSH2 0x5DC JUMP JUMPDEST PUSH1 0x40 MLOAD DUP1 DUP3 DUP2 MSTORE PUSH1 0x20 ADD SWAP2 POP POP PUSH1 0x40 MLOAD DUP1 SWAP2 SUB SWAP1 RETURN JUMPDEST CALLVALUE DUP1 ISZERO PUSH2 0x157 JUMPI PUSH1 0x0 DUP1 REVERT JUMPDEST POP PUSH2 0x160 PUSH2 0x5E2 JUMP JUMPDEST PUSH1 0x40 MLOAD DUP1 DUP3 ISZERO ISZERO ISZERO ISZERO DUP2 MSTORE PUSH1 0x20 ADD SWAP2 POP POP PUSH1 0x40 MLOAD DUP1 SWAP2 SUB SWAP1 RETURN JUMPDEST CALLVALUE DUP1 ISZERO PUSH2 0x186 JUMPI PUSH1 0x0 DUP1 REVERT JUMPDEST POP PUSH2 0x240 PUSH1 0x4 DUP1 CALLDATASIZE SUB PUSH1 0x20 DUP2 LT ISZERO PUSH2 0x19D JUMPI PUSH1 0x0 DUP1 REVERT JUMPDEST DUP2 ADD SWAP1 DUP1 DUP1 CALLDATALOAD SWAP1 PUSH1 0x20 ADD SWAP1 PUSH5 0x100000000 DUP2 GT ISZERO PUSH2 0x1BA JUMPI PUSH1 0x0 DUP1 REVERT JUMPDEST DUP3 ADD DUP4 PUSH1 0x20 DUP3 ADD GT ISZERO PUSH2 0x1CC JUMPI PUSH1 0x0 DUP1 REVERT JUMPDEST DUP1 CALLDATALOAD SWAP1 PUSH1 0x20 ADD SWAP2 DUP5 PUSH1 0x1 DUP4 MUL DUP5 ADD GT PUSH5 0x100000000 DUP4 GT OR ISZERO PUSH2 0x1EE JUMPI PUSH1 0x0 DUP1 REVERT JUMPDEST SWAP2 SWAP1 DUP1 DUP1 PUSH1 0x1F ADD PUSH1 0x20 DUP1 SWAP2 DIV MUL PUSH1 0x20 ADD PUSH1 0x40 MLOAD SWAP1 DUP2 ADD PUSH1 0x40 MSTORE DUP1 SWAP4 SWAP3 SWAP2 SWAP1 DUP2 DUP2 MSTORE PUSH1 0x20 ADD DUP4 DUP4 DUP1 DUP3 DUP5 CALLDATACOPY PUSH1 0x0 DUP2 DUP5 ADD MSTORE PUSH1 0x1F NOT PUSH1 0x1F DUP3 ADD AND SWAP1 POP DUP1 DUP4 ADD SWAP3 POP POP POP POP POP POP POP SWAP2 SWAP3 SWAP2 SWAP3 SWAP1 POP POP POP PUSH2 0x644 JUMP JUMPDEST PUSH1 0x40 MLOAD DUP1 DUP3 PUSH1 0x3 DUP2 GT ISZERO PUSH2 0x250 JUMPI INVALID JUMPDEST PUSH1 0xFF AND DUP2 MSTORE PUSH1 0x20 ADD SWAP2 POP POP PUSH1 0x40 MLOAD DUP1 SWAP2 SUB SWAP1 RETURN JUMPDEST CALLVALUE DUP1 ISZERO PUSH2 0x270 JUMPI PUSH1 0x0 DUP1 REVERT JUMPDEST POP PUSH2 0x279 PUSH2 0x9A9 JUMP JUMPDEST PUSH1 0x40 MLOAD DUP1 DUP3 DUP2 MSTORE PUSH1 0x20 ADD SWAP2 POP POP PUSH1 0x40 MLOAD DUP1 SWAP2 SUB SWAP1 RETURN JUMPDEST CALLVALUE DUP1 ISZERO PUSH2 0x29B JUMPI PUSH1 0x0 DUP1 REVERT JUMPDEST POP PUSH2 0x2A4 PUSH2 0x9CD JUMP JUMPDEST PUSH1 0x40 MLOAD DUP1 DUP3 DUP2 MSTORE PUSH1 0x20 ADD SWAP2 POP POP PUSH1 0x40 MLOAD DUP1 SWAP2 SUB SWAP1 RETURN JUMPDEST CALLVALUE DUP1 ISZERO PUSH2 0x2C6 JUMPI PUSH1 0x0 DUP1 REVERT JUMPDEST POP PUSH2 0x2CF PUSH2 0x9D5 JUMP JUMPDEST PUSH1 0x40 MLOAD DUP1 DUP3 PUSH1 0x3 DUP2 GT ISZERO PUSH2 0x2DF JUMPI INVALID JUMPDEST PUSH1 0xFF AND DUP2 MSTORE PUSH1 0x20 ADD SWAP2 POP POP PUSH1 0x40 MLOAD DUP1 SWAP2 SUB SWAP1 RETURN JUMPDEST CALLVALUE DUP1 ISZERO PUSH2 0x2FF JUMPI PUSH1 0x0 DUP1 REVERT JUMPDEST POP PUSH2 0x308 PUSH2 0xCA3 JUMP JUMPDEST PUSH1 0x40 MLOAD DUP1 DUP3 ISZERO ISZERO ISZERO ISZERO DUP2 MSTORE PUSH1 0x20 ADD SWAP2 POP POP PUSH1 0x40 MLOAD DUP1 SWAP2 SUB SWAP1 RETURN JUMPDEST CALLVALUE DUP1 ISZERO PUSH2 0x32E JUMPI PUSH1 0x0 DUP1 REVERT JUMPDEST POP PUSH2 0x35B PUSH1 0x4 DUP1 CALLDATASIZE SUB PUSH1 0x20 DUP2 LT ISZERO PUSH2 0x345 JUMPI PUSH1 0x0 DUP1 REVERT JUMPDEST DUP2 ADD SWAP1 DUP1 DUP1 CALLDATALOAD SWAP1 PUSH1 0x20 ADD SWAP1 SWAP3 SWAP2 SWAP1 POP POP POP PUSH2 0xCC4 JUMP JUMPDEST PUSH1 0x40 MLOAD DUP1 DUP3 ISZERO ISZERO ISZERO ISZERO DUP2 MSTORE PUSH1 0x20 ADD SWAP2 POP POP PUSH1 0x40 MLOAD DUP1 SWAP2 SUB SWAP1 RETURN JUMPDEST CALLVALUE DUP1 ISZERO PUSH2 0x381 JUMPI PUSH1 0x0 DUP1 REVERT JUMPDEST POP PUSH2 0x38A PUSH2 0xE70 JUMP JUMPDEST PUSH1 0x40 MLOAD DUP1 DUP3 DUP2 MSTORE PUSH1 0x20 ADD SWAP2 POP POP PUSH1 0x40 MLOAD DUP1 SWAP2 SUB SWAP1 RETURN JUMPDEST PUSH1 0x0 PUSH1 0x1 CALLVALUE LT ISZERO PUSH2 0x3B0 JUMPI PUSH1 0x0 DUP1 REVERT JUMPDEST PUSH1 0x0 DUP1 SLOAD EQ DUP1 PUSH2 0x3C2 JUMPI POP PUSH1 0x0 SLOAD CALLVALUE LT ISZERO JUMPDEST PUSH2 0x3CB JUMPI PUSH1 0x0 DUP1 REVERT JUMPDEST PUSH1 0x2 PUSH1 0x0 SWAP1 SLOAD SWAP1 PUSH2 0x100 EXP SWAP1 DIV PUSH20 0xFFFFFFFFFFFFFFFFFFFFFFFFFFFFFFFFFFFFFFFF AND PUSH20 0xFFFFFFFFFFFFFFFFFFFFFFFFFFFFFFFFFFFFFFFF AND CALLER PUSH20 0xFFFFFFFFFFFFFFFFFFFFFFFFFFFFFFFFFFFFFFFF AND EQ ISZERO DUP1 ISZERO PUSH2 0x477 JUMPI POP PUSH1 0x3 PUSH1 0x0 SWAP1 SLOAD SWAP1 PUSH2 0x100 EXP SWAP1 DIV PUSH20 0xFFFFFFFFFFFFFFFFFFFFFFFFFFFFFFFFFFFFFFFF AND PUSH20 0xFFFFFFFFFFFFFFFFFFFFFFFFFFFFFFFFFFFFFFFF AND CALLER PUSH20 0xFFFFFFFFFFFFFFFFFFFFFFFFFFFFFFFFFFFFFFFF AND EQ ISZERO JUMPDEST PUSH2 0x480 JUMPI PUSH1 0x0 DUP1 REVERT JUMPDEST PUSH1 0x0 PUSH20 0xFFFFFFFFFFFFFFFFFFFFFFFFFFFFFFFFFFFFFFFF AND PUSH1 0x2 PUSH1 0x0 SWAP1 SLOAD SWAP1 PUSH2 0x100 EXP SWAP1 DIV PUSH20 0xFFFFFFFFFFFFFFFFFFFFFFFFFFFFFFFFFFFFFFFF AND PUSH20 0xFFFFFFFFFFFFFFFFFFFFFFFFFFFFFFFFFFFFFFFF AND EQ ISZERO PUSH2 0x528 JUMPI CALLER PUSH1 0x2 PUSH1 0x0 PUSH2 0x100 EXP DUP2 SLOAD DUP2 PUSH20 0xFFFFFFFFFFFFFFFFFFFFFFFFFFFFFFFFFFFFFFFF MUL NOT AND SWAP1 DUP4 PUSH20 0xFFFFFFFFFFFFFFFFFFFFFFFFFFFFFFFFFFFFFFFF AND MUL OR SWAP1 SSTORE POP CALLVALUE PUSH1 0x0 DUP2 SWAP1 SSTORE POP PUSH1 0x1 SWAP1 POP PUSH2 0x5CE JUMP JUMPDEST PUSH1 0x0 PUSH20 0xFFFFFFFFFFFFFFFFFFFFFFFFFFFFFFFFFFFFFFFF AND PUSH1 0x3 PUSH1 0x0 SWAP1 SLOAD SWAP1 PUSH2 0x100 EXP SWAP1 DIV PUSH20 0xFFFFFFFFFFFFFFFFFFFFFFFFFFFFFFFFFFFFFFFF AND PUSH20 0xFFFFFFFFFFFFFFFFFFFFFFFFFFFFFFFFFFFFFFFF AND EQ ISZERO PUSH2 0x5C9 JUMPI CALLER PUSH1 0x3 PUSH1 0x0 PUSH2 0x100 EXP DUP2 SLOAD DUP2 PUSH20 0xFFFFFFFFFFFFFFFFFFFFFFFFFFFFFFFFFFFFFFFF MUL NOT AND SWAP1 DUP4 PUSH20 0xFFFFFFFFFFFFFFFFFFFFFFFFFFFFFFFFFFFFFFFF AND MUL OR SWAP1 SSTORE POP PUSH1 0x2 SWAP1 POP PUSH2 0x5CE JUMP JUMPDEST PUSH1 0x0 SWAP1 POP JUMPDEST SWAP1 JUMP JUMPDEST PUSH1 0x0 SLOAD DUP2 JUMP JUMPDEST PUSH1 0x1 DUP2 JUMP JUMPDEST PUSH2 0x258 DUP2 JUMP JUMPDEST PUSH1 0x0 DUP1 PUSH1 0x3 DUP2 GT ISZERO PUSH2 0x5F0 JUMPI INVALID JUMPDEST PUSH1 0x6 PUSH1 0x0 SWAP1 SLOAD SWAP1 PUSH2 0x100 EXP SWAP1 DIV PUSH1 0xFF AND PUSH1 0x3 DUP2 GT ISZERO PUSH2 0x60B JUMPI INVALID JUMPDEST EQ ISZERO DUP1 ISZERO PUSH2 0x63F JUMPI POP PUSH1 0x0 PUSH1 0x3 DUP2 GT ISZERO PUSH2 0x621 JUMPI INVALID JUMPDEST PUSH1 0x6 PUSH1 0x1 SWAP1 SLOAD SWAP1 PUSH2 0x100 EXP SWAP1 DIV PUSH1 0xFF AND PUSH1 0x3 DUP2 GT ISZERO PUSH2 0x63C JUMPI INVALID JUMPDEST EQ ISZERO JUMPDEST SWAP1 POP SWAP1 JUMP JUMPDEST PUSH1 0x0 PUSH1 0x2 PUSH1 0x0 SWAP1 SLOAD SWAP1 PUSH2 0x100 EXP SWAP1 DIV PUSH20 0xFFFFFFFFFFFFFFFFFFFFFFFFFFFFFFFFFFFFFFFF AND PUSH20 0xFFFFFFFFFFFFFFFFFFFFFFFFFFFFFFFFFFFFFFFF AND CALLER PUSH20 0xFFFFFFFFFFFFFFFFFFFFFFFFFFFFFFFFFFFFFFFF AND EQ DUP1 PUSH2 0x6EF JUMPI POP PUSH1 0x3 PUSH1 0x0 SWAP1 SLOAD SWAP1 PUSH2 0x100 EXP SWAP1 DIV PUSH20 0xFFFFFFFFFFFFFFFFFFFFFFFFFFFFFFFFFFFFFFFF AND PUSH20 0xFFFFFFFFFFFFFFFFFFFFFFFFFFFFFFFFFFFFFFFF AND CALLER PUSH20 0xFFFFFFFFFFFFFFFFFFFFFFFFFFFFFFFFFFFFFFFF AND EQ JUMPDEST PUSH2 0x6F8 JUMPI PUSH1 0x0 DUP1 REVERT JUMPDEST PUSH1 0x0 DUP1 SHL PUSH1 0x4 SLOAD EQ ISZERO DUP1 ISZERO PUSH2 0x712 JUMPI POP PUSH1 0x0 DUP1 SHL PUSH1 0x5 SLOAD EQ ISZERO JUMPDEST PUSH2 0x71B JUMPI PUSH1 0x0 DUP1 REVERT JUMPDEST PUSH1 0x0 PUSH1 0x2 DUP4 PUSH1 0x40 MLOAD PUSH1 0x20 ADD DUP1 DUP3 DUP1 MLOAD SWAP1 PUSH1 0x20 ADD SWAP1 DUP1 DUP4 DUP4 JUMPDEST PUSH1 0x20 DUP4 LT PUSH2 0x756 JUMPI DUP1 MLOAD DUP3 MSTORE PUSH1 0x20 DUP3 ADD SWAP2 POP PUSH1 0x20 DUP2 ADD SWAP1 POP PUSH1 0x20 DUP4 SUB SWAP3 POP PUSH2 0x733 JUMP JUMPDEST PUSH1 0x1 DUP4 PUSH1 0x20 SUB PUSH2 0x100 EXP SUB DUP1 NOT DUP3 MLOAD AND DUP2 DUP5 MLOAD AND DUP1 DUP3 OR DUP6 MSTORE POP POP POP POP POP POP SWAP1 POP ADD SWAP2 POP POP PUSH1 0x40 MLOAD PUSH1 0x20 DUP2 DUP4 SUB SUB DUP2 MSTORE SWAP1 PUSH1 0x40 MSTORE PUSH1 0x40 MLOAD DUP1 DUP3 DUP1 MLOAD SWAP1 PUSH1 0x20 ADD SWAP1 DUP1 DUP4 DUP4 JUMPDEST PUSH1 0x20 DUP4 LT PUSH2 0x7BD JUMPI DUP1 MLOAD DUP3 MSTORE PUSH1 0x20 DUP3 ADD SWAP2 POP PUSH1 0x20 DUP2 ADD SWAP1 POP PUSH1 0x20 DUP4 SUB SWAP3 POP PUSH2 0x79A JUMP JUMPDEST PUSH1 0x1 DUP4 PUSH1 0x20 SUB PUSH2 0x100 EXP SUB DUP1 NOT DUP3 MLOAD AND DUP2 DUP5 MLOAD AND DUP1 DUP3 OR DUP6 MSTORE POP POP POP POP POP POP SWAP1 POP ADD SWAP2 POP POP PUSH1 0x20 PUSH1 0x40 MLOAD DUP1 DUP4 SUB DUP2 DUP6 GAS STATICCALL ISZERO DUP1 ISZERO PUSH2 0x7FF JUMPI RETURNDATASIZE PUSH1 0x0 DUP1 RETURNDATACOPY RETURNDATASIZE PUSH1 0x0 REVERT JUMPDEST POP POP POP PUSH1 0x40 MLOAD RETURNDATASIZE PUSH1 0x20 DUP2 LT ISZERO PUSH2 0x814 JUMPI PUSH1 0x0 DUP1 REVERT JUMPDEST DUP2 ADD SWAP1 DUP1 DUP1 MLOAD SWAP1 PUSH1 0x20 ADD SWAP1 SWAP3 SWAP2 SWAP1 POP POP POP SWAP1 POP PUSH1 0x0 PUSH2 0x832 DUP5 PUSH2 0xF38 JUMP JUMPDEST PUSH1 0x3 DUP2 GT ISZERO PUSH2 0x83D JUMPI INVALID JUMPDEST SWAP1 POP PUSH1 0x0 PUSH1 0x3 DUP2 GT ISZERO PUSH2 0x84C JUMPI INVALID JUMPDEST DUP2 PUSH1 0x3 DUP2 GT ISZERO PUSH2 0x858 JUMPI INVALID JUMPDEST EQ ISZERO PUSH2 0x869 JUMPI PUSH1 0x0 SWAP3 POP POP POP PUSH2 0x9A4 JUMP JUMPDEST PUSH1 0x2 PUSH1 0x0 SWAP1 SLOAD SWAP1 PUSH2 0x100 EXP SWAP1 DIV PUSH20 0xFFFFFFFFFFFFFFFFFFFFFFFFFFFFFFFFFFFFFFFF AND PUSH20 0xFFFFFFFFFFFFFFFFFFFFFFFFFFFFFFFFFFFFFFFF AND CALLER PUSH20 0xFFFFFFFFFFFFFFFFFFFFFFFFFFFFFFFFFFFFFFFF AND EQ DUP1 ISZERO PUSH2 0x8C7 JUMPI POP PUSH1 0x4 SLOAD DUP3 EQ JUMPDEST ISZERO PUSH2 0x8F4 JUMPI DUP1 PUSH1 0x6 PUSH1 0x0 PUSH2 0x100 EXP DUP2 SLOAD DUP2 PUSH1 0xFF MUL NOT AND SWAP1 DUP4 PUSH1 0x3 DUP2 GT ISZERO PUSH2 0x8EA JUMPI INVALID JUMPDEST MUL OR SWAP1 SSTORE POP PUSH2 0x98B JUMP JUMPDEST PUSH1 0x3 PUSH1 0x0 SWAP1 SLOAD SWAP1 PUSH2 0x100 EXP SWAP1 DIV PUSH20 0xFFFFFFFFFFFFFFFFFFFFFFFFFFFFFFFFFFFFFFFF AND PUSH20 0xFFFFFFFFFFFFFFFFFFFFFFFFFFFFFFFFFFFFFFFF AND CALLER PUSH20 0xFFFFFFFFFFFFFFFFFFFFFFFFFFFFFFFFFFFFFFFF AND EQ DUP1 ISZERO PUSH2 0x952 JUMPI POP PUSH1 0x5 SLOAD DUP3 EQ JUMPDEST ISZERO PUSH2 0x97F JUMPI DUP1 PUSH1 0x6 PUSH1 0x1 PUSH2 0x100 EXP DUP2 SLOAD DUP2 PUSH1 0xFF MUL NOT AND SWAP1 DUP4 PUSH1 0x3 DUP2 GT ISZERO PUSH2 0x975 JUMPI INVALID JUMPDEST MUL OR SWAP1 SSTORE POP PUSH2 0x98A JUMP JUMPDEST PUSH1 0x0 SWAP3 POP POP POP PUSH2 0x9A4 JUMP JUMPDEST JUMPDEST PUSH1 0x0 PUSH1 0x1 SLOAD EQ ISZERO PUSH2 0x99E JUMPI TIMESTAMP PUSH1 0x1 DUP2 SWAP1 SSTORE POP JUMPDEST DUP1 SWAP3 POP POP POP JUMPDEST SWAP2 SWAP1 POP JUMP JUMPDEST PUSH1 0x0 DUP1 PUSH1 0x1 SLOAD EQ PUSH2 0x9C4 JUMPI TIMESTAMP PUSH2 0x258 PUSH1 0x1 SLOAD ADD SUB SWAP1 POP PUSH2 0x9CA JUMP JUMPDEST PUSH2 0x258 SWAP1 POP JUMPDEST SWAP1 JUMP JUMPDEST PUSH1 0x0 SELFBALANCE SWAP1 POP SWAP1 JUMP JUMPDEST PUSH1 0x0 DUP1 PUSH1 0x3 DUP2 GT ISZERO PUSH2 0x9E3 JUMPI INVALID JUMPDEST PUSH1 0x6 PUSH1 0x0 SWAP1 SLOAD SWAP1 PUSH2 0x100 EXP SWAP1 DIV PUSH1 0xFF AND PUSH1 0x3 DUP2 GT ISZERO PUSH2 0x9FE JUMPI INVALID JUMPDEST EQ ISZERO DUP1 ISZERO PUSH2 0xA32 JUMPI POP PUSH1 0x0 PUSH1 0x3 DUP2 GT ISZERO PUSH2 0xA14 JUMPI INVALID JUMPDEST PUSH1 0x6 PUSH1 0x1 SWAP1 SLOAD SWAP1 PUSH2 0x100 EXP SWAP1 DIV PUSH1 0xFF AND PUSH1 0x3 DUP2 GT ISZERO PUSH2 0xA2F JUMPI INVALID JUMPDEST EQ ISZERO JUMPDEST DUP1 PUSH2 0xA51 JUMPI POP PUSH1 0x0 PUSH1 0x1 SLOAD EQ ISZERO DUP1 ISZERO PUSH2 0xA50 JUMPI POP PUSH2 0x258 PUSH1 0x1 SLOAD ADD TIMESTAMP GT JUMPDEST JUMPDEST PUSH2 0xA5A JUMPI PUSH1 0x0 DUP1 REVERT JUMPDEST PUSH1 0x0 PUSH1 0x6 PUSH1 0x1 SWAP1 SLOAD SWAP1 PUSH2 0x100 EXP SWAP1 DIV PUSH1 0xFF AND PUSH1 0x3 DUP2 GT ISZERO PUSH2 0xA77 JUMPI INVALID JUMPDEST PUSH1 0x6 PUSH1 0x0 SWAP1 SLOAD SWAP1 PUSH2 0x100 EXP SWAP1 DIV PUSH1 0xFF AND PUSH1 0x3 DUP2 GT ISZERO PUSH2 0xA92 JUMPI INVALID JUMPDEST EQ ISZERO PUSH2 0xAA1 JUMPI PUSH1 0x3 SWAP1 POP PUSH2 0xC31 JUMP JUMPDEST PUSH1 0x1 PUSH1 0x3 DUP2 GT ISZERO PUSH2 0xAAE JUMPI INVALID JUMPDEST PUSH1 0x6 PUSH1 0x0 SWAP1 SLOAD SWAP1 PUSH2 0x100 EXP SWAP1 DIV PUSH1 0xFF AND PUSH1 0x3 DUP2 GT ISZERO PUSH2 0xAC9 JUMPI INVALID JUMPDEST EQ DUP1 ISZERO PUSH2 0xAFA JUMPI POP PUSH1 0x3 DUP1 DUP2 GT ISZERO PUSH2 0xADD JUMPI INVALID JUMPDEST PUSH1 0x6 PUSH1 0x1 SWAP1 SLOAD SWAP1 PUSH2 0x100 EXP SWAP1 DIV PUSH1 0xFF AND PUSH1 0x3 DUP2 GT ISZERO PUSH2 0xAF8 JUMPI INVALID JUMPDEST EQ JUMPDEST DUP1 PUSH2 0xB5B JUMPI POP PUSH1 0x2 PUSH1 0x3 DUP2 GT ISZERO PUSH2 0xB0D JUMPI INVALID JUMPDEST PUSH1 0x6 PUSH1 0x0 SWAP1 SLOAD SWAP1 PUSH2 0x100 EXP SWAP1 DIV PUSH1 0xFF AND PUSH1 0x3 DUP2 GT ISZERO PUSH2 0xB28 JUMPI INVALID JUMPDEST EQ DUP1 ISZERO PUSH2 0xB5A JUMPI POP PUSH1 0x1 PUSH1 0x3 DUP2 GT ISZERO PUSH2 0xB3D JUMPI INVALID JUMPDEST PUSH1 0x6 PUSH1 0x1 SWAP1 SLOAD SWAP1 PUSH2 0x100 EXP SWAP1 DIV PUSH1 0xFF AND PUSH1 0x3 DUP2 GT ISZERO PUSH2 0xB58 JUMPI INVALID JUMPDEST EQ JUMPDEST JUMPDEST DUP1 PUSH2 0xBBB JUMPI POP PUSH1 0x3 DUP1 DUP2 GT ISZERO PUSH2 0xB6D JUMPI INVALID JUMPDEST PUSH1 0x6 PUSH1 0x0 SWAP1 SLOAD SWAP1 PUSH2 0x100 EXP SWAP1 DIV PUSH1 0xFF AND PUSH1 0x3 DUP2 GT ISZERO PUSH2 0xB88 JUMPI INVALID JUMPDEST EQ DUP1 ISZERO PUSH2 0xBBA JUMPI POP PUSH1 0x2 PUSH1 0x3 DUP2 GT ISZERO PUSH2 0xB9D JUMPI INVALID JUMPDEST PUSH1 0x6 PUSH1 0x1 SWAP1 SLOAD SWAP1 PUSH2 0x100 EXP SWAP1 DIV PUSH1 0xFF AND PUSH1 0x3 DUP2 GT ISZERO PUSH2 0xBB8 JUMPI INVALID JUMPDEST EQ JUMPDEST JUMPDEST DUP1 PUSH2 0xC1D JUMPI POP PUSH1 0x0 PUSH1 0x3 DUP2 GT ISZERO PUSH2 0xBCE JUMPI INVALID JUMPDEST PUSH1 0x6 PUSH1 0x0 SWAP1 SLOAD SWAP1 PUSH2 0x100 EXP SWAP1 DIV PUSH1 0xFF AND PUSH1 0x3 DUP2 GT ISZERO PUSH2 0xBE9 JUMPI INVALID JUMPDEST EQ ISZERO DUP1 ISZERO PUSH2 0xC1C JUMPI POP PUSH1 0x0 PUSH1 0x3 DUP2 GT ISZERO PUSH2 0xBFF JUMPI INVALID JUMPDEST PUSH1 0x6 PUSH1 0x1 SWAP1 SLOAD SWAP1 PUSH2 0x100 EXP SWAP1 DIV PUSH1 0xFF AND PUSH1 0x3 DUP2 GT ISZERO PUSH2 0xC1A JUMPI INVALID JUMPDEST EQ JUMPDEST JUMPDEST ISZERO PUSH2 0xC2B JUMPI PUSH1 0x1 SWAP1 POP PUSH2 0xC30 JUMP JUMPDEST PUSH1 0x2 SWAP1 POP JUMPDEST JUMPDEST PUSH1 0x0 PUSH1 0x2 PUSH1 0x0 SWAP1 SLOAD SWAP1 PUSH2 0x100 EXP SWAP1 DIV PUSH20 0xFFFFFFFFFFFFFFFFFFFFFFFFFFFFFFFFFFFFFFFF AND SWAP1 POP PUSH1 0x0 PUSH1 0x3 PUSH1 0x0 SWAP1 SLOAD SWAP1 PUSH2 0x100 EXP SWAP1 DIV PUSH20 0xFFFFFFFFFFFFFFFFFFFFFFFFFFFFFFFFFFFFFFFF AND SWAP1 POP PUSH1 0x0 DUP1 SLOAD SWAP1 POP PUSH2 0xC8D PUSH2 0x1008 JUMP JUMPDEST PUSH2 0xC99 DUP4 DUP4 DUP4 DUP8 PUSH2 0x10F9 JUMP JUMPDEST DUP4 SWAP5 POP POP POP POP POP SWAP1 JUMP JUMPDEST PUSH1 0x0 DUP1 PUSH1 0x0 SHL PUSH1 0x4 SLOAD EQ ISZERO DUP1 ISZERO PUSH2 0xCBF JUMPI POP PUSH1 0x0 DUP1 SHL PUSH1 0x5 SLOAD EQ ISZERO JUMPDEST SWAP1 POP SWAP1 JUMP JUMPDEST PUSH1 0x0 PUSH1 0x2 PUSH1 0x0 SWAP1 SLOAD SWAP1 PUSH2 0x100 EXP SWAP1 DIV PUSH20 0xFFFFFFFFFFFFFFFFFFFFFFFFFFFFFFFFFFFFFFFF AND PUSH20 0xFFFFFFFFFFFFFFFFFFFFFFFFFFFFFFFFFFFFFFFF AND CALLER PUSH20 0xFFFFFFFFFFFFFFFFFFFFFFFFFFFFFFFFFFFFFFFF AND EQ DUP1 PUSH2 0xD6F JUMPI POP PUSH1 0x3 PUSH1 0x0 SWAP1 SLOAD SWAP1 PUSH2 0x100 EXP SWAP1 DIV PUSH20 0xFFFFFFFFFFFFFFFFFFFFFFFFFFFFFFFFFFFFFFFF AND PUSH20 0xFFFFFFFFFFFFFFFFFFFFFFFFFFFFFFFFFFFFFFFF AND CALLER PUSH20 0xFFFFFFFFFFFFFFFFFFFFFFFFFFFFFFFFFFFFFFFF AND EQ JUMPDEST PUSH2 0xD78 JUMPI PUSH1 0x0 DUP1 REVERT JUMPDEST PUSH1 0x2 PUSH1 0x0 SWAP1 SLOAD SWAP1 PUSH2 0x100 EXP SWAP1 DIV PUSH20 0xFFFFFFFFFFFFFFFFFFFFFFFFFFFFFFFFFFFFFFFF AND PUSH20 0xFFFFFFFFFFFFFFFFFFFFFFFFFFFFFFFFFFFFFFFF AND CALLER PUSH20 0xFFFFFFFFFFFFFFFFFFFFFFFFFFFFFFFFFFFFFFFF AND EQ DUP1 ISZERO PUSH2 0xDD9 JUMPI POP PUSH1 0x0 DUP1 SHL PUSH1 0x4 SLOAD EQ JUMPDEST ISZERO PUSH2 0xDEA JUMPI DUP2 PUSH1 0x4 DUP2 SWAP1 SSTORE POP PUSH2 0xE66 JUMP JUMPDEST PUSH1 0x3 PUSH1 0x0 SWAP1 SLOAD SWAP1 PUSH2 0x100 EXP SWAP1 DIV PUSH20 0xFFFFFFFFFFFFFFFFFFFFFFFFFFFFFFFFFFFFFFFF AND PUSH20 0xFFFFFFFFFFFFFFFFFFFFFFFFFFFFFFFFFFFFFFFF AND CALLER PUSH20 0xFFFFFFFFFFFFFFFFFFFFFFFFFFFFFFFFFFFFFFFF AND EQ DUP1 ISZERO PUSH2 0xE4B JUMPI POP PUSH1 0x0 DUP1 SHL PUSH1 0x5 SLOAD EQ JUMPDEST ISZERO PUSH2 0xE5C JUMPI DUP2 PUSH1 0x5 DUP2 SWAP1 SSTORE POP PUSH2 0xE65 JUMP JUMPDEST PUSH1 0x0 SWAP1 POP PUSH2 0xE6B JUMP JUMPDEST JUMPDEST PUSH1 0x1 SWAP1 POP JUMPDEST SWAP2 SWAP1 POP JUMP JUMPDEST PUSH1 0x0 PUSH1 0x2 PUSH1 0x0 SWAP1 SLOAD SWAP1 PUSH2 0x100 EXP SWAP1 DIV PUSH20 0xFFFFFFFFFFFFFFFFFFFFFFFFFFFFFFFFFFFFFFFF AND PUSH20 0xFFFFFFFFFFFFFFFFFFFFFFFFFFFFFFFFFFFFFFFF AND CALLER PUSH20 0xFFFFFFFFFFFFFFFFFFFFFFFFFFFFFFFFFFFFFFFF AND EQ ISZERO PUSH2 0xED1 JUMPI PUSH1 0x1 SWAP1 POP PUSH2 0xF35 JUMP JUMPDEST PUSH1 0x3 PUSH1 0x0 SWAP1 SLOAD SWAP1 PUSH2 0x100 EXP SWAP1 DIV PUSH20 0xFFFFFFFFFFFFFFFFFFFFFFFFFFFFFFFFFFFFFFFF AND PUSH20 0xFFFFFFFFFFFFFFFFFFFFFFFFFFFFFFFFFFFFFFFF AND CALLER PUSH20 0xFFFFFFFFFFFFFFFFFFFFFFFFFFFFFFFFFFFFFFFF AND EQ ISZERO PUSH2 0xF30 JUMPI PUSH1 0x2 SWAP1 POP PUSH2 0xF35 JUMP JUMPDEST PUSH1 0x0 SWAP1 POP JUMPDEST SWAP1 JUMP JUMPDEST PUSH1 0x0 DUP1 DUP3 PUSH1 0x0 DUP2 MLOAD DUP2 LT PUSH2 0xF48 JUMPI INVALID JUMPDEST PUSH1 0x20 ADD ADD MLOAD PUSH1 0xF8 SHR PUSH1 0xF8 SHL SWAP1 POP PUSH1 0x31 PUSH1 0xF8 SHL DUP2 PUSH31 0xFFFFFFFFFFFFFFFFFFFFFFFFFFFFFFFFFFFFFFFFFFFFFFFFFFFFFFFFFFFFFF NOT AND EQ ISZERO PUSH2 0xF8D JUMPI PUSH1 0x1 SWAP2 POP POP PUSH2 0x1003 JUMP JUMPDEST PUSH1 0x32 PUSH1 0xF8 SHL DUP2 PUSH31 0xFFFFFFFFFFFFFFFFFFFFFFFFFFFFFFFFFFFFFFFFFFFFFFFFFFFFFFFFFFFFFF NOT AND EQ ISZERO PUSH2 0xFC5 JUMPI PUSH1 0x2 SWAP2 POP POP PUSH2 0x1003 JUMP JUMPDEST PUSH1 0x33 PUSH1 0xF8 SHL DUP2 PUSH31 0xFFFFFFFFFFFFFFFFFFFFFFFFFFFFFFFFFFFFFFFFFFFFFFFFFFFFFFFFFFFFFF NOT AND EQ ISZERO PUSH2 0xFFD JUMPI PUSH1 0x3 SWAP2 POP POP PUSH2 0x1003 JUMP JUMPDEST PUSH1 0x0 SWAP2 POP POP JUMPDEST SWAP2 SWAP1 POP JUMP JUMPDEST PUSH1 0x0 DUP1 DUP2 SWAP1 SSTORE POP PUSH1 0x0 PUSH1 0x1 DUP2 SWAP1 SSTORE POP PUSH1 0x0 PUSH1 0x2 PUSH1 0x0 PUSH2 0x100 EXP DUP2 SLOAD DUP2 PUSH20 0xFFFFFFFFFFFFFFFFFFFFFFFFFFFFFFFFFFFFFFFF MUL NOT AND SWAP1 DUP4 PUSH20 0xFFFFFFFFFFFFFFFFFFFFFFFFFFFFFFFFFFFFFFFF AND MUL OR SWAP1 SSTORE POP PUSH1 0x0 PUSH1 0x3 PUSH1 0x0 PUSH2 0x100 EXP DUP2 SLOAD DUP2 PUSH20 0xFFFFFFFFFFFFFFFFFFFFFFFFFFFFFFFFFFFFFFFF MUL NOT AND SWAP1 DUP4 PUSH20 0xFFFFFFFFFFFFFFFFFFFFFFFFFFFFFFFFFFFFFFFF AND MUL OR SWAP1 SSTORE POP PUSH1 0x0 DUP1 SHL PUSH1 0x4 DUP2 SWAP1 SSTORE POP PUSH1 0x0 DUP1 SHL PUSH1 0x5 DUP2 SWAP1 SSTORE POP PUSH1 0x0 PUSH1 0x6 PUSH1 0x0 PUSH2 0x100 EXP DUP2 SLOAD DUP2 PUSH1 0xFF MUL NOT AND SWAP1 DUP4 PUSH1 0x3 DUP2 GT ISZERO PUSH2 0x10CE JUMPI INVALID JUMPDEST MUL OR SWAP1 SSTORE POP PUSH1 0x0 PUSH1 0x6 PUSH1 0x1 PUSH2 0x100 EXP DUP2 SLOAD DUP2 PUSH1 0xFF MUL NOT AND SWAP1 DUP4 PUSH1 0x3 DUP2 GT ISZERO PUSH2 0x10F2 JUMPI INVALID JUMPDEST MUL OR SWAP1 SSTORE POP JUMP JUMPDEST PUSH1 0x1 PUSH1 0x3 DUP2 GT ISZERO PUSH2 0x1106 JUMPI INVALID JUMPDEST DUP2 PUSH1 0x3 DUP2 GT ISZERO PUSH2 0x1112 JUMPI INVALID JUMPDEST EQ ISZERO PUSH2 0x1164 JUMPI DUP4 PUSH20 0xFFFFFFFFFFFFFFFFFFFFFFFFFFFFFFFFFFFFFFFF AND PUSH2 0x8FC SELFBALANCE SWAP1 DUP2 ISZERO MUL SWAP1 PUSH1 0x40 MLOAD PUSH1 0x0 PUSH1 0x40 MLOAD DUP1 DUP4 SUB DUP2 DUP6 DUP9 DUP9 CALL SWAP4 POP POP POP POP ISZERO DUP1 ISZERO PUSH2 0x115E JUMPI RETURNDATASIZE PUSH1 0x0 DUP1 RETURNDATACOPY RETURNDATASIZE PUSH1 0x0 REVERT JUMPDEST POP PUSH2 0x125F JUMP JUMPDEST PUSH1 0x2 PUSH1 0x3 DUP2 GT ISZERO PUSH2 0x1171 JUMPI INVALID JUMPDEST DUP2 PUSH1 0x3 DUP2 GT ISZERO PUSH2 0x117D JUMPI INVALID JUMPDEST EQ ISZERO PUSH2 0x11CF JUMPI DUP3 PUSH20 0xFFFFFFFFFFFFFFFFFFFFFFFFFFFFFFFFFFFFFFFF AND PUSH2 0x8FC SELFBALANCE SWAP1 DUP2 ISZERO MUL SWAP1 PUSH1 0x40 MLOAD PUSH1 0x0 PUSH1 0x40 MLOAD DUP1 DUP4 SUB DUP2 DUP6 DUP9 DUP9 CALL SWAP4 POP POP POP POP ISZERO DUP1 ISZERO PUSH2 0x11C9 JUMPI RETURNDATASIZE PUSH1 0x0 DUP1 RETURNDATACOPY RETURNDATASIZE PUSH1 0x0 REVERT JUMPDEST POP PUSH2 0x125E JUMP JUMPDEST DUP4 PUSH20 0xFFFFFFFFFFFFFFFFFFFFFFFFFFFFFFFFFFFFFFFF AND PUSH2 0x8FC DUP4 SWAP1 DUP2 ISZERO MUL SWAP1 PUSH1 0x40 MLOAD PUSH1 0x0 PUSH1 0x40 MLOAD DUP1 DUP4 SUB DUP2 DUP6 DUP9 DUP9 CALL SWAP4 POP POP POP POP ISZERO DUP1 ISZERO PUSH2 0x1215 JUMPI RETURNDATASIZE PUSH1 0x0 DUP1 RETURNDATACOPY RETURNDATASIZE PUSH1 0x0 REVERT JUMPDEST POP DUP3 PUSH20 0xFFFFFFFFFFFFFFFFFFFFFFFFFFFFFFFFFFFFFFFF AND PUSH2 0x8FC SELFBALANCE SWAP1 DUP2 ISZERO MUL SWAP1 PUSH1 0x40 MLOAD PUSH1 0x0 PUSH1 0x40 MLOAD DUP1 DUP4 SUB DUP2 DUP6 DUP9 DUP9 CALL SWAP4 POP POP POP POP ISZERO DUP1 ISZERO PUSH2 0x125C JUMPI RETURNDATASIZE PUSH1 0x0 DUP1 RETURNDATACOPY RETURNDATASIZE PUSH1 0x0 REVERT JUMPDEST POP JUMPDEST JUMPDEST POP POP POP POP JUMP INVALID LOG2 PUSH6 0x627A7A723158 KECCAK256 BYTE PUSH9 0xF8DBCEE516AB099EA1 0xF8 0xE9 ISZERO SWAP8 JUMP CODESIZE PUSH19 0xC242735C8C5454B6ABDA95AF9D6D64736F6C63 NUMBER STOP SDIV GT STOP ORIGIN "
				},
				"gasEstimates": {
					"creation": {
						"codeDepositCost": "952400",
						"executionCost": "988",
						"totalCost": "953388"
					},
					"external": {
						"BET_MIN()": "250",
						"REVEAL_TIMEOUT()": "272",
						"bothPlayed()": "1946",
						"bothRevealed()": "2183",
						"getContractBalance()": "237",
						"getOutcome()": "infinite",
						"initialBet()": "1028",
						"play(bytes32)": "25592",
						"register()": "45386",
						"reveal(string)": "infinite",
						"revealTimeLeft()": "1858",
						"whoAmI()": "2080"
					},
					"internal": {
						"getFirstChar(string memory)": "infinite",
						"pay(address payable,address payable,uint256,enum RockPaperScissors.Outcomes)": "infinite",
						"reset()": "103635"
					}
				},
				"methodIdentifiers": {
					"BET_MIN()": "2626ab08",
					"REVEAL_TIMEOUT()": "3d6ae3a7",
					"bothPlayed()": "807c8504",
					"bothRevealed()": "43445ca8",
					"getContractBalance()": "6f9fb98a",
					"getOutcome()": "7e7e4b47",
					"initialBet()": "1d73c64c",
					"play(bytes32)": "c7a1865b",
					"register()": "1aa3a008",
					"reveal(string)": "4c261247",
					"revealTimeLeft()": "51dcb1c3",
					"whoAmI()": "da91254c"
				}
			},
			"storageLayout": {
				"storage": [
					{
						"astId": 9,
						"contract": "rockpaperscissors.sol:RockPaperScissors",
						"label": "initialBet",
						"offset": 0,
						"slot": "0",
						"type": "t_uint256"
					},
					{
						"astId": 11,
						"contract": "rockpaperscissors.sol:RockPaperScissors",
						"label": "firstReveal",
						"offset": 0,
						"slot": "1",
						"type": "t_uint256"
					},
					{
						"astId": 23,
						"contract": "rockpaperscissors.sol:RockPaperScissors",
						"label": "playerA",
						"offset": 0,
						"slot": "2",
						"type": "t_address_payable"
					},
					{
						"astId": 25,
						"contract": "rockpaperscissors.sol:RockPaperScissors",
						"label": "playerB",
						"offset": 0,
						"slot": "3",
						"type": "t_address_payable"
					},
					{
						"astId": 27,
						"contract": "rockpaperscissors.sol:RockPaperScissors",
						"label": "encrMovePlayerA",
						"offset": 0,
						"slot": "4",
						"type": "t_bytes32"
					},
					{
						"astId": 29,
						"contract": "rockpaperscissors.sol:RockPaperScissors",
						"label": "encrMovePlayerB",
						"offset": 0,
						"slot": "5",
						"type": "t_bytes32"
					},
					{
						"astId": 31,
						"contract": "rockpaperscissors.sol:RockPaperScissors",
						"label": "movePlayerA",
						"offset": 0,
						"slot": "6",
						"type": "t_enum(Moves)16"
					},
					{
						"astId": 33,
						"contract": "rockpaperscissors.sol:RockPaperScissors",
						"label": "movePlayerB",
						"offset": 1,
						"slot": "6",
						"type": "t_enum(Moves)16"
					}
				],
				"types": {
					"t_address_payable": {
						"encoding": "inplace",
						"label": "address payable",
						"numberOfBytes": "20"
					},
					"t_bytes32": {
						"encoding": "inplace",
						"label": "bytes32",
						"numberOfBytes": "32"
					},
					"t_enum(Moves)16": {
						"encoding": "inplace",
						"label": "enum RockPaperScissors.Moves",
						"numberOfBytes": "1"
					},
					"t_uint256": {
						"encoding": "inplace",
						"label": "uint256",
						"numberOfBytes": "32"
					}
				}
			},
			"userdoc": {
				"methods": {
					"getContractBalance()": {
						"notice": "***********************************************************************"
					}
				}
			}
		}
	}
}