{
	"rockpaperscissors.sol": {
		"RockPaperScissors": {
			"abi": [
				{
					"constant": true,
					"inputs": [],
					"name": "BET_MIN",
					"outputs": [
						{
							"internalType": "uint256",
							"name": "",
							"type": "uint256"
						}
					],
					"payable": false,
					"stateMutability": "view",
					"type": "function"
				},
				{
					"constant": true,
					"inputs": [],
					"name": "REVEAL_TIMEOUT",
					"outputs": [
						{
							"internalType": "uint256",
							"name": "",
							"type": "uint256"
						}
					],
					"payable": false,
					"stateMutability": "view",
					"type": "function"
				},
				{
					"constant": true,
					"inputs": [],
					"name": "bothPlayed",
					"outputs": [
						{
							"internalType": "bool",
							"name": "",
							"type": "bool"
						}
					],
					"payable": false,
					"stateMutability": "view",
					"type": "function"
				},
				{
					"constant": true,
					"inputs": [],
					"name": "bothRevealed",
					"outputs": [
						{
							"internalType": "bool",
							"name": "",
							"type": "bool"
						}
					],
					"payable": false,
					"stateMutability": "view",
					"type": "function"
				},
				{
					"constant": true,
					"inputs": [],
					"name": "getContractBalance",
					"outputs": [
						{
							"internalType": "uint256",
							"name": "",
							"type": "uint256"
						}
					],
					"payable": false,
					"stateMutability": "view",
					"type": "function"
				},
				{
					"constant": false,
					"inputs": [],
					"name": "getOutcome",
					"outputs": [
						{
							"internalType": "enum RockPaperScissors.Outcomes",
							"name": "",
							"type": "uint8"
						}
					],
					"payable": false,
					"stateMutability": "nonpayable",
					"type": "function"
				},
				{
					"constant": true,
					"inputs": [],
					"name": "initialBet",
					"outputs": [
						{
							"internalType": "uint256",
							"name": "",
							"type": "uint256"
						}
					],
					"payable": false,
					"stateMutability": "view",
					"type": "function"
				},
				{
					"constant": false,
					"inputs": [
						{
							"internalType": "bytes32",
							"name": "encrMove",
							"type": "bytes32"
						}
					],
					"name": "play",
					"outputs": [
						{
							"internalType": "bool",
							"name": "",
							"type": "bool"
						}
					],
					"payable": false,
					"stateMutability": "nonpayable",
					"type": "function"
				},
				{
					"constant": false,
					"inputs": [],
					"name": "register",
					"outputs": [
						{
							"internalType": "uint256",
							"name": "",
							"type": "uint256"
						}
					],
					"payable": true,
					"stateMutability": "payable",
					"type": "function"
				},
				{
					"constant": false,
					"inputs": [
						{
							"internalType": "string",
							"name": "clearMove",
							"type": "string"
						}
					],
					"name": "reveal",
					"outputs": [
						{
							"internalType": "enum RockPaperScissors.Moves",
							"name": "",
							"type": "uint8"
						}
					],
					"payable": false,
					"stateMutability": "nonpayable",
					"type": "function"
				},
				{
					"constant": true,
					"inputs": [],
					"name": "revealTimeLeft",
					"outputs": [
						{
							"internalType": "int256",
							"name": "",
							"type": "int256"
						}
					],
					"payable": false,
					"stateMutability": "view",
					"type": "function"
				},
				{
					"constant": true,
					"inputs": [],
					"name": "whoAmI",
					"outputs": [
						{
							"internalType": "uint256",
							"name": "",
							"type": "uint256"
						}
					],
					"payable": false,
					"stateMutability": "view",
					"type": "function"
				}
			],
			"devdoc": {
				"methods": {}
			},
			"evm": {
				"assembly": "    /* \"rockpaperscissors.sol\":25:8398  contract RockPaperScissors {... */\n  mstore(0x40, 0x80)\n  callvalue\n    /* \"--CODEGEN--\":8:17   */\n  dup1\n    /* \"--CODEGEN--\":5:7   */\n  iszero\n  tag_1\n  jumpi\n    /* \"--CODEGEN--\":30:31   */\n  0x00\n    /* \"--CODEGEN--\":27:28   */\n  dup1\n    /* \"--CODEGEN--\":20:32   */\n  revert\n    /* \"--CODEGEN--\":5:7   */\ntag_1:\n    /* \"rockpaperscissors.sol\":25:8398  contract RockPaperScissors {... */\n  pop\n  dataSize(sub_0)\n  dup1\n  dataOffset(sub_0)\n  0x00\n  codecopy\n  0x00\n  return\nstop\n\nsub_0: assembly {\n        /* \"rockpaperscissors.sol\":25:8398  contract RockPaperScissors {... */\n      mstore(0x40, 0x80)\n      jumpi(tag_1, lt(calldatasize, 0x04))\n      shr(0xe0, calldataload(0x00))\n      dup1\n      0x51dcb1c3\n      gt\n      tag_14\n      jumpi\n      dup1\n      0x51dcb1c3\n      eq\n      tag_8\n      jumpi\n      dup1\n      0x6f9fb98a\n      eq\n      tag_9\n      jumpi\n      dup1\n      0x7e7e4b47\n      eq\n      tag_10\n      jumpi\n      dup1\n      0x807c8504\n      eq\n      tag_11\n      jumpi\n      dup1\n      0xc7a1865b\n      eq\n      tag_12\n      jumpi\n      dup1\n      0xda91254c\n      eq\n      tag_13\n      jumpi\n      jump(tag_1)\n    tag_14:\n      dup1\n      0x1aa3a008\n      eq\n      tag_2\n      jumpi\n      dup1\n      0x1d73c64c\n      eq\n      tag_3\n      jumpi\n      dup1\n      0x2626ab08\n      eq\n      tag_4\n      jumpi\n      dup1\n      0x3d6ae3a7\n      eq\n      tag_5\n      jumpi\n      dup1\n      0x43445ca8\n      eq\n      tag_6\n      jumpi\n      dup1\n      0x4c261247\n      eq\n      tag_7\n      jumpi\n    tag_1:\n      0x00\n      dup1\n      revert\n        /* \"rockpaperscissors.sol\":1506:1857  function register() public payable validBet notAlreadyRegistered returns (uint) {... */\n    tag_2:\n      tag_15\n      tag_16\n      jump\t// in\n    tag_15:\n      mload(0x40)\n      dup1\n      dup3\n      dup2\n      mstore\n      0x20\n      add\n      swap2\n      pop\n      pop\n      mload(0x40)\n      dup1\n      swap2\n      sub\n      swap1\n      return\n        /* \"rockpaperscissors.sol\":221:243  uint public initialBet */\n    tag_3:\n      callvalue\n        /* \"--CODEGEN--\":8:17   */\n      dup1\n        /* \"--CODEGEN--\":5:7   */\n      iszero\n      tag_17\n      jumpi\n        /* \"--CODEGEN--\":30:31   */\n      0x00\n        /* \"--CODEGEN--\":27:28   */\n      dup1\n        /* \"--CODEGEN--\":20:32   */\n      revert\n        /* \"--CODEGEN--\":5:7   */\n    tag_17:\n        /* \"rockpaperscissors.sol\":221:243  uint public initialBet */\n      pop\n      tag_18\n      tag_19\n      jump\t// in\n    tag_18:\n      mload(0x40)\n      dup1\n      dup3\n      dup2\n      mstore\n      0x20\n      add\n      swap2\n      pop\n      pop\n      mload(0x40)\n      dup1\n      swap2\n      sub\n      swap1\n      return\n        /* \"rockpaperscissors.sol\":59:105  uint constant public BET_MIN        = 1 finney */\n    tag_4:\n      callvalue\n        /* \"--CODEGEN--\":8:17   */\n      dup1\n        /* \"--CODEGEN--\":5:7   */\n      iszero\n      tag_20\n      jumpi\n        /* \"--CODEGEN--\":30:31   */\n      0x00\n        /* \"--CODEGEN--\":27:28   */\n      dup1\n        /* \"--CODEGEN--\":20:32   */\n      revert\n        /* \"--CODEGEN--\":5:7   */\n    tag_20:\n        /* \"rockpaperscissors.sol\":59:105  uint constant public BET_MIN        = 1 finney */\n      pop\n      tag_21\n      tag_22\n      jump\t// in\n    tag_21:\n      mload(0x40)\n      dup1\n      dup3\n      dup2\n      mstore\n      0x20\n      add\n      swap2\n      pop\n      pop\n      mload(0x40)\n      dup1\n      swap2\n      sub\n      swap1\n      return\n        /* \"rockpaperscissors.sol\":133:181  uint constant public REVEAL_TIMEOUT = 10 minutes */\n    tag_5:\n      callvalue\n        /* \"--CODEGEN--\":8:17   */\n      dup1\n        /* \"--CODEGEN--\":5:7   */\n      iszero\n      tag_23\n      jumpi\n        /* \"--CODEGEN--\":30:31   */\n      0x00\n        /* \"--CODEGEN--\":27:28   */\n      dup1\n        /* \"--CODEGEN--\":20:32   */\n      revert\n        /* \"--CODEGEN--\":5:7   */\n    tag_23:\n        /* \"rockpaperscissors.sol\":133:181  uint constant public REVEAL_TIMEOUT = 10 minutes */\n      pop\n      tag_24\n      tag_25\n      jump\t// in\n    tag_24:\n      mload(0x40)\n      dup1\n      dup3\n      dup2\n      mstore\n      0x20\n      add\n      swap2\n      pop\n      pop\n      mload(0x40)\n      dup1\n      swap2\n      sub\n      swap1\n      return\n        /* \"rockpaperscissors.sol\":7996:8127  function bothRevealed() public view returns (bool) {... */\n    tag_6:\n      callvalue\n        /* \"--CODEGEN--\":8:17   */\n      dup1\n        /* \"--CODEGEN--\":5:7   */\n      iszero\n      tag_26\n      jumpi\n        /* \"--CODEGEN--\":30:31   */\n      0x00\n        /* \"--CODEGEN--\":27:28   */\n      dup1\n        /* \"--CODEGEN--\":20:32   */\n      revert\n        /* \"--CODEGEN--\":5:7   */\n    tag_26:\n        /* \"rockpaperscissors.sol\":7996:8127  function bothRevealed() public view returns (bool) {... */\n      pop\n      tag_27\n      tag_28\n      jump\t// in\n    tag_27:\n      mload(0x40)\n      dup1\n      dup3\n      iszero\n      iszero\n      iszero\n      iszero\n      dup2\n      mstore\n      0x20\n      add\n      swap2\n      pop\n      pop\n      mload(0x40)\n      dup1\n      swap2\n      sub\n      swap1\n      return\n        /* \"rockpaperscissors.sol\":3183:4087  function reveal(string memory clearMove) public isRegistered commitPhaseEnded returns (Moves) {... */\n    tag_7:\n      callvalue\n        /* \"--CODEGEN--\":8:17   */\n      dup1\n        /* \"--CODEGEN--\":5:7   */\n      iszero\n      tag_29\n      jumpi\n        /* \"--CODEGEN--\":30:31   */\n      0x00\n        /* \"--CODEGEN--\":27:28   */\n      dup1\n        /* \"--CODEGEN--\":20:32   */\n      revert\n        /* \"--CODEGEN--\":5:7   */\n    tag_29:\n        /* \"rockpaperscissors.sol\":3183:4087  function reveal(string memory clearMove) public isRegistered commitPhaseEnded returns (Moves) {... */\n      pop\n      tag_30\n      0x04\n      dup1\n      calldatasize\n      sub\n        /* \"--CODEGEN--\":13:15   */\n      0x20\n        /* \"--CODEGEN--\":8:11   */\n      dup2\n        /* \"--CODEGEN--\":5:16   */\n      lt\n        /* \"--CODEGEN--\":2:4   */\n      iszero\n      tag_31\n      jumpi\n        /* \"--CODEGEN--\":29:30   */\n      0x00\n        /* \"--CODEGEN--\":26:27   */\n      dup1\n        /* \"--CODEGEN--\":19:31   */\n      revert\n        /* \"--CODEGEN--\":2:4   */\n    tag_31:\n        /* \"rockpaperscissors.sol\":3183:4087  function reveal(string memory clearMove) public isRegistered commitPhaseEnded returns (Moves) {... */\n      dup2\n      add\n      swap1\n      dup1\n      dup1\n      calldataload\n      swap1\n      0x20\n      add\n      swap1\n        /* \"--CODEGEN--\":21:32   */\n      0x0100000000\n        /* \"--CODEGEN--\":8:19   */\n      dup2\n        /* \"--CODEGEN--\":5:33   */\n      gt\n        /* \"--CODEGEN--\":2:4   */\n      iszero\n      tag_32\n      jumpi\n        /* \"--CODEGEN--\":46:47   */\n      0x00\n        /* \"--CODEGEN--\":43:44   */\n      dup1\n        /* \"--CODEGEN--\":36:48   */\n      revert\n        /* \"--CODEGEN--\":2:4   */\n    tag_32:\n        /* \"rockpaperscissors.sol\":3183:4087  function reveal(string memory clearMove) public isRegistered commitPhaseEnded returns (Moves) {... */\n      dup3\n      add\n        /* \"--CODEGEN--\":35:44   */\n      dup4\n        /* \"--CODEGEN--\":28:32   */\n      0x20\n        /* \"--CODEGEN--\":12:26   */\n      dup3\n        /* \"--CODEGEN--\":8:33   */\n      add\n        /* \"--CODEGEN--\":5:45   */\n      gt\n        /* \"--CODEGEN--\":2:4   */\n      iszero\n      tag_33\n      jumpi\n        /* \"--CODEGEN--\":58:59   */\n      0x00\n        /* \"--CODEGEN--\":55:56   */\n      dup1\n        /* \"--CODEGEN--\":48:60   */\n      revert\n        /* \"--CODEGEN--\":2:4   */\n    tag_33:\n        /* \"rockpaperscissors.sol\":3183:4087  function reveal(string memory clearMove) public isRegistered commitPhaseEnded returns (Moves) {... */\n      dup1\n      calldataload\n      swap1\n      0x20\n      add\n      swap2\n        /* \"--CODEGEN--\":100:109   */\n      dup5\n        /* \"--CODEGEN--\":95:96   */\n      0x01\n        /* \"--CODEGEN--\":81:93   */\n      dup4\n        /* \"--CODEGEN--\":77:97   */\n      mul\n        /* \"--CODEGEN--\":67:75   */\n      dup5\n        /* \"--CODEGEN--\":63:98   */\n      add\n        /* \"--CODEGEN--\":60:110   */\n      gt\n        /* \"--CODEGEN--\":39:50   */\n      0x0100000000\n        /* \"--CODEGEN--\":25:37   */\n      dup4\n        /* \"--CODEGEN--\":22:51   */\n      gt\n        /* \"--CODEGEN--\":11:118   */\n      or\n        /* \"--CODEGEN--\":8:10   */\n      iszero\n      tag_34\n      jumpi\n        /* \"--CODEGEN--\":131:132   */\n      0x00\n        /* \"--CODEGEN--\":128:129   */\n      dup1\n        /* \"--CODEGEN--\":121:133   */\n      revert\n        /* \"--CODEGEN--\":8:10   */\n    tag_34:\n        /* \"rockpaperscissors.sol\":3183:4087  function reveal(string memory clearMove) public isRegistered commitPhaseEnded returns (Moves) {... */\n      swap2\n      swap1\n      dup1\n      dup1\n      0x1f\n      add\n      0x20\n      dup1\n      swap2\n      div\n      mul\n      0x20\n      add\n      mload(0x40)\n      swap1\n      dup2\n      add\n      0x40\n      mstore\n      dup1\n      swap4\n      swap3\n      swap2\n      swap1\n      dup2\n      dup2\n      mstore\n      0x20\n      add\n      dup4\n      dup4\n        /* \"--CODEGEN--\":30:33   */\n      dup1\n        /* \"--CODEGEN--\":22:28   */\n      dup3\n        /* \"--CODEGEN--\":14:20   */\n      dup5\n        /* \"--CODEGEN--\":1:34   */\n      calldatacopy\n        /* \"--CODEGEN--\":99:100   */\n      0x00\n        /* \"--CODEGEN--\":93:96   */\n      dup2\n        /* \"--CODEGEN--\":85:91   */\n      dup5\n        /* \"--CODEGEN--\":81:97   */\n      add\n        /* \"--CODEGEN--\":74:101   */\n      mstore\n        /* \"--CODEGEN--\":137:141   */\n      0x1f\n        /* \"--CODEGEN--\":133:142   */\n      not\n        /* \"--CODEGEN--\":126:130   */\n      0x1f\n        /* \"--CODEGEN--\":121:124   */\n      dup3\n        /* \"--CODEGEN--\":117:131   */\n      add\n        /* \"--CODEGEN--\":113:143   */\n      and\n        /* \"--CODEGEN--\":106:143   */\n      swap1\n      pop\n        /* \"--CODEGEN--\":169:172   */\n      dup1\n        /* \"--CODEGEN--\":161:167   */\n      dup4\n        /* \"--CODEGEN--\":157:173   */\n      add\n        /* \"--CODEGEN--\":147:173   */\n      swap3\n      pop\n        /* \"rockpaperscissors.sol\":3183:4087  function reveal(string memory clearMove) public isRegistered commitPhaseEnded returns (Moves) {... */\n      pop\n      pop\n      pop\n      pop\n      pop\n      pop\n      swap2\n      swap3\n      swap2\n      swap3\n      swap1\n      pop\n      pop\n      pop\n      tag_35\n      jump\t// in\n    tag_30:\n      mload(0x40)\n      dup1\n      dup3\n      0x03\n      dup2\n      gt\n      iszero\n      tag_36\n      jumpi\n      invalid\n    tag_36:\n      0xff\n      and\n      dup2\n      mstore\n      0x20\n      add\n      swap2\n      pop\n      pop\n      mload(0x40)\n      dup1\n      swap2\n      sub\n      swap1\n      return\n        /* \"rockpaperscissors.sol\":8197:8396  function revealTimeLeft() public view returns (int) {... */\n    tag_8:\n      callvalue\n        /* \"--CODEGEN--\":8:17   */\n      dup1\n        /* \"--CODEGEN--\":5:7   */\n      iszero\n      tag_37\n      jumpi\n        /* \"--CODEGEN--\":30:31   */\n      0x00\n        /* \"--CODEGEN--\":27:28   */\n      dup1\n        /* \"--CODEGEN--\":20:32   */\n      revert\n        /* \"--CODEGEN--\":5:7   */\n    tag_37:\n        /* \"rockpaperscissors.sol\":8197:8396  function revealTimeLeft() public view returns (int) {... */\n      pop\n      tag_38\n      tag_39\n      jump\t// in\n    tag_38:\n      mload(0x40)\n      dup1\n      dup3\n      dup2\n      mstore\n      0x20\n      add\n      swap2\n      pop\n      pop\n      mload(0x40)\n      dup1\n      swap2\n      sub\n      swap1\n      return\n        /* \"rockpaperscissors.sol\":7341:7443  function getContractBalance() public view returns (uint) {... */\n    tag_9:\n      callvalue\n        /* \"--CODEGEN--\":8:17   */\n      dup1\n        /* \"--CODEGEN--\":5:7   */\n      iszero\n      tag_40\n      jumpi\n        /* \"--CODEGEN--\":30:31   */\n      0x00\n        /* \"--CODEGEN--\":27:28   */\n      dup1\n        /* \"--CODEGEN--\":20:32   */\n      revert\n        /* \"--CODEGEN--\":5:7   */\n    tag_40:\n        /* \"rockpaperscissors.sol\":7341:7443  function getContractBalance() public view returns (uint) {... */\n      pop\n      tag_41\n      tag_42\n      jump\t// in\n    tag_41:\n      mload(0x40)\n      dup1\n      dup3\n      dup2\n      mstore\n      0x20\n      add\n      swap2\n      pop\n      pop\n      mload(0x40)\n      dup1\n      swap2\n      sub\n      swap1\n      return\n        /* \"rockpaperscissors.sol\":5016:5919  function getOutcome() public revealPhaseEnded returns (Outcomes) {... */\n    tag_10:\n      callvalue\n        /* \"--CODEGEN--\":8:17   */\n      dup1\n        /* \"--CODEGEN--\":5:7   */\n      iszero\n      tag_43\n      jumpi\n        /* \"--CODEGEN--\":30:31   */\n      0x00\n        /* \"--CODEGEN--\":27:28   */\n      dup1\n        /* \"--CODEGEN--\":20:32   */\n      revert\n        /* \"--CODEGEN--\":5:7   */\n    tag_43:\n        /* \"rockpaperscissors.sol\":5016:5919  function getOutcome() public revealPhaseEnded returns (Outcomes) {... */\n      pop\n      tag_44\n      tag_45\n      jump\t// in\n    tag_44:\n      mload(0x40)\n      dup1\n      dup3\n      0x03\n      dup2\n      gt\n      iszero\n      tag_46\n      jumpi\n      invalid\n    tag_46:\n      0xff\n      and\n      dup2\n      mstore\n      0x20\n      add\n      swap2\n      pop\n      pop\n      mload(0x40)\n      dup1\n      swap2\n      sub\n      swap1\n      return\n        /* \"rockpaperscissors.sol\":7785:7908  function bothPlayed() public view returns (bool) {... */\n    tag_11:\n      callvalue\n        /* \"--CODEGEN--\":8:17   */\n      dup1\n        /* \"--CODEGEN--\":5:7   */\n      iszero\n      tag_47\n      jumpi\n        /* \"--CODEGEN--\":30:31   */\n      0x00\n        /* \"--CODEGEN--\":27:28   */\n      dup1\n        /* \"--CODEGEN--\":20:32   */\n      revert\n        /* \"--CODEGEN--\":5:7   */\n    tag_47:\n        /* \"rockpaperscissors.sol\":7785:7908  function bothPlayed() public view returns (bool) {... */\n      pop\n      tag_48\n      tag_49\n      jump\t// in\n    tag_48:\n      mload(0x40)\n      dup1\n      dup3\n      iszero\n      iszero\n      iszero\n      iszero\n      dup2\n      mstore\n      0x20\n      add\n      swap2\n      pop\n      pop\n      mload(0x40)\n      dup1\n      swap2\n      sub\n      swap1\n      return\n        /* \"rockpaperscissors.sol\":2317:2678  function play(bytes32 encrMove) public isRegistered returns (bool) {... */\n    tag_12:\n      callvalue\n        /* \"--CODEGEN--\":8:17   */\n      dup1\n        /* \"--CODEGEN--\":5:7   */\n      iszero\n      tag_50\n      jumpi\n        /* \"--CODEGEN--\":30:31   */\n      0x00\n        /* \"--CODEGEN--\":27:28   */\n      dup1\n        /* \"--CODEGEN--\":20:32   */\n      revert\n        /* \"--CODEGEN--\":5:7   */\n    tag_50:\n        /* \"rockpaperscissors.sol\":2317:2678  function play(bytes32 encrMove) public isRegistered returns (bool) {... */\n      pop\n      tag_51\n      0x04\n      dup1\n      calldatasize\n      sub\n        /* \"--CODEGEN--\":13:15   */\n      0x20\n        /* \"--CODEGEN--\":8:11   */\n      dup2\n        /* \"--CODEGEN--\":5:16   */\n      lt\n        /* \"--CODEGEN--\":2:4   */\n      iszero\n      tag_52\n      jumpi\n        /* \"--CODEGEN--\":29:30   */\n      0x00\n        /* \"--CODEGEN--\":26:27   */\n      dup1\n        /* \"--CODEGEN--\":19:31   */\n      revert\n        /* \"--CODEGEN--\":2:4   */\n    tag_52:\n        /* \"rockpaperscissors.sol\":2317:2678  function play(bytes32 encrMove) public isRegistered returns (bool) {... */\n      dup2\n      add\n      swap1\n      dup1\n      dup1\n      calldataload\n      swap1\n      0x20\n      add\n      swap1\n      swap3\n      swap2\n      swap1\n      pop\n      pop\n      pop\n      tag_53\n      jump\t// in\n    tag_51:\n      mload(0x40)\n      dup1\n      dup3\n      iszero\n      iszero\n      iszero\n      iszero\n      dup2\n      mstore\n      0x20\n      add\n      swap2\n      pop\n      pop\n      mload(0x40)\n      dup1\n      swap2\n      sub\n      swap1\n      return\n        /* \"rockpaperscissors.sol\":7475:7701  function whoAmI() public view returns (uint) {... */\n    tag_13:\n      callvalue\n        /* \"--CODEGEN--\":8:17   */\n      dup1\n        /* \"--CODEGEN--\":5:7   */\n      iszero\n      tag_54\n      jumpi\n        /* \"--CODEGEN--\":30:31   */\n      0x00\n        /* \"--CODEGEN--\":27:28   */\n      dup1\n        /* \"--CODEGEN--\":20:32   */\n      revert\n        /* \"--CODEGEN--\":5:7   */\n    tag_54:\n        /* \"rockpaperscissors.sol\":7475:7701  function whoAmI() public view returns (uint) {... */\n      pop\n      tag_55\n      tag_56\n      jump\t// in\n    tag_55:\n      mload(0x40)\n      dup1\n      dup3\n      dup2\n      mstore\n      0x20\n      add\n      swap2\n      pop\n      pop\n      mload(0x40)\n      dup1\n      swap2\n      sub\n      swap1\n      return\n        /* \"rockpaperscissors.sol\":1506:1857  function register() public payable validBet notAlreadyRegistered returns (uint) {... */\n    tag_16:\n        /* \"rockpaperscissors.sol\":1580:1584  uint */\n      0x00\n        /* \"rockpaperscissors.sol\":97:105  1 finney */\n      0x038d7ea4c68000\n        /* \"rockpaperscissors.sol\":1197:1206  msg.value */\n      callvalue\n        /* \"rockpaperscissors.sol\":1197:1217  msg.value >= BET_MIN */\n      lt\n      iszero\n        /* \"rockpaperscissors.sol\":1189:1218  require(msg.value >= BET_MIN) */\n      tag_58\n      jumpi\n      0x00\n      dup1\n      revert\n    tag_58:\n        /* \"rockpaperscissors.sol\":1250:1251  0 */\n      0x00\n        /* \"rockpaperscissors.sol\":1236:1246  initialBet */\n      dup1\n      sload\n        /* \"rockpaperscissors.sol\":1236:1251  initialBet == 0 */\n      eq\n        /* \"rockpaperscissors.sol\":1236:1278  initialBet == 0 || msg.value >= initialBet */\n      dup1\n      tag_59\n      jumpi\n      pop\n        /* \"rockpaperscissors.sol\":1268:1278  initialBet */\n      sload(0x00)\n        /* \"rockpaperscissors.sol\":1255:1264  msg.value */\n      callvalue\n        /* \"rockpaperscissors.sol\":1255:1278  msg.value >= initialBet */\n      lt\n      iszero\n        /* \"rockpaperscissors.sol\":1236:1278  initialBet == 0 || msg.value >= initialBet */\n    tag_59:\n        /* \"rockpaperscissors.sol\":1228:1279  require(initialBet == 0 || msg.value >= initialBet) */\n      tag_60\n      jumpi\n      0x00\n      dup1\n      revert\n    tag_60:\n        /* \"rockpaperscissors.sol\":1367:1374  playerA */\n      0x02\n      0x00\n      swap1\n      sload\n      swap1\n      0x0100\n      exp\n      swap1\n      div\n      0xffffffffffffffffffffffffffffffffffffffff\n      and\n        /* \"rockpaperscissors.sol\":1353:1374  msg.sender != playerA */\n      0xffffffffffffffffffffffffffffffffffffffff\n      and\n        /* \"rockpaperscissors.sol\":1353:1363  msg.sender */\n      caller\n        /* \"rockpaperscissors.sol\":1353:1374  msg.sender != playerA */\n      0xffffffffffffffffffffffffffffffffffffffff\n      and\n      eq\n      iszero\n        /* \"rockpaperscissors.sol\":1353:1399  msg.sender != playerA && msg.sender != playerB */\n      dup1\n      iszero\n      tag_62\n      jumpi\n      pop\n        /* \"rockpaperscissors.sol\":1392:1399  playerB */\n      0x03\n      0x00\n      swap1\n      sload\n      swap1\n      0x0100\n      exp\n      swap1\n      div\n      0xffffffffffffffffffffffffffffffffffffffff\n      and\n        /* \"rockpaperscissors.sol\":1378:1399  msg.sender != playerB */\n      0xffffffffffffffffffffffffffffffffffffffff\n      and\n        /* \"rockpaperscissors.sol\":1378:1388  msg.sender */\n      caller\n        /* \"rockpaperscissors.sol\":1378:1399  msg.sender != playerB */\n      0xffffffffffffffffffffffffffffffffffffffff\n      and\n      eq\n      iszero\n        /* \"rockpaperscissors.sol\":1353:1399  msg.sender != playerA && msg.sender != playerB */\n    tag_62:\n        /* \"rockpaperscissors.sol\":1345:1400  require(msg.sender != playerA && msg.sender != playerB) */\n      tag_63\n      jumpi\n      0x00\n      dup1\n      revert\n    tag_63:\n        /* \"rockpaperscissors.sol\":1619:1622  0x0 */\n      0x00\n        /* \"rockpaperscissors.sol\":1600:1623  playerA == address(0x0) */\n      0xffffffffffffffffffffffffffffffffffffffff\n      and\n        /* \"rockpaperscissors.sol\":1600:1607  playerA */\n      0x02\n      0x00\n      swap1\n      sload\n      swap1\n      0x0100\n      exp\n      swap1\n      div\n      0xffffffffffffffffffffffffffffffffffffffff\n      and\n        /* \"rockpaperscissors.sol\":1600:1623  playerA == address(0x0) */\n      0xffffffffffffffffffffffffffffffffffffffff\n      and\n      eq\n        /* \"rockpaperscissors.sol\":1596:1833  if (playerA == address(0x0)) {... */\n      iszero\n      tag_65\n      jumpi\n        /* \"rockpaperscissors.sol\":1652:1662  msg.sender */\n      caller\n        /* \"rockpaperscissors.sol\":1639:1646  playerA */\n      0x02\n      0x00\n        /* \"rockpaperscissors.sol\":1639:1662  playerA    = msg.sender */\n      0x0100\n      exp\n      dup2\n      sload\n      dup2\n      0xffffffffffffffffffffffffffffffffffffffff\n      mul\n      not\n      and\n      swap1\n      dup4\n      0xffffffffffffffffffffffffffffffffffffffff\n      and\n      mul\n      or\n      swap1\n      sstore\n      pop\n        /* \"rockpaperscissors.sol\":1689:1698  msg.value */\n      callvalue\n        /* \"rockpaperscissors.sol\":1676:1686  initialBet */\n      0x00\n        /* \"rockpaperscissors.sol\":1676:1698  initialBet = msg.value */\n      dup2\n      swap1\n      sstore\n      pop\n        /* \"rockpaperscissors.sol\":1719:1720  1 */\n      0x01\n        /* \"rockpaperscissors.sol\":1712:1720  return 1 */\n      swap1\n      pop\n      jump(tag_64)\n        /* \"rockpaperscissors.sol\":1596:1833  if (playerA == address(0x0)) {... */\n    tag_65:\n        /* \"rockpaperscissors.sol\":1760:1763  0x0 */\n      0x00\n        /* \"rockpaperscissors.sol\":1741:1764  playerB == address(0x0) */\n      0xffffffffffffffffffffffffffffffffffffffff\n      and\n        /* \"rockpaperscissors.sol\":1741:1748  playerB */\n      0x03\n      0x00\n      swap1\n      sload\n      swap1\n      0x0100\n      exp\n      swap1\n      div\n      0xffffffffffffffffffffffffffffffffffffffff\n      and\n        /* \"rockpaperscissors.sol\":1741:1764  playerB == address(0x0) */\n      0xffffffffffffffffffffffffffffffffffffffff\n      and\n      eq\n        /* \"rockpaperscissors.sol\":1737:1833  if (playerB == address(0x0)) {... */\n      iszero\n      tag_67\n      jumpi\n        /* \"rockpaperscissors.sol\":1790:1800  msg.sender */\n      caller\n        /* \"rockpaperscissors.sol\":1780:1787  playerB */\n      0x03\n      0x00\n        /* \"rockpaperscissors.sol\":1780:1800  playerB = msg.sender */\n      0x0100\n      exp\n      dup2\n      sload\n      dup2\n      0xffffffffffffffffffffffffffffffffffffffff\n      mul\n      not\n      and\n      swap1\n      dup4\n      0xffffffffffffffffffffffffffffffffffffffff\n      and\n      mul\n      or\n      swap1\n      sstore\n      pop\n        /* \"rockpaperscissors.sol\":1821:1822  2 */\n      0x02\n        /* \"rockpaperscissors.sol\":1814:1822  return 2 */\n      swap1\n      pop\n      jump(tag_64)\n        /* \"rockpaperscissors.sol\":1737:1833  if (playerB == address(0x0)) {... */\n    tag_67:\n        /* \"rockpaperscissors.sol\":1849:1850  0 */\n      0x00\n        /* \"rockpaperscissors.sol\":1842:1850  return 0 */\n      swap1\n      pop\n        /* \"rockpaperscissors.sol\":1410:1411  _ */\n    tag_64:\n        /* \"rockpaperscissors.sol\":1506:1857  function register() public payable validBet notAlreadyRegistered returns (uint) {... */\n      swap1\n      jump\t// out\n        /* \"rockpaperscissors.sol\":221:243  uint public initialBet */\n    tag_19:\n      sload(0x00)\n      dup2\n      jump\t// out\n        /* \"rockpaperscissors.sol\":59:105  uint constant public BET_MIN        = 1 finney */\n    tag_22:\n        /* \"rockpaperscissors.sol\":97:105  1 finney */\n      0x038d7ea4c68000\n        /* \"rockpaperscissors.sol\":59:105  uint constant public BET_MIN        = 1 finney */\n      dup2\n      jump\t// out\n        /* \"rockpaperscissors.sol\":133:181  uint constant public REVEAL_TIMEOUT = 10 minutes */\n    tag_25:\n        /* \"rockpaperscissors.sol\":171:181  10 minutes */\n      0x0258\n        /* \"rockpaperscissors.sol\":133:181  uint constant public REVEAL_TIMEOUT = 10 minutes */\n      dup2\n      jump\t// out\n        /* \"rockpaperscissors.sol\":7996:8127  function bothRevealed() public view returns (bool) {... */\n    tag_28:\n        /* \"rockpaperscissors.sol\":8041:8045  bool */\n      0x00\n        /* \"rockpaperscissors.sol\":8080:8090  Moves.None */\n      dup1\n        /* \"rockpaperscissors.sol\":8065:8090  movePlayerA != Moves.None */\n      0x03\n      dup2\n      gt\n      iszero\n      tag_69\n      jumpi\n      invalid\n    tag_69:\n        /* \"rockpaperscissors.sol\":8065:8076  movePlayerA */\n      0x06\n      0x00\n      swap1\n      sload\n      swap1\n      0x0100\n      exp\n      swap1\n      div\n      0xff\n      and\n        /* \"rockpaperscissors.sol\":8065:8090  movePlayerA != Moves.None */\n      0x03\n      dup2\n      gt\n      iszero\n      tag_70\n      jumpi\n      invalid\n    tag_70:\n      eq\n      iszero\n        /* \"rockpaperscissors.sol\":8065:8119  movePlayerA != Moves.None && movePlayerB != Moves.None */\n      dup1\n      iszero\n      tag_71\n      jumpi\n      pop\n        /* \"rockpaperscissors.sol\":8109:8119  Moves.None */\n      0x00\n        /* \"rockpaperscissors.sol\":8094:8119  movePlayerB != Moves.None */\n      0x03\n      dup2\n      gt\n      iszero\n      tag_72\n      jumpi\n      invalid\n    tag_72:\n        /* \"rockpaperscissors.sol\":8094:8105  movePlayerB */\n      0x06\n      0x01\n      swap1\n      sload\n      swap1\n      0x0100\n      exp\n      swap1\n      div\n      0xff\n      and\n        /* \"rockpaperscissors.sol\":8094:8119  movePlayerB != Moves.None */\n      0x03\n      dup2\n      gt\n      iszero\n      tag_73\n      jumpi\n      invalid\n    tag_73:\n      eq\n      iszero\n        /* \"rockpaperscissors.sol\":8065:8119  movePlayerA != Moves.None && movePlayerB != Moves.None */\n    tag_71:\n        /* \"rockpaperscissors.sol\":8057:8120  return (movePlayerA != Moves.None && movePlayerB != Moves.None) */\n      swap1\n      pop\n        /* \"rockpaperscissors.sol\":7996:8127  function bothRevealed() public view returns (bool) {... */\n      swap1\n      jump\t// out\n        /* \"rockpaperscissors.sol\":3183:4087  function reveal(string memory clearMove) public isRegistered commitPhaseEnded returns (Moves) {... */\n    tag_35:\n        /* \"rockpaperscissors.sol\":3270:3275  Moves */\n      0x00\n        /* \"rockpaperscissors.sol\":2164:2171  playerA */\n      0x02\n      0x00\n      swap1\n      sload\n      swap1\n      0x0100\n      exp\n      swap1\n      div\n      0xffffffffffffffffffffffffffffffffffffffff\n      and\n        /* \"rockpaperscissors.sol\":2150:2171  msg.sender == playerA */\n      0xffffffffffffffffffffffffffffffffffffffff\n      and\n        /* \"rockpaperscissors.sol\":2150:2160  msg.sender */\n      caller\n        /* \"rockpaperscissors.sol\":2150:2171  msg.sender == playerA */\n      0xffffffffffffffffffffffffffffffffffffffff\n      and\n      eq\n        /* \"rockpaperscissors.sol\":2150:2196  msg.sender == playerA || msg.sender == playerB */\n      dup1\n      tag_75\n      jumpi\n      pop\n        /* \"rockpaperscissors.sol\":2189:2196  playerB */\n      0x03\n      0x00\n      swap1\n      sload\n      swap1\n      0x0100\n      exp\n      swap1\n      div\n      0xffffffffffffffffffffffffffffffffffffffff\n      and\n        /* \"rockpaperscissors.sol\":2175:2196  msg.sender == playerB */\n      0xffffffffffffffffffffffffffffffffffffffff\n      and\n        /* \"rockpaperscissors.sol\":2175:2185  msg.sender */\n      caller\n        /* \"rockpaperscissors.sol\":2175:2196  msg.sender == playerB */\n      0xffffffffffffffffffffffffffffffffffffffff\n      and\n      eq\n        /* \"rockpaperscissors.sol\":2150:2196  msg.sender == playerA || msg.sender == playerB */\n    tag_75:\n        /* \"rockpaperscissors.sol\":2141:2197  require (msg.sender == playerA || msg.sender == playerB) */\n      tag_76\n      jumpi\n      0x00\n      dup1\n      revert\n    tag_76:\n        /* \"rockpaperscissors.sol\":2993:2996  0x0 */\n      0x00\n        /* \"rockpaperscissors.sol\":2974:2996  encrMovePlayerA != 0x0 */\n      dup1\n      shl\n        /* \"rockpaperscissors.sol\":2974:2989  encrMovePlayerA */\n      sload(0x04)\n        /* \"rockpaperscissors.sol\":2974:2996  encrMovePlayerA != 0x0 */\n      eq\n      iszero\n        /* \"rockpaperscissors.sol\":2974:3022  encrMovePlayerA != 0x0 && encrMovePlayerB != 0x0 */\n      dup1\n      iszero\n      tag_78\n      jumpi\n      pop\n        /* \"rockpaperscissors.sol\":3019:3022  0x0 */\n      0x00\n        /* \"rockpaperscissors.sol\":3000:3022  encrMovePlayerB != 0x0 */\n      dup1\n      shl\n        /* \"rockpaperscissors.sol\":3000:3015  encrMovePlayerB */\n      sload(0x05)\n        /* \"rockpaperscissors.sol\":3000:3022  encrMovePlayerB != 0x0 */\n      eq\n      iszero\n        /* \"rockpaperscissors.sol\":2974:3022  encrMovePlayerA != 0x0 && encrMovePlayerB != 0x0 */\n    tag_78:\n        /* \"rockpaperscissors.sol\":2966:3023  require(encrMovePlayerA != 0x0 && encrMovePlayerB != 0x0) */\n      tag_79\n      jumpi\n      0x00\n      dup1\n      revert\n    tag_79:\n        /* \"rockpaperscissors.sol\":3287:3303  bytes32 encrMove */\n      0x00\n        /* \"rockpaperscissors.sol\":3306:3341  sha256(abi.encodePacked(clearMove)) */\n      0x02\n        /* \"rockpaperscissors.sol\":3330:3339  clearMove */\n      dup4\n        /* \"rockpaperscissors.sol\":3313:3340  abi.encodePacked(clearMove) */\n      add(0x20, mload(0x40))\n      dup1\n      dup3\n      dup1\n      mload\n      swap1\n      0x20\n      add\n      swap1\n      dup1\n      dup4\n      dup4\n        /* \"--CODEGEN--\":36:189   */\n    tag_81:\n        /* \"--CODEGEN--\":66:68   */\n      0x20\n        /* \"--CODEGEN--\":61:64   */\n      dup4\n        /* \"--CODEGEN--\":58:69   */\n      lt\n        /* \"--CODEGEN--\":36:189   */\n      tag_83\n      jumpi\n        /* \"--CODEGEN--\":182:185   */\n      dup1\n        /* \"--CODEGEN--\":176:186   */\n      mload\n        /* \"--CODEGEN--\":171:174   */\n      dup3\n        /* \"--CODEGEN--\":164:187   */\n      mstore\n        /* \"--CODEGEN--\":98:100   */\n      0x20\n        /* \"--CODEGEN--\":93:96   */\n      dup3\n        /* \"--CODEGEN--\":89:101   */\n      add\n        /* \"--CODEGEN--\":82:101   */\n      swap2\n      pop\n        /* \"--CODEGEN--\":123:125   */\n      0x20\n        /* \"--CODEGEN--\":118:121   */\n      dup2\n        /* \"--CODEGEN--\":114:126   */\n      add\n        /* \"--CODEGEN--\":107:126   */\n      swap1\n      pop\n        /* \"--CODEGEN--\":148:150   */\n      0x20\n        /* \"--CODEGEN--\":143:146   */\n      dup4\n        /* \"--CODEGEN--\":139:151   */\n      sub\n        /* \"--CODEGEN--\":132:151   */\n      swap3\n      pop\n        /* \"--CODEGEN--\":36:189   */\n      jump(tag_81)\n    tag_83:\n        /* \"--CODEGEN--\":274:275   */\n      0x01\n        /* \"--CODEGEN--\":267:270   */\n      dup4\n        /* \"--CODEGEN--\":263:265   */\n      0x20\n        /* \"--CODEGEN--\":259:271   */\n      sub\n        /* \"--CODEGEN--\":254:257   */\n      0x0100\n        /* \"--CODEGEN--\":250:272   */\n      exp\n        /* \"--CODEGEN--\":246:276   */\n      sub\n        /* \"--CODEGEN--\":315:319   */\n      dup1\n        /* \"--CODEGEN--\":311:320   */\n      not\n        /* \"--CODEGEN--\":305:308   */\n      dup3\n        /* \"--CODEGEN--\":299:309   */\n      mload\n        /* \"--CODEGEN--\":295:321   */\n      and\n        /* \"--CODEGEN--\":356:360   */\n      dup2\n        /* \"--CODEGEN--\":350:353   */\n      dup5\n        /* \"--CODEGEN--\":344:354   */\n      mload\n        /* \"--CODEGEN--\":340:361   */\n      and\n        /* \"--CODEGEN--\":389:396   */\n      dup1\n        /* \"--CODEGEN--\":380:387   */\n      dup3\n        /* \"--CODEGEN--\":377:397   */\n      or\n        /* \"--CODEGEN--\":372:375   */\n      dup6\n        /* \"--CODEGEN--\":365:398   */\n      mstore\n        /* \"--CODEGEN--\":3:402   */\n      pop\n      pop\n      pop\n        /* \"rockpaperscissors.sol\":3313:3340  abi.encodePacked(clearMove) */\n      pop\n      pop\n      pop\n      swap1\n      pop\n      add\n      swap2\n      pop\n      pop\n      mload(0x40)\n        /* \"--CODEGEN--\":49:53   */\n      0x20\n        /* \"--CODEGEN--\":39:46   */\n      dup2\n        /* \"--CODEGEN--\":30:37   */\n      dup4\n        /* \"--CODEGEN--\":26:47   */\n      sub\n        /* \"--CODEGEN--\":22:54   */\n      sub\n        /* \"--CODEGEN--\":13:20   */\n      dup2\n        /* \"--CODEGEN--\":6:55   */\n      mstore\n        /* \"rockpaperscissors.sol\":3313:3340  abi.encodePacked(clearMove) */\n      swap1\n      0x40\n      mstore\n        /* \"rockpaperscissors.sol\":3306:3341  sha256(abi.encodePacked(clearMove)) */\n      mload(0x40)\n      dup1\n      dup3\n      dup1\n      mload\n      swap1\n      0x20\n      add\n      swap1\n      dup1\n      dup4\n      dup4\n        /* \"--CODEGEN--\":36:189   */\n    tag_84:\n        /* \"--CODEGEN--\":66:68   */\n      0x20\n        /* \"--CODEGEN--\":61:64   */\n      dup4\n        /* \"--CODEGEN--\":58:69   */\n      lt\n        /* \"--CODEGEN--\":36:189   */\n      tag_86\n      jumpi\n        /* \"--CODEGEN--\":182:185   */\n      dup1\n        /* \"--CODEGEN--\":176:186   */\n      mload\n        /* \"--CODEGEN--\":171:174   */\n      dup3\n        /* \"--CODEGEN--\":164:187   */\n      mstore\n        /* \"--CODEGEN--\":98:100   */\n      0x20\n        /* \"--CODEGEN--\":93:96   */\n      dup3\n        /* \"--CODEGEN--\":89:101   */\n      add\n        /* \"--CODEGEN--\":82:101   */\n      swap2\n      pop\n        /* \"--CODEGEN--\":123:125   */\n      0x20\n        /* \"--CODEGEN--\":118:121   */\n      dup2\n        /* \"--CODEGEN--\":114:126   */\n      add\n        /* \"--CODEGEN--\":107:126   */\n      swap1\n      pop\n        /* \"--CODEGEN--\":148:150   */\n      0x20\n        /* \"--CODEGEN--\":143:146   */\n      dup4\n        /* \"--CODEGEN--\":139:151   */\n      sub\n        /* \"--CODEGEN--\":132:151   */\n      swap3\n      pop\n        /* \"--CODEGEN--\":36:189   */\n      jump(tag_84)\n    tag_86:\n        /* \"--CODEGEN--\":274:275   */\n      0x01\n        /* \"--CODEGEN--\":267:270   */\n      dup4\n        /* \"--CODEGEN--\":263:265   */\n      0x20\n        /* \"--CODEGEN--\":259:271   */\n      sub\n        /* \"--CODEGEN--\":254:257   */\n      0x0100\n        /* \"--CODEGEN--\":250:272   */\n      exp\n        /* \"--CODEGEN--\":246:276   */\n      sub\n        /* \"--CODEGEN--\":315:319   */\n      dup1\n        /* \"--CODEGEN--\":311:320   */\n      not\n        /* \"--CODEGEN--\":305:308   */\n      dup3\n        /* \"--CODEGEN--\":299:309   */\n      mload\n        /* \"--CODEGEN--\":295:321   */\n      and\n        /* \"--CODEGEN--\":356:360   */\n      dup2\n        /* \"--CODEGEN--\":350:353   */\n      dup5\n        /* \"--CODEGEN--\":344:354   */\n      mload\n        /* \"--CODEGEN--\":340:361   */\n      and\n        /* \"--CODEGEN--\":389:396   */\n      dup1\n        /* \"--CODEGEN--\":380:387   */\n      dup3\n        /* \"--CODEGEN--\":377:397   */\n      or\n        /* \"--CODEGEN--\":372:375   */\n      dup6\n        /* \"--CODEGEN--\":365:398   */\n      mstore\n        /* \"--CODEGEN--\":3:402   */\n      pop\n      pop\n      pop\n        /* \"rockpaperscissors.sol\":3306:3341  sha256(abi.encodePacked(clearMove)) */\n      pop\n      pop\n      pop\n      swap1\n      pop\n      add\n      swap2\n      pop\n      pop\n      0x20\n      mload(0x40)\n      dup1\n      dup4\n      sub\n      dup2\n      dup6\n      gas\n      staticcall\n      iszero\n        /* \"--CODEGEN--\":8:17   */\n      dup1\n        /* \"--CODEGEN--\":5:7   */\n      iszero\n      tag_87\n      jumpi\n        /* \"--CODEGEN--\":45:61   */\n      returndatasize\n        /* \"--CODEGEN--\":42:43   */\n      0x00\n        /* \"--CODEGEN--\":39:40   */\n      dup1\n        /* \"--CODEGEN--\":24:62   */\n      returndatacopy\n        /* \"--CODEGEN--\":77:93   */\n      returndatasize\n        /* \"--CODEGEN--\":74:75   */\n      0x00\n        /* \"--CODEGEN--\":67:94   */\n      revert\n        /* \"--CODEGEN--\":5:7   */\n    tag_87:\n        /* \"rockpaperscissors.sol\":3306:3341  sha256(abi.encodePacked(clearMove)) */\n      pop\n      pop\n      pop\n      mload(0x40)\n      returndatasize\n        /* \"--CODEGEN--\":13:15   */\n      0x20\n        /* \"--CODEGEN--\":8:11   */\n      dup2\n        /* \"--CODEGEN--\":5:16   */\n      lt\n        /* \"--CODEGEN--\":2:4   */\n      iszero\n      tag_88\n      jumpi\n        /* \"--CODEGEN--\":29:30   */\n      0x00\n        /* \"--CODEGEN--\":26:27   */\n      dup1\n        /* \"--CODEGEN--\":19:31   */\n      revert\n        /* \"--CODEGEN--\":2:4   */\n    tag_88:\n        /* \"rockpaperscissors.sol\":3306:3341  sha256(abi.encodePacked(clearMove)) */\n      dup2\n      add\n      swap1\n      dup1\n      dup1\n      mload\n      swap1\n      0x20\n      add\n      swap1\n      swap3\n      swap2\n      swap1\n      pop\n      pop\n      pop\n        /* \"rockpaperscissors.sol\":3287:3341  bytes32 encrMove = sha256(abi.encodePacked(clearMove)) */\n      swap1\n      pop\n        /* \"rockpaperscissors.sol\":3395:3405  Moves move */\n      0x00\n        /* \"rockpaperscissors.sol\":3420:3443  getFirstChar(clearMove) */\n      tag_89\n        /* \"rockpaperscissors.sol\":3433:3442  clearMove */\n      dup5\n        /* \"rockpaperscissors.sol\":3420:3432  getFirstChar */\n      tag_90\n        /* \"rockpaperscissors.sol\":3420:3443  getFirstChar(clearMove) */\n      jump\t// in\n    tag_89:\n        /* \"rockpaperscissors.sol\":3414:3444  Moves(getFirstChar(clearMove)) */\n      0x03\n      dup2\n      gt\n      iszero\n      tag_91\n      jumpi\n      invalid\n    tag_91:\n        /* \"rockpaperscissors.sol\":3395:3444  Moves move       = Moves(getFirstChar(clearMove)) */\n      swap1\n      pop\n        /* \"rockpaperscissors.sol\":3547:3557  Moves.None */\n      0x00\n        /* \"rockpaperscissors.sol\":3539:3557  move == Moves.None */\n      0x03\n      dup2\n      gt\n      iszero\n      tag_92\n      jumpi\n      invalid\n    tag_92:\n        /* \"rockpaperscissors.sol\":3539:3543  move */\n      dup2\n        /* \"rockpaperscissors.sol\":3539:3557  move == Moves.None */\n      0x03\n      dup2\n      gt\n      iszero\n      tag_93\n      jumpi\n      invalid\n    tag_93:\n      eq\n        /* \"rockpaperscissors.sol\":3535:3601  if (move == Moves.None) {... */\n      iszero\n      tag_94\n      jumpi\n        /* \"rockpaperscissors.sol\":3580:3590  Moves.None */\n      0x00\n        /* \"rockpaperscissors.sol\":3573:3590  return Moves.None */\n      swap3\n      pop\n      pop\n      pop\n      jump(tag_80)\n        /* \"rockpaperscissors.sol\":3535:3601  if (move == Moves.None) {... */\n    tag_94:\n        /* \"rockpaperscissors.sol\":3677:3684  playerA */\n      0x02\n      0x00\n      swap1\n      sload\n      swap1\n      0x0100\n      exp\n      swap1\n      div\n      0xffffffffffffffffffffffffffffffffffffffff\n      and\n        /* \"rockpaperscissors.sol\":3663:3684  msg.sender == playerA */\n      0xffffffffffffffffffffffffffffffffffffffff\n      and\n        /* \"rockpaperscissors.sol\":3663:3673  msg.sender */\n      caller\n        /* \"rockpaperscissors.sol\":3663:3684  msg.sender == playerA */\n      0xffffffffffffffffffffffffffffffffffffffff\n      and\n      eq\n        /* \"rockpaperscissors.sol\":3663:3715  msg.sender == playerA && encrMove == encrMovePlayerA */\n      dup1\n      iszero\n      tag_95\n      jumpi\n      pop\n        /* \"rockpaperscissors.sol\":3700:3715  encrMovePlayerA */\n      sload(0x04)\n        /* \"rockpaperscissors.sol\":3688:3696  encrMove */\n      dup3\n        /* \"rockpaperscissors.sol\":3688:3715  encrMove == encrMovePlayerA */\n      eq\n        /* \"rockpaperscissors.sol\":3663:3715  msg.sender == playerA && encrMove == encrMovePlayerA */\n    tag_95:\n        /* \"rockpaperscissors.sol\":3659:3915  if (msg.sender == playerA && encrMove == encrMovePlayerA) {... */\n      iszero\n      tag_96\n      jumpi\n        /* \"rockpaperscissors.sol\":3745:3749  move */\n      dup1\n        /* \"rockpaperscissors.sol\":3731:3742  movePlayerA */\n      0x06\n      0x00\n        /* \"rockpaperscissors.sol\":3731:3749  movePlayerA = move */\n      0x0100\n      exp\n      dup2\n      sload\n      dup2\n      0xff\n      mul\n      not\n      and\n      swap1\n      dup4\n      0x03\n      dup2\n      gt\n      iszero\n      tag_97\n      jumpi\n      invalid\n    tag_97:\n      mul\n      or\n      swap1\n      sstore\n      pop\n        /* \"rockpaperscissors.sol\":3659:3915  if (msg.sender == playerA && encrMove == encrMovePlayerA) {... */\n      jump(tag_98)\n    tag_96:\n        /* \"rockpaperscissors.sol\":3784:3791  playerB */\n      0x03\n      0x00\n      swap1\n      sload\n      swap1\n      0x0100\n      exp\n      swap1\n      div\n      0xffffffffffffffffffffffffffffffffffffffff\n      and\n        /* \"rockpaperscissors.sol\":3770:3791  msg.sender == playerB */\n      0xffffffffffffffffffffffffffffffffffffffff\n      and\n        /* \"rockpaperscissors.sol\":3770:3780  msg.sender */\n      caller\n        /* \"rockpaperscissors.sol\":3770:3791  msg.sender == playerB */\n      0xffffffffffffffffffffffffffffffffffffffff\n      and\n      eq\n        /* \"rockpaperscissors.sol\":3770:3822  msg.sender == playerB && encrMove == encrMovePlayerB */\n      dup1\n      iszero\n      tag_99\n      jumpi\n      pop\n        /* \"rockpaperscissors.sol\":3807:3822  encrMovePlayerB */\n      sload(0x05)\n        /* \"rockpaperscissors.sol\":3795:3803  encrMove */\n      dup3\n        /* \"rockpaperscissors.sol\":3795:3822  encrMove == encrMovePlayerB */\n      eq\n        /* \"rockpaperscissors.sol\":3770:3822  msg.sender == playerB && encrMove == encrMovePlayerB */\n    tag_99:\n        /* \"rockpaperscissors.sol\":3766:3915  if (msg.sender == playerB && encrMove == encrMovePlayerB) {... */\n      iszero\n      tag_100\n      jumpi\n        /* \"rockpaperscissors.sol\":3852:3856  move */\n      dup1\n        /* \"rockpaperscissors.sol\":3838:3849  movePlayerB */\n      0x06\n      0x01\n        /* \"rockpaperscissors.sol\":3838:3856  movePlayerB = move */\n      0x0100\n      exp\n      dup2\n      sload\n      dup2\n      0xff\n      mul\n      not\n      and\n      swap1\n      dup4\n      0x03\n      dup2\n      gt\n      iszero\n      tag_101\n      jumpi\n      invalid\n    tag_101:\n      mul\n      or\n      swap1\n      sstore\n      pop\n        /* \"rockpaperscissors.sol\":3766:3915  if (msg.sender == playerB && encrMove == encrMovePlayerB) {... */\n      jump(tag_102)\n    tag_100:\n        /* \"rockpaperscissors.sol\":3894:3904  Moves.None */\n      0x00\n        /* \"rockpaperscissors.sol\":3887:3904  return Moves.None */\n      swap3\n      pop\n      pop\n      pop\n      jump(tag_80)\n        /* \"rockpaperscissors.sol\":3766:3915  if (msg.sender == playerB && encrMove == encrMovePlayerB) {... */\n    tag_102:\n        /* \"rockpaperscissors.sol\":3659:3915  if (msg.sender == playerA && encrMove == encrMovePlayerA) {... */\n    tag_98:\n        /* \"rockpaperscissors.sol\":4014:4015  0 */\n      0x00\n        /* \"rockpaperscissors.sol\":3999:4010  firstReveal */\n      sload(0x01)\n        /* \"rockpaperscissors.sol\":3999:4015  firstReveal == 0 */\n      eq\n        /* \"rockpaperscissors.sol\":3995:4059  if (firstReveal == 0) {... */\n      iszero\n      tag_103\n      jumpi\n        /* \"rockpaperscissors.sol\":4045:4048  now */\n      timestamp\n        /* \"rockpaperscissors.sol\":4031:4042  firstReveal */\n      0x01\n        /* \"rockpaperscissors.sol\":4031:4048  firstReveal = now */\n      dup2\n      swap1\n      sstore\n      pop\n        /* \"rockpaperscissors.sol\":3995:4059  if (firstReveal == 0) {... */\n    tag_103:\n        /* \"rockpaperscissors.sol\":4076:4080  move */\n      dup1\n        /* \"rockpaperscissors.sol\":4069:4080  return move */\n      swap3\n      pop\n      pop\n      pop\n        /* \"rockpaperscissors.sol\":3033:3034  _ */\n    tag_80:\n        /* \"rockpaperscissors.sol\":3183:4087  function reveal(string memory clearMove) public isRegistered commitPhaseEnded returns (Moves) {... */\n      swap2\n      swap1\n      pop\n      jump\t// out\n        /* \"rockpaperscissors.sol\":8197:8396  function revealTimeLeft() public view returns (int) {... */\n    tag_39:\n        /* \"rockpaperscissors.sol\":8244:8247  int */\n      0x00\n        /* \"rockpaperscissors.sol\":8278:8279  0 */\n      dup1\n        /* \"rockpaperscissors.sol\":8263:8274  firstReveal */\n      sload(0x01)\n        /* \"rockpaperscissors.sol\":8263:8279  firstReveal != 0 */\n      eq\n        /* \"rockpaperscissors.sol\":8259:8354  if (firstReveal != 0) {... */\n      tag_105\n      jumpi\n        /* \"rockpaperscissors.sol\":8339:8342  now */\n      timestamp\n        /* \"rockpaperscissors.sol\":171:181  10 minutes */\n      0x0258\n        /* \"rockpaperscissors.sol\":8307:8318  firstReveal */\n      sload(0x01)\n        /* \"rockpaperscissors.sol\":8307:8335  firstReveal + REVEAL_TIMEOUT */\n      add\n        /* \"rockpaperscissors.sol\":8306:8342  (firstReveal + REVEAL_TIMEOUT) - now */\n      sub\n        /* \"rockpaperscissors.sol\":8295:8343  return int((firstReveal + REVEAL_TIMEOUT) - now) */\n      swap1\n      pop\n      jump(tag_104)\n        /* \"rockpaperscissors.sol\":8259:8354  if (firstReveal != 0) {... */\n    tag_105:\n        /* \"rockpaperscissors.sol\":171:181  10 minutes */\n      0x0258\n        /* \"rockpaperscissors.sol\":8363:8389  return int(REVEAL_TIMEOUT) */\n      swap1\n      pop\n        /* \"rockpaperscissors.sol\":8197:8396  function revealTimeLeft() public view returns (int) {... */\n    tag_104:\n      swap1\n      jump\t// out\n        /* \"rockpaperscissors.sol\":7341:7443  function getContractBalance() public view returns (uint) {... */\n    tag_42:\n        /* \"rockpaperscissors.sol\":7392:7396  uint */\n      0x00\n        /* \"rockpaperscissors.sol\":7415:7436  address(this).balance */\n      selfbalance\n        /* \"rockpaperscissors.sol\":7408:7436  return address(this).balance */\n      swap1\n      pop\n        /* \"rockpaperscissors.sol\":7341:7443  function getContractBalance() public view returns (uint) {... */\n      swap1\n      jump\t// out\n        /* \"rockpaperscissors.sol\":5016:5919  function getOutcome() public revealPhaseEnded returns (Outcomes) {... */\n    tag_45:\n        /* \"rockpaperscissors.sol\":5071:5079  Outcomes */\n      0x00\n        /* \"rockpaperscissors.sol\":4798:4808  Moves.None */\n      dup1\n        /* \"rockpaperscissors.sol\":4783:4808  movePlayerA != Moves.None */\n      0x03\n      dup2\n      gt\n      iszero\n      tag_108\n      jumpi\n      invalid\n    tag_108:\n        /* \"rockpaperscissors.sol\":4783:4794  movePlayerA */\n      0x06\n      0x00\n      swap1\n      sload\n      swap1\n      0x0100\n      exp\n      swap1\n      div\n      0xff\n      and\n        /* \"rockpaperscissors.sol\":4783:4808  movePlayerA != Moves.None */\n      0x03\n      dup2\n      gt\n      iszero\n      tag_109\n      jumpi\n      invalid\n    tag_109:\n      eq\n      iszero\n        /* \"rockpaperscissors.sol\":4783:4837  movePlayerA != Moves.None && movePlayerB != Moves.None */\n      dup1\n      iszero\n      tag_110\n      jumpi\n      pop\n        /* \"rockpaperscissors.sol\":4827:4837  Moves.None */\n      0x00\n        /* \"rockpaperscissors.sol\":4812:4837  movePlayerB != Moves.None */\n      0x03\n      dup2\n      gt\n      iszero\n      tag_111\n      jumpi\n      invalid\n    tag_111:\n        /* \"rockpaperscissors.sol\":4812:4823  movePlayerB */\n      0x06\n      0x01\n      swap1\n      sload\n      swap1\n      0x0100\n      exp\n      swap1\n      div\n      0xff\n      and\n        /* \"rockpaperscissors.sol\":4812:4837  movePlayerB != Moves.None */\n      0x03\n      dup2\n      gt\n      iszero\n      tag_112\n      jumpi\n      invalid\n    tag_112:\n      eq\n      iszero\n        /* \"rockpaperscissors.sol\":4783:4837  movePlayerA != Moves.None && movePlayerB != Moves.None */\n    tag_110:\n        /* \"rockpaperscissors.sol\":4782:4914  (movePlayerA != Moves.None && movePlayerB != Moves.None) ||... */\n      dup1\n      tag_113\n      jumpi\n      pop\n        /* \"rockpaperscissors.sol\":4874:4875  0 */\n      0x00\n        /* \"rockpaperscissors.sol\":4859:4870  firstReveal */\n      sload(0x01)\n        /* \"rockpaperscissors.sol\":4859:4875  firstReveal != 0 */\n      eq\n      iszero\n        /* \"rockpaperscissors.sol\":4859:4913  firstReveal != 0 && now > firstReveal + REVEAL_TIMEOUT */\n      dup1\n      iszero\n      tag_114\n      jumpi\n      pop\n        /* \"rockpaperscissors.sol\":171:181  10 minutes */\n      0x0258\n        /* \"rockpaperscissors.sol\":4885:4896  firstReveal */\n      sload(0x01)\n        /* \"rockpaperscissors.sol\":4885:4913  firstReveal + REVEAL_TIMEOUT */\n      add\n        /* \"rockpaperscissors.sol\":4879:4882  now */\n      timestamp\n        /* \"rockpaperscissors.sol\":4879:4913  now > firstReveal + REVEAL_TIMEOUT */\n      gt\n        /* \"rockpaperscissors.sol\":4859:4913  firstReveal != 0 && now > firstReveal + REVEAL_TIMEOUT */\n    tag_114:\n        /* \"rockpaperscissors.sol\":4782:4914  (movePlayerA != Moves.None && movePlayerB != Moves.None) ||... */\n    tag_113:\n        /* \"rockpaperscissors.sol\":4774:4915  require((movePlayerA != Moves.None && movePlayerB != Moves.None) ||... */\n      tag_115\n      jumpi\n      0x00\n      dup1\n      revert\n    tag_115:\n        /* \"rockpaperscissors.sol\":5091:5107  Outcomes outcome */\n      0x00\n        /* \"rockpaperscissors.sol\":5137:5148  movePlayerB */\n      0x06\n      0x01\n      swap1\n      sload\n      swap1\n      0x0100\n      exp\n      swap1\n      div\n      0xff\n      and\n        /* \"rockpaperscissors.sol\":5122:5148  movePlayerA == movePlayerB */\n      0x03\n      dup2\n      gt\n      iszero\n      tag_117\n      jumpi\n      invalid\n    tag_117:\n        /* \"rockpaperscissors.sol\":5122:5133  movePlayerA */\n      0x06\n      0x00\n      swap1\n      sload\n      swap1\n      0x0100\n      exp\n      swap1\n      div\n      0xff\n      and\n        /* \"rockpaperscissors.sol\":5122:5148  movePlayerA == movePlayerB */\n      0x03\n      dup2\n      gt\n      iszero\n      tag_118\n      jumpi\n      invalid\n    tag_118:\n      eq\n        /* \"rockpaperscissors.sol\":5118:5639  if (movePlayerA == movePlayerB) {... */\n      iszero\n      tag_119\n      jumpi\n        /* \"rockpaperscissors.sol\":5174:5187  Outcomes.Draw */\n      0x03\n        /* \"rockpaperscissors.sol\":5164:5187  outcome = Outcomes.Draw */\n      swap1\n      pop\n        /* \"rockpaperscissors.sol\":5118:5639  if (movePlayerA == movePlayerB) {... */\n      jump(tag_120)\n    tag_119:\n        /* \"rockpaperscissors.sol\":5224:5234  Moves.Rock */\n      0x01\n        /* \"rockpaperscissors.sol\":5209:5234  movePlayerA == Moves.Rock */\n      0x03\n      dup2\n      gt\n      iszero\n      tag_121\n      jumpi\n      invalid\n    tag_121:\n        /* \"rockpaperscissors.sol\":5209:5220  movePlayerA */\n      0x06\n      0x00\n      swap1\n      sload\n      swap1\n      0x0100\n      exp\n      swap1\n      div\n      0xff\n      and\n        /* \"rockpaperscissors.sol\":5209:5234  movePlayerA == Moves.Rock */\n      0x03\n      dup2\n      gt\n      iszero\n      tag_122\n      jumpi\n      invalid\n    tag_122:\n      eq\n        /* \"rockpaperscissors.sol\":5209:5271  movePlayerA == Moves.Rock     && movePlayerB == Moves.Scissors */\n      dup1\n      iszero\n      tag_123\n      jumpi\n      pop\n        /* \"rockpaperscissors.sol\":5257:5271  Moves.Scissors */\n      0x03\n        /* \"rockpaperscissors.sol\":5242:5271  movePlayerB == Moves.Scissors */\n      dup1\n      dup2\n      gt\n      iszero\n      tag_124\n      jumpi\n      invalid\n    tag_124:\n        /* \"rockpaperscissors.sol\":5242:5253  movePlayerB */\n      0x06\n      0x01\n      swap1\n      sload\n      swap1\n      0x0100\n      exp\n      swap1\n      div\n      0xff\n      and\n        /* \"rockpaperscissors.sol\":5242:5271  movePlayerB == Moves.Scissors */\n      0x03\n      dup2\n      gt\n      iszero\n      tag_125\n      jumpi\n      invalid\n    tag_125:\n      eq\n        /* \"rockpaperscissors.sol\":5209:5271  movePlayerA == Moves.Rock     && movePlayerB == Moves.Scissors */\n    tag_123:\n        /* \"rockpaperscissors.sol\":5208:5355  (movePlayerA == Moves.Rock     && movePlayerB == Moves.Scissors) ||... */\n      dup1\n      tag_126\n      jumpi\n      pop\n        /* \"rockpaperscissors.sol\":5311:5322  Moves.Paper */\n      0x02\n        /* \"rockpaperscissors.sol\":5296:5322  movePlayerA == Moves.Paper */\n      0x03\n      dup2\n      gt\n      iszero\n      tag_127\n      jumpi\n      invalid\n    tag_127:\n        /* \"rockpaperscissors.sol\":5296:5307  movePlayerA */\n      0x06\n      0x00\n      swap1\n      sload\n      swap1\n      0x0100\n      exp\n      swap1\n      div\n      0xff\n      and\n        /* \"rockpaperscissors.sol\":5296:5322  movePlayerA == Moves.Paper */\n      0x03\n      dup2\n      gt\n      iszero\n      tag_128\n      jumpi\n      invalid\n    tag_128:\n      eq\n        /* \"rockpaperscissors.sol\":5296:5354  movePlayerA == Moves.Paper    && movePlayerB == Moves.Rock */\n      dup1\n      iszero\n      tag_129\n      jumpi\n      pop\n        /* \"rockpaperscissors.sol\":5344:5354  Moves.Rock */\n      0x01\n        /* \"rockpaperscissors.sol\":5329:5354  movePlayerB == Moves.Rock */\n      0x03\n      dup2\n      gt\n      iszero\n      tag_130\n      jumpi\n      invalid\n    tag_130:\n        /* \"rockpaperscissors.sol\":5329:5340  movePlayerB */\n      0x06\n      0x01\n      swap1\n      sload\n      swap1\n      0x0100\n      exp\n      swap1\n      div\n      0xff\n      and\n        /* \"rockpaperscissors.sol\":5329:5354  movePlayerB == Moves.Rock */\n      0x03\n      dup2\n      gt\n      iszero\n      tag_131\n      jumpi\n      invalid\n    tag_131:\n      eq\n        /* \"rockpaperscissors.sol\":5296:5354  movePlayerA == Moves.Paper    && movePlayerB == Moves.Rock */\n    tag_129:\n        /* \"rockpaperscissors.sol\":5208:5355  (movePlayerA == Moves.Rock     && movePlayerB == Moves.Scissors) ||... */\n    tag_126:\n        /* \"rockpaperscissors.sol\":5208:5443  (movePlayerA == Moves.Rock     && movePlayerB == Moves.Scissors) ||... */\n      dup1\n      tag_132\n      jumpi\n      pop\n        /* \"rockpaperscissors.sol\":5398:5412  Moves.Scissors */\n      0x03\n        /* \"rockpaperscissors.sol\":5383:5412  movePlayerA == Moves.Scissors */\n      dup1\n      dup2\n      gt\n      iszero\n      tag_133\n      jumpi\n      invalid\n    tag_133:\n        /* \"rockpaperscissors.sol\":5383:5394  movePlayerA */\n      0x06\n      0x00\n      swap1\n      sload\n      swap1\n      0x0100\n      exp\n      swap1\n      div\n      0xff\n      and\n        /* \"rockpaperscissors.sol\":5383:5412  movePlayerA == Moves.Scissors */\n      0x03\n      dup2\n      gt\n      iszero\n      tag_134\n      jumpi\n      invalid\n    tag_134:\n      eq\n        /* \"rockpaperscissors.sol\":5383:5442  movePlayerA == Moves.Scissors && movePlayerB == Moves.Paper */\n      dup1\n      iszero\n      tag_135\n      jumpi\n      pop\n        /* \"rockpaperscissors.sol\":5431:5442  Moves.Paper */\n      0x02\n        /* \"rockpaperscissors.sol\":5416:5442  movePlayerB == Moves.Paper */\n      0x03\n      dup2\n      gt\n      iszero\n      tag_136\n      jumpi\n      invalid\n    tag_136:\n        /* \"rockpaperscissors.sol\":5416:5427  movePlayerB */\n      0x06\n      0x01\n      swap1\n      sload\n      swap1\n      0x0100\n      exp\n      swap1\n      div\n      0xff\n      and\n        /* \"rockpaperscissors.sol\":5416:5442  movePlayerB == Moves.Paper */\n      0x03\n      dup2\n      gt\n      iszero\n      tag_137\n      jumpi\n      invalid\n    tag_137:\n      eq\n        /* \"rockpaperscissors.sol\":5383:5442  movePlayerA == Moves.Scissors && movePlayerB == Moves.Paper */\n    tag_135:\n        /* \"rockpaperscissors.sol\":5208:5443  (movePlayerA == Moves.Rock     && movePlayerB == Moves.Scissors) ||... */\n    tag_132:\n        /* \"rockpaperscissors.sol\":5208:5529  (movePlayerA == Moves.Rock     && movePlayerB == Moves.Scissors) ||... */\n      dup1\n      tag_138\n      jumpi\n      pop\n        /* \"rockpaperscissors.sol\":5485:5495  Moves.None */\n      0x00\n        /* \"rockpaperscissors.sol\":5470:5495  movePlayerA != Moves.None */\n      0x03\n      dup2\n      gt\n      iszero\n      tag_139\n      jumpi\n      invalid\n    tag_139:\n        /* \"rockpaperscissors.sol\":5470:5481  movePlayerA */\n      0x06\n      0x00\n      swap1\n      sload\n      swap1\n      0x0100\n      exp\n      swap1\n      div\n      0xff\n      and\n        /* \"rockpaperscissors.sol\":5470:5495  movePlayerA != Moves.None */\n      0x03\n      dup2\n      gt\n      iszero\n      tag_140\n      jumpi\n      invalid\n    tag_140:\n      eq\n      iszero\n        /* \"rockpaperscissors.sol\":5470:5528  movePlayerA != Moves.None     && movePlayerB == Moves.None */\n      dup1\n      iszero\n      tag_141\n      jumpi\n      pop\n        /* \"rockpaperscissors.sol\":5518:5528  Moves.None */\n      0x00\n        /* \"rockpaperscissors.sol\":5503:5528  movePlayerB == Moves.None */\n      0x03\n      dup2\n      gt\n      iszero\n      tag_142\n      jumpi\n      invalid\n    tag_142:\n        /* \"rockpaperscissors.sol\":5503:5514  movePlayerB */\n      0x06\n      0x01\n      swap1\n      sload\n      swap1\n      0x0100\n      exp\n      swap1\n      div\n      0xff\n      and\n        /* \"rockpaperscissors.sol\":5503:5528  movePlayerB == Moves.None */\n      0x03\n      dup2\n      gt\n      iszero\n      tag_143\n      jumpi\n      invalid\n    tag_143:\n      eq\n        /* \"rockpaperscissors.sol\":5470:5528  movePlayerA != Moves.None     && movePlayerB == Moves.None */\n    tag_141:\n        /* \"rockpaperscissors.sol\":5208:5529  (movePlayerA == Moves.Rock     && movePlayerB == Moves.Scissors) ||... */\n    tag_138:\n        /* \"rockpaperscissors.sol\":5204:5639  if ((movePlayerA == Moves.Rock     && movePlayerB == Moves.Scissors) ||... */\n      iszero\n      tag_144\n      jumpi\n        /* \"rockpaperscissors.sol\":5555:5571  Outcomes.PlayerA */\n      0x01\n        /* \"rockpaperscissors.sol\":5545:5571  outcome = Outcomes.PlayerA */\n      swap1\n      pop\n        /* \"rockpaperscissors.sol\":5204:5639  if ((movePlayerA == Moves.Rock     && movePlayerB == Moves.Scissors) ||... */\n      jump(tag_145)\n    tag_144:\n        /* \"rockpaperscissors.sol\":5612:5628  Outcomes.PlayerB */\n      0x02\n        /* \"rockpaperscissors.sol\":5602:5628  outcome = Outcomes.PlayerB */\n      swap1\n      pop\n        /* \"rockpaperscissors.sol\":5204:5639  if ((movePlayerA == Moves.Rock     && movePlayerB == Moves.Scissors) ||... */\n    tag_145:\n        /* \"rockpaperscissors.sol\":5118:5639  if (movePlayerA == movePlayerB) {... */\n    tag_120:\n        /* \"rockpaperscissors.sol\":5649:5670  address payable addrA */\n      0x00\n        /* \"rockpaperscissors.sol\":5673:5680  playerA */\n      0x02\n      0x00\n      swap1\n      sload\n      swap1\n      0x0100\n      exp\n      swap1\n      div\n      0xffffffffffffffffffffffffffffffffffffffff\n      and\n        /* \"rockpaperscissors.sol\":5649:5680  address payable addrA = playerA */\n      swap1\n      pop\n        /* \"rockpaperscissors.sol\":5690:5711  address payable addrB */\n      0x00\n        /* \"rockpaperscissors.sol\":5714:5721  playerB */\n      0x03\n      0x00\n      swap1\n      sload\n      swap1\n      0x0100\n      exp\n      swap1\n      div\n      0xffffffffffffffffffffffffffffffffffffffff\n      and\n        /* \"rockpaperscissors.sol\":5690:5721  address payable addrB = playerB */\n      swap1\n      pop\n        /* \"rockpaperscissors.sol\":5731:5746  uint betPlayerA */\n      0x00\n        /* \"rockpaperscissors.sol\":5755:5765  initialBet */\n      dup1\n      sload\n        /* \"rockpaperscissors.sol\":5731:5765  uint betPlayerA       = initialBet */\n      swap1\n      pop\n        /* \"rockpaperscissors.sol\":5775:5782  reset() */\n      tag_146\n        /* \"rockpaperscissors.sol\":5775:5780  reset */\n      tag_147\n        /* \"rockpaperscissors.sol\":5775:5782  reset() */\n      jump\t// in\n    tag_146:\n        /* \"rockpaperscissors.sol\":5849:5887  pay(addrA, addrB, betPlayerA, outcome) */\n      tag_148\n        /* \"rockpaperscissors.sol\":5853:5858  addrA */\n      dup4\n        /* \"rockpaperscissors.sol\":5860:5865  addrB */\n      dup4\n        /* \"rockpaperscissors.sol\":5867:5877  betPlayerA */\n      dup4\n        /* \"rockpaperscissors.sol\":5879:5886  outcome */\n      dup8\n        /* \"rockpaperscissors.sol\":5849:5852  pay */\n      tag_149\n        /* \"rockpaperscissors.sol\":5849:5887  pay(addrA, addrB, betPlayerA, outcome) */\n      jump\t// in\n    tag_148:\n        /* \"rockpaperscissors.sol\":5905:5912  outcome */\n      dup4\n        /* \"rockpaperscissors.sol\":5898:5912  return outcome */\n      swap5\n      pop\n      pop\n      pop\n      pop\n      pop\n        /* \"rockpaperscissors.sol\":5016:5919  function getOutcome() public revealPhaseEnded returns (Outcomes) {... */\n      swap1\n      jump\t// out\n        /* \"rockpaperscissors.sol\":7785:7908  function bothPlayed() public view returns (bool) {... */\n    tag_49:\n        /* \"rockpaperscissors.sol\":7828:7832  bool */\n      0x00\n        /* \"rockpaperscissors.sol\":7871:7874  0x0 */\n      dup1\n        /* \"rockpaperscissors.sol\":7852:7874  encrMovePlayerA != 0x0 */\n      0x00\n      shl\n        /* \"rockpaperscissors.sol\":7852:7867  encrMovePlayerA */\n      sload(0x04)\n        /* \"rockpaperscissors.sol\":7852:7874  encrMovePlayerA != 0x0 */\n      eq\n      iszero\n        /* \"rockpaperscissors.sol\":7852:7900  encrMovePlayerA != 0x0 && encrMovePlayerB != 0x0 */\n      dup1\n      iszero\n      tag_151\n      jumpi\n      pop\n        /* \"rockpaperscissors.sol\":7897:7900  0x0 */\n      0x00\n        /* \"rockpaperscissors.sol\":7878:7900  encrMovePlayerB != 0x0 */\n      dup1\n      shl\n        /* \"rockpaperscissors.sol\":7878:7893  encrMovePlayerB */\n      sload(0x05)\n        /* \"rockpaperscissors.sol\":7878:7900  encrMovePlayerB != 0x0 */\n      eq\n      iszero\n        /* \"rockpaperscissors.sol\":7852:7900  encrMovePlayerA != 0x0 && encrMovePlayerB != 0x0 */\n    tag_151:\n        /* \"rockpaperscissors.sol\":7844:7901  return (encrMovePlayerA != 0x0 && encrMovePlayerB != 0x0) */\n      swap1\n      pop\n        /* \"rockpaperscissors.sol\":7785:7908  function bothPlayed() public view returns (bool) {... */\n      swap1\n      jump\t// out\n        /* \"rockpaperscissors.sol\":2317:2678  function play(bytes32 encrMove) public isRegistered returns (bool) {... */\n    tag_53:\n        /* \"rockpaperscissors.sol\":2378:2382  bool */\n      0x00\n        /* \"rockpaperscissors.sol\":2164:2171  playerA */\n      0x02\n      0x00\n      swap1\n      sload\n      swap1\n      0x0100\n      exp\n      swap1\n      div\n      0xffffffffffffffffffffffffffffffffffffffff\n      and\n        /* \"rockpaperscissors.sol\":2150:2171  msg.sender == playerA */\n      0xffffffffffffffffffffffffffffffffffffffff\n      and\n        /* \"rockpaperscissors.sol\":2150:2160  msg.sender */\n      caller\n        /* \"rockpaperscissors.sol\":2150:2171  msg.sender == playerA */\n      0xffffffffffffffffffffffffffffffffffffffff\n      and\n      eq\n        /* \"rockpaperscissors.sol\":2150:2196  msg.sender == playerA || msg.sender == playerB */\n      dup1\n      tag_153\n      jumpi\n      pop\n        /* \"rockpaperscissors.sol\":2189:2196  playerB */\n      0x03\n      0x00\n      swap1\n      sload\n      swap1\n      0x0100\n      exp\n      swap1\n      div\n      0xffffffffffffffffffffffffffffffffffffffff\n      and\n        /* \"rockpaperscissors.sol\":2175:2196  msg.sender == playerB */\n      0xffffffffffffffffffffffffffffffffffffffff\n      and\n        /* \"rockpaperscissors.sol\":2175:2185  msg.sender */\n      caller\n        /* \"rockpaperscissors.sol\":2175:2196  msg.sender == playerB */\n      0xffffffffffffffffffffffffffffffffffffffff\n      and\n      eq\n        /* \"rockpaperscissors.sol\":2150:2196  msg.sender == playerA || msg.sender == playerB */\n    tag_153:\n        /* \"rockpaperscissors.sol\":2141:2197  require (msg.sender == playerA || msg.sender == playerB) */\n      tag_154\n      jumpi\n      0x00\n      dup1\n      revert\n    tag_154:\n        /* \"rockpaperscissors.sol\":2412:2419  playerA */\n      0x02\n      0x00\n      swap1\n      sload\n      swap1\n      0x0100\n      exp\n      swap1\n      div\n      0xffffffffffffffffffffffffffffffffffffffff\n      and\n        /* \"rockpaperscissors.sol\":2398:2419  msg.sender == playerA */\n      0xffffffffffffffffffffffffffffffffffffffff\n      and\n        /* \"rockpaperscissors.sol\":2398:2408  msg.sender */\n      caller\n        /* \"rockpaperscissors.sol\":2398:2419  msg.sender == playerA */\n      0xffffffffffffffffffffffffffffffffffffffff\n      and\n      eq\n        /* \"rockpaperscissors.sol\":2398:2445  msg.sender == playerA && encrMovePlayerA == 0x0 */\n      dup1\n      iszero\n      tag_156\n      jumpi\n      pop\n        /* \"rockpaperscissors.sol\":2442:2445  0x0 */\n      0x00\n        /* \"rockpaperscissors.sol\":2423:2445  encrMovePlayerA == 0x0 */\n      dup1\n      shl\n        /* \"rockpaperscissors.sol\":2423:2438  encrMovePlayerA */\n      sload(0x04)\n        /* \"rockpaperscissors.sol\":2423:2445  encrMovePlayerA == 0x0 */\n      eq\n        /* \"rockpaperscissors.sol\":2398:2445  msg.sender == playerA && encrMovePlayerA == 0x0 */\n    tag_156:\n        /* \"rockpaperscissors.sol\":2394:2651  if (msg.sender == playerA && encrMovePlayerA == 0x0) {... */\n      iszero\n      tag_157\n      jumpi\n        /* \"rockpaperscissors.sol\":2479:2487  encrMove */\n      dup2\n        /* \"rockpaperscissors.sol\":2461:2476  encrMovePlayerA */\n      0x04\n        /* \"rockpaperscissors.sol\":2461:2487  encrMovePlayerA = encrMove */\n      dup2\n      swap1\n      sstore\n      pop\n        /* \"rockpaperscissors.sol\":2394:2651  if (msg.sender == playerA && encrMovePlayerA == 0x0) {... */\n      jump(tag_158)\n    tag_157:\n        /* \"rockpaperscissors.sol\":2522:2529  playerB */\n      0x03\n      0x00\n      swap1\n      sload\n      swap1\n      0x0100\n      exp\n      swap1\n      div\n      0xffffffffffffffffffffffffffffffffffffffff\n      and\n        /* \"rockpaperscissors.sol\":2508:2529  msg.sender == playerB */\n      0xffffffffffffffffffffffffffffffffffffffff\n      and\n        /* \"rockpaperscissors.sol\":2508:2518  msg.sender */\n      caller\n        /* \"rockpaperscissors.sol\":2508:2529  msg.sender == playerB */\n      0xffffffffffffffffffffffffffffffffffffffff\n      and\n      eq\n        /* \"rockpaperscissors.sol\":2508:2555  msg.sender == playerB && encrMovePlayerB == 0x0 */\n      dup1\n      iszero\n      tag_159\n      jumpi\n      pop\n        /* \"rockpaperscissors.sol\":2552:2555  0x0 */\n      0x00\n        /* \"rockpaperscissors.sol\":2533:2555  encrMovePlayerB == 0x0 */\n      dup1\n      shl\n        /* \"rockpaperscissors.sol\":2533:2548  encrMovePlayerB */\n      sload(0x05)\n        /* \"rockpaperscissors.sol\":2533:2555  encrMovePlayerB == 0x0 */\n      eq\n        /* \"rockpaperscissors.sol\":2508:2555  msg.sender == playerB && encrMovePlayerB == 0x0 */\n    tag_159:\n        /* \"rockpaperscissors.sol\":2504:2651  if (msg.sender == playerB && encrMovePlayerB == 0x0) {... */\n      iszero\n      tag_160\n      jumpi\n        /* \"rockpaperscissors.sol\":2589:2597  encrMove */\n      dup2\n        /* \"rockpaperscissors.sol\":2571:2586  encrMovePlayerB */\n      0x05\n        /* \"rockpaperscissors.sol\":2571:2597  encrMovePlayerB = encrMove */\n      dup2\n      swap1\n      sstore\n      pop\n        /* \"rockpaperscissors.sol\":2504:2651  if (msg.sender == playerB && encrMovePlayerB == 0x0) {... */\n      jump(tag_161)\n    tag_160:\n        /* \"rockpaperscissors.sol\":2635:2640  false */\n      0x00\n        /* \"rockpaperscissors.sol\":2628:2640  return false */\n      swap1\n      pop\n      jump(tag_155)\n        /* \"rockpaperscissors.sol\":2504:2651  if (msg.sender == playerB && encrMovePlayerB == 0x0) {... */\n    tag_161:\n        /* \"rockpaperscissors.sol\":2394:2651  if (msg.sender == playerA && encrMovePlayerA == 0x0) {... */\n    tag_158:\n        /* \"rockpaperscissors.sol\":2667:2671  true */\n      0x01\n        /* \"rockpaperscissors.sol\":2660:2671  return true */\n      swap1\n      pop\n        /* \"rockpaperscissors.sol\":2207:2208  _ */\n    tag_155:\n        /* \"rockpaperscissors.sol\":2317:2678  function play(bytes32 encrMove) public isRegistered returns (bool) {... */\n      swap2\n      swap1\n      pop\n      jump\t// out\n        /* \"rockpaperscissors.sol\":7475:7701  function whoAmI() public view returns (uint) {... */\n    tag_56:\n        /* \"rockpaperscissors.sol\":7514:7518  uint */\n      0x00\n        /* \"rockpaperscissors.sol\":7548:7555  playerA */\n      0x02\n      0x00\n      swap1\n      sload\n      swap1\n      0x0100\n      exp\n      swap1\n      div\n      0xffffffffffffffffffffffffffffffffffffffff\n      and\n        /* \"rockpaperscissors.sol\":7534:7555  msg.sender == playerA */\n      0xffffffffffffffffffffffffffffffffffffffff\n      and\n        /* \"rockpaperscissors.sol\":7534:7544  msg.sender */\n      caller\n        /* \"rockpaperscissors.sol\":7534:7555  msg.sender == playerA */\n      0xffffffffffffffffffffffffffffffffffffffff\n      and\n      eq\n        /* \"rockpaperscissors.sol\":7530:7695  if (msg.sender == playerA) {... */\n      iszero\n      tag_163\n      jumpi\n        /* \"rockpaperscissors.sol\":7578:7579  1 */\n      0x01\n        /* \"rockpaperscissors.sol\":7571:7579  return 1 */\n      swap1\n      pop\n      jump(tag_162)\n        /* \"rockpaperscissors.sol\":7530:7695  if (msg.sender == playerA) {... */\n    tag_163:\n        /* \"rockpaperscissors.sol\":7614:7621  playerB */\n      0x03\n      0x00\n      swap1\n      sload\n      swap1\n      0x0100\n      exp\n      swap1\n      div\n      0xffffffffffffffffffffffffffffffffffffffff\n      and\n        /* \"rockpaperscissors.sol\":7600:7621  msg.sender == playerB */\n      0xffffffffffffffffffffffffffffffffffffffff\n      and\n        /* \"rockpaperscissors.sol\":7600:7610  msg.sender */\n      caller\n        /* \"rockpaperscissors.sol\":7600:7621  msg.sender == playerB */\n      0xffffffffffffffffffffffffffffffffffffffff\n      and\n      eq\n        /* \"rockpaperscissors.sol\":7596:7695  if (msg.sender == playerB) {... */\n      iszero\n      tag_165\n      jumpi\n        /* \"rockpaperscissors.sol\":7644:7645  2 */\n      0x02\n        /* \"rockpaperscissors.sol\":7637:7645  return 2 */\n      swap1\n      pop\n      jump(tag_162)\n        /* \"rockpaperscissors.sol\":7596:7695  if (msg.sender == playerB) {... */\n    tag_165:\n        /* \"rockpaperscissors.sol\":7683:7684  0 */\n      0x00\n        /* \"rockpaperscissors.sol\":7676:7684  return 0 */\n      swap1\n      pop\n        /* \"rockpaperscissors.sol\":7475:7701  function whoAmI() public view returns (uint) {... */\n    tag_162:\n      swap1\n      jump\t// out\n        /* \"rockpaperscissors.sol\":4142:4486  function getFirstChar(string memory str) private pure returns (uint) {... */\n    tag_90:\n        /* \"rockpaperscissors.sol\":4205:4209  uint */\n      0x00\n        /* \"rockpaperscissors.sol\":4221:4235  byte firstByte */\n      dup1\n        /* \"rockpaperscissors.sol\":4244:4247  str */\n      dup3\n        /* \"rockpaperscissors.sol\":4249:4250  0 */\n      0x00\n        /* \"rockpaperscissors.sol\":4238:4251  bytes(str)[0] */\n      dup2\n      mload\n      dup2\n      lt\n      tag_168\n      jumpi\n      invalid\n    tag_168:\n      0x20\n      add\n      add\n      mload\n      0xf8\n      shr\n      0xf8\n      shl\n        /* \"rockpaperscissors.sol\":4221:4251  byte firstByte = bytes(str)[0] */\n      swap1\n      pop\n        /* \"rockpaperscissors.sol\":4278:4282  0x31 */\n      0x31\n        /* \"rockpaperscissors.sol\":4265:4282  firstByte == 0x31 */\n      0xf8\n      shl\n        /* \"rockpaperscissors.sol\":4265:4274  firstByte */\n      dup2\n        /* \"rockpaperscissors.sol\":4265:4282  firstByte == 0x31 */\n      not(0xffffffffffffffffffffffffffffffffffffffffffffffffffffffffffffff)\n      and\n      eq\n        /* \"rockpaperscissors.sol\":4261:4480  if (firstByte == 0x31) {... */\n      iszero\n      tag_169\n      jumpi\n        /* \"rockpaperscissors.sol\":4305:4306  1 */\n      0x01\n        /* \"rockpaperscissors.sol\":4298:4306  return 1 */\n      swap2\n      pop\n      pop\n      jump(tag_167)\n        /* \"rockpaperscissors.sol\":4261:4480  if (firstByte == 0x31) {... */\n    tag_169:\n        /* \"rockpaperscissors.sol\":4340:4344  0x32 */\n      0x32\n        /* \"rockpaperscissors.sol\":4327:4344  firstByte == 0x32 */\n      0xf8\n      shl\n        /* \"rockpaperscissors.sol\":4327:4336  firstByte */\n      dup2\n        /* \"rockpaperscissors.sol\":4327:4344  firstByte == 0x32 */\n      not(0xffffffffffffffffffffffffffffffffffffffffffffffffffffffffffffff)\n      and\n      eq\n        /* \"rockpaperscissors.sol\":4323:4480  if (firstByte == 0x32) {... */\n      iszero\n      tag_171\n      jumpi\n        /* \"rockpaperscissors.sol\":4367:4368  2 */\n      0x02\n        /* \"rockpaperscissors.sol\":4360:4368  return 2 */\n      swap2\n      pop\n      pop\n      jump(tag_167)\n        /* \"rockpaperscissors.sol\":4323:4480  if (firstByte == 0x32) {... */\n    tag_171:\n        /* \"rockpaperscissors.sol\":4402:4406  0x33 */\n      0x33\n        /* \"rockpaperscissors.sol\":4389:4406  firstByte == 0x33 */\n      0xf8\n      shl\n        /* \"rockpaperscissors.sol\":4389:4398  firstByte */\n      dup2\n        /* \"rockpaperscissors.sol\":4389:4406  firstByte == 0x33 */\n      not(0xffffffffffffffffffffffffffffffffffffffffffffffffffffffffffffff)\n      and\n      eq\n        /* \"rockpaperscissors.sol\":4385:4480  if (firstByte == 0x33) {... */\n      iszero\n      tag_173\n      jumpi\n        /* \"rockpaperscissors.sol\":4429:4430  3 */\n      0x03\n        /* \"rockpaperscissors.sol\":4422:4430  return 3 */\n      swap2\n      pop\n      pop\n      jump(tag_167)\n        /* \"rockpaperscissors.sol\":4385:4480  if (firstByte == 0x33) {... */\n    tag_173:\n        /* \"rockpaperscissors.sol\":4468:4469  0 */\n      0x00\n        /* \"rockpaperscissors.sol\":4461:4469  return 0 */\n      swap2\n      pop\n      pop\n        /* \"rockpaperscissors.sol\":4142:4486  function getFirstChar(string memory str) private pure returns (uint) {... */\n    tag_167:\n      swap2\n      swap1\n      pop\n      jump\t// out\n        /* \"rockpaperscissors.sol\":6752:7060  function reset() private {... */\n    tag_147:\n        /* \"rockpaperscissors.sol\":6805:6806  0 */\n      0x00\n        /* \"rockpaperscissors.sol\":6787:6797  initialBet */\n      dup1\n        /* \"rockpaperscissors.sol\":6787:6806  initialBet      = 0 */\n      dup2\n      swap1\n      sstore\n      pop\n        /* \"rockpaperscissors.sol\":6834:6835  0 */\n      0x00\n        /* \"rockpaperscissors.sol\":6816:6827  firstReveal */\n      0x01\n        /* \"rockpaperscissors.sol\":6816:6835  firstReveal     = 0 */\n      dup2\n      swap1\n      sstore\n      pop\n        /* \"rockpaperscissors.sol\":6871:6874  0x0 */\n      0x00\n        /* \"rockpaperscissors.sol\":6845:6852  playerA */\n      0x02\n      0x00\n        /* \"rockpaperscissors.sol\":6845:6875  playerA         = address(0x0) */\n      0x0100\n      exp\n      dup2\n      sload\n      dup2\n      0xffffffffffffffffffffffffffffffffffffffff\n      mul\n      not\n      and\n      swap1\n      dup4\n      0xffffffffffffffffffffffffffffffffffffffff\n      and\n      mul\n      or\n      swap1\n      sstore\n      pop\n        /* \"rockpaperscissors.sol\":6911:6914  0x0 */\n      0x00\n        /* \"rockpaperscissors.sol\":6885:6892  playerB */\n      0x03\n      0x00\n        /* \"rockpaperscissors.sol\":6885:6915  playerB         = address(0x0) */\n      0x0100\n      exp\n      dup2\n      sload\n      dup2\n      0xffffffffffffffffffffffffffffffffffffffff\n      mul\n      not\n      and\n      swap1\n      dup4\n      0xffffffffffffffffffffffffffffffffffffffff\n      and\n      mul\n      or\n      swap1\n      sstore\n      pop\n        /* \"rockpaperscissors.sol\":6943:6946  0x0 */\n      0x00\n        /* \"rockpaperscissors.sol\":6925:6946  encrMovePlayerA = 0x0 */\n      dup1\n      shl\n        /* \"rockpaperscissors.sol\":6925:6940  encrMovePlayerA */\n      0x04\n        /* \"rockpaperscissors.sol\":6925:6946  encrMovePlayerA = 0x0 */\n      dup2\n      swap1\n      sstore\n      pop\n        /* \"rockpaperscissors.sol\":6974:6977  0x0 */\n      0x00\n        /* \"rockpaperscissors.sol\":6956:6977  encrMovePlayerB = 0x0 */\n      dup1\n      shl\n        /* \"rockpaperscissors.sol\":6956:6971  encrMovePlayerB */\n      0x05\n        /* \"rockpaperscissors.sol\":6956:6977  encrMovePlayerB = 0x0 */\n      dup2\n      swap1\n      sstore\n      pop\n        /* \"rockpaperscissors.sol\":7005:7015  Moves.None */\n      0x00\n        /* \"rockpaperscissors.sol\":6987:6998  movePlayerA */\n      0x06\n      0x00\n        /* \"rockpaperscissors.sol\":6987:7015  movePlayerA     = Moves.None */\n      0x0100\n      exp\n      dup2\n      sload\n      dup2\n      0xff\n      mul\n      not\n      and\n      swap1\n      dup4\n      0x03\n      dup2\n      gt\n      iszero\n      tag_176\n      jumpi\n      invalid\n    tag_176:\n      mul\n      or\n      swap1\n      sstore\n      pop\n        /* \"rockpaperscissors.sol\":7043:7053  Moves.None */\n      0x00\n        /* \"rockpaperscissors.sol\":7025:7036  movePlayerB */\n      0x06\n      0x01\n        /* \"rockpaperscissors.sol\":7025:7053  movePlayerB     = Moves.None */\n      0x0100\n      exp\n      dup2\n      sload\n      dup2\n      0xff\n      mul\n      not\n      and\n      swap1\n      dup4\n      0x03\n      dup2\n      gt\n      iszero\n      tag_177\n      jumpi\n      invalid\n    tag_177:\n      mul\n      or\n      swap1\n      sstore\n      pop\n        /* \"rockpaperscissors.sol\":6752:7060  function reset() private {... */\n      jump\t// out\n        /* \"rockpaperscissors.sol\":5951:6723  function pay(address payable addrA, address payable addrB, uint betPlayerA, Outcomes outcome) private {... */\n    tag_149:\n        /* \"rockpaperscissors.sol\":6147:6163  Outcomes.PlayerA */\n      0x01\n        /* \"rockpaperscissors.sol\":6136:6163  outcome == Outcomes.PlayerA */\n      0x03\n      dup2\n      gt\n      iszero\n      tag_179\n      jumpi\n      invalid\n    tag_179:\n        /* \"rockpaperscissors.sol\":6136:6143  outcome */\n      dup2\n        /* \"rockpaperscissors.sol\":6136:6163  outcome == Outcomes.PlayerA */\n      0x03\n      dup2\n      gt\n      iszero\n      tag_180\n      jumpi\n      invalid\n    tag_180:\n      eq\n        /* \"rockpaperscissors.sol\":6132:6717  if (outcome == Outcomes.PlayerA) {... */\n      iszero\n      tag_181\n      jumpi\n        /* \"rockpaperscissors.sol\":6179:6184  addrA */\n      dup4\n        /* \"rockpaperscissors.sol\":6179:6193  addrA.transfer */\n      0xffffffffffffffffffffffffffffffffffffffff\n      and\n        /* \"rockpaperscissors.sol\":6179:6216  addrA.transfer(address(this).balance) */\n      0x08fc\n        /* \"rockpaperscissors.sol\":6194:6215  address(this).balance */\n      selfbalance\n        /* \"rockpaperscissors.sol\":6179:6216  addrA.transfer(address(this).balance) */\n      swap1\n      dup2\n      iszero\n      mul\n      swap1\n      mload(0x40)\n      0x00\n      mload(0x40)\n      dup1\n      dup4\n      sub\n      dup2\n      dup6\n      dup9\n      dup9\n      call\n      swap4\n      pop\n      pop\n      pop\n      pop\n      iszero\n        /* \"--CODEGEN--\":8:17   */\n      dup1\n        /* \"--CODEGEN--\":5:7   */\n      iszero\n      tag_182\n      jumpi\n        /* \"--CODEGEN--\":45:61   */\n      returndatasize\n        /* \"--CODEGEN--\":42:43   */\n      0x00\n        /* \"--CODEGEN--\":39:40   */\n      dup1\n        /* \"--CODEGEN--\":24:62   */\n      returndatacopy\n        /* \"--CODEGEN--\":77:93   */\n      returndatasize\n        /* \"--CODEGEN--\":74:75   */\n      0x00\n        /* \"--CODEGEN--\":67:94   */\n      revert\n        /* \"--CODEGEN--\":5:7   */\n    tag_182:\n        /* \"rockpaperscissors.sol\":6179:6216  addrA.transfer(address(this).balance) */\n      pop\n        /* \"rockpaperscissors.sol\":6132:6717  if (outcome == Outcomes.PlayerA) {... */\n      jump(tag_183)\n    tag_181:\n        /* \"rockpaperscissors.sol\":6321:6337  Outcomes.PlayerB */\n      0x02\n        /* \"rockpaperscissors.sol\":6310:6337  outcome == Outcomes.PlayerB */\n      0x03\n      dup2\n      gt\n      iszero\n      tag_184\n      jumpi\n      invalid\n    tag_184:\n        /* \"rockpaperscissors.sol\":6310:6317  outcome */\n      dup2\n        /* \"rockpaperscissors.sol\":6310:6337  outcome == Outcomes.PlayerB */\n      0x03\n      dup2\n      gt\n      iszero\n      tag_185\n      jumpi\n      invalid\n    tag_185:\n      eq\n        /* \"rockpaperscissors.sol\":6306:6717  if (outcome == Outcomes.PlayerB) {... */\n      iszero\n      tag_186\n      jumpi\n        /* \"rockpaperscissors.sol\":6353:6358  addrB */\n      dup3\n        /* \"rockpaperscissors.sol\":6353:6367  addrB.transfer */\n      0xffffffffffffffffffffffffffffffffffffffff\n      and\n        /* \"rockpaperscissors.sol\":6353:6390  addrB.transfer(address(this).balance) */\n      0x08fc\n        /* \"rockpaperscissors.sol\":6368:6389  address(this).balance */\n      selfbalance\n        /* \"rockpaperscissors.sol\":6353:6390  addrB.transfer(address(this).balance) */\n      swap1\n      dup2\n      iszero\n      mul\n      swap1\n      mload(0x40)\n      0x00\n      mload(0x40)\n      dup1\n      dup4\n      sub\n      dup2\n      dup6\n      dup9\n      dup9\n      call\n      swap4\n      pop\n      pop\n      pop\n      pop\n      iszero\n        /* \"--CODEGEN--\":8:17   */\n      dup1\n        /* \"--CODEGEN--\":5:7   */\n      iszero\n      tag_187\n      jumpi\n        /* \"--CODEGEN--\":45:61   */\n      returndatasize\n        /* \"--CODEGEN--\":42:43   */\n      0x00\n        /* \"--CODEGEN--\":39:40   */\n      dup1\n        /* \"--CODEGEN--\":24:62   */\n      returndatacopy\n        /* \"--CODEGEN--\":77:93   */\n      returndatasize\n        /* \"--CODEGEN--\":74:75   */\n      0x00\n        /* \"--CODEGEN--\":67:94   */\n      revert\n        /* \"--CODEGEN--\":5:7   */\n    tag_187:\n        /* \"rockpaperscissors.sol\":6353:6390  addrB.transfer(address(this).balance) */\n      pop\n        /* \"rockpaperscissors.sol\":6306:6717  if (outcome == Outcomes.PlayerB) {... */\n      jump(tag_188)\n    tag_186:\n        /* \"rockpaperscissors.sol\":6494:6499  addrA */\n      dup4\n        /* \"rockpaperscissors.sol\":6494:6508  addrA.transfer */\n      0xffffffffffffffffffffffffffffffffffffffff\n      and\n        /* \"rockpaperscissors.sol\":6494:6520  addrA.transfer(betPlayerA) */\n      0x08fc\n        /* \"rockpaperscissors.sol\":6509:6519  betPlayerA */\n      dup4\n        /* \"rockpaperscissors.sol\":6494:6520  addrA.transfer(betPlayerA) */\n      swap1\n      dup2\n      iszero\n      mul\n      swap1\n      mload(0x40)\n      0x00\n      mload(0x40)\n      dup1\n      dup4\n      sub\n      dup2\n      dup6\n      dup9\n      dup9\n      call\n      swap4\n      pop\n      pop\n      pop\n      pop\n      iszero\n        /* \"--CODEGEN--\":8:17   */\n      dup1\n        /* \"--CODEGEN--\":5:7   */\n      iszero\n      tag_189\n      jumpi\n        /* \"--CODEGEN--\":45:61   */\n      returndatasize\n        /* \"--CODEGEN--\":42:43   */\n      0x00\n        /* \"--CODEGEN--\":39:40   */\n      dup1\n        /* \"--CODEGEN--\":24:62   */\n      returndatacopy\n        /* \"--CODEGEN--\":77:93   */\n      returndatasize\n        /* \"--CODEGEN--\":74:75   */\n      0x00\n        /* \"--CODEGEN--\":67:94   */\n      revert\n        /* \"--CODEGEN--\":5:7   */\n    tag_189:\n        /* \"rockpaperscissors.sol\":6494:6520  addrA.transfer(betPlayerA) */\n      pop\n        /* \"rockpaperscissors.sol\":6534:6539  addrB */\n      dup3\n        /* \"rockpaperscissors.sol\":6534:6548  addrB.transfer */\n      0xffffffffffffffffffffffffffffffffffffffff\n      and\n        /* \"rockpaperscissors.sol\":6534:6571  addrB.transfer(address(this).balance) */\n      0x08fc\n        /* \"rockpaperscissors.sol\":6549:6570  address(this).balance */\n      selfbalance\n        /* \"rockpaperscissors.sol\":6534:6571  addrB.transfer(address(this).balance) */\n      swap1\n      dup2\n      iszero\n      mul\n      swap1\n      mload(0x40)\n      0x00\n      mload(0x40)\n      dup1\n      dup4\n      sub\n      dup2\n      dup6\n      dup9\n      dup9\n      call\n      swap4\n      pop\n      pop\n      pop\n      pop\n      iszero\n        /* \"--CODEGEN--\":8:17   */\n      dup1\n        /* \"--CODEGEN--\":5:7   */\n      iszero\n      tag_190\n      jumpi\n        /* \"--CODEGEN--\":45:61   */\n      returndatasize\n        /* \"--CODEGEN--\":42:43   */\n      0x00\n        /* \"--CODEGEN--\":39:40   */\n      dup1\n        /* \"--CODEGEN--\":24:62   */\n      returndatacopy\n        /* \"--CODEGEN--\":77:93   */\n      returndatasize\n        /* \"--CODEGEN--\":74:75   */\n      0x00\n        /* \"--CODEGEN--\":67:94   */\n      revert\n        /* \"--CODEGEN--\":5:7   */\n    tag_190:\n        /* \"rockpaperscissors.sol\":6534:6571  addrB.transfer(address(this).balance) */\n      pop\n        /* \"rockpaperscissors.sol\":6306:6717  if (outcome == Outcomes.PlayerB) {... */\n    tag_188:\n        /* \"rockpaperscissors.sol\":6132:6717  if (outcome == Outcomes.PlayerA) {... */\n    tag_183:\n        /* \"rockpaperscissors.sol\":5951:6723  function pay(address payable addrA, address payable addrB, uint betPlayerA, Outcomes outcome) private {... */\n      pop\n      pop\n      pop\n      pop\n      jump\t// out\n\n    auxdata: 0xa265627a7a7231582023a78f50245a06a01e0f00388ff89074982c45c481c555a15fa4e5236234566164736f6c63430005110032\n}\n",
				"bytecode": {
					"linkReferences": {},
					"object": "608060405234801561001057600080fd5b506112a6806100206000396000f3fe6080604052600436106100a75760003560e01c806351dcb1c31161006457806351dcb1c3146102645780636f9fb98a1461028f5780637e7e4b47146102ba578063807c8504146102f3578063c7a1865b14610322578063da91254c14610375576100a7565b80631aa3a008146100ac5780631d73c64c146100ca5780632626ab08146100f55780633d6ae3a71461012057806343445ca81461014b5780634c2612471461017a575b600080fd5b6100b46103a0565b6040518082815260200191505060405180910390f35b3480156100d657600080fd5b506100df6105d7565b6040518082815260200191505060405180910390f35b34801561010157600080fd5b5061010a6105dd565b6040518082815260200191505060405180910390f35b34801561012c57600080fd5b506101356105e8565b6040518082815260200191505060405180910390f35b34801561015757600080fd5b506101606105ee565b604051808215151515815260200191505060405180910390f35b34801561018657600080fd5b506102406004803603602081101561019d57600080fd5b81019080803590602001906401000000008111156101ba57600080fd5b8201836020820111156101cc57600080fd5b803590602001918460018302840111640100000000831117156101ee57600080fd5b91908080601f016020809104026020016040519081016040528093929190818152602001838380828437600081840152601f19601f820116905080830192505050505050509192919290505050610650565b6040518082600381111561025057fe5b60ff16815260200191505060405180910390f35b34801561027057600080fd5b506102796109b5565b6040518082815260200191505060405180910390f35b34801561029b57600080fd5b506102a46109d9565b6040518082815260200191505060405180910390f35b3480156102c657600080fd5b506102cf6109e1565b604051808260038111156102df57fe5b60ff16815260200191505060405180910390f35b3480156102ff57600080fd5b50610308610caf565b604051808215151515815260200191505060405180910390f35b34801561032e57600080fd5b5061035b6004803603602081101561034557600080fd5b8101908080359060200190929190505050610cd0565b604051808215151515815260200191505060405180910390f35b34801561038157600080fd5b5061038a610e7c565b6040518082815260200191505060405180910390f35b600066038d7ea4c680003410156103b657600080fd5b6000805414806103c857506000543410155b6103d157600080fd5b600260009054906101000a900473ffffffffffffffffffffffffffffffffffffffff1673ffffffffffffffffffffffffffffffffffffffff163373ffffffffffffffffffffffffffffffffffffffff161415801561047d5750600360009054906101000a900473ffffffffffffffffffffffffffffffffffffffff1673ffffffffffffffffffffffffffffffffffffffff163373ffffffffffffffffffffffffffffffffffffffff1614155b61048657600080fd5b600073ffffffffffffffffffffffffffffffffffffffff16600260009054906101000a900473ffffffffffffffffffffffffffffffffffffffff1673ffffffffffffffffffffffffffffffffffffffff16141561052e5733600260006101000a81548173ffffffffffffffffffffffffffffffffffffffff021916908373ffffffffffffffffffffffffffffffffffffffff16021790555034600081905550600190506105d4565b600073ffffffffffffffffffffffffffffffffffffffff16600360009054906101000a900473ffffffffffffffffffffffffffffffffffffffff1673ffffffffffffffffffffffffffffffffffffffff1614156105cf5733600360006101000a81548173ffffffffffffffffffffffffffffffffffffffff021916908373ffffffffffffffffffffffffffffffffffffffff160217905550600290506105d4565b600090505b90565b60005481565b66038d7ea4c6800081565b61025881565b60008060038111156105fc57fe5b600660009054906101000a900460ff16600381111561061757fe5b1415801561064b57506000600381111561062d57fe5b600660019054906101000a900460ff16600381111561064857fe5b14155b905090565b6000600260009054906101000a900473ffffffffffffffffffffffffffffffffffffffff1673ffffffffffffffffffffffffffffffffffffffff163373ffffffffffffffffffffffffffffffffffffffff1614806106fb5750600360009054906101000a900473ffffffffffffffffffffffffffffffffffffffff1673ffffffffffffffffffffffffffffffffffffffff163373ffffffffffffffffffffffffffffffffffffffff16145b61070457600080fd5b6000801b6004541415801561071e57506000801b60055414155b61072757600080fd5b60006002836040516020018082805190602001908083835b60208310610762578051825260208201915060208101905060208303925061073f565b6001836020036101000a0380198251168184511680821785525050505050509050019150506040516020818303038152906040526040518082805190602001908083835b602083106107c957805182526020820191506020810190506020830392506107a6565b6001836020036101000a038019825116818451168082178552505050505050905001915050602060405180830381855afa15801561080b573d6000803e3d6000fd5b5050506040513d602081101561082057600080fd5b81019080805190602001909291905050509050600061083e84610f44565b600381111561084957fe5b90506000600381111561085857fe5b81600381111561086457fe5b1415610875576000925050506109b0565b600260009054906101000a900473ffffffffffffffffffffffffffffffffffffffff1673ffffffffffffffffffffffffffffffffffffffff163373ffffffffffffffffffffffffffffffffffffffff161480156108d3575060045482145b156109005780600660006101000a81548160ff021916908360038111156108f657fe5b0217905550610997565b600360009054906101000a900473ffffffffffffffffffffffffffffffffffffffff1673ffffffffffffffffffffffffffffffffffffffff163373ffffffffffffffffffffffffffffffffffffffff1614801561095e575060055482145b1561098b5780600660016101000a81548160ff0219169083600381111561098157fe5b0217905550610996565b6000925050506109b0565b5b600060015414156109aa57426001819055505b80925050505b919050565b600080600154146109d05742610258600154010390506109d6565b61025890505b90565b600047905090565b60008060038111156109ef57fe5b600660009054906101000a900460ff166003811115610a0a57fe5b14158015610a3e575060006003811115610a2057fe5b600660019054906101000a900460ff166003811115610a3b57fe5b14155b80610a5d5750600060015414158015610a5c57506102586001540142115b5b610a6657600080fd5b6000600660019054906101000a900460ff166003811115610a8357fe5b600660009054906101000a900460ff166003811115610a9e57fe5b1415610aad5760039050610c3d565b60016003811115610aba57fe5b600660009054906101000a900460ff166003811115610ad557fe5b148015610b065750600380811115610ae957fe5b600660019054906101000a900460ff166003811115610b0457fe5b145b80610b67575060026003811115610b1957fe5b600660009054906101000a900460ff166003811115610b3457fe5b148015610b66575060016003811115610b4957fe5b600660019054906101000a900460ff166003811115610b6457fe5b145b5b80610bc75750600380811115610b7957fe5b600660009054906101000a900460ff166003811115610b9457fe5b148015610bc6575060026003811115610ba957fe5b600660019054906101000a900460ff166003811115610bc457fe5b145b5b80610c29575060006003811115610bda57fe5b600660009054906101000a900460ff166003811115610bf557fe5b14158015610c28575060006003811115610c0b57fe5b600660019054906101000a900460ff166003811115610c2657fe5b145b5b15610c375760019050610c3c565b600290505b5b6000600260009054906101000a900473ffffffffffffffffffffffffffffffffffffffff1690506000600360009054906101000a900473ffffffffffffffffffffffffffffffffffffffff169050600080549050610c99611014565b610ca583838387611105565b8394505050505090565b60008060001b60045414158015610ccb57506000801b60055414155b905090565b6000600260009054906101000a900473ffffffffffffffffffffffffffffffffffffffff1673ffffffffffffffffffffffffffffffffffffffff163373ffffffffffffffffffffffffffffffffffffffff161480610d7b5750600360009054906101000a900473ffffffffffffffffffffffffffffffffffffffff1673ffffffffffffffffffffffffffffffffffffffff163373ffffffffffffffffffffffffffffffffffffffff16145b610d8457600080fd5b600260009054906101000a900473ffffffffffffffffffffffffffffffffffffffff1673ffffffffffffffffffffffffffffffffffffffff163373ffffffffffffffffffffffffffffffffffffffff16148015610de557506000801b600454145b15610df65781600481905550610e72565b600360009054906101000a900473ffffffffffffffffffffffffffffffffffffffff1673ffffffffffffffffffffffffffffffffffffffff163373ffffffffffffffffffffffffffffffffffffffff16148015610e5757506000801b600554145b15610e685781600581905550610e71565b60009050610e77565b5b600190505b919050565b6000600260009054906101000a900473ffffffffffffffffffffffffffffffffffffffff1673ffffffffffffffffffffffffffffffffffffffff163373ffffffffffffffffffffffffffffffffffffffff161415610edd5760019050610f41565b600360009054906101000a900473ffffffffffffffffffffffffffffffffffffffff1673ffffffffffffffffffffffffffffffffffffffff163373ffffffffffffffffffffffffffffffffffffffff161415610f3c5760029050610f41565b600090505b90565b60008082600081518110610f5457fe5b602001015160f81c60f81b9050603160f81b817effffffffffffffffffffffffffffffffffffffffffffffffffffffffffffff19161415610f9957600191505061100f565b603260f81b817effffffffffffffffffffffffffffffffffffffffffffffffffffffffffffff19161415610fd157600291505061100f565b603360f81b817effffffffffffffffffffffffffffffffffffffffffffffffffffffffffffff1916141561100957600391505061100f565b60009150505b919050565b6000808190555060006001819055506000600260006101000a81548173ffffffffffffffffffffffffffffffffffffffff021916908373ffffffffffffffffffffffffffffffffffffffff1602179055506000600360006101000a81548173ffffffffffffffffffffffffffffffffffffffff021916908373ffffffffffffffffffffffffffffffffffffffff1602179055506000801b6004819055506000801b6005819055506000600660006101000a81548160ff021916908360038111156110da57fe5b02179055506000600660016101000a81548160ff021916908360038111156110fe57fe5b0217905550565b6001600381111561111257fe5b81600381111561111e57fe5b1415611170578373ffffffffffffffffffffffffffffffffffffffff166108fc479081150290604051600060405180830381858888f1935050505015801561116a573d6000803e3d6000fd5b5061126b565b6002600381111561117d57fe5b81600381111561118957fe5b14156111db578273ffffffffffffffffffffffffffffffffffffffff166108fc479081150290604051600060405180830381858888f193505050501580156111d5573d6000803e3d6000fd5b5061126a565b8373ffffffffffffffffffffffffffffffffffffffff166108fc839081150290604051600060405180830381858888f19350505050158015611221573d6000803e3d6000fd5b508273ffffffffffffffffffffffffffffffffffffffff166108fc479081150290604051600060405180830381858888f19350505050158015611268573d6000803e3d6000fd5b505b5b5050505056fea265627a7a7231582023a78f50245a06a01e0f00388ff89074982c45c481c555a15fa4e5236234566164736f6c63430005110032",
					"opcodes": "PUSH1 0x80 PUSH1 0x40 MSTORE CALLVALUE DUP1 ISZERO PUSH2 0x10 JUMPI PUSH1 0x0 DUP1 REVERT JUMPDEST POP PUSH2 0x12A6 DUP1 PUSH2 0x20 PUSH1 0x0 CODECOPY PUSH1 0x0 RETURN INVALID PUSH1 0x80 PUSH1 0x40 MSTORE PUSH1 0x4 CALLDATASIZE LT PUSH2 0xA7 JUMPI PUSH1 0x0 CALLDATALOAD PUSH1 0xE0 SHR DUP1 PUSH4 0x51DCB1C3 GT PUSH2 0x64 JUMPI DUP1 PUSH4 0x51DCB1C3 EQ PUSH2 0x264 JUMPI DUP1 PUSH4 0x6F9FB98A EQ PUSH2 0x28F JUMPI DUP1 PUSH4 0x7E7E4B47 EQ PUSH2 0x2BA JUMPI DUP1 PUSH4 0x807C8504 EQ PUSH2 0x2F3 JUMPI DUP1 PUSH4 0xC7A1865B EQ PUSH2 0x322 JUMPI DUP1 PUSH4 0xDA91254C EQ PUSH2 0x375 JUMPI PUSH2 0xA7 JUMP JUMPDEST DUP1 PUSH4 0x1AA3A008 EQ PUSH2 0xAC JUMPI DUP1 PUSH4 0x1D73C64C EQ PUSH2 0xCA JUMPI DUP1 PUSH4 0x2626AB08 EQ PUSH2 0xF5 JUMPI DUP1 PUSH4 0x3D6AE3A7 EQ PUSH2 0x120 JUMPI DUP1 PUSH4 0x43445CA8 EQ PUSH2 0x14B JUMPI DUP1 PUSH4 0x4C261247 EQ PUSH2 0x17A JUMPI JUMPDEST PUSH1 0x0 DUP1 REVERT JUMPDEST PUSH2 0xB4 PUSH2 0x3A0 JUMP JUMPDEST PUSH1 0x40 MLOAD DUP1 DUP3 DUP2 MSTORE PUSH1 0x20 ADD SWAP2 POP POP PUSH1 0x40 MLOAD DUP1 SWAP2 SUB SWAP1 RETURN JUMPDEST CALLVALUE DUP1 ISZERO PUSH2 0xD6 JUMPI PUSH1 0x0 DUP1 REVERT JUMPDEST POP PUSH2 0xDF PUSH2 0x5D7 JUMP JUMPDEST PUSH1 0x40 MLOAD DUP1 DUP3 DUP2 MSTORE PUSH1 0x20 ADD SWAP2 POP POP PUSH1 0x40 MLOAD DUP1 SWAP2 SUB SWAP1 RETURN JUMPDEST CALLVALUE DUP1 ISZERO PUSH2 0x101 JUMPI PUSH1 0x0 DUP1 REVERT JUMPDEST POP PUSH2 0x10A PUSH2 0x5DD JUMP JUMPDEST PUSH1 0x40 MLOAD DUP1 DUP3 DUP2 MSTORE PUSH1 0x20 ADD SWAP2 POP POP PUSH1 0x40 MLOAD DUP1 SWAP2 SUB SWAP1 RETURN JUMPDEST CALLVALUE DUP1 ISZERO PUSH2 0x12C JUMPI PUSH1 0x0 DUP1 REVERT JUMPDEST POP PUSH2 0x135 PUSH2 0x5E8 JUMP JUMPDEST PUSH1 0x40 MLOAD DUP1 DUP3 DUP2 MSTORE PUSH1 0x20 ADD SWAP2 POP POP PUSH1 0x40 MLOAD DUP1 SWAP2 SUB SWAP1 RETURN JUMPDEST CALLVALUE DUP1 ISZERO PUSH2 0x157 JUMPI PUSH1 0x0 DUP1 REVERT JUMPDEST POP PUSH2 0x160 PUSH2 0x5EE JUMP JUMPDEST PUSH1 0x40 MLOAD DUP1 DUP3 ISZERO ISZERO ISZERO ISZERO DUP2 MSTORE PUSH1 0x20 ADD SWAP2 POP POP PUSH1 0x40 MLOAD DUP1 SWAP2 SUB SWAP1 RETURN JUMPDEST CALLVALUE DUP1 ISZERO PUSH2 0x186 JUMPI PUSH1 0x0 DUP1 REVERT JUMPDEST POP PUSH2 0x240 PUSH1 0x4 DUP1 CALLDATASIZE SUB PUSH1 0x20 DUP2 LT ISZERO PUSH2 0x19D JUMPI PUSH1 0x0 DUP1 REVERT JUMPDEST DUP2 ADD SWAP1 DUP1 DUP1 CALLDATALOAD SWAP1 PUSH1 0x20 ADD SWAP1 PUSH5 0x100000000 DUP2 GT ISZERO PUSH2 0x1BA JUMPI PUSH1 0x0 DUP1 REVERT JUMPDEST DUP3 ADD DUP4 PUSH1 0x20 DUP3 ADD GT ISZERO PUSH2 0x1CC JUMPI PUSH1 0x0 DUP1 REVERT JUMPDEST DUP1 CALLDATALOAD SWAP1 PUSH1 0x20 ADD SWAP2 DUP5 PUSH1 0x1 DUP4 MUL DUP5 ADD GT PUSH5 0x100000000 DUP4 GT OR ISZERO PUSH2 0x1EE JUMPI PUSH1 0x0 DUP1 REVERT JUMPDEST SWAP2 SWAP1 DUP1 DUP1 PUSH1 0x1F ADD PUSH1 0x20 DUP1 SWAP2 DIV MUL PUSH1 0x20 ADD PUSH1 0x40 MLOAD SWAP1 DUP2 ADD PUSH1 0x40 MSTORE DUP1 SWAP4 SWAP3 SWAP2 SWAP1 DUP2 DUP2 MSTORE PUSH1 0x20 ADD DUP4 DUP4 DUP1 DUP3 DUP5 CALLDATACOPY PUSH1 0x0 DUP2 DUP5 ADD MSTORE PUSH1 0x1F NOT PUSH1 0x1F DUP3 ADD AND SWAP1 POP DUP1 DUP4 ADD SWAP3 POP POP POP POP POP POP POP SWAP2 SWAP3 SWAP2 SWAP3 SWAP1 POP POP POP PUSH2 0x650 JUMP JUMPDEST PUSH1 0x40 MLOAD DUP1 DUP3 PUSH1 0x3 DUP2 GT ISZERO PUSH2 0x250 JUMPI INVALID JUMPDEST PUSH1 0xFF AND DUP2 MSTORE PUSH1 0x20 ADD SWAP2 POP POP PUSH1 0x40 MLOAD DUP1 SWAP2 SUB SWAP1 RETURN JUMPDEST CALLVALUE DUP1 ISZERO PUSH2 0x270 JUMPI PUSH1 0x0 DUP1 REVERT JUMPDEST POP PUSH2 0x279 PUSH2 0x9B5 JUMP JUMPDEST PUSH1 0x40 MLOAD DUP1 DUP3 DUP2 MSTORE PUSH1 0x20 ADD SWAP2 POP POP PUSH1 0x40 MLOAD DUP1 SWAP2 SUB SWAP1 RETURN JUMPDEST CALLVALUE DUP1 ISZERO PUSH2 0x29B JUMPI PUSH1 0x0 DUP1 REVERT JUMPDEST POP PUSH2 0x2A4 PUSH2 0x9D9 JUMP JUMPDEST PUSH1 0x40 MLOAD DUP1 DUP3 DUP2 MSTORE PUSH1 0x20 ADD SWAP2 POP POP PUSH1 0x40 MLOAD DUP1 SWAP2 SUB SWAP1 RETURN JUMPDEST CALLVALUE DUP1 ISZERO PUSH2 0x2C6 JUMPI PUSH1 0x0 DUP1 REVERT JUMPDEST POP PUSH2 0x2CF PUSH2 0x9E1 JUMP JUMPDEST PUSH1 0x40 MLOAD DUP1 DUP3 PUSH1 0x3 DUP2 GT ISZERO PUSH2 0x2DF JUMPI INVALID JUMPDEST PUSH1 0xFF AND DUP2 MSTORE PUSH1 0x20 ADD SWAP2 POP POP PUSH1 0x40 MLOAD DUP1 SWAP2 SUB SWAP1 RETURN JUMPDEST CALLVALUE DUP1 ISZERO PUSH2 0x2FF JUMPI PUSH1 0x0 DUP1 REVERT JUMPDEST POP PUSH2 0x308 PUSH2 0xCAF JUMP JUMPDEST PUSH1 0x40 MLOAD DUP1 DUP3 ISZERO ISZERO ISZERO ISZERO DUP2 MSTORE PUSH1 0x20 ADD SWAP2 POP POP PUSH1 0x40 MLOAD DUP1 SWAP2 SUB SWAP1 RETURN JUMPDEST CALLVALUE DUP1 ISZERO PUSH2 0x32E JUMPI PUSH1 0x0 DUP1 REVERT JUMPDEST POP PUSH2 0x35B PUSH1 0x4 DUP1 CALLDATASIZE SUB PUSH1 0x20 DUP2 LT ISZERO PUSH2 0x345 JUMPI PUSH1 0x0 DUP1 REVERT JUMPDEST DUP2 ADD SWAP1 DUP1 DUP1 CALLDATALOAD SWAP1 PUSH1 0x20 ADD SWAP1 SWAP3 SWAP2 SWAP1 POP POP POP PUSH2 0xCD0 JUMP JUMPDEST PUSH1 0x40 MLOAD DUP1 DUP3 ISZERO ISZERO ISZERO ISZERO DUP2 MSTORE PUSH1 0x20 ADD SWAP2 POP POP PUSH1 0x40 MLOAD DUP1 SWAP2 SUB SWAP1 RETURN JUMPDEST CALLVALUE DUP1 ISZERO PUSH2 0x381 JUMPI PUSH1 0x0 DUP1 REVERT JUMPDEST POP PUSH2 0x38A PUSH2 0xE7C JUMP JUMPDEST PUSH1 0x40 MLOAD DUP1 DUP3 DUP2 MSTORE PUSH1 0x20 ADD SWAP2 POP POP PUSH1 0x40 MLOAD DUP1 SWAP2 SUB SWAP1 RETURN JUMPDEST PUSH1 0x0 PUSH7 0x38D7EA4C68000 CALLVALUE LT ISZERO PUSH2 0x3B6 JUMPI PUSH1 0x0 DUP1 REVERT JUMPDEST PUSH1 0x0 DUP1 SLOAD EQ DUP1 PUSH2 0x3C8 JUMPI POP PUSH1 0x0 SLOAD CALLVALUE LT ISZERO JUMPDEST PUSH2 0x3D1 JUMPI PUSH1 0x0 DUP1 REVERT JUMPDEST PUSH1 0x2 PUSH1 0x0 SWAP1 SLOAD SWAP1 PUSH2 0x100 EXP SWAP1 DIV PUSH20 0xFFFFFFFFFFFFFFFFFFFFFFFFFFFFFFFFFFFFFFFF AND PUSH20 0xFFFFFFFFFFFFFFFFFFFFFFFFFFFFFFFFFFFFFFFF AND CALLER PUSH20 0xFFFFFFFFFFFFFFFFFFFFFFFFFFFFFFFFFFFFFFFF AND EQ ISZERO DUP1 ISZERO PUSH2 0x47D JUMPI POP PUSH1 0x3 PUSH1 0x0 SWAP1 SLOAD SWAP1 PUSH2 0x100 EXP SWAP1 DIV PUSH20 0xFFFFFFFFFFFFFFFFFFFFFFFFFFFFFFFFFFFFFFFF AND PUSH20 0xFFFFFFFFFFFFFFFFFFFFFFFFFFFFFFFFFFFFFFFF AND CALLER PUSH20 0xFFFFFFFFFFFFFFFFFFFFFFFFFFFFFFFFFFFFFFFF AND EQ ISZERO JUMPDEST PUSH2 0x486 JUMPI PUSH1 0x0 DUP1 REVERT JUMPDEST PUSH1 0x0 PUSH20 0xFFFFFFFFFFFFFFFFFFFFFFFFFFFFFFFFFFFFFFFF AND PUSH1 0x2 PUSH1 0x0 SWAP1 SLOAD SWAP1 PUSH2 0x100 EXP SWAP1 DIV PUSH20 0xFFFFFFFFFFFFFFFFFFFFFFFFFFFFFFFFFFFFFFFF AND PUSH20 0xFFFFFFFFFFFFFFFFFFFFFFFFFFFFFFFFFFFFFFFF AND EQ ISZERO PUSH2 0x52E JUMPI CALLER PUSH1 0x2 PUSH1 0x0 PUSH2 0x100 EXP DUP2 SLOAD DUP2 PUSH20 0xFFFFFFFFFFFFFFFFFFFFFFFFFFFFFFFFFFFFFFFF MUL NOT AND SWAP1 DUP4 PUSH20 0xFFFFFFFFFFFFFFFFFFFFFFFFFFFFFFFFFFFFFFFF AND MUL OR SWAP1 SSTORE POP CALLVALUE PUSH1 0x0 DUP2 SWAP1 SSTORE POP PUSH1 0x1 SWAP1 POP PUSH2 0x5D4 JUMP JUMPDEST PUSH1 0x0 PUSH20 0xFFFFFFFFFFFFFFFFFFFFFFFFFFFFFFFFFFFFFFFF AND PUSH1 0x3 PUSH1 0x0 SWAP1 SLOAD SWAP1 PUSH2 0x100 EXP SWAP1 DIV PUSH20 0xFFFFFFFFFFFFFFFFFFFFFFFFFFFFFFFFFFFFFFFF AND PUSH20 0xFFFFFFFFFFFFFFFFFFFFFFFFFFFFFFFFFFFFFFFF AND EQ ISZERO PUSH2 0x5CF JUMPI CALLER PUSH1 0x3 PUSH1 0x0 PUSH2 0x100 EXP DUP2 SLOAD DUP2 PUSH20 0xFFFFFFFFFFFFFFFFFFFFFFFFFFFFFFFFFFFFFFFF MUL NOT AND SWAP1 DUP4 PUSH20 0xFFFFFFFFFFFFFFFFFFFFFFFFFFFFFFFFFFFFFFFF AND MUL OR SWAP1 SSTORE POP PUSH1 0x2 SWAP1 POP PUSH2 0x5D4 JUMP JUMPDEST PUSH1 0x0 SWAP1 POP JUMPDEST SWAP1 JUMP JUMPDEST PUSH1 0x0 SLOAD DUP2 JUMP JUMPDEST PUSH7 0x38D7EA4C68000 DUP2 JUMP JUMPDEST PUSH2 0x258 DUP2 JUMP JUMPDEST PUSH1 0x0 DUP1 PUSH1 0x3 DUP2 GT ISZERO PUSH2 0x5FC JUMPI INVALID JUMPDEST PUSH1 0x6 PUSH1 0x0 SWAP1 SLOAD SWAP1 PUSH2 0x100 EXP SWAP1 DIV PUSH1 0xFF AND PUSH1 0x3 DUP2 GT ISZERO PUSH2 0x617 JUMPI INVALID JUMPDEST EQ ISZERO DUP1 ISZERO PUSH2 0x64B JUMPI POP PUSH1 0x0 PUSH1 0x3 DUP2 GT ISZERO PUSH2 0x62D JUMPI INVALID JUMPDEST PUSH1 0x6 PUSH1 0x1 SWAP1 SLOAD SWAP1 PUSH2 0x100 EXP SWAP1 DIV PUSH1 0xFF AND PUSH1 0x3 DUP2 GT ISZERO PUSH2 0x648 JUMPI INVALID JUMPDEST EQ ISZERO JUMPDEST SWAP1 POP SWAP1 JUMP JUMPDEST PUSH1 0x0 PUSH1 0x2 PUSH1 0x0 SWAP1 SLOAD SWAP1 PUSH2 0x100 EXP SWAP1 DIV PUSH20 0xFFFFFFFFFFFFFFFFFFFFFFFFFFFFFFFFFFFFFFFF AND PUSH20 0xFFFFFFFFFFFFFFFFFFFFFFFFFFFFFFFFFFFFFFFF AND CALLER PUSH20 0xFFFFFFFFFFFFFFFFFFFFFFFFFFFFFFFFFFFFFFFF AND EQ DUP1 PUSH2 0x6FB JUMPI POP PUSH1 0x3 PUSH1 0x0 SWAP1 SLOAD SWAP1 PUSH2 0x100 EXP SWAP1 DIV PUSH20 0xFFFFFFFFFFFFFFFFFFFFFFFFFFFFFFFFFFFFFFFF AND PUSH20 0xFFFFFFFFFFFFFFFFFFFFFFFFFFFFFFFFFFFFFFFF AND CALLER PUSH20 0xFFFFFFFFFFFFFFFFFFFFFFFFFFFFFFFFFFFFFFFF AND EQ JUMPDEST PUSH2 0x704 JUMPI PUSH1 0x0 DUP1 REVERT JUMPDEST PUSH1 0x0 DUP1 SHL PUSH1 0x4 SLOAD EQ ISZERO DUP1 ISZERO PUSH2 0x71E JUMPI POP PUSH1 0x0 DUP1 SHL PUSH1 0x5 SLOAD EQ ISZERO JUMPDEST PUSH2 0x727 JUMPI PUSH1 0x0 DUP1 REVERT JUMPDEST PUSH1 0x0 PUSH1 0x2 DUP4 PUSH1 0x40 MLOAD PUSH1 0x20 ADD DUP1 DUP3 DUP1 MLOAD SWAP1 PUSH1 0x20 ADD SWAP1 DUP1 DUP4 DUP4 JUMPDEST PUSH1 0x20 DUP4 LT PUSH2 0x762 JUMPI DUP1 MLOAD DUP3 MSTORE PUSH1 0x20 DUP3 ADD SWAP2 POP PUSH1 0x20 DUP2 ADD SWAP1 POP PUSH1 0x20 DUP4 SUB SWAP3 POP PUSH2 0x73F JUMP JUMPDEST PUSH1 0x1 DUP4 PUSH1 0x20 SUB PUSH2 0x100 EXP SUB DUP1 NOT DUP3 MLOAD AND DUP2 DUP5 MLOAD AND DUP1 DUP3 OR DUP6 MSTORE POP POP POP POP POP POP SWAP1 POP ADD SWAP2 POP POP PUSH1 0x40 MLOAD PUSH1 0x20 DUP2 DUP4 SUB SUB DUP2 MSTORE SWAP1 PUSH1 0x40 MSTORE PUSH1 0x40 MLOAD DUP1 DUP3 DUP1 MLOAD SWAP1 PUSH1 0x20 ADD SWAP1 DUP1 DUP4 DUP4 JUMPDEST PUSH1 0x20 DUP4 LT PUSH2 0x7C9 JUMPI DUP1 MLOAD DUP3 MSTORE PUSH1 0x20 DUP3 ADD SWAP2 POP PUSH1 0x20 DUP2 ADD SWAP1 POP PUSH1 0x20 DUP4 SUB SWAP3 POP PUSH2 0x7A6 JUMP JUMPDEST PUSH1 0x1 DUP4 PUSH1 0x20 SUB PUSH2 0x100 EXP SUB DUP1 NOT DUP3 MLOAD AND DUP2 DUP5 MLOAD AND DUP1 DUP3 OR DUP6 MSTORE POP POP POP POP POP POP SWAP1 POP ADD SWAP2 POP POP PUSH1 0x20 PUSH1 0x40 MLOAD DUP1 DUP4 SUB DUP2 DUP6 GAS STATICCALL ISZERO DUP1 ISZERO PUSH2 0x80B JUMPI RETURNDATASIZE PUSH1 0x0 DUP1 RETURNDATACOPY RETURNDATASIZE PUSH1 0x0 REVERT JUMPDEST POP POP POP PUSH1 0x40 MLOAD RETURNDATASIZE PUSH1 0x20 DUP2 LT ISZERO PUSH2 0x820 JUMPI PUSH1 0x0 DUP1 REVERT JUMPDEST DUP2 ADD SWAP1 DUP1 DUP1 MLOAD SWAP1 PUSH1 0x20 ADD SWAP1 SWAP3 SWAP2 SWAP1 POP POP POP SWAP1 POP PUSH1 0x0 PUSH2 0x83E DUP5 PUSH2 0xF44 JUMP JUMPDEST PUSH1 0x3 DUP2 GT ISZERO PUSH2 0x849 JUMPI INVALID JUMPDEST SWAP1 POP PUSH1 0x0 PUSH1 0x3 DUP2 GT ISZERO PUSH2 0x858 JUMPI INVALID JUMPDEST DUP2 PUSH1 0x3 DUP2 GT ISZERO PUSH2 0x864 JUMPI INVALID JUMPDEST EQ ISZERO PUSH2 0x875 JUMPI PUSH1 0x0 SWAP3 POP POP POP PUSH2 0x9B0 JUMP JUMPDEST PUSH1 0x2 PUSH1 0x0 SWAP1 SLOAD SWAP1 PUSH2 0x100 EXP SWAP1 DIV PUSH20 0xFFFFFFFFFFFFFFFFFFFFFFFFFFFFFFFFFFFFFFFF AND PUSH20 0xFFFFFFFFFFFFFFFFFFFFFFFFFFFFFFFFFFFFFFFF AND CALLER PUSH20 0xFFFFFFFFFFFFFFFFFFFFFFFFFFFFFFFFFFFFFFFF AND EQ DUP1 ISZERO PUSH2 0x8D3 JUMPI POP PUSH1 0x4 SLOAD DUP3 EQ JUMPDEST ISZERO PUSH2 0x900 JUMPI DUP1 PUSH1 0x6 PUSH1 0x0 PUSH2 0x100 EXP DUP2 SLOAD DUP2 PUSH1 0xFF MUL NOT AND SWAP1 DUP4 PUSH1 0x3 DUP2 GT ISZERO PUSH2 0x8F6 JUMPI INVALID JUMPDEST MUL OR SWAP1 SSTORE POP PUSH2 0x997 JUMP JUMPDEST PUSH1 0x3 PUSH1 0x0 SWAP1 SLOAD SWAP1 PUSH2 0x100 EXP SWAP1 DIV PUSH20 0xFFFFFFFFFFFFFFFFFFFFFFFFFFFFFFFFFFFFFFFF AND PUSH20 0xFFFFFFFFFFFFFFFFFFFFFFFFFFFFFFFFFFFFFFFF AND CALLER PUSH20 0xFFFFFFFFFFFFFFFFFFFFFFFFFFFFFFFFFFFFFFFF AND EQ DUP1 ISZERO PUSH2 0x95E JUMPI POP PUSH1 0x5 SLOAD DUP3 EQ JUMPDEST ISZERO PUSH2 0x98B JUMPI DUP1 PUSH1 0x6 PUSH1 0x1 PUSH2 0x100 EXP DUP2 SLOAD DUP2 PUSH1 0xFF MUL NOT AND SWAP1 DUP4 PUSH1 0x3 DUP2 GT ISZERO PUSH2 0x981 JUMPI INVALID JUMPDEST MUL OR SWAP1 SSTORE POP PUSH2 0x996 JUMP JUMPDEST PUSH1 0x0 SWAP3 POP POP POP PUSH2 0x9B0 JUMP JUMPDEST JUMPDEST PUSH1 0x0 PUSH1 0x1 SLOAD EQ ISZERO PUSH2 0x9AA JUMPI TIMESTAMP PUSH1 0x1 DUP2 SWAP1 SSTORE POP JUMPDEST DUP1 SWAP3 POP POP POP JUMPDEST SWAP2 SWAP1 POP JUMP JUMPDEST PUSH1 0x0 DUP1 PUSH1 0x1 SLOAD EQ PUSH2 0x9D0 JUMPI TIMESTAMP PUSH2 0x258 PUSH1 0x1 SLOAD ADD SUB SWAP1 POP PUSH2 0x9D6 JUMP JUMPDEST PUSH2 0x258 SWAP1 POP JUMPDEST SWAP1 JUMP JUMPDEST PUSH1 0x0 SELFBALANCE SWAP1 POP SWAP1 JUMP JUMPDEST PUSH1 0x0 DUP1 PUSH1 0x3 DUP2 GT ISZERO PUSH2 0x9EF JUMPI INVALID JUMPDEST PUSH1 0x6 PUSH1 0x0 SWAP1 SLOAD SWAP1 PUSH2 0x100 EXP SWAP1 DIV PUSH1 0xFF AND PUSH1 0x3 DUP2 GT ISZERO PUSH2 0xA0A JUMPI INVALID JUMPDEST EQ ISZERO DUP1 ISZERO PUSH2 0xA3E JUMPI POP PUSH1 0x0 PUSH1 0x3 DUP2 GT ISZERO PUSH2 0xA20 JUMPI INVALID JUMPDEST PUSH1 0x6 PUSH1 0x1 SWAP1 SLOAD SWAP1 PUSH2 0x100 EXP SWAP1 DIV PUSH1 0xFF AND PUSH1 0x3 DUP2 GT ISZERO PUSH2 0xA3B JUMPI INVALID JUMPDEST EQ ISZERO JUMPDEST DUP1 PUSH2 0xA5D JUMPI POP PUSH1 0x0 PUSH1 0x1 SLOAD EQ ISZERO DUP1 ISZERO PUSH2 0xA5C JUMPI POP PUSH2 0x258 PUSH1 0x1 SLOAD ADD TIMESTAMP GT JUMPDEST JUMPDEST PUSH2 0xA66 JUMPI PUSH1 0x0 DUP1 REVERT JUMPDEST PUSH1 0x0 PUSH1 0x6 PUSH1 0x1 SWAP1 SLOAD SWAP1 PUSH2 0x100 EXP SWAP1 DIV PUSH1 0xFF AND PUSH1 0x3 DUP2 GT ISZERO PUSH2 0xA83 JUMPI INVALID JUMPDEST PUSH1 0x6 PUSH1 0x0 SWAP1 SLOAD SWAP1 PUSH2 0x100 EXP SWAP1 DIV PUSH1 0xFF AND PUSH1 0x3 DUP2 GT ISZERO PUSH2 0xA9E JUMPI INVALID JUMPDEST EQ ISZERO PUSH2 0xAAD JUMPI PUSH1 0x3 SWAP1 POP PUSH2 0xC3D JUMP JUMPDEST PUSH1 0x1 PUSH1 0x3 DUP2 GT ISZERO PUSH2 0xABA JUMPI INVALID JUMPDEST PUSH1 0x6 PUSH1 0x0 SWAP1 SLOAD SWAP1 PUSH2 0x100 EXP SWAP1 DIV PUSH1 0xFF AND PUSH1 0x3 DUP2 GT ISZERO PUSH2 0xAD5 JUMPI INVALID JUMPDEST EQ DUP1 ISZERO PUSH2 0xB06 JUMPI POP PUSH1 0x3 DUP1 DUP2 GT ISZERO PUSH2 0xAE9 JUMPI INVALID JUMPDEST PUSH1 0x6 PUSH1 0x1 SWAP1 SLOAD SWAP1 PUSH2 0x100 EXP SWAP1 DIV PUSH1 0xFF AND PUSH1 0x3 DUP2 GT ISZERO PUSH2 0xB04 JUMPI INVALID JUMPDEST EQ JUMPDEST DUP1 PUSH2 0xB67 JUMPI POP PUSH1 0x2 PUSH1 0x3 DUP2 GT ISZERO PUSH2 0xB19 JUMPI INVALID JUMPDEST PUSH1 0x6 PUSH1 0x0 SWAP1 SLOAD SWAP1 PUSH2 0x100 EXP SWAP1 DIV PUSH1 0xFF AND PUSH1 0x3 DUP2 GT ISZERO PUSH2 0xB34 JUMPI INVALID JUMPDEST EQ DUP1 ISZERO PUSH2 0xB66 JUMPI POP PUSH1 0x1 PUSH1 0x3 DUP2 GT ISZERO PUSH2 0xB49 JUMPI INVALID JUMPDEST PUSH1 0x6 PUSH1 0x1 SWAP1 SLOAD SWAP1 PUSH2 0x100 EXP SWAP1 DIV PUSH1 0xFF AND PUSH1 0x3 DUP2 GT ISZERO PUSH2 0xB64 JUMPI INVALID JUMPDEST EQ JUMPDEST JUMPDEST DUP1 PUSH2 0xBC7 JUMPI POP PUSH1 0x3 DUP1 DUP2 GT ISZERO PUSH2 0xB79 JUMPI INVALID JUMPDEST PUSH1 0x6 PUSH1 0x0 SWAP1 SLOAD SWAP1 PUSH2 0x100 EXP SWAP1 DIV PUSH1 0xFF AND PUSH1 0x3 DUP2 GT ISZERO PUSH2 0xB94 JUMPI INVALID JUMPDEST EQ DUP1 ISZERO PUSH2 0xBC6 JUMPI POP PUSH1 0x2 PUSH1 0x3 DUP2 GT ISZERO PUSH2 0xBA9 JUMPI INVALID JUMPDEST PUSH1 0x6 PUSH1 0x1 SWAP1 SLOAD SWAP1 PUSH2 0x100 EXP SWAP1 DIV PUSH1 0xFF AND PUSH1 0x3 DUP2 GT ISZERO PUSH2 0xBC4 JUMPI INVALID JUMPDEST EQ JUMPDEST JUMPDEST DUP1 PUSH2 0xC29 JUMPI POP PUSH1 0x0 PUSH1 0x3 DUP2 GT ISZERO PUSH2 0xBDA JUMPI INVALID JUMPDEST PUSH1 0x6 PUSH1 0x0 SWAP1 SLOAD SWAP1 PUSH2 0x100 EXP SWAP1 DIV PUSH1 0xFF AND PUSH1 0x3 DUP2 GT ISZERO PUSH2 0xBF5 JUMPI INVALID JUMPDEST EQ ISZERO DUP1 ISZERO PUSH2 0xC28 JUMPI POP PUSH1 0x0 PUSH1 0x3 DUP2 GT ISZERO PUSH2 0xC0B JUMPI INVALID JUMPDEST PUSH1 0x6 PUSH1 0x1 SWAP1 SLOAD SWAP1 PUSH2 0x100 EXP SWAP1 DIV PUSH1 0xFF AND PUSH1 0x3 DUP2 GT ISZERO PUSH2 0xC26 JUMPI INVALID JUMPDEST EQ JUMPDEST JUMPDEST ISZERO PUSH2 0xC37 JUMPI PUSH1 0x1 SWAP1 POP PUSH2 0xC3C JUMP JUMPDEST PUSH1 0x2 SWAP1 POP JUMPDEST JUMPDEST PUSH1 0x0 PUSH1 0x2 PUSH1 0x0 SWAP1 SLOAD SWAP1 PUSH2 0x100 EXP SWAP1 DIV PUSH20 0xFFFFFFFFFFFFFFFFFFFFFFFFFFFFFFFFFFFFFFFF AND SWAP1 POP PUSH1 0x0 PUSH1 0x3 PUSH1 0x0 SWAP1 SLOAD SWAP1 PUSH2 0x100 EXP SWAP1 DIV PUSH20 0xFFFFFFFFFFFFFFFFFFFFFFFFFFFFFFFFFFFFFFFF AND SWAP1 POP PUSH1 0x0 DUP1 SLOAD SWAP1 POP PUSH2 0xC99 PUSH2 0x1014 JUMP JUMPDEST PUSH2 0xCA5 DUP4 DUP4 DUP4 DUP8 PUSH2 0x1105 JUMP JUMPDEST DUP4 SWAP5 POP POP POP POP POP SWAP1 JUMP JUMPDEST PUSH1 0x0 DUP1 PUSH1 0x0 SHL PUSH1 0x4 SLOAD EQ ISZERO DUP1 ISZERO PUSH2 0xCCB JUMPI POP PUSH1 0x0 DUP1 SHL PUSH1 0x5 SLOAD EQ ISZERO JUMPDEST SWAP1 POP SWAP1 JUMP JUMPDEST PUSH1 0x0 PUSH1 0x2 PUSH1 0x0 SWAP1 SLOAD SWAP1 PUSH2 0x100 EXP SWAP1 DIV PUSH20 0xFFFFFFFFFFFFFFFFFFFFFFFFFFFFFFFFFFFFFFFF AND PUSH20 0xFFFFFFFFFFFFFFFFFFFFFFFFFFFFFFFFFFFFFFFF AND CALLER PUSH20 0xFFFFFFFFFFFFFFFFFFFFFFFFFFFFFFFFFFFFFFFF AND EQ DUP1 PUSH2 0xD7B JUMPI POP PUSH1 0x3 PUSH1 0x0 SWAP1 SLOAD SWAP1 PUSH2 0x100 EXP SWAP1 DIV PUSH20 0xFFFFFFFFFFFFFFFFFFFFFFFFFFFFFFFFFFFFFFFF AND PUSH20 0xFFFFFFFFFFFFFFFFFFFFFFFFFFFFFFFFFFFFFFFF AND CALLER PUSH20 0xFFFFFFFFFFFFFFFFFFFFFFFFFFFFFFFFFFFFFFFF AND EQ JUMPDEST PUSH2 0xD84 JUMPI PUSH1 0x0 DUP1 REVERT JUMPDEST PUSH1 0x2 PUSH1 0x0 SWAP1 SLOAD SWAP1 PUSH2 0x100 EXP SWAP1 DIV PUSH20 0xFFFFFFFFFFFFFFFFFFFFFFFFFFFFFFFFFFFFFFFF AND PUSH20 0xFFFFFFFFFFFFFFFFFFFFFFFFFFFFFFFFFFFFFFFF AND CALLER PUSH20 0xFFFFFFFFFFFFFFFFFFFFFFFFFFFFFFFFFFFFFFFF AND EQ DUP1 ISZERO PUSH2 0xDE5 JUMPI POP PUSH1 0x0 DUP1 SHL PUSH1 0x4 SLOAD EQ JUMPDEST ISZERO PUSH2 0xDF6 JUMPI DUP2 PUSH1 0x4 DUP2 SWAP1 SSTORE POP PUSH2 0xE72 JUMP JUMPDEST PUSH1 0x3 PUSH1 0x0 SWAP1 SLOAD SWAP1 PUSH2 0x100 EXP SWAP1 DIV PUSH20 0xFFFFFFFFFFFFFFFFFFFFFFFFFFFFFFFFFFFFFFFF AND PUSH20 0xFFFFFFFFFFFFFFFFFFFFFFFFFFFFFFFFFFFFFFFF AND CALLER PUSH20 0xFFFFFFFFFFFFFFFFFFFFFFFFFFFFFFFFFFFFFFFF AND EQ DUP1 ISZERO PUSH2 0xE57 JUMPI POP PUSH1 0x0 DUP1 SHL PUSH1 0x5 SLOAD EQ JUMPDEST ISZERO PUSH2 0xE68 JUMPI DUP2 PUSH1 0x5 DUP2 SWAP1 SSTORE POP PUSH2 0xE71 JUMP JUMPDEST PUSH1 0x0 SWAP1 POP PUSH2 0xE77 JUMP JUMPDEST JUMPDEST PUSH1 0x1 SWAP1 POP JUMPDEST SWAP2 SWAP1 POP JUMP JUMPDEST PUSH1 0x0 PUSH1 0x2 PUSH1 0x0 SWAP1 SLOAD SWAP1 PUSH2 0x100 EXP SWAP1 DIV PUSH20 0xFFFFFFFFFFFFFFFFFFFFFFFFFFFFFFFFFFFFFFFF AND PUSH20 0xFFFFFFFFFFFFFFFFFFFFFFFFFFFFFFFFFFFFFFFF AND CALLER PUSH20 0xFFFFFFFFFFFFFFFFFFFFFFFFFFFFFFFFFFFFFFFF AND EQ ISZERO PUSH2 0xEDD JUMPI PUSH1 0x1 SWAP1 POP PUSH2 0xF41 JUMP JUMPDEST PUSH1 0x3 PUSH1 0x0 SWAP1 SLOAD SWAP1 PUSH2 0x100 EXP SWAP1 DIV PUSH20 0xFFFFFFFFFFFFFFFFFFFFFFFFFFFFFFFFFFFFFFFF AND PUSH20 0xFFFFFFFFFFFFFFFFFFFFFFFFFFFFFFFFFFFFFFFF AND CALLER PUSH20 0xFFFFFFFFFFFFFFFFFFFFFFFFFFFFFFFFFFFFFFFF AND EQ ISZERO PUSH2 0xF3C JUMPI PUSH1 0x2 SWAP1 POP PUSH2 0xF41 JUMP JUMPDEST PUSH1 0x0 SWAP1 POP JUMPDEST SWAP1 JUMP JUMPDEST PUSH1 0x0 DUP1 DUP3 PUSH1 0x0 DUP2 MLOAD DUP2 LT PUSH2 0xF54 JUMPI INVALID JUMPDEST PUSH1 0x20 ADD ADD MLOAD PUSH1 0xF8 SHR PUSH1 0xF8 SHL SWAP1 POP PUSH1 0x31 PUSH1 0xF8 SHL DUP2 PUSH31 0xFFFFFFFFFFFFFFFFFFFFFFFFFFFFFFFFFFFFFFFFFFFFFFFFFFFFFFFFFFFFFF NOT AND EQ ISZERO PUSH2 0xF99 JUMPI PUSH1 0x1 SWAP2 POP POP PUSH2 0x100F JUMP JUMPDEST PUSH1 0x32 PUSH1 0xF8 SHL DUP2 PUSH31 0xFFFFFFFFFFFFFFFFFFFFFFFFFFFFFFFFFFFFFFFFFFFFFFFFFFFFFFFFFFFFFF NOT AND EQ ISZERO PUSH2 0xFD1 JUMPI PUSH1 0x2 SWAP2 POP POP PUSH2 0x100F JUMP JUMPDEST PUSH1 0x33 PUSH1 0xF8 SHL DUP2 PUSH31 0xFFFFFFFFFFFFFFFFFFFFFFFFFFFFFFFFFFFFFFFFFFFFFFFFFFFFFFFFFFFFFF NOT AND EQ ISZERO PUSH2 0x1009 JUMPI PUSH1 0x3 SWAP2 POP POP PUSH2 0x100F JUMP JUMPDEST PUSH1 0x0 SWAP2 POP POP JUMPDEST SWAP2 SWAP1 POP JUMP JUMPDEST PUSH1 0x0 DUP1 DUP2 SWAP1 SSTORE POP PUSH1 0x0 PUSH1 0x1 DUP2 SWAP1 SSTORE POP PUSH1 0x0 PUSH1 0x2 PUSH1 0x0 PUSH2 0x100 EXP DUP2 SLOAD DUP2 PUSH20 0xFFFFFFFFFFFFFFFFFFFFFFFFFFFFFFFFFFFFFFFF MUL NOT AND SWAP1 DUP4 PUSH20 0xFFFFFFFFFFFFFFFFFFFFFFFFFFFFFFFFFFFFFFFF AND MUL OR SWAP1 SSTORE POP PUSH1 0x0 PUSH1 0x3 PUSH1 0x0 PUSH2 0x100 EXP DUP2 SLOAD DUP2 PUSH20 0xFFFFFFFFFFFFFFFFFFFFFFFFFFFFFFFFFFFFFFFF MUL NOT AND SWAP1 DUP4 PUSH20 0xFFFFFFFFFFFFFFFFFFFFFFFFFFFFFFFFFFFFFFFF AND MUL OR SWAP1 SSTORE POP PUSH1 0x0 DUP1 SHL PUSH1 0x4 DUP2 SWAP1 SSTORE POP PUSH1 0x0 DUP1 SHL PUSH1 0x5 DUP2 SWAP1 SSTORE POP PUSH1 0x0 PUSH1 0x6 PUSH1 0x0 PUSH2 0x100 EXP DUP2 SLOAD DUP2 PUSH1 0xFF MUL NOT AND SWAP1 DUP4 PUSH1 0x3 DUP2 GT ISZERO PUSH2 0x10DA JUMPI INVALID JUMPDEST MUL OR SWAP1 SSTORE POP PUSH1 0x0 PUSH1 0x6 PUSH1 0x1 PUSH2 0x100 EXP DUP2 SLOAD DUP2 PUSH1 0xFF MUL NOT AND SWAP1 DUP4 PUSH1 0x3 DUP2 GT ISZERO PUSH2 0x10FE JUMPI INVALID JUMPDEST MUL OR SWAP1 SSTORE POP JUMP JUMPDEST PUSH1 0x1 PUSH1 0x3 DUP2 GT ISZERO PUSH2 0x1112 JUMPI INVALID JUMPDEST DUP2 PUSH1 0x3 DUP2 GT ISZERO PUSH2 0x111E JUMPI INVALID JUMPDEST EQ ISZERO PUSH2 0x1170 JUMPI DUP4 PUSH20 0xFFFFFFFFFFFFFFFFFFFFFFFFFFFFFFFFFFFFFFFF AND PUSH2 0x8FC SELFBALANCE SWAP1 DUP2 ISZERO MUL SWAP1 PUSH1 0x40 MLOAD PUSH1 0x0 PUSH1 0x40 MLOAD DUP1 DUP4 SUB DUP2 DUP6 DUP9 DUP9 CALL SWAP4 POP POP POP POP ISZERO DUP1 ISZERO PUSH2 0x116A JUMPI RETURNDATASIZE PUSH1 0x0 DUP1 RETURNDATACOPY RETURNDATASIZE PUSH1 0x0 REVERT JUMPDEST POP PUSH2 0x126B JUMP JUMPDEST PUSH1 0x2 PUSH1 0x3 DUP2 GT ISZERO PUSH2 0x117D JUMPI INVALID JUMPDEST DUP2 PUSH1 0x3 DUP2 GT ISZERO PUSH2 0x1189 JUMPI INVALID JUMPDEST EQ ISZERO PUSH2 0x11DB JUMPI DUP3 PUSH20 0xFFFFFFFFFFFFFFFFFFFFFFFFFFFFFFFFFFFFFFFF AND PUSH2 0x8FC SELFBALANCE SWAP1 DUP2 ISZERO MUL SWAP1 PUSH1 0x40 MLOAD PUSH1 0x0 PUSH1 0x40 MLOAD DUP1 DUP4 SUB DUP2 DUP6 DUP9 DUP9 CALL SWAP4 POP POP POP POP ISZERO DUP1 ISZERO PUSH2 0x11D5 JUMPI RETURNDATASIZE PUSH1 0x0 DUP1 RETURNDATACOPY RETURNDATASIZE PUSH1 0x0 REVERT JUMPDEST POP PUSH2 0x126A JUMP JUMPDEST DUP4 PUSH20 0xFFFFFFFFFFFFFFFFFFFFFFFFFFFFFFFFFFFFFFFF AND PUSH2 0x8FC DUP4 SWAP1 DUP2 ISZERO MUL SWAP1 PUSH1 0x40 MLOAD PUSH1 0x0 PUSH1 0x40 MLOAD DUP1 DUP4 SUB DUP2 DUP6 DUP9 DUP9 CALL SWAP4 POP POP POP POP ISZERO DUP1 ISZERO PUSH2 0x1221 JUMPI RETURNDATASIZE PUSH1 0x0 DUP1 RETURNDATACOPY RETURNDATASIZE PUSH1 0x0 REVERT JUMPDEST POP DUP3 PUSH20 0xFFFFFFFFFFFFFFFFFFFFFFFFFFFFFFFFFFFFFFFF AND PUSH2 0x8FC SELFBALANCE SWAP1 DUP2 ISZERO MUL SWAP1 PUSH1 0x40 MLOAD PUSH1 0x0 PUSH1 0x40 MLOAD DUP1 DUP4 SUB DUP2 DUP6 DUP9 DUP9 CALL SWAP4 POP POP POP POP ISZERO DUP1 ISZERO PUSH2 0x1268 JUMPI RETURNDATASIZE PUSH1 0x0 DUP1 RETURNDATACOPY RETURNDATASIZE PUSH1 0x0 REVERT JUMPDEST POP JUMPDEST JUMPDEST POP POP POP POP JUMP INVALID LOG2 PUSH6 0x627A7A723158 KECCAK256 0x23 0xA7 DUP16 POP 0x24 GAS MOD LOG0 0x1E 0xF STOP CODESIZE DUP16 0xF8 SWAP1 PUSH21 0x982C45C481C555A15FA4E5236234566164736F6C63 NUMBER STOP SDIV GT STOP ORIGIN "
				},
				"gasEstimates": {
					"creation": {
						"codeDepositCost": "954800",
						"executionCost": "994",
						"totalCost": "955794"
					},
					"external": {
						"BET_MIN()": "250",
						"REVEAL_TIMEOUT()": "272",
						"bothPlayed()": "1946",
						"bothRevealed()": "2183",
						"getContractBalance()": "237",
						"getOutcome()": "infinite",
						"initialBet()": "1028",
						"play(bytes32)": "25592",
						"register()": "45386",
						"reveal(string)": "infinite",
						"revealTimeLeft()": "1858",
						"whoAmI()": "2080"
					},
					"internal": {
						"getFirstChar(string memory)": "infinite",
						"pay(address payable,address payable,uint256,enum RockPaperScissors.Outcomes)": "infinite",
						"reset()": "103635"
					}
				},
				"methodIdentifiers": {
					"BET_MIN()": "2626ab08",
					"REVEAL_TIMEOUT()": "3d6ae3a7",
					"bothPlayed()": "807c8504",
					"bothRevealed()": "43445ca8",
					"getContractBalance()": "6f9fb98a",
					"getOutcome()": "7e7e4b47",
					"initialBet()": "1d73c64c",
					"play(bytes32)": "c7a1865b",
					"register()": "1aa3a008",
					"reveal(string)": "4c261247",
					"revealTimeLeft()": "51dcb1c3",
					"whoAmI()": "da91254c"
				}
			},
			"storageLayout": {
				"storage": [
					{
						"astId": 9,
						"contract": "rockpaperscissors.sol:RockPaperScissors",
						"label": "initialBet",
						"offset": 0,
						"slot": "0",
						"type": "t_uint256"
					},
					{
						"astId": 11,
						"contract": "rockpaperscissors.sol:RockPaperScissors",
						"label": "firstReveal",
						"offset": 0,
						"slot": "1",
						"type": "t_uint256"
					},
					{
						"astId": 23,
						"contract": "rockpaperscissors.sol:RockPaperScissors",
						"label": "playerA",
						"offset": 0,
						"slot": "2",
						"type": "t_address_payable"
					},
					{
						"astId": 25,
						"contract": "rockpaperscissors.sol:RockPaperScissors",
						"label": "playerB",
						"offset": 0,
						"slot": "3",
						"type": "t_address_payable"
					},
					{
						"astId": 27,
						"contract": "rockpaperscissors.sol:RockPaperScissors",
						"label": "encrMovePlayerA",
						"offset": 0,
						"slot": "4",
						"type": "t_bytes32"
					},
					{
						"astId": 29,
						"contract": "rockpaperscissors.sol:RockPaperScissors",
						"label": "encrMovePlayerB",
						"offset": 0,
						"slot": "5",
						"type": "t_bytes32"
					},
					{
						"astId": 31,
						"contract": "rockpaperscissors.sol:RockPaperScissors",
						"label": "movePlayerA",
						"offset": 0,
						"slot": "6",
						"type": "t_enum(Moves)16"
					},
					{
						"astId": 33,
						"contract": "rockpaperscissors.sol:RockPaperScissors",
						"label": "movePlayerB",
						"offset": 1,
						"slot": "6",
						"type": "t_enum(Moves)16"
					}
				],
				"types": {
					"t_address_payable": {
						"encoding": "inplace",
						"label": "address payable",
						"numberOfBytes": "20"
					},
					"t_bytes32": {
						"encoding": "inplace",
						"label": "bytes32",
						"numberOfBytes": "32"
					},
					"t_enum(Moves)16": {
						"encoding": "inplace",
						"label": "enum RockPaperScissors.Moves",
						"numberOfBytes": "1"
					},
					"t_uint256": {
						"encoding": "inplace",
						"label": "uint256",
						"numberOfBytes": "32"
					}
				}
			},
			"userdoc": {
				"methods": {
					"getContractBalance()": {
						"notice": "***********************************************************************"
					}
				}
			}
		}
	}
}