{
	"data": {
		"bytecode": {
			"linkReferences": {},
			"object": "60806040526000600155600060025560006003556000600455600060055560006006556000600755600060085560006009556000600a556000600b556000600c556000600d556000600e556000605f55600060605560006061556000606260006101000a81548173ffffffffffffffffffffffffffffffffffffffff021916908373ffffffffffffffffffffffffffffffffffffffff1602179055506000606360006101000a81548173ffffffffffffffffffffffffffffffffffffffff021916908373ffffffffffffffffffffffffffffffffffffffff1602179055503480156100e957600080fd5b50614dc7806100f96000396000f3fe60806040526004361061019c5760003560e01c806367084eb3116100ec578063c2855a591161008a578063cdc7ea5111610064578063cdc7ea5114610556578063d0017a0c14610581578063d24257c0146105ac578063dae10ed5146105d75761019c565b8063c2855a59146104fd578063c5c3cd7814610514578063c9f09d381461053f5761019c565b8063908a0979116100c6578063908a097914610453578063a10926d61461047e578063a7e1f6a2146104a9578063bdbe451b146104c05761019c565b806367084eb3146103c05780638914d63b146103eb5780638bbb236f146104165761019c565b80633519a2f81161015957806353a218c91161013357806353a218c914610325578063553df021146103625780635629365b14610379578063651f066a146103955761019c565b80633519a2f8146102b35780633c3248d5146102cf5780633fb64e75146102fa5761019c565b8063053a2cfb146101a157806310fe7c48146101cc57806313bf01ed146101f557806316dd37dd146102205780632626ab081461025d578063325eb3f514610288575b600080fd5b3480156101ad57600080fd5b506101b66105ee565b6040516101c39190614603565b60405180910390f35b3480156101d857600080fd5b506101f360048036038101906101ee9190614066565b6105f4565b005b34801561020157600080fd5b5061020a6107d2565b6040516102179190614603565b60405180910390f35b34801561022c57600080fd5b5061024760048036038101906102429190614093565b6107d8565b6040516102549190614603565b60405180910390f35b34801561026957600080fd5b50610272610806565b60405161027f9190614603565b60405180910390f35b34801561029457600080fd5b5061029d61080b565b6040516102aa9190614603565b60405180910390f35b6102cd60048036038101906102c89190614066565b610811565b005b3480156102db57600080fd5b506102e4610d42565b6040516102f19190614603565b60405180910390f35b34801561030657600080fd5b5061030f610d48565b60405161031c9190614603565b60405180910390f35b34801561033157600080fd5b5061034c60048036038101906103479190614093565b610d4e565b6040516103599190614603565b60405180910390f35b34801561036e57600080fd5b50610377610d7c565b005b610393600480360381019061038e9190614066565b611275565b005b3480156103a157600080fd5b506103aa611493565b6040516103b79190614603565b60405180910390f35b3480156103cc57600080fd5b506103d5611499565b6040516103e29190614603565b60405180910390f35b3480156103f757600080fd5b5061040061149f565b60405161040d9190614603565b60405180910390f35b34801561042257600080fd5b5061043d60048036038101906104389190614093565b6114a5565b60405161044a9190614603565b60405180910390f35b34801561045f57600080fd5b506104686114d3565b6040516104759190614603565b60405180910390f35b34801561048a57600080fd5b506104936114d9565b6040516104a09190614603565b60405180910390f35b3480156104b557600080fd5b506104be6114df565b005b3480156104cc57600080fd5b506104e760048036038101906104e29190614093565b6115f8565b6040516104f49190614603565b60405180910390f35b34801561050957600080fd5b50610512611626565b005b34801561052057600080fd5b50610529611956565b6040516105369190614603565b60405180910390f35b34801561054b57600080fd5b5061055461195c565b005b34801561056257600080fd5b5061056b611a54565b6040516105789190614603565b60405180910390f35b34801561058d57600080fd5b50610596611a5a565b6040516105a39190614603565b60405180910390f35b3480156105b857600080fd5b506105c1611a66565b6040516105ce9190614603565b60405180910390f35b3480156105e357600080fd5b506105ec611a6c565b005b600e5481565b806001811015801561060e5750670de0b6b3a76400008111155b61061757600080fd5b60035481111561065c576040517f08c379a000000000000000000000000000000000000000000000000000000000815260040161065390614403565b60405180910390fd5b606260009054906101000a900473ffffffffffffffffffffffffffffffffffffffff1673ffffffffffffffffffffffffffffffffffffffff163373ffffffffffffffffffffffffffffffffffffffff16146106ec576040517f08c379a00000000000000000000000000000000000000000000000000000000081526004016106e390614423565b60405180910390fd5b600060045414610731576040517f08c379a0000000000000000000000000000000000000000000000000000000008152600401610728906145c3565b60405180910390fd5b60008054906101000a900460ff161561077f576040517f08c379a000000000000000000000000000000000000000000000000000000000815260040161077690614463565b60405180910390fd5b60016000806101000a81548160ff021916908315150217905550816003546107a79190614710565b6003819055508160048190555060008060006101000a81548160ff0219169083151502179055505050565b600b5481565b604f82600281106107e857600080fd5b6002020181600281106107fa57600080fd5b01600091509150505481565b600181565b60085481565b80600073ffffffffffffffffffffffffffffffffffffffff16606360009054906101000a900473ffffffffffffffffffffffffffffffffffffffff1673ffffffffffffffffffffffffffffffffffffffff1614806108bd5750600073ffffffffffffffffffffffffffffffffffffffff16606260009054906101000a900473ffffffffffffffffffffffffffffffffffffffff1673ffffffffffffffffffffffffffffffffffffffff16145b806109155750606360009054906101000a900473ffffffffffffffffffffffffffffffffffffffff1673ffffffffffffffffffffffffffffffffffffffff163373ffffffffffffffffffffffffffffffffffffffff16145b8061096d5750606260009054906101000a900473ffffffffffffffffffffffffffffffffffffffff1673ffffffffffffffffffffffffffffffffffffffff163373ffffffffffffffffffffffffffffffffffffffff16145b6109ac576040517f08c379a00000000000000000000000000000000000000000000000000000000081526004016109a3906144c3565b60405180910390fd5b60008114806109bb5750600181145b6109fa576040517f08c379a00000000000000000000000000000000000000000000000000000000081526004016109f190614483565b60405180910390fd5b6000821415610b9c57606360009054906101000a900473ffffffffffffffffffffffffffffffffffffffff1673ffffffffffffffffffffffffffffffffffffffff163373ffffffffffffffffffffffffffffffffffffffff161480610aad5750600073ffffffffffffffffffffffffffffffffffffffff16606360009054906101000a900473ffffffffffffffffffffffffffffffffffffffff1673ffffffffffffffffffffffffffffffffffffffff16145b8015610b075750606260009054906101000a900473ffffffffffffffffffffffffffffffffffffffff1673ffffffffffffffffffffffffffffffffffffffff163373ffffffffffffffffffffffffffffffffffffffff1614155b610b46576040517f08c379a0000000000000000000000000000000000000000000000000000000008152600401610b3d906144e3565b60405180910390fd5b33606360006101000a81548173ffffffffffffffffffffffffffffffffffffffff021916908373ffffffffffffffffffffffffffffffffffffffff16021790555034600254610b95919061462f565b6002819055505b6001821415610d3e57606260009054906101000a900473ffffffffffffffffffffffffffffffffffffffff1673ffffffffffffffffffffffffffffffffffffffff163373ffffffffffffffffffffffffffffffffffffffff161480610c4f5750600073ffffffffffffffffffffffffffffffffffffffff16606260009054906101000a900473ffffffffffffffffffffffffffffffffffffffff1673ffffffffffffffffffffffffffffffffffffffff16145b8015610ca95750606360009054906101000a900473ffffffffffffffffffffffffffffffffffffffff1673ffffffffffffffffffffffffffffffffffffffff163373ffffffffffffffffffffffffffffffffffffffff1614155b610ce8576040517f08c379a0000000000000000000000000000000000000000000000000000000008152600401610cdf90614443565b60405180910390fd5b33606260006101000a81548173ffffffffffffffffffffffffffffffffffffffff021916908373ffffffffffffffffffffffffffffffffffffffff16021790555034600354610d37919061462f565b6003819055505b5050565b600c5481565b60015481565b60538260028110610d5e57600080fd5b600202018160028110610d7057600080fd5b01600091509150505481565b60008054906101000a900460ff1615610dca576040517f08c379a0000000000000000000000000000000000000000000000000000000008152600401610dc190614463565b60405180910390fd5b60016000806101000a81548160ff021916908315150217905550600060045411610e29576040517f08c379a0000000000000000000000000000000000000000000000000000000008152600401610e2090614503565b60405180910390fd5b6000600e81905550600180819055506000600c81905550600060088190555060006009819055506000600c819055506000600d819055506000600b819055506000600a819055506000604f600160028110610e8757610e86614886565b5b60020201600060028110610e9e57610e9d614886565b5b01819055506000604f600160028110610eba57610eb9614886565b5b60020201600160028110610ed157610ed0614886565b5b01819055506000600190505b600f811161102e576000600f8260108110610efb57610efa614886565b5b60020201600060028110610f1257610f11614886565b5b01819055506000600f8260108110610f2d57610f2c614886565b5b60020201600160028110610f4457610f43614886565b5b01819055506000602f8260108110610f5f57610f5e614886565b5b60020201600060028110610f7657610f75614886565b5b01819055506000602f8260108110610f9157610f90614886565b5b60020201600160028110610fa857610fa7614886565b5b0181905550600481101561101b57600060578260048110610fcc57610fcb614886565b5b60020201600060028110610fe357610fe2614886565b5b0181905550600060578260048110610ffe57610ffd614886565b5b6002020160016002811061101557611014614886565b5b01819055505b808061102690614780565b915050610edd565b506110396003611e09565b6110b76057600480602002604051908101604052809291906000905b828210156110ae5783826002020160028060200260405190810160405280929190826002801561109a576020028201915b815481526020019060010190808311611086575b505050505081526020019060010190611055565b505050506120c7565b60579060046110c7929190613f22565b5061112e60576001600481106110e0576110df614886565b5b600202016000600281106110f7576110f6614886565b5b0154605760016004811061110e5761110d614886565b5b6002020160016002811061112557611124614886565b5b01546001612429565b611194605760026004811061114657611145614886565b5b6002020160006002811061115d5761115c614886565b5b0154605760026004811061117457611173614886565b5b6002020160016002811061118b5761118a614886565b5b01546001612514565b6111fa60576003600481106111ac576111ab614886565b5b600202016000600281106111c3576111c2614886565b5b015460576003600481106111da576111d9614886565b5b600202016001600281106111f1576111f0614886565b5b01546002612429565b6112026125ff565b61120a612876565b611212612aed565b61121a613079565b6015604f60016002811061123157611230614886565b5b6002020160016002811061124857611247614886565b5b0154141561125957611258613550565b5b60008060006101000a81548160ff021916908315150217905550565b806000600354116112bb576040517f08c379a00000000000000000000000000000000000000000000000000000000081526004016112b290614543565b60405180910390fd5b606260009054906101000a900473ffffffffffffffffffffffffffffffffffffffff1673ffffffffffffffffffffffffffffffffffffffff163373ffffffffffffffffffffffffffffffffffffffff161461134b576040517f08c379a0000000000000000000000000000000000000000000000000000000008152600401611342906145e3565b60405180910390fd5b600354811115611390576040517f08c379a000000000000000000000000000000000000000000000000000000000815260040161138790614563565b60405180910390fd5b60008054906101000a900460ff16156113de576040517f08c379a00000000000000000000000000000000000000000000000000000000081526004016113d590614463565b60405180910390fd5b60016000806101000a81548160ff021916908315150217905550816003546114069190614710565b600381905550606260009054906101000a900473ffffffffffffffffffffffffffffffffffffffff1673ffffffffffffffffffffffffffffffffffffffff166108fc839081150290604051600060405180830381858888f19350505050158015611474573d6000803e3d6000fd5b5060008060006101000a81548160ff0219169083151502179055505050565b60035481565b60025481565b60065481565b602f82601081106114b557600080fd5b6002020181600281106114c757600080fd5b01600091509150505481565b60075481565b600d5481565b6001805414611523576040517f08c379a000000000000000000000000000000000000000000000000000000000815260040161151a90614523565b60405180910390fd5b600260065414611568576040517f08c379a000000000000000000000000000000000000000000000000000000000815260040161155f906143c3565b60405180910390fd5b600260045461157791906146b6565b60035410156115bb576040517f08c379a00000000000000000000000000000000000000000000000000000000081526004016115b290614583565b60405180910390fd5b6004546003546115cb9190614710565b60038190555060026004546115e091906146b6565b6004819055506115ee611a6c565b6115f661195c565b565b600f826010811061160857600080fd5b60020201816002811061161a57600080fd5b01600091509150505481565b6011600b541061166b576040517f08c379a0000000000000000000000000000000000000000000000000000000008152600401611662906143e3565b60405180910390fd5b6001600854148061167e57506001600c54145b61168757600080fd5b6000611707602f601080602002604051908101604052809291906000905b828210156116fe578382600202016002806020026040519081016040528092919082600280156116ea576020028201915b8154815260200190600101908083116116d6575b5050505050815260200190600101906116a5565b505050506138f3565b90506117136001611e09565b6000600190505b600b81116118d1575b605760016004811061173857611737614886565b5b6002020160006002811061174f5761174e614886565b5b0154600f826010811061176557611764614886565b5b6002020160006002811061177c5761177b614886565b5b01541480156117e35750605760016004811061179b5761179a614886565b5b600202016001600281106117b2576117b1614886565b5b0154600f82601081106117c8576117c7614886565b5b600202016000600281106117df576117de614886565b5b0154145b806118aa575060576001600481106117fe576117fd614886565b5b6002020160006002811061181557611814614886565b5b0154602f826010811061182b5761182a614886565b5b6002020160006002811061184257611841614886565b5b01541480156118a95750605760016004811061186157611860614886565b5b6002020160016002811061187857611877614886565b5b0154602f826010811061188e5761188d614886565b5b600202016001600281106118a5576118a4614886565b5b0154145b5b156118be576118b96001611e09565b611723565b80806118c990614780565b91505061171a565b5061194360576001600481106118ea576118e9614886565b5b6002020160006002811061190157611900614886565b5b0154605760016004811061191857611917614886565b5b6002020160016002811061192f5761192e614886565b5b015460018461193e919061462f565b612514565b61194b612876565b611953612aed565b50565b60095481565b6000600c54146119a1576040517f08c379a0000000000000000000000000000000000000000000000000000000008152600401611998906145a3565b60405180910390fd5b6000600854146119e6576040517f08c379a00000000000000000000000000000000000000000000000000000000081526004016119dd906144a3565b60405180910390fd5b6001805414611a2a576040517f08c379a0000000000000000000000000000000000000000000000000000000008152600401611a2190614523565b60405180910390fd5b6001600c81905550611a3a613079565b5b600180541415611a5257611a4d611626565b611a3b565b565b600a5481565b670de0b6b3a764000081565b60045481565b6001805414611ab0576040517f08c379a0000000000000000000000000000000000000000000000000000000008152600401611aa790614523565b60405180910390fd5b600060085414611af5576040517f08c379a0000000000000000000000000000000000000000000000000000000008152600401611aec906144a3565b60405180910390fd5b6000600c5414611b3a576040517f08c379a0000000000000000000000000000000000000000000000000000000008152600401611b31906145a3565b60405180910390fd5b6000611bba600f601080602002604051908101604052809291906000905b82821015611bb157838260020201600280602002604051908101604052809291908260028015611b9d576020028201915b815481526020019060010190808311611b89575b505050505081526020019060010190611b58565b505050506138f3565b9050611bc66001611e09565b6000600190505b600b8111611d84575b6057600160048110611beb57611bea614886565b5b60020201600060028110611c0257611c01614886565b5b0154600f8260108110611c1857611c17614886565b5b60020201600060028110611c2f57611c2e614886565b5b0154148015611c9657506057600160048110611c4e57611c4d614886565b5b60020201600160028110611c6557611c64614886565b5b0154600f8260108110611c7b57611c7a614886565b5b60020201600060028110611c9257611c91614886565b5b0154145b80611d5d57506057600160048110611cb157611cb0614886565b5b60020201600060028110611cc857611cc7614886565b5b0154602f8260108110611cde57611cdd614886565b5b60020201600060028110611cf557611cf4614886565b5b0154148015611d5c57506057600160048110611d1457611d13614886565b5b60020201600160028110611d2b57611d2a614886565b5b0154602f8260108110611d4157611d40614886565b5b60020201600160028110611d5857611d57614886565b5b0154145b5b15611d7157611d6c6001611e09565b611bd6565b8080611d7c90614780565b915050611bcd565b50611df66057600160048110611d9d57611d9c614886565b5b60020201600060028110611db457611db3614886565b5b01546057600160048110611dcb57611dca614886565b5b60020201600160028110611de257611de1614886565b5b0154600184611df1919061462f565b612429565b611dfe6125ff565b611e06613079565b50565b600060405180602001604052806000815250905060006040518060200160405280600081525090506000806001905060005b8582116120bf5760006003905060006004905060006060819055506000605f81905550611e6661396b565b600581905550611e77600554613a1f565b9650611e84828289613af7565b9550611e8f86613c0c565b9250865194505b6001831080611ea55750600d83115b8015611ebc5750600385611eb99190614710565b82105b15611f5057600282611ece919061462f565b9150600281611edd919061462f565b9050611eea828289613af7565b9550611ef586613c0c565b9250600385611f049190614710565b821115611f4b576003915060049050611f1b61396b565b600581905550611f2c600554613a1f565b9650611f39828289613af7565b9550611f4486613c0c565b9250865194505b611e96565b82606081905550600282611f64919061462f565b9150600281611f73919061462f565b9050611f80828289613af7565b9550611f8b86613c0c565b92505b6001831080611f9d5750600483115b8015611fb45750600385611fb19190614710565b82105b1561203c57600182611fc6919061462f565b9150819050611fd6828289613af7565b9550611fe186613c0c565b9250600385611ff09190614710565b82111561203757600491506004905061200761396b565b600581905550612018600554613a1f565b9650612025828289613af7565b955061203086613c0c565b9250865194505b611f8e565b82605f819055506060546057856004811061205a57612059614886565b5b6002020160006002811061207157612070614886565b5b0181905550605f546057856004811061208d5761208c614886565b5b600202016001600281106120a4576120a3614886565b5b01819055506001846120b6919061462f565b93505050611e3b565b505050505050565b6120cf613f73565b5b816002600481106120e4576120e3614886565b5b60200201516000600281106120fc576120fb614886565b5b60200201518260016004811061211557612114614886565b5b602002015160006002811061212d5761212c614886565b5b602002015114801561219e57508160026004811061214e5761214d614886565b5b602002015160016002811061216657612165614886565b5b60200201518260016004811061217f5761217e614886565b5b602002015160016002811061219757612196614886565b5b6020020151145b15612278576121ad6001611e09565b60576001600481106121c2576121c1614886565b5b600202016000600281106121d9576121d8614886565b5b0154826002600481106121ef576121ee614886565b5b602002015160006002811061220757612206614886565b5b602002018181525050605760016004811061222557612224614886565b5b6002020160016002811061223c5761223b614886565b5b01548260026004811061225257612251614886565b5b602002015160016002811061226a57612269614886565b5b6020020181815250506120d0565b5b8160036004811061228d5761228c614886565b5b60200201516000600281106122a5576122a4614886565b5b6020020151826002600481106122be576122bd614886565b5b60200201516000600281106122d6576122d5614886565b5b60200201511480156123475750816003600481106122f7576122f6614886565b5b602002015160016002811061230f5761230e614886565b5b60200201518260026004811061232857612327614886565b5b60200201516001600281106123405761233f614886565b5b6020020151145b15612421576123566001611e09565b605760016004811061236b5761236a614886565b5b6002020160006002811061238257612381614886565b5b01548260036004811061239857612397614886565b5b60200201516000600281106123b0576123af614886565b5b60200201818152505060576001600481106123ce576123cd614886565b5b600202016001600281106123e5576123e4614886565b5b0154826003600481106123fb576123fa614886565b5b602002015160016002811061241357612412614886565b5b602002018181525050612279565b819050919050565b82600f826010811061243e5761243d614886565b5b6002020160006002811061245557612454614886565b5b018190555081600f826010811061246f5761246e614886565b5b6002020160016002811061248657612485614886565b5b0181905550612509600f601080602002604051908101604052809291906000905b82821015612500578382600202016002806020026040519081016040528092919082600280156124ec576020028201915b8154815260200190600101908083116124d8575b5050505050815260200190600101906124a7565b505050506138f3565b600681905550505050565b82602f826010811061252957612528614886565b5b600202016000600281106125405761253f614886565b5b018190555081602f826010811061255a57612559614886565b5b6002020160016002811061257157612570614886565b5b01819055506125f4602f601080602002604051908101604052809291906000905b828210156125eb578382600202016002806020026040519081016040528092919082600280156125d7576020028201915b8154815260200190600101908083116125c3575b505050505081526020019060010190612592565b505050506138f3565b600781905550505050565b600080612680600f601080602002604051908101604052809291906000905b8282101561267757838260020201600280602002604051908101604052809291908260028015612663576020028201915b81548152602001906001019080831161264f575b50505050508152602001906001019061261e565b505050506138f3565b6006819055506000600190505b6006548111612798576009600f82601081106126ac576126ab614886565b5b600202016000600281106126c3576126c2614886565b5b015411156126db57600a836126d8919061462f565b92505b600a600f82601081106126f1576126f0614886565b5b6002020160006002811061270857612707614886565b5b0154101561274b57600f816010811061272457612723614886565b5b6002020160006002811061273b5761273a614886565b5b015483612748919061462f565b92505b6001600f826010811061276157612760614886565b5b6002020160006002811061277857612777614886565b5b0154141561278557600191505b808061279090614780565b91505061268d565b5081604f6001600281106127af576127ae614886565b5b600202016000600281106127c6576127c5614886565b5b018190555081604f6001600281106127e1576127e0614886565b5b600202016001600281106127f8576127f7614886565b5b0181905550600181141561287257600a604f60016002811061281d5761281c614886565b5b6002020160016002811061283457612833614886565b5b0154612840919061462f565b604f60016002811061285557612854614886565b5b6002020160016002811061286c5761286b614886565b5b01819055505b5050565b6000806128f7602f601080602002604051908101604052809291906000905b828210156128ee578382600202016002806020026040519081016040528092919082600280156128da576020028201915b8154815260200190600101908083116128c6575b505050505081526020019060010190612895565b505050506138f3565b6007819055506000600190505b6007548111612a0f576009602f826010811061292357612922614886565b5b6002020160006002811061293a57612939614886565b5b0154111561295257600a8361294f919061462f565b92505b600a602f826010811061296857612967614886565b5b6002020160006002811061297f5761297e614886565b5b015410156129c257602f816010811061299b5761299a614886565b5b600202016000600281106129b2576129b1614886565b5b0154836129bf919061462f565b92505b6001602f82601081106129d8576129d7614886565b5b600202016000600281106129ef576129ee614886565b5b015414156129fc57600191505b8080612a0790614780565b915050612904565b50816053600160028110612a2657612a25614886565b5b60020201600060028110612a3d57612a3c614886565b5b0181905550816053600160028110612a5857612a57614886565b5b60020201600160028110612a6f57612a6e614886565b5b01819055506001811415612ae957600a6053600160028110612a9457612a93614886565b5b60020201600160028110612aab57612aaa614886565b5b0154612ab7919061462f565b6053600160028110612acc57612acb614886565b5b60020201600160028110612ae357612ae2614886565b5b01819055505b5050565b60156053600160028110612b0457612b03614886565b5b60020201600060028110612b1b57612b1a614886565b5b015411158015612b58575060156053600160028110612b3d57612b3c614886565b5b60020201600160028110612b5457612b53614886565b5b0154115b15612b92576053600160028110612b7257612b71614886565b5b60020201600060028110612b8957612b88614886565b5b0154600b819055505b60156053600160028110612ba957612ba8614886565b5b60020201600060028110612bc057612bbf614886565b5b0154118015612bfd57506015604f600160028110612be157612be0614886565b5b60020201600160028110612bf857612bf7614886565b5b015411155b15612c37576053600160028110612c1757612c16614886565b5b60020201600160028110612c2e57612c2d614886565b5b0154600b819055505b60156053600160028110612c4e57612c4d614886565b5b60020201600060028110612c6557612c64614886565b5b015411158015612ca3575060156053600160028110612c8757612c86614886565b5b60020201600160028110612c9e57612c9d614886565b5b015411155b15612dd6576053600160028110612cbd57612cbc614886565b5b60020201600160028110612cd457612cd3614886565b5b01546053600160028110612ceb57612cea614886565b5b60020201600060028110612d0257612d01614886565b5b01541115612d3f576053600160028110612d1f57612d1e614886565b5b60020201600060028110612d3657612d35614886565b5b0154600b819055505b6053600160028110612d5457612d53614886565b5b60020201600160028110612d6b57612d6a614886565b5b01546053600160028110612d8257612d81614886565b5b60020201600060028110612d9957612d98614886565b5b015411612dd5576053600160028110612db557612db4614886565b5b60020201600160028110612dcc57612dcb614886565b5b0154600b819055505b5b60106053600160028110612ded57612dec614886565b5b60020201600060028110612e0457612e03614886565b5b01541180612e3f575060106053600160028110612e2457612e23614886565b5b60020201600160028110612e3b57612e3a614886565b5b0154115b156130775760156053600160028110612e5b57612e5a614886565b5b60020201600060028110612e7257612e71614886565b5b0154118015612eae575060156053600160028110612e9357612e92614886565b5b60020201600160028110612eaa57612ea9614886565b5b0154115b1561305357600160098190555060006001819055506053600160028110612ed857612ed7614886565b5b60020201600160028110612eef57612eee614886565b5b01546053600160028110612f0657612f05614886565b5b60020201600060028110612f1d57612f1c614886565b5b015411612f59576053600160028110612f3957612f38614886565b5b60020201600060028110612f5057612f4f614886565b5b0154600b819055505b6053600160028110612f6e57612f6d614886565b5b60020201600160028110612f8557612f84614886565b5b01546053600160028110612f9c57612f9b614886565b5b60020201600060028110612fb357612fb2614886565b5b01541115612ff0576053600160028110612fd057612fcf614886565b5b60020201600160028110612fe757612fe6614886565b5b0154600b819055505b600060085414801561300457506001600c54145b1561305257600260045461301891906146b6565b600354613025919061462f565b60038190555060045460025461303b9190614710565b60028190555060006004819055506002600e819055505b5b6001600954146130765760006001819055506001600d81905550613075613ca4565b5b5b565b6015604f6001600281106130905761308f614886565b5b600202016000600281106130a7576130a6614886565b5b01541180156130e357506015604f6001600281106130c8576130c7614886565b5b600202016001600281106130df576130de614886565b5b0154115b156132655760016008819055506000600181905550604f60016002811061310d5761310c614886565b5b6002020160016002811061312457613123614886565b5b0154604f60016002811061313b5761313a614886565b5b6002020160006002811061315257613151614886565b5b01541161318e57604f60016002811061316e5761316d614886565b5b6002020160006002811061318557613184614886565b5b0154600a819055505b604f6001600281106131a3576131a2614886565b5b600202016001600281106131ba576131b9614886565b5b0154604f6001600281106131d1576131d0614886565b5b600202016000600281106131e8576131e7614886565b5b0154111561322557604f60016002811061320557613204614886565b5b6002020160016002811061321c5761321b614886565b5b0154600a819055505b600454600254613235919061462f565b60028190555060006004819055506001600e819055505b6011600b5410156132645761325f611626565b61324c565b5b6015604f60016002811061327c5761327b614886565b5b6002020160006002811061329357613292614886565b5b0154111580156132d057506015604f6001600281106132b5576132b4614886565b5b600202016001600281106132cc576132cb614886565b5b0154115b1561330a57604f6001600281106132ea576132e9614886565b5b6002020160006002811061330157613300614886565b5b0154600a819055505b6015604f60016002811061332157613320614886565b5b6002020160006002811061333857613337614886565b5b015411801561337557506015604f60016002811061335957613358614886565b5b600202016001600281106133705761336f614886565b5b015411155b156133af57604f60016002811061338f5761338e614886565b5b600202016001600281106133a6576133a5614886565b5b0154600a819055505b6015604f6001600281106133c6576133c5614886565b5b600202016000600281106133dd576133dc614886565b5b01541115801561341b57506015604f6001600281106133ff576133fe614886565b5b6002020160016002811061341657613415614886565b5b015411155b1561354e57604f60016002811061343557613434614886565b5b6002020160016002811061344c5761344b614886565b5b0154604f60016002811061346357613462614886565b5b6002020160006002811061347a57613479614886565b5b015411156134b757604f60016002811061349757613496614886565b5b600202016000600281106134ae576134ad614886565b5b0154600a819055505b604f6001600281106134cc576134cb614886565b5b600202016001600281106134e3576134e2614886565b5b0154604f6001600281106134fa576134f9614886565b5b6002020160006002811061351157613510614886565b5b01541161354d57604f60016002811061352d5761352c614886565b5b6002020160016002811061354457613543614886565b5b0154600a819055505b5b565b6001602f60016010811061356757613566614886565b5b6002020160006002811061357e5761357d614886565b5b015414806135b95750600a605360016002811061359e5761359d614886565b5b600202016000600281106135b5576135b4614886565b5b0154145b156138f1576135c86001611e09565b6000600190505b60018111613783575b60576001600481106135ed576135ec614886565b5b6002020160006002811061360457613603614886565b5b0154600f826010811061361a57613619614886565b5b6002020160006002811061363157613630614886565b5b015414806136975750605760016004811061364f5761364e614886565b5b6002020160006002811061366657613665614886565b5b0154602f826010811061367c5761367b614886565b5b6002020160006002811061369357613692614886565b5b0154145b156137705760576001600481106136b1576136b0614886565b5b600202016001600281106136c8576136c7614886565b5b0154600f82601081106136de576136dd614886565b5b600202016001600281106136f5576136f4614886565b5b0154148061375b5750605760016004811061371357613712614886565b5b6002020160016002811061372a57613729614886565b5b0154602f82601081106137405761373f614886565b5b6002020160016002811061375757613756614886565b5b0154145b1561376b5761376a6001611e09565b5b6135d8565b808061377b90614780565b9150506135cf565b506137ea605760016004811061379c5761379b614886565b5b600202016000600281106137b3576137b2614886565b5b015460576001600481106137ca576137c9614886565b5b600202016001600281106137e1576137e0614886565b5b01546002612514565b6137f2612876565b6137fa612aed565b6015605360016002811061381157613810614886565b5b6002020160016002811061382857613827614886565b5b0154141561384157613838613da7565b6003600e819055505b6015605360016002811061385857613857614886565b5b6002020160016002811061386f5761386e614886565b5b0154146138f0576002600360045461388791906146b6565b6138919190614685565b6004546003546138a1919061462f565b6138ab919061462f565b600381905550600260036004546138c291906146b6565b6138cc9190614685565b6002546138d99190614710565b60028190555060006004819055506002600e819055505b5b565b6000806000905060005b601082101561396157600084836010811061391b5761391a614886565b5b602002015160006002811061393357613932614886565b5b60200201511461394d5760018161394a919061462f565b90505b60018261395a919061462f565b91506138fd565b8092505050919050565b60006061600081548092919061398090614780565b91905055507f028f5c28f5c28f5c28f5c28f5c28f5c28f5c28f5c28f5c28f5c28f5c28f5c28f60036061546139b591906146b6565b436139c0919061462f565b336061546040516020016139d693929190614386565b6040516020818303038152906040528051906020012060001c6139f991906147f7565b60058190555060616000815480929190613a1290614780565b9190505550600554905090565b606060006001613a2e84613dcf565b01905060008167ffffffffffffffff811115613a4d57613a4c6148b5565b5b6040519080825280601f01601f191660200182016040528015613a7f5781602001600182028036833780820191505090505b509050600082602001820190505b600115613aec578080600190039150507f3031323334353637383961626364656600000000000000000000000000000000600a86061a8153600a8581613ad657613ad5614857565b5b0494506000851415613ae757613aec565b613a8d565b819350505050919050565b6060600060018585613b099190614710565b613b13919061462f565b67ffffffffffffffff811115613b2c57613b2b6148b5565b5b6040519080825280601f01601f191660200182016040528015613b5e5781602001600182028036833780820191505090505b50905060005b8585613b709190614710565b8111613c00578360018783613b85919061462f565b613b8f9190614710565b81518110613ba057613b9f614886565b5b602001015160f81c60f81b828281518110613bbe57613bbd614886565b5b60200101907effffffffffffffffffffffffffffffffffffffffffffffffffffffffffffff1916908160001a9053508080613bf890614780565b915050613b64565b50809150509392505050565b6000808290506000805b8251811015613c99576000838281518110613c3457613c33614886565b5b602001015160f81c60f81b60f81c60ff16905060308110158015613c59575060398111155b15613c8557603081613c6b9190614710565b600a84613c7891906146b6565b613c82919061462f565b92505b508080613c9190614780565b915050613c16565b508092505050919050565b60016008541415613cd657600454600254613cbf919061462f565b60028190555060006004819055506001600e819055505b600a54600b54118015613ceb57506000600854145b15613d1757600454600254613d00919061462f565b60028190555060006004819055506001600e819055505b600b54600a54118015613d2c57506000600854145b15613d7a576002600454613d4091906146b6565b600354613d4d919061462f565b600381905550600454600254613d639190614710565b60028190555060006004819055506002600e819055505b600a54600b54148015613d8f57506000600854145b15613da557613d9c613da7565b6003600e819055505b565b600454600354613db7919061462f565b60038190555060006004819055506003600e81905550565b600080600090507a184f03e93ff9f4daa797ed6e38ed64bf6a1f0100000000000000008310613e2d577a184f03e93ff9f4daa797ed6e38ed64bf6a1f0100000000000000008381613e2357613e22614857565b5b0492506040810190505b6d04ee2d6d415b85acef81000000008310613e6a576d04ee2d6d415b85acef81000000008381613e6057613e5f614857565b5b0492506020810190505b662386f26fc100008310613e9957662386f26fc100008381613e8f57613e8e614857565b5b0492506010810190505b6305f5e1008310613ec2576305f5e1008381613eb857613eb7614857565b5b0492506008810190505b6127108310613ee7576127108381613edd57613edc614857565b5b0492506004810190505b60648310613f0a5760648381613f0057613eff614857565b5b0492506002810190505b600a8310613f19576001810190505b80915050919050565b8260046002028101928215613f62579160200282015b82811115613f6157825182906002613f51929190613fa0565b5091602001919060020190613f38565b5b509050613f6f9190613fe0565b5090565b60405180608001604052806004905b613f8a614004565b815260200190600190039081613f825790505090565b8260028101928215613fcf579160200282015b82811115613fce578251825591602001919060010190613fb3565b5b509050613fdc9190614026565b5090565b5b808211156140005760008181613ff79190614043565b50600201613fe1565b5090565b6040518060400160405280600290602082028036833780820191505090505090565b5b8082111561403f576000816000905550600101614027565b5090565b506000815560010160009055565b60008135905061406081614d7a565b92915050565b60006020828403121561407c5761407b6148e4565b5b600061408a84828501614051565b91505092915050565b600080604083850312156140aa576140a96148e4565b5b60006140b885828601614051565b92505060206140c985828601614051565b9150509250929050565b6140e46140df82614744565b6147c9565b82525050565b60006140f760288361461e565b9150614102826148f6565b604082019050919050565b600061411a60228361461e565b915061412582614945565b604082019050919050565b600061413d60268361461e565b915061414882614994565b604082019050919050565b600061416060198361461e565b915061416b826149e3565b602082019050919050565b600061418360238361461e565b915061418e82614a0c565b604082019050919050565b60006141a660168361461e565b91506141b182614a5b565b602082019050919050565b60006141c960248361461e565b91506141d482614a84565b604082019050919050565b60006141ec60158361461e565b91506141f782614ad3565b602082019050919050565b600061420f60218361461e565b915061421a82614afc565b604082019050919050565b600061423260228361461e565b915061423d82614b4b565b604082019050919050565b600061425560278361461e565b915061426082614b9a565b604082019050919050565b600061427860188361461e565b915061428382614be9565b602082019050919050565b600061429b60218361461e565b91506142a682614c12565b604082019050919050565b60006142be60378361461e565b91506142c982614c61565b604082019050919050565b60006142e1601c8361461e565b91506142ec82614cb0565b602082019050919050565b600061430460188361461e565b915061430f82614cd9565b602082019050919050565b6000614327601b8361461e565b915061433282614d02565b602082019050919050565b600061434a602a8361461e565b915061435582614d2b565b604082019050919050565b61436981614776565b82525050565b61438061437b82614776565b6147ed565b82525050565b6000614392828661436f565b6020820191506143a282856140d3565b6014820191506143b2828461436f565b602082019150819050949350505050565b600060208201905081810360008301526143dc816140ea565b9050919050565b600060208201905081810360008301526143fc8161410d565b9050919050565b6000602082019050818103600083015261441c81614130565b9050919050565b6000602082019050818103600083015261443c81614153565b9050919050565b6000602082019050818103600083015261445c81614176565b9050919050565b6000602082019050818103600083015261447c81614199565b9050919050565b6000602082019050818103600083015261449c816141bc565b9050919050565b600060208201905081810360008301526144bc816141df565b9050919050565b600060208201905081810360008301526144dc81614202565b9050919050565b600060208201905081810360008301526144fc81614225565b9050919050565b6000602082019050818103600083015261451c81614248565b9050919050565b6000602082019050818103600083015261453c8161426b565b9050919050565b6000602082019050818103600083015261455c8161428e565b9050919050565b6000602082019050818103600083015261457c816142b1565b9050919050565b6000602082019050818103600083015261459c816142d4565b9050919050565b600060208201905081810360008301526145bc816142f7565b9050919050565b600060208201905081810360008301526145dc8161431a565b9050919050565b600060208201905081810360008301526145fc8161433d565b9050919050565b60006020820190506146186000830184614360565b92915050565b600082825260208201905092915050565b600061463a82614776565b915061464583614776565b9250827fffffffffffffffffffffffffffffffffffffffffffffffffffffffffffffffff0382111561467a57614679614828565b5b828201905092915050565b600061469082614776565b915061469b83614776565b9250826146ab576146aa614857565b5b828204905092915050565b60006146c182614776565b91506146cc83614776565b9250817fffffffffffffffffffffffffffffffffffffffffffffffffffffffffffffffff048311821515161561470557614704614828565b5b828202905092915050565b600061471b82614776565b915061472683614776565b92508282101561473957614738614828565b5b828203905092915050565b600061474f82614756565b9050919050565b600073ffffffffffffffffffffffffffffffffffffffff82169050919050565b6000819050919050565b600061478b82614776565b91507fffffffffffffffffffffffffffffffffffffffffffffffffffffffffffffffff8214156147be576147bd614828565b5b600182019050919050565b60006147d4826147db565b9050919050565b60006147e6826148e9565b9050919050565b6000819050919050565b600061480282614776565b915061480d83614776565b92508261481d5761481c614857565b5b828206905092915050565b7f4e487b7100000000000000000000000000000000000000000000000000000000600052601160045260246000fd5b7f4e487b7100000000000000000000000000000000000000000000000000000000600052601260045260246000fd5b7f4e487b7100000000000000000000000000000000000000000000000000000000600052603260045260246000fd5b7f4e487b7100000000000000000000000000000000000000000000000000000000600052604160045260246000fd5b600080fd5b60008160601b9050919050565b7f596f752063616e206f6e6c7920646f75626c6520646f776e206f6e206669727360008201527f7420616374696f6e000000000000000000000000000000000000000000000000602082015250565b7f4465616c6572206d757374207374616e64206f6e20313720616e64206869676860008201527f6572000000000000000000000000000000000000000000000000000000000000602082015250565b7f42657420616d6f756e74206973206d6f7265207468616e20706c61796572206260008201527f616c616e63650000000000000000000000000000000000000000000000000000602082015250565b7f4f6e6c7920706c617965722063616e20706c6163652062657400000000000000600082015250565b7f53656e6465722061646472657373206d75737420626520706c6179657257616c60008201527f6c65740000000000000000000000000000000000000000000000000000000000602082015250565b7f5265656e7472616e6379206e6f7420616c6c6f77656400000000000000000000600082015250565b7f506c61796572206d75737420626520686f757365283029206f7220706c61796560008201527f7228312900000000000000000000000000000000000000000000000000000000602082015250565b7f596f7527766520616c7265616479206275737465640000000000000000000000600082015250565b7f526567697374726174696f6e2061646472657373206973206e6f742076616c6960008201527f6400000000000000000000000000000000000000000000000000000000000000602082015250565b7f53656e6465722061646472657373206d75737420626520686f75736557616c6c60008201527f6574000000000000000000000000000000000000000000000000000000000000602082015250565b7f796f75206d75737420626574206265666f72652074686520636172647320617260008201527f65206465616c7400000000000000000000000000000000000000000000000000602082015250565b7f47616d65206d75737420626520696e2070726f67726573730000000000000000600082015250565b7f506c6179657220686173206e6f2062616c616e636520746f207769746864726160008201527f7700000000000000000000000000000000000000000000000000000000000000602082015250565b7f596f75206172652072657175657374696e67206d6f7265207468616e2074686560008201527f20706c617965722077616c6c657420636f6e7461696e73000000000000000000602082015250565b7f596f7520646f6e2774206861766520656e6f7567682066756e64732e00000000600082015250565b7f506c617965722068617320616c72656164792073746f6f640000000000000000600082015250565b7f4265742068617320616c7265616479206265656e20706c616365640000000000600082015250565b7f4f6e6c7920706c617965722063616e2075736520746869732066756e6374696f60008201527f6e20776974686472617700000000000000000000000000000000000000000000602082015250565b614d8381614776565b8114614d8e57600080fd5b5056fea26469706673582212203de05e718e8fbcc4a9fb9108d701d3c9089ac65c8195fc08702393a82e75265764736f6c63430008070033",
			"opcodes": "PUSH1 0x80 PUSH1 0x40 MSTORE PUSH1 0x0 PUSH1 0x1 SSTORE PUSH1 0x0 PUSH1 0x2 SSTORE PUSH1 0x0 PUSH1 0x3 SSTORE PUSH1 0x0 PUSH1 0x4 SSTORE PUSH1 0x0 PUSH1 0x5 SSTORE PUSH1 0x0 PUSH1 0x6 SSTORE PUSH1 0x0 PUSH1 0x7 SSTORE PUSH1 0x0 PUSH1 0x8 SSTORE PUSH1 0x0 PUSH1 0x9 SSTORE PUSH1 0x0 PUSH1 0xA SSTORE PUSH1 0x0 PUSH1 0xB SSTORE PUSH1 0x0 PUSH1 0xC SSTORE PUSH1 0x0 PUSH1 0xD SSTORE PUSH1 0x0 PUSH1 0xE SSTORE PUSH1 0x0 PUSH1 0x5F SSTORE PUSH1 0x0 PUSH1 0x60 SSTORE PUSH1 0x0 PUSH1 0x61 SSTORE PUSH1 0x0 PUSH1 0x62 PUSH1 0x0 PUSH2 0x100 EXP DUP2 SLOAD DUP2 PUSH20 0xFFFFFFFFFFFFFFFFFFFFFFFFFFFFFFFFFFFFFFFF MUL NOT AND SWAP1 DUP4 PUSH20 0xFFFFFFFFFFFFFFFFFFFFFFFFFFFFFFFFFFFFFFFF AND MUL OR SWAP1 SSTORE POP PUSH1 0x0 PUSH1 0x63 PUSH1 0x0 PUSH2 0x100 EXP DUP2 SLOAD DUP2 PUSH20 0xFFFFFFFFFFFFFFFFFFFFFFFFFFFFFFFFFFFFFFFF MUL NOT AND SWAP1 DUP4 PUSH20 0xFFFFFFFFFFFFFFFFFFFFFFFFFFFFFFFFFFFFFFFF AND MUL OR SWAP1 SSTORE POP CALLVALUE DUP1 ISZERO PUSH2 0xE9 JUMPI PUSH1 0x0 DUP1 REVERT JUMPDEST POP PUSH2 0x4DC7 DUP1 PUSH2 0xF9 PUSH1 0x0 CODECOPY PUSH1 0x0 RETURN INVALID PUSH1 0x80 PUSH1 0x40 MSTORE PUSH1 0x4 CALLDATASIZE LT PUSH2 0x19C JUMPI PUSH1 0x0 CALLDATALOAD PUSH1 0xE0 SHR DUP1 PUSH4 0x67084EB3 GT PUSH2 0xEC JUMPI DUP1 PUSH4 0xC2855A59 GT PUSH2 0x8A JUMPI DUP1 PUSH4 0xCDC7EA51 GT PUSH2 0x64 JUMPI DUP1 PUSH4 0xCDC7EA51 EQ PUSH2 0x556 JUMPI DUP1 PUSH4 0xD0017A0C EQ PUSH2 0x581 JUMPI DUP1 PUSH4 0xD24257C0 EQ PUSH2 0x5AC JUMPI DUP1 PUSH4 0xDAE10ED5 EQ PUSH2 0x5D7 JUMPI PUSH2 0x19C JUMP JUMPDEST DUP1 PUSH4 0xC2855A59 EQ PUSH2 0x4FD JUMPI DUP1 PUSH4 0xC5C3CD78 EQ PUSH2 0x514 JUMPI DUP1 PUSH4 0xC9F09D38 EQ PUSH2 0x53F JUMPI PUSH2 0x19C JUMP JUMPDEST DUP1 PUSH4 0x908A0979 GT PUSH2 0xC6 JUMPI DUP1 PUSH4 0x908A0979 EQ PUSH2 0x453 JUMPI DUP1 PUSH4 0xA10926D6 EQ PUSH2 0x47E JUMPI DUP1 PUSH4 0xA7E1F6A2 EQ PUSH2 0x4A9 JUMPI DUP1 PUSH4 0xBDBE451B EQ PUSH2 0x4C0 JUMPI PUSH2 0x19C JUMP JUMPDEST DUP1 PUSH4 0x67084EB3 EQ PUSH2 0x3C0 JUMPI DUP1 PUSH4 0x8914D63B EQ PUSH2 0x3EB JUMPI DUP1 PUSH4 0x8BBB236F EQ PUSH2 0x416 JUMPI PUSH2 0x19C JUMP JUMPDEST DUP1 PUSH4 0x3519A2F8 GT PUSH2 0x159 JUMPI DUP1 PUSH4 0x53A218C9 GT PUSH2 0x133 JUMPI DUP1 PUSH4 0x53A218C9 EQ PUSH2 0x325 JUMPI DUP1 PUSH4 0x553DF021 EQ PUSH2 0x362 JUMPI DUP1 PUSH4 0x5629365B EQ PUSH2 0x379 JUMPI DUP1 PUSH4 0x651F066A EQ PUSH2 0x395 JUMPI PUSH2 0x19C JUMP JUMPDEST DUP1 PUSH4 0x3519A2F8 EQ PUSH2 0x2B3 JUMPI DUP1 PUSH4 0x3C3248D5 EQ PUSH2 0x2CF JUMPI DUP1 PUSH4 0x3FB64E75 EQ PUSH2 0x2FA JUMPI PUSH2 0x19C JUMP JUMPDEST DUP1 PUSH4 0x53A2CFB EQ PUSH2 0x1A1 JUMPI DUP1 PUSH4 0x10FE7C48 EQ PUSH2 0x1CC JUMPI DUP1 PUSH4 0x13BF01ED EQ PUSH2 0x1F5 JUMPI DUP1 PUSH4 0x16DD37DD EQ PUSH2 0x220 JUMPI DUP1 PUSH4 0x2626AB08 EQ PUSH2 0x25D JUMPI DUP1 PUSH4 0x325EB3F5 EQ PUSH2 0x288 JUMPI JUMPDEST PUSH1 0x0 DUP1 REVERT JUMPDEST CALLVALUE DUP1 ISZERO PUSH2 0x1AD JUMPI PUSH1 0x0 DUP1 REVERT JUMPDEST POP PUSH2 0x1B6 PUSH2 0x5EE JUMP JUMPDEST PUSH1 0x40 MLOAD PUSH2 0x1C3 SWAP2 SWAP1 PUSH2 0x4603 JUMP JUMPDEST PUSH1 0x40 MLOAD DUP1 SWAP2 SUB SWAP1 RETURN JUMPDEST CALLVALUE DUP1 ISZERO PUSH2 0x1D8 JUMPI PUSH1 0x0 DUP1 REVERT JUMPDEST POP PUSH2 0x1F3 PUSH1 0x4 DUP1 CALLDATASIZE SUB DUP2 ADD SWAP1 PUSH2 0x1EE SWAP2 SWAP1 PUSH2 0x4066 JUMP JUMPDEST PUSH2 0x5F4 JUMP JUMPDEST STOP JUMPDEST CALLVALUE DUP1 ISZERO PUSH2 0x201 JUMPI PUSH1 0x0 DUP1 REVERT JUMPDEST POP PUSH2 0x20A PUSH2 0x7D2 JUMP JUMPDEST PUSH1 0x40 MLOAD PUSH2 0x217 SWAP2 SWAP1 PUSH2 0x4603 JUMP JUMPDEST PUSH1 0x40 MLOAD DUP1 SWAP2 SUB SWAP1 RETURN JUMPDEST CALLVALUE DUP1 ISZERO PUSH2 0x22C JUMPI PUSH1 0x0 DUP1 REVERT JUMPDEST POP PUSH2 0x247 PUSH1 0x4 DUP1 CALLDATASIZE SUB DUP2 ADD SWAP1 PUSH2 0x242 SWAP2 SWAP1 PUSH2 0x4093 JUMP JUMPDEST PUSH2 0x7D8 JUMP JUMPDEST PUSH1 0x40 MLOAD PUSH2 0x254 SWAP2 SWAP1 PUSH2 0x4603 JUMP JUMPDEST PUSH1 0x40 MLOAD DUP1 SWAP2 SUB SWAP1 RETURN JUMPDEST CALLVALUE DUP1 ISZERO PUSH2 0x269 JUMPI PUSH1 0x0 DUP1 REVERT JUMPDEST POP PUSH2 0x272 PUSH2 0x806 JUMP JUMPDEST PUSH1 0x40 MLOAD PUSH2 0x27F SWAP2 SWAP1 PUSH2 0x4603 JUMP JUMPDEST PUSH1 0x40 MLOAD DUP1 SWAP2 SUB SWAP1 RETURN JUMPDEST CALLVALUE DUP1 ISZERO PUSH2 0x294 JUMPI PUSH1 0x0 DUP1 REVERT JUMPDEST POP PUSH2 0x29D PUSH2 0x80B JUMP JUMPDEST PUSH1 0x40 MLOAD PUSH2 0x2AA SWAP2 SWAP1 PUSH2 0x4603 JUMP JUMPDEST PUSH1 0x40 MLOAD DUP1 SWAP2 SUB SWAP1 RETURN JUMPDEST PUSH2 0x2CD PUSH1 0x4 DUP1 CALLDATASIZE SUB DUP2 ADD SWAP1 PUSH2 0x2C8 SWAP2 SWAP1 PUSH2 0x4066 JUMP JUMPDEST PUSH2 0x811 JUMP JUMPDEST STOP JUMPDEST CALLVALUE DUP1 ISZERO PUSH2 0x2DB JUMPI PUSH1 0x0 DUP1 REVERT JUMPDEST POP PUSH2 0x2E4 PUSH2 0xD42 JUMP JUMPDEST PUSH1 0x40 MLOAD PUSH2 0x2F1 SWAP2 SWAP1 PUSH2 0x4603 JUMP JUMPDEST PUSH1 0x40 MLOAD DUP1 SWAP2 SUB SWAP1 RETURN JUMPDEST CALLVALUE DUP1 ISZERO PUSH2 0x306 JUMPI PUSH1 0x0 DUP1 REVERT JUMPDEST POP PUSH2 0x30F PUSH2 0xD48 JUMP JUMPDEST PUSH1 0x40 MLOAD PUSH2 0x31C SWAP2 SWAP1 PUSH2 0x4603 JUMP JUMPDEST PUSH1 0x40 MLOAD DUP1 SWAP2 SUB SWAP1 RETURN JUMPDEST CALLVALUE DUP1 ISZERO PUSH2 0x331 JUMPI PUSH1 0x0 DUP1 REVERT JUMPDEST POP PUSH2 0x34C PUSH1 0x4 DUP1 CALLDATASIZE SUB DUP2 ADD SWAP1 PUSH2 0x347 SWAP2 SWAP1 PUSH2 0x4093 JUMP JUMPDEST PUSH2 0xD4E JUMP JUMPDEST PUSH1 0x40 MLOAD PUSH2 0x359 SWAP2 SWAP1 PUSH2 0x4603 JUMP JUMPDEST PUSH1 0x40 MLOAD DUP1 SWAP2 SUB SWAP1 RETURN JUMPDEST CALLVALUE DUP1 ISZERO PUSH2 0x36E JUMPI PUSH1 0x0 DUP1 REVERT JUMPDEST POP PUSH2 0x377 PUSH2 0xD7C JUMP JUMPDEST STOP JUMPDEST PUSH2 0x393 PUSH1 0x4 DUP1 CALLDATASIZE SUB DUP2 ADD SWAP1 PUSH2 0x38E SWAP2 SWAP1 PUSH2 0x4066 JUMP JUMPDEST PUSH2 0x1275 JUMP JUMPDEST STOP JUMPDEST CALLVALUE DUP1 ISZERO PUSH2 0x3A1 JUMPI PUSH1 0x0 DUP1 REVERT JUMPDEST POP PUSH2 0x3AA PUSH2 0x1493 JUMP JUMPDEST PUSH1 0x40 MLOAD PUSH2 0x3B7 SWAP2 SWAP1 PUSH2 0x4603 JUMP JUMPDEST PUSH1 0x40 MLOAD DUP1 SWAP2 SUB SWAP1 RETURN JUMPDEST CALLVALUE DUP1 ISZERO PUSH2 0x3CC JUMPI PUSH1 0x0 DUP1 REVERT JUMPDEST POP PUSH2 0x3D5 PUSH2 0x1499 JUMP JUMPDEST PUSH1 0x40 MLOAD PUSH2 0x3E2 SWAP2 SWAP1 PUSH2 0x4603 JUMP JUMPDEST PUSH1 0x40 MLOAD DUP1 SWAP2 SUB SWAP1 RETURN JUMPDEST CALLVALUE DUP1 ISZERO PUSH2 0x3F7 JUMPI PUSH1 0x0 DUP1 REVERT JUMPDEST POP PUSH2 0x400 PUSH2 0x149F JUMP JUMPDEST PUSH1 0x40 MLOAD PUSH2 0x40D SWAP2 SWAP1 PUSH2 0x4603 JUMP JUMPDEST PUSH1 0x40 MLOAD DUP1 SWAP2 SUB SWAP1 RETURN JUMPDEST CALLVALUE DUP1 ISZERO PUSH2 0x422 JUMPI PUSH1 0x0 DUP1 REVERT JUMPDEST POP PUSH2 0x43D PUSH1 0x4 DUP1 CALLDATASIZE SUB DUP2 ADD SWAP1 PUSH2 0x438 SWAP2 SWAP1 PUSH2 0x4093 JUMP JUMPDEST PUSH2 0x14A5 JUMP JUMPDEST PUSH1 0x40 MLOAD PUSH2 0x44A SWAP2 SWAP1 PUSH2 0x4603 JUMP JUMPDEST PUSH1 0x40 MLOAD DUP1 SWAP2 SUB SWAP1 RETURN JUMPDEST CALLVALUE DUP1 ISZERO PUSH2 0x45F JUMPI PUSH1 0x0 DUP1 REVERT JUMPDEST POP PUSH2 0x468 PUSH2 0x14D3 JUMP JUMPDEST PUSH1 0x40 MLOAD PUSH2 0x475 SWAP2 SWAP1 PUSH2 0x4603 JUMP JUMPDEST PUSH1 0x40 MLOAD DUP1 SWAP2 SUB SWAP1 RETURN JUMPDEST CALLVALUE DUP1 ISZERO PUSH2 0x48A JUMPI PUSH1 0x0 DUP1 REVERT JUMPDEST POP PUSH2 0x493 PUSH2 0x14D9 JUMP JUMPDEST PUSH1 0x40 MLOAD PUSH2 0x4A0 SWAP2 SWAP1 PUSH2 0x4603 JUMP JUMPDEST PUSH1 0x40 MLOAD DUP1 SWAP2 SUB SWAP1 RETURN JUMPDEST CALLVALUE DUP1 ISZERO PUSH2 0x4B5 JUMPI PUSH1 0x0 DUP1 REVERT JUMPDEST POP PUSH2 0x4BE PUSH2 0x14DF JUMP JUMPDEST STOP JUMPDEST CALLVALUE DUP1 ISZERO PUSH2 0x4CC JUMPI PUSH1 0x0 DUP1 REVERT JUMPDEST POP PUSH2 0x4E7 PUSH1 0x4 DUP1 CALLDATASIZE SUB DUP2 ADD SWAP1 PUSH2 0x4E2 SWAP2 SWAP1 PUSH2 0x4093 JUMP JUMPDEST PUSH2 0x15F8 JUMP JUMPDEST PUSH1 0x40 MLOAD PUSH2 0x4F4 SWAP2 SWAP1 PUSH2 0x4603 JUMP JUMPDEST PUSH1 0x40 MLOAD DUP1 SWAP2 SUB SWAP1 RETURN JUMPDEST CALLVALUE DUP1 ISZERO PUSH2 0x509 JUMPI PUSH1 0x0 DUP1 REVERT JUMPDEST POP PUSH2 0x512 PUSH2 0x1626 JUMP JUMPDEST STOP JUMPDEST CALLVALUE DUP1 ISZERO PUSH2 0x520 JUMPI PUSH1 0x0 DUP1 REVERT JUMPDEST POP PUSH2 0x529 PUSH2 0x1956 JUMP JUMPDEST PUSH1 0x40 MLOAD PUSH2 0x536 SWAP2 SWAP1 PUSH2 0x4603 JUMP JUMPDEST PUSH1 0x40 MLOAD DUP1 SWAP2 SUB SWAP1 RETURN JUMPDEST CALLVALUE DUP1 ISZERO PUSH2 0x54B JUMPI PUSH1 0x0 DUP1 REVERT JUMPDEST POP PUSH2 0x554 PUSH2 0x195C JUMP JUMPDEST STOP JUMPDEST CALLVALUE DUP1 ISZERO PUSH2 0x562 JUMPI PUSH1 0x0 DUP1 REVERT JUMPDEST POP PUSH2 0x56B PUSH2 0x1A54 JUMP JUMPDEST PUSH1 0x40 MLOAD PUSH2 0x578 SWAP2 SWAP1 PUSH2 0x4603 JUMP JUMPDEST PUSH1 0x40 MLOAD DUP1 SWAP2 SUB SWAP1 RETURN JUMPDEST CALLVALUE DUP1 ISZERO PUSH2 0x58D JUMPI PUSH1 0x0 DUP1 REVERT JUMPDEST POP PUSH2 0x596 PUSH2 0x1A5A JUMP JUMPDEST PUSH1 0x40 MLOAD PUSH2 0x5A3 SWAP2 SWAP1 PUSH2 0x4603 JUMP JUMPDEST PUSH1 0x40 MLOAD DUP1 SWAP2 SUB SWAP1 RETURN JUMPDEST CALLVALUE DUP1 ISZERO PUSH2 0x5B8 JUMPI PUSH1 0x0 DUP1 REVERT JUMPDEST POP PUSH2 0x5C1 PUSH2 0x1A66 JUMP JUMPDEST PUSH1 0x40 MLOAD PUSH2 0x5CE SWAP2 SWAP1 PUSH2 0x4603 JUMP JUMPDEST PUSH1 0x40 MLOAD DUP1 SWAP2 SUB SWAP1 RETURN JUMPDEST CALLVALUE DUP1 ISZERO PUSH2 0x5E3 JUMPI PUSH1 0x0 DUP1 REVERT JUMPDEST POP PUSH2 0x5EC PUSH2 0x1A6C JUMP JUMPDEST STOP JUMPDEST PUSH1 0xE SLOAD DUP2 JUMP JUMPDEST DUP1 PUSH1 0x1 DUP2 LT ISZERO DUP1 ISZERO PUSH2 0x60E JUMPI POP PUSH8 0xDE0B6B3A7640000 DUP2 GT ISZERO JUMPDEST PUSH2 0x617 JUMPI PUSH1 0x0 DUP1 REVERT JUMPDEST PUSH1 0x3 SLOAD DUP2 GT ISZERO PUSH2 0x65C JUMPI PUSH1 0x40 MLOAD PUSH32 0x8C379A000000000000000000000000000000000000000000000000000000000 DUP2 MSTORE PUSH1 0x4 ADD PUSH2 0x653 SWAP1 PUSH2 0x4403 JUMP JUMPDEST PUSH1 0x40 MLOAD DUP1 SWAP2 SUB SWAP1 REVERT JUMPDEST PUSH1 0x62 PUSH1 0x0 SWAP1 SLOAD SWAP1 PUSH2 0x100 EXP SWAP1 DIV PUSH20 0xFFFFFFFFFFFFFFFFFFFFFFFFFFFFFFFFFFFFFFFF AND PUSH20 0xFFFFFFFFFFFFFFFFFFFFFFFFFFFFFFFFFFFFFFFF AND CALLER PUSH20 0xFFFFFFFFFFFFFFFFFFFFFFFFFFFFFFFFFFFFFFFF AND EQ PUSH2 0x6EC JUMPI PUSH1 0x40 MLOAD PUSH32 0x8C379A000000000000000000000000000000000000000000000000000000000 DUP2 MSTORE PUSH1 0x4 ADD PUSH2 0x6E3 SWAP1 PUSH2 0x4423 JUMP JUMPDEST PUSH1 0x40 MLOAD DUP1 SWAP2 SUB SWAP1 REVERT JUMPDEST PUSH1 0x0 PUSH1 0x4 SLOAD EQ PUSH2 0x731 JUMPI PUSH1 0x40 MLOAD PUSH32 0x8C379A000000000000000000000000000000000000000000000000000000000 DUP2 MSTORE PUSH1 0x4 ADD PUSH2 0x728 SWAP1 PUSH2 0x45C3 JUMP JUMPDEST PUSH1 0x40 MLOAD DUP1 SWAP2 SUB SWAP1 REVERT JUMPDEST PUSH1 0x0 DUP1 SLOAD SWAP1 PUSH2 0x100 EXP SWAP1 DIV PUSH1 0xFF AND ISZERO PUSH2 0x77F JUMPI PUSH1 0x40 MLOAD PUSH32 0x8C379A000000000000000000000000000000000000000000000000000000000 DUP2 MSTORE PUSH1 0x4 ADD PUSH2 0x776 SWAP1 PUSH2 0x4463 JUMP JUMPDEST PUSH1 0x40 MLOAD DUP1 SWAP2 SUB SWAP1 REVERT JUMPDEST PUSH1 0x1 PUSH1 0x0 DUP1 PUSH2 0x100 EXP DUP2 SLOAD DUP2 PUSH1 0xFF MUL NOT AND SWAP1 DUP4 ISZERO ISZERO MUL OR SWAP1 SSTORE POP DUP2 PUSH1 0x3 SLOAD PUSH2 0x7A7 SWAP2 SWAP1 PUSH2 0x4710 JUMP JUMPDEST PUSH1 0x3 DUP2 SWAP1 SSTORE POP DUP2 PUSH1 0x4 DUP2 SWAP1 SSTORE POP PUSH1 0x0 DUP1 PUSH1 0x0 PUSH2 0x100 EXP DUP2 SLOAD DUP2 PUSH1 0xFF MUL NOT AND SWAP1 DUP4 ISZERO ISZERO MUL OR SWAP1 SSTORE POP POP POP JUMP JUMPDEST PUSH1 0xB SLOAD DUP2 JUMP JUMPDEST PUSH1 0x4F DUP3 PUSH1 0x2 DUP2 LT PUSH2 0x7E8 JUMPI PUSH1 0x0 DUP1 REVERT JUMPDEST PUSH1 0x2 MUL ADD DUP2 PUSH1 0x2 DUP2 LT PUSH2 0x7FA JUMPI PUSH1 0x0 DUP1 REVERT JUMPDEST ADD PUSH1 0x0 SWAP2 POP SWAP2 POP POP SLOAD DUP2 JUMP JUMPDEST PUSH1 0x1 DUP2 JUMP JUMPDEST PUSH1 0x8 SLOAD DUP2 JUMP JUMPDEST DUP1 PUSH1 0x0 PUSH20 0xFFFFFFFFFFFFFFFFFFFFFFFFFFFFFFFFFFFFFFFF AND PUSH1 0x63 PUSH1 0x0 SWAP1 SLOAD SWAP1 PUSH2 0x100 EXP SWAP1 DIV PUSH20 0xFFFFFFFFFFFFFFFFFFFFFFFFFFFFFFFFFFFFFFFF AND PUSH20 0xFFFFFFFFFFFFFFFFFFFFFFFFFFFFFFFFFFFFFFFF AND EQ DUP1 PUSH2 0x8BD JUMPI POP PUSH1 0x0 PUSH20 0xFFFFFFFFFFFFFFFFFFFFFFFFFFFFFFFFFFFFFFFF AND PUSH1 0x62 PUSH1 0x0 SWAP1 SLOAD SWAP1 PUSH2 0x100 EXP SWAP1 DIV PUSH20 0xFFFFFFFFFFFFFFFFFFFFFFFFFFFFFFFFFFFFFFFF AND PUSH20 0xFFFFFFFFFFFFFFFFFFFFFFFFFFFFFFFFFFFFFFFF AND EQ JUMPDEST DUP1 PUSH2 0x915 JUMPI POP PUSH1 0x63 PUSH1 0x0 SWAP1 SLOAD SWAP1 PUSH2 0x100 EXP SWAP1 DIV PUSH20 0xFFFFFFFFFFFFFFFFFFFFFFFFFFFFFFFFFFFFFFFF AND PUSH20 0xFFFFFFFFFFFFFFFFFFFFFFFFFFFFFFFFFFFFFFFF AND CALLER PUSH20 0xFFFFFFFFFFFFFFFFFFFFFFFFFFFFFFFFFFFFFFFF AND EQ JUMPDEST DUP1 PUSH2 0x96D JUMPI POP PUSH1 0x62 PUSH1 0x0 SWAP1 SLOAD SWAP1 PUSH2 0x100 EXP SWAP1 DIV PUSH20 0xFFFFFFFFFFFFFFFFFFFFFFFFFFFFFFFFFFFFFFFF AND PUSH20 0xFFFFFFFFFFFFFFFFFFFFFFFFFFFFFFFFFFFFFFFF AND CALLER PUSH20 0xFFFFFFFFFFFFFFFFFFFFFFFFFFFFFFFFFFFFFFFF AND EQ JUMPDEST PUSH2 0x9AC JUMPI PUSH1 0x40 MLOAD PUSH32 0x8C379A000000000000000000000000000000000000000000000000000000000 DUP2 MSTORE PUSH1 0x4 ADD PUSH2 0x9A3 SWAP1 PUSH2 0x44C3 JUMP JUMPDEST PUSH1 0x40 MLOAD DUP1 SWAP2 SUB SWAP1 REVERT JUMPDEST PUSH1 0x0 DUP2 EQ DUP1 PUSH2 0x9BB JUMPI POP PUSH1 0x1 DUP2 EQ JUMPDEST PUSH2 0x9FA JUMPI PUSH1 0x40 MLOAD PUSH32 0x8C379A000000000000000000000000000000000000000000000000000000000 DUP2 MSTORE PUSH1 0x4 ADD PUSH2 0x9F1 SWAP1 PUSH2 0x4483 JUMP JUMPDEST PUSH1 0x40 MLOAD DUP1 SWAP2 SUB SWAP1 REVERT JUMPDEST PUSH1 0x0 DUP3 EQ ISZERO PUSH2 0xB9C JUMPI PUSH1 0x63 PUSH1 0x0 SWAP1 SLOAD SWAP1 PUSH2 0x100 EXP SWAP1 DIV PUSH20 0xFFFFFFFFFFFFFFFFFFFFFFFFFFFFFFFFFFFFFFFF AND PUSH20 0xFFFFFFFFFFFFFFFFFFFFFFFFFFFFFFFFFFFFFFFF AND CALLER PUSH20 0xFFFFFFFFFFFFFFFFFFFFFFFFFFFFFFFFFFFFFFFF AND EQ DUP1 PUSH2 0xAAD JUMPI POP PUSH1 0x0 PUSH20 0xFFFFFFFFFFFFFFFFFFFFFFFFFFFFFFFFFFFFFFFF AND PUSH1 0x63 PUSH1 0x0 SWAP1 SLOAD SWAP1 PUSH2 0x100 EXP SWAP1 DIV PUSH20 0xFFFFFFFFFFFFFFFFFFFFFFFFFFFFFFFFFFFFFFFF AND PUSH20 0xFFFFFFFFFFFFFFFFFFFFFFFFFFFFFFFFFFFFFFFF AND EQ JUMPDEST DUP1 ISZERO PUSH2 0xB07 JUMPI POP PUSH1 0x62 PUSH1 0x0 SWAP1 SLOAD SWAP1 PUSH2 0x100 EXP SWAP1 DIV PUSH20 0xFFFFFFFFFFFFFFFFFFFFFFFFFFFFFFFFFFFFFFFF AND PUSH20 0xFFFFFFFFFFFFFFFFFFFFFFFFFFFFFFFFFFFFFFFF AND CALLER PUSH20 0xFFFFFFFFFFFFFFFFFFFFFFFFFFFFFFFFFFFFFFFF AND EQ ISZERO JUMPDEST PUSH2 0xB46 JUMPI PUSH1 0x40 MLOAD PUSH32 0x8C379A000000000000000000000000000000000000000000000000000000000 DUP2 MSTORE PUSH1 0x4 ADD PUSH2 0xB3D SWAP1 PUSH2 0x44E3 JUMP JUMPDEST PUSH1 0x40 MLOAD DUP1 SWAP2 SUB SWAP1 REVERT JUMPDEST CALLER PUSH1 0x63 PUSH1 0x0 PUSH2 0x100 EXP DUP2 SLOAD DUP2 PUSH20 0xFFFFFFFFFFFFFFFFFFFFFFFFFFFFFFFFFFFFFFFF MUL NOT AND SWAP1 DUP4 PUSH20 0xFFFFFFFFFFFFFFFFFFFFFFFFFFFFFFFFFFFFFFFF AND MUL OR SWAP1 SSTORE POP CALLVALUE PUSH1 0x2 SLOAD PUSH2 0xB95 SWAP2 SWAP1 PUSH2 0x462F JUMP JUMPDEST PUSH1 0x2 DUP2 SWAP1 SSTORE POP JUMPDEST PUSH1 0x1 DUP3 EQ ISZERO PUSH2 0xD3E JUMPI PUSH1 0x62 PUSH1 0x0 SWAP1 SLOAD SWAP1 PUSH2 0x100 EXP SWAP1 DIV PUSH20 0xFFFFFFFFFFFFFFFFFFFFFFFFFFFFFFFFFFFFFFFF AND PUSH20 0xFFFFFFFFFFFFFFFFFFFFFFFFFFFFFFFFFFFFFFFF AND CALLER PUSH20 0xFFFFFFFFFFFFFFFFFFFFFFFFFFFFFFFFFFFFFFFF AND EQ DUP1 PUSH2 0xC4F JUMPI POP PUSH1 0x0 PUSH20 0xFFFFFFFFFFFFFFFFFFFFFFFFFFFFFFFFFFFFFFFF AND PUSH1 0x62 PUSH1 0x0 SWAP1 SLOAD SWAP1 PUSH2 0x100 EXP SWAP1 DIV PUSH20 0xFFFFFFFFFFFFFFFFFFFFFFFFFFFFFFFFFFFFFFFF AND PUSH20 0xFFFFFFFFFFFFFFFFFFFFFFFFFFFFFFFFFFFFFFFF AND EQ JUMPDEST DUP1 ISZERO PUSH2 0xCA9 JUMPI POP PUSH1 0x63 PUSH1 0x0 SWAP1 SLOAD SWAP1 PUSH2 0x100 EXP SWAP1 DIV PUSH20 0xFFFFFFFFFFFFFFFFFFFFFFFFFFFFFFFFFFFFFFFF AND PUSH20 0xFFFFFFFFFFFFFFFFFFFFFFFFFFFFFFFFFFFFFFFF AND CALLER PUSH20 0xFFFFFFFFFFFFFFFFFFFFFFFFFFFFFFFFFFFFFFFF AND EQ ISZERO JUMPDEST PUSH2 0xCE8 JUMPI PUSH1 0x40 MLOAD PUSH32 0x8C379A000000000000000000000000000000000000000000000000000000000 DUP2 MSTORE PUSH1 0x4 ADD PUSH2 0xCDF SWAP1 PUSH2 0x4443 JUMP JUMPDEST PUSH1 0x40 MLOAD DUP1 SWAP2 SUB SWAP1 REVERT JUMPDEST CALLER PUSH1 0x62 PUSH1 0x0 PUSH2 0x100 EXP DUP2 SLOAD DUP2 PUSH20 0xFFFFFFFFFFFFFFFFFFFFFFFFFFFFFFFFFFFFFFFF MUL NOT AND SWAP1 DUP4 PUSH20 0xFFFFFFFFFFFFFFFFFFFFFFFFFFFFFFFFFFFFFFFF AND MUL OR SWAP1 SSTORE POP CALLVALUE PUSH1 0x3 SLOAD PUSH2 0xD37 SWAP2 SWAP1 PUSH2 0x462F JUMP JUMPDEST PUSH1 0x3 DUP2 SWAP1 SSTORE POP JUMPDEST POP POP JUMP JUMPDEST PUSH1 0xC SLOAD DUP2 JUMP JUMPDEST PUSH1 0x1 SLOAD DUP2 JUMP JUMPDEST PUSH1 0x53 DUP3 PUSH1 0x2 DUP2 LT PUSH2 0xD5E JUMPI PUSH1 0x0 DUP1 REVERT JUMPDEST PUSH1 0x2 MUL ADD DUP2 PUSH1 0x2 DUP2 LT PUSH2 0xD70 JUMPI PUSH1 0x0 DUP1 REVERT JUMPDEST ADD PUSH1 0x0 SWAP2 POP SWAP2 POP POP SLOAD DUP2 JUMP JUMPDEST PUSH1 0x0 DUP1 SLOAD SWAP1 PUSH2 0x100 EXP SWAP1 DIV PUSH1 0xFF AND ISZERO PUSH2 0xDCA JUMPI PUSH1 0x40 MLOAD PUSH32 0x8C379A000000000000000000000000000000000000000000000000000000000 DUP2 MSTORE PUSH1 0x4 ADD PUSH2 0xDC1 SWAP1 PUSH2 0x4463 JUMP JUMPDEST PUSH1 0x40 MLOAD DUP1 SWAP2 SUB SWAP1 REVERT JUMPDEST PUSH1 0x1 PUSH1 0x0 DUP1 PUSH2 0x100 EXP DUP2 SLOAD DUP2 PUSH1 0xFF MUL NOT AND SWAP1 DUP4 ISZERO ISZERO MUL OR SWAP1 SSTORE POP PUSH1 0x0 PUSH1 0x4 SLOAD GT PUSH2 0xE29 JUMPI PUSH1 0x40 MLOAD PUSH32 0x8C379A000000000000000000000000000000000000000000000000000000000 DUP2 MSTORE PUSH1 0x4 ADD PUSH2 0xE20 SWAP1 PUSH2 0x4503 JUMP JUMPDEST PUSH1 0x40 MLOAD DUP1 SWAP2 SUB SWAP1 REVERT JUMPDEST PUSH1 0x0 PUSH1 0xE DUP2 SWAP1 SSTORE POP PUSH1 0x1 DUP1 DUP2 SWAP1 SSTORE POP PUSH1 0x0 PUSH1 0xC DUP2 SWAP1 SSTORE POP PUSH1 0x0 PUSH1 0x8 DUP2 SWAP1 SSTORE POP PUSH1 0x0 PUSH1 0x9 DUP2 SWAP1 SSTORE POP PUSH1 0x0 PUSH1 0xC DUP2 SWAP1 SSTORE POP PUSH1 0x0 PUSH1 0xD DUP2 SWAP1 SSTORE POP PUSH1 0x0 PUSH1 0xB DUP2 SWAP1 SSTORE POP PUSH1 0x0 PUSH1 0xA DUP2 SWAP1 SSTORE POP PUSH1 0x0 PUSH1 0x4F PUSH1 0x1 PUSH1 0x2 DUP2 LT PUSH2 0xE87 JUMPI PUSH2 0xE86 PUSH2 0x4886 JUMP JUMPDEST JUMPDEST PUSH1 0x2 MUL ADD PUSH1 0x0 PUSH1 0x2 DUP2 LT PUSH2 0xE9E JUMPI PUSH2 0xE9D PUSH2 0x4886 JUMP JUMPDEST JUMPDEST ADD DUP2 SWAP1 SSTORE POP PUSH1 0x0 PUSH1 0x4F PUSH1 0x1 PUSH1 0x2 DUP2 LT PUSH2 0xEBA JUMPI PUSH2 0xEB9 PUSH2 0x4886 JUMP JUMPDEST JUMPDEST PUSH1 0x2 MUL ADD PUSH1 0x1 PUSH1 0x2 DUP2 LT PUSH2 0xED1 JUMPI PUSH2 0xED0 PUSH2 0x4886 JUMP JUMPDEST JUMPDEST ADD DUP2 SWAP1 SSTORE POP PUSH1 0x0 PUSH1 0x1 SWAP1 POP JUMPDEST PUSH1 0xF DUP2 GT PUSH2 0x102E JUMPI PUSH1 0x0 PUSH1 0xF DUP3 PUSH1 0x10 DUP2 LT PUSH2 0xEFB JUMPI PUSH2 0xEFA PUSH2 0x4886 JUMP JUMPDEST JUMPDEST PUSH1 0x2 MUL ADD PUSH1 0x0 PUSH1 0x2 DUP2 LT PUSH2 0xF12 JUMPI PUSH2 0xF11 PUSH2 0x4886 JUMP JUMPDEST JUMPDEST ADD DUP2 SWAP1 SSTORE POP PUSH1 0x0 PUSH1 0xF DUP3 PUSH1 0x10 DUP2 LT PUSH2 0xF2D JUMPI PUSH2 0xF2C PUSH2 0x4886 JUMP JUMPDEST JUMPDEST PUSH1 0x2 MUL ADD PUSH1 0x1 PUSH1 0x2 DUP2 LT PUSH2 0xF44 JUMPI PUSH2 0xF43 PUSH2 0x4886 JUMP JUMPDEST JUMPDEST ADD DUP2 SWAP1 SSTORE POP PUSH1 0x0 PUSH1 0x2F DUP3 PUSH1 0x10 DUP2 LT PUSH2 0xF5F JUMPI PUSH2 0xF5E PUSH2 0x4886 JUMP JUMPDEST JUMPDEST PUSH1 0x2 MUL ADD PUSH1 0x0 PUSH1 0x2 DUP2 LT PUSH2 0xF76 JUMPI PUSH2 0xF75 PUSH2 0x4886 JUMP JUMPDEST JUMPDEST ADD DUP2 SWAP1 SSTORE POP PUSH1 0x0 PUSH1 0x2F DUP3 PUSH1 0x10 DUP2 LT PUSH2 0xF91 JUMPI PUSH2 0xF90 PUSH2 0x4886 JUMP JUMPDEST JUMPDEST PUSH1 0x2 MUL ADD PUSH1 0x1 PUSH1 0x2 DUP2 LT PUSH2 0xFA8 JUMPI PUSH2 0xFA7 PUSH2 0x4886 JUMP JUMPDEST JUMPDEST ADD DUP2 SWAP1 SSTORE POP PUSH1 0x4 DUP2 LT ISZERO PUSH2 0x101B JUMPI PUSH1 0x0 PUSH1 0x57 DUP3 PUSH1 0x4 DUP2 LT PUSH2 0xFCC JUMPI PUSH2 0xFCB PUSH2 0x4886 JUMP JUMPDEST JUMPDEST PUSH1 0x2 MUL ADD PUSH1 0x0 PUSH1 0x2 DUP2 LT PUSH2 0xFE3 JUMPI PUSH2 0xFE2 PUSH2 0x4886 JUMP JUMPDEST JUMPDEST ADD DUP2 SWAP1 SSTORE POP PUSH1 0x0 PUSH1 0x57 DUP3 PUSH1 0x4 DUP2 LT PUSH2 0xFFE JUMPI PUSH2 0xFFD PUSH2 0x4886 JUMP JUMPDEST JUMPDEST PUSH1 0x2 MUL ADD PUSH1 0x1 PUSH1 0x2 DUP2 LT PUSH2 0x1015 JUMPI PUSH2 0x1014 PUSH2 0x4886 JUMP JUMPDEST JUMPDEST ADD DUP2 SWAP1 SSTORE POP JUMPDEST DUP1 DUP1 PUSH2 0x1026 SWAP1 PUSH2 0x4780 JUMP JUMPDEST SWAP2 POP POP PUSH2 0xEDD JUMP JUMPDEST POP PUSH2 0x1039 PUSH1 0x3 PUSH2 0x1E09 JUMP JUMPDEST PUSH2 0x10B7 PUSH1 0x57 PUSH1 0x4 DUP1 PUSH1 0x20 MUL PUSH1 0x40 MLOAD SWAP1 DUP2 ADD PUSH1 0x40 MSTORE DUP1 SWAP3 SWAP2 SWAP1 PUSH1 0x0 SWAP1 JUMPDEST DUP3 DUP3 LT ISZERO PUSH2 0x10AE JUMPI DUP4 DUP3 PUSH1 0x2 MUL ADD PUSH1 0x2 DUP1 PUSH1 0x20 MUL PUSH1 0x40 MLOAD SWAP1 DUP2 ADD PUSH1 0x40 MSTORE DUP1 SWAP3 SWAP2 SWAP1 DUP3 PUSH1 0x2 DUP1 ISZERO PUSH2 0x109A JUMPI PUSH1 0x20 MUL DUP3 ADD SWAP2 JUMPDEST DUP2 SLOAD DUP2 MSTORE PUSH1 0x20 ADD SWAP1 PUSH1 0x1 ADD SWAP1 DUP1 DUP4 GT PUSH2 0x1086 JUMPI JUMPDEST POP POP POP POP POP DUP2 MSTORE PUSH1 0x20 ADD SWAP1 PUSH1 0x1 ADD SWAP1 PUSH2 0x1055 JUMP JUMPDEST POP POP POP POP PUSH2 0x20C7 JUMP JUMPDEST PUSH1 0x57 SWAP1 PUSH1 0x4 PUSH2 0x10C7 SWAP3 SWAP2 SWAP1 PUSH2 0x3F22 JUMP JUMPDEST POP PUSH2 0x112E PUSH1 0x57 PUSH1 0x1 PUSH1 0x4 DUP2 LT PUSH2 0x10E0 JUMPI PUSH2 0x10DF PUSH2 0x4886 JUMP JUMPDEST JUMPDEST PUSH1 0x2 MUL ADD PUSH1 0x0 PUSH1 0x2 DUP2 LT PUSH2 0x10F7 JUMPI PUSH2 0x10F6 PUSH2 0x4886 JUMP JUMPDEST JUMPDEST ADD SLOAD PUSH1 0x57 PUSH1 0x1 PUSH1 0x4 DUP2 LT PUSH2 0x110E JUMPI PUSH2 0x110D PUSH2 0x4886 JUMP JUMPDEST JUMPDEST PUSH1 0x2 MUL ADD PUSH1 0x1 PUSH1 0x2 DUP2 LT PUSH2 0x1125 JUMPI PUSH2 0x1124 PUSH2 0x4886 JUMP JUMPDEST JUMPDEST ADD SLOAD PUSH1 0x1 PUSH2 0x2429 JUMP JUMPDEST PUSH2 0x1194 PUSH1 0x57 PUSH1 0x2 PUSH1 0x4 DUP2 LT PUSH2 0x1146 JUMPI PUSH2 0x1145 PUSH2 0x4886 JUMP JUMPDEST JUMPDEST PUSH1 0x2 MUL ADD PUSH1 0x0 PUSH1 0x2 DUP2 LT PUSH2 0x115D JUMPI PUSH2 0x115C PUSH2 0x4886 JUMP JUMPDEST JUMPDEST ADD SLOAD PUSH1 0x57 PUSH1 0x2 PUSH1 0x4 DUP2 LT PUSH2 0x1174 JUMPI PUSH2 0x1173 PUSH2 0x4886 JUMP JUMPDEST JUMPDEST PUSH1 0x2 MUL ADD PUSH1 0x1 PUSH1 0x2 DUP2 LT PUSH2 0x118B JUMPI PUSH2 0x118A PUSH2 0x4886 JUMP JUMPDEST JUMPDEST ADD SLOAD PUSH1 0x1 PUSH2 0x2514 JUMP JUMPDEST PUSH2 0x11FA PUSH1 0x57 PUSH1 0x3 PUSH1 0x4 DUP2 LT PUSH2 0x11AC JUMPI PUSH2 0x11AB PUSH2 0x4886 JUMP JUMPDEST JUMPDEST PUSH1 0x2 MUL ADD PUSH1 0x0 PUSH1 0x2 DUP2 LT PUSH2 0x11C3 JUMPI PUSH2 0x11C2 PUSH2 0x4886 JUMP JUMPDEST JUMPDEST ADD SLOAD PUSH1 0x57 PUSH1 0x3 PUSH1 0x4 DUP2 LT PUSH2 0x11DA JUMPI PUSH2 0x11D9 PUSH2 0x4886 JUMP JUMPDEST JUMPDEST PUSH1 0x2 MUL ADD PUSH1 0x1 PUSH1 0x2 DUP2 LT PUSH2 0x11F1 JUMPI PUSH2 0x11F0 PUSH2 0x4886 JUMP JUMPDEST JUMPDEST ADD SLOAD PUSH1 0x2 PUSH2 0x2429 JUMP JUMPDEST PUSH2 0x1202 PUSH2 0x25FF JUMP JUMPDEST PUSH2 0x120A PUSH2 0x2876 JUMP JUMPDEST PUSH2 0x1212 PUSH2 0x2AED JUMP JUMPDEST PUSH2 0x121A PUSH2 0x3079 JUMP JUMPDEST PUSH1 0x15 PUSH1 0x4F PUSH1 0x1 PUSH1 0x2 DUP2 LT PUSH2 0x1231 JUMPI PUSH2 0x1230 PUSH2 0x4886 JUMP JUMPDEST JUMPDEST PUSH1 0x2 MUL ADD PUSH1 0x1 PUSH1 0x2 DUP2 LT PUSH2 0x1248 JUMPI PUSH2 0x1247 PUSH2 0x4886 JUMP JUMPDEST JUMPDEST ADD SLOAD EQ ISZERO PUSH2 0x1259 JUMPI PUSH2 0x1258 PUSH2 0x3550 JUMP JUMPDEST JUMPDEST PUSH1 0x0 DUP1 PUSH1 0x0 PUSH2 0x100 EXP DUP2 SLOAD DUP2 PUSH1 0xFF MUL NOT AND SWAP1 DUP4 ISZERO ISZERO MUL OR SWAP1 SSTORE POP JUMP JUMPDEST DUP1 PUSH1 0x0 PUSH1 0x3 SLOAD GT PUSH2 0x12BB JUMPI PUSH1 0x40 MLOAD PUSH32 0x8C379A000000000000000000000000000000000000000000000000000000000 DUP2 MSTORE PUSH1 0x4 ADD PUSH2 0x12B2 SWAP1 PUSH2 0x4543 JUMP JUMPDEST PUSH1 0x40 MLOAD DUP1 SWAP2 SUB SWAP1 REVERT JUMPDEST PUSH1 0x62 PUSH1 0x0 SWAP1 SLOAD SWAP1 PUSH2 0x100 EXP SWAP1 DIV PUSH20 0xFFFFFFFFFFFFFFFFFFFFFFFFFFFFFFFFFFFFFFFF AND PUSH20 0xFFFFFFFFFFFFFFFFFFFFFFFFFFFFFFFFFFFFFFFF AND CALLER PUSH20 0xFFFFFFFFFFFFFFFFFFFFFFFFFFFFFFFFFFFFFFFF AND EQ PUSH2 0x134B JUMPI PUSH1 0x40 MLOAD PUSH32 0x8C379A000000000000000000000000000000000000000000000000000000000 DUP2 MSTORE PUSH1 0x4 ADD PUSH2 0x1342 SWAP1 PUSH2 0x45E3 JUMP JUMPDEST PUSH1 0x40 MLOAD DUP1 SWAP2 SUB SWAP1 REVERT JUMPDEST PUSH1 0x3 SLOAD DUP2 GT ISZERO PUSH2 0x1390 JUMPI PUSH1 0x40 MLOAD PUSH32 0x8C379A000000000000000000000000000000000000000000000000000000000 DUP2 MSTORE PUSH1 0x4 ADD PUSH2 0x1387 SWAP1 PUSH2 0x4563 JUMP JUMPDEST PUSH1 0x40 MLOAD DUP1 SWAP2 SUB SWAP1 REVERT JUMPDEST PUSH1 0x0 DUP1 SLOAD SWAP1 PUSH2 0x100 EXP SWAP1 DIV PUSH1 0xFF AND ISZERO PUSH2 0x13DE JUMPI PUSH1 0x40 MLOAD PUSH32 0x8C379A000000000000000000000000000000000000000000000000000000000 DUP2 MSTORE PUSH1 0x4 ADD PUSH2 0x13D5 SWAP1 PUSH2 0x4463 JUMP JUMPDEST PUSH1 0x40 MLOAD DUP1 SWAP2 SUB SWAP1 REVERT JUMPDEST PUSH1 0x1 PUSH1 0x0 DUP1 PUSH2 0x100 EXP DUP2 SLOAD DUP2 PUSH1 0xFF MUL NOT AND SWAP1 DUP4 ISZERO ISZERO MUL OR SWAP1 SSTORE POP DUP2 PUSH1 0x3 SLOAD PUSH2 0x1406 SWAP2 SWAP1 PUSH2 0x4710 JUMP JUMPDEST PUSH1 0x3 DUP2 SWAP1 SSTORE POP PUSH1 0x62 PUSH1 0x0 SWAP1 SLOAD SWAP1 PUSH2 0x100 EXP SWAP1 DIV PUSH20 0xFFFFFFFFFFFFFFFFFFFFFFFFFFFFFFFFFFFFFFFF AND PUSH20 0xFFFFFFFFFFFFFFFFFFFFFFFFFFFFFFFFFFFFFFFF AND PUSH2 0x8FC DUP4 SWAP1 DUP2 ISZERO MUL SWAP1 PUSH1 0x40 MLOAD PUSH1 0x0 PUSH1 0x40 MLOAD DUP1 DUP4 SUB DUP2 DUP6 DUP9 DUP9 CALL SWAP4 POP POP POP POP ISZERO DUP1 ISZERO PUSH2 0x1474 JUMPI RETURNDATASIZE PUSH1 0x0 DUP1 RETURNDATACOPY RETURNDATASIZE PUSH1 0x0 REVERT JUMPDEST POP PUSH1 0x0 DUP1 PUSH1 0x0 PUSH2 0x100 EXP DUP2 SLOAD DUP2 PUSH1 0xFF MUL NOT AND SWAP1 DUP4 ISZERO ISZERO MUL OR SWAP1 SSTORE POP POP POP JUMP JUMPDEST PUSH1 0x3 SLOAD DUP2 JUMP JUMPDEST PUSH1 0x2 SLOAD DUP2 JUMP JUMPDEST PUSH1 0x6 SLOAD DUP2 JUMP JUMPDEST PUSH1 0x2F DUP3 PUSH1 0x10 DUP2 LT PUSH2 0x14B5 JUMPI PUSH1 0x0 DUP1 REVERT JUMPDEST PUSH1 0x2 MUL ADD DUP2 PUSH1 0x2 DUP2 LT PUSH2 0x14C7 JUMPI PUSH1 0x0 DUP1 REVERT JUMPDEST ADD PUSH1 0x0 SWAP2 POP SWAP2 POP POP SLOAD DUP2 JUMP JUMPDEST PUSH1 0x7 SLOAD DUP2 JUMP JUMPDEST PUSH1 0xD SLOAD DUP2 JUMP JUMPDEST PUSH1 0x1 DUP1 SLOAD EQ PUSH2 0x1523 JUMPI PUSH1 0x40 MLOAD PUSH32 0x8C379A000000000000000000000000000000000000000000000000000000000 DUP2 MSTORE PUSH1 0x4 ADD PUSH2 0x151A SWAP1 PUSH2 0x4523 JUMP JUMPDEST PUSH1 0x40 MLOAD DUP1 SWAP2 SUB SWAP1 REVERT JUMPDEST PUSH1 0x2 PUSH1 0x6 SLOAD EQ PUSH2 0x1568 JUMPI PUSH1 0x40 MLOAD PUSH32 0x8C379A000000000000000000000000000000000000000000000000000000000 DUP2 MSTORE PUSH1 0x4 ADD PUSH2 0x155F SWAP1 PUSH2 0x43C3 JUMP JUMPDEST PUSH1 0x40 MLOAD DUP1 SWAP2 SUB SWAP1 REVERT JUMPDEST PUSH1 0x2 PUSH1 0x4 SLOAD PUSH2 0x1577 SWAP2 SWAP1 PUSH2 0x46B6 JUMP JUMPDEST PUSH1 0x3 SLOAD LT ISZERO PUSH2 0x15BB JUMPI PUSH1 0x40 MLOAD PUSH32 0x8C379A000000000000000000000000000000000000000000000000000000000 DUP2 MSTORE PUSH1 0x4 ADD PUSH2 0x15B2 SWAP1 PUSH2 0x4583 JUMP JUMPDEST PUSH1 0x40 MLOAD DUP1 SWAP2 SUB SWAP1 REVERT JUMPDEST PUSH1 0x4 SLOAD PUSH1 0x3 SLOAD PUSH2 0x15CB SWAP2 SWAP1 PUSH2 0x4710 JUMP JUMPDEST PUSH1 0x3 DUP2 SWAP1 SSTORE POP PUSH1 0x2 PUSH1 0x4 SLOAD PUSH2 0x15E0 SWAP2 SWAP1 PUSH2 0x46B6 JUMP JUMPDEST PUSH1 0x4 DUP2 SWAP1 SSTORE POP PUSH2 0x15EE PUSH2 0x1A6C JUMP JUMPDEST PUSH2 0x15F6 PUSH2 0x195C JUMP JUMPDEST JUMP JUMPDEST PUSH1 0xF DUP3 PUSH1 0x10 DUP2 LT PUSH2 0x1608 JUMPI PUSH1 0x0 DUP1 REVERT JUMPDEST PUSH1 0x2 MUL ADD DUP2 PUSH1 0x2 DUP2 LT PUSH2 0x161A JUMPI PUSH1 0x0 DUP1 REVERT JUMPDEST ADD PUSH1 0x0 SWAP2 POP SWAP2 POP POP SLOAD DUP2 JUMP JUMPDEST PUSH1 0x11 PUSH1 0xB SLOAD LT PUSH2 0x166B JUMPI PUSH1 0x40 MLOAD PUSH32 0x8C379A000000000000000000000000000000000000000000000000000000000 DUP2 MSTORE PUSH1 0x4 ADD PUSH2 0x1662 SWAP1 PUSH2 0x43E3 JUMP JUMPDEST PUSH1 0x40 MLOAD DUP1 SWAP2 SUB SWAP1 REVERT JUMPDEST PUSH1 0x1 PUSH1 0x8 SLOAD EQ DUP1 PUSH2 0x167E JUMPI POP PUSH1 0x1 PUSH1 0xC SLOAD EQ JUMPDEST PUSH2 0x1687 JUMPI PUSH1 0x0 DUP1 REVERT JUMPDEST PUSH1 0x0 PUSH2 0x1707 PUSH1 0x2F PUSH1 0x10 DUP1 PUSH1 0x20 MUL PUSH1 0x40 MLOAD SWAP1 DUP2 ADD PUSH1 0x40 MSTORE DUP1 SWAP3 SWAP2 SWAP1 PUSH1 0x0 SWAP1 JUMPDEST DUP3 DUP3 LT ISZERO PUSH2 0x16FE JUMPI DUP4 DUP3 PUSH1 0x2 MUL ADD PUSH1 0x2 DUP1 PUSH1 0x20 MUL PUSH1 0x40 MLOAD SWAP1 DUP2 ADD PUSH1 0x40 MSTORE DUP1 SWAP3 SWAP2 SWAP1 DUP3 PUSH1 0x2 DUP1 ISZERO PUSH2 0x16EA JUMPI PUSH1 0x20 MUL DUP3 ADD SWAP2 JUMPDEST DUP2 SLOAD DUP2 MSTORE PUSH1 0x20 ADD SWAP1 PUSH1 0x1 ADD SWAP1 DUP1 DUP4 GT PUSH2 0x16D6 JUMPI JUMPDEST POP POP POP POP POP DUP2 MSTORE PUSH1 0x20 ADD SWAP1 PUSH1 0x1 ADD SWAP1 PUSH2 0x16A5 JUMP JUMPDEST POP POP POP POP PUSH2 0x38F3 JUMP JUMPDEST SWAP1 POP PUSH2 0x1713 PUSH1 0x1 PUSH2 0x1E09 JUMP JUMPDEST PUSH1 0x0 PUSH1 0x1 SWAP1 POP JUMPDEST PUSH1 0xB DUP2 GT PUSH2 0x18D1 JUMPI JUMPDEST PUSH1 0x57 PUSH1 0x1 PUSH1 0x4 DUP2 LT PUSH2 0x1738 JUMPI PUSH2 0x1737 PUSH2 0x4886 JUMP JUMPDEST JUMPDEST PUSH1 0x2 MUL ADD PUSH1 0x0 PUSH1 0x2 DUP2 LT PUSH2 0x174F JUMPI PUSH2 0x174E PUSH2 0x4886 JUMP JUMPDEST JUMPDEST ADD SLOAD PUSH1 0xF DUP3 PUSH1 0x10 DUP2 LT PUSH2 0x1765 JUMPI PUSH2 0x1764 PUSH2 0x4886 JUMP JUMPDEST JUMPDEST PUSH1 0x2 MUL ADD PUSH1 0x0 PUSH1 0x2 DUP2 LT PUSH2 0x177C JUMPI PUSH2 0x177B PUSH2 0x4886 JUMP JUMPDEST JUMPDEST ADD SLOAD EQ DUP1 ISZERO PUSH2 0x17E3 JUMPI POP PUSH1 0x57 PUSH1 0x1 PUSH1 0x4 DUP2 LT PUSH2 0x179B JUMPI PUSH2 0x179A PUSH2 0x4886 JUMP JUMPDEST JUMPDEST PUSH1 0x2 MUL ADD PUSH1 0x1 PUSH1 0x2 DUP2 LT PUSH2 0x17B2 JUMPI PUSH2 0x17B1 PUSH2 0x4886 JUMP JUMPDEST JUMPDEST ADD SLOAD PUSH1 0xF DUP3 PUSH1 0x10 DUP2 LT PUSH2 0x17C8 JUMPI PUSH2 0x17C7 PUSH2 0x4886 JUMP JUMPDEST JUMPDEST PUSH1 0x2 MUL ADD PUSH1 0x0 PUSH1 0x2 DUP2 LT PUSH2 0x17DF JUMPI PUSH2 0x17DE PUSH2 0x4886 JUMP JUMPDEST JUMPDEST ADD SLOAD EQ JUMPDEST DUP1 PUSH2 0x18AA JUMPI POP PUSH1 0x57 PUSH1 0x1 PUSH1 0x4 DUP2 LT PUSH2 0x17FE JUMPI PUSH2 0x17FD PUSH2 0x4886 JUMP JUMPDEST JUMPDEST PUSH1 0x2 MUL ADD PUSH1 0x0 PUSH1 0x2 DUP2 LT PUSH2 0x1815 JUMPI PUSH2 0x1814 PUSH2 0x4886 JUMP JUMPDEST JUMPDEST ADD SLOAD PUSH1 0x2F DUP3 PUSH1 0x10 DUP2 LT PUSH2 0x182B JUMPI PUSH2 0x182A PUSH2 0x4886 JUMP JUMPDEST JUMPDEST PUSH1 0x2 MUL ADD PUSH1 0x0 PUSH1 0x2 DUP2 LT PUSH2 0x1842 JUMPI PUSH2 0x1841 PUSH2 0x4886 JUMP JUMPDEST JUMPDEST ADD SLOAD EQ DUP1 ISZERO PUSH2 0x18A9 JUMPI POP PUSH1 0x57 PUSH1 0x1 PUSH1 0x4 DUP2 LT PUSH2 0x1861 JUMPI PUSH2 0x1860 PUSH2 0x4886 JUMP JUMPDEST JUMPDEST PUSH1 0x2 MUL ADD PUSH1 0x1 PUSH1 0x2 DUP2 LT PUSH2 0x1878 JUMPI PUSH2 0x1877 PUSH2 0x4886 JUMP JUMPDEST JUMPDEST ADD SLOAD PUSH1 0x2F DUP3 PUSH1 0x10 DUP2 LT PUSH2 0x188E JUMPI PUSH2 0x188D PUSH2 0x4886 JUMP JUMPDEST JUMPDEST PUSH1 0x2 MUL ADD PUSH1 0x1 PUSH1 0x2 DUP2 LT PUSH2 0x18A5 JUMPI PUSH2 0x18A4 PUSH2 0x4886 JUMP JUMPDEST JUMPDEST ADD SLOAD EQ JUMPDEST JUMPDEST ISZERO PUSH2 0x18BE JUMPI PUSH2 0x18B9 PUSH1 0x1 PUSH2 0x1E09 JUMP JUMPDEST PUSH2 0x1723 JUMP JUMPDEST DUP1 DUP1 PUSH2 0x18C9 SWAP1 PUSH2 0x4780 JUMP JUMPDEST SWAP2 POP POP PUSH2 0x171A JUMP JUMPDEST POP PUSH2 0x1943 PUSH1 0x57 PUSH1 0x1 PUSH1 0x4 DUP2 LT PUSH2 0x18EA JUMPI PUSH2 0x18E9 PUSH2 0x4886 JUMP JUMPDEST JUMPDEST PUSH1 0x2 MUL ADD PUSH1 0x0 PUSH1 0x2 DUP2 LT PUSH2 0x1901 JUMPI PUSH2 0x1900 PUSH2 0x4886 JUMP JUMPDEST JUMPDEST ADD SLOAD PUSH1 0x57 PUSH1 0x1 PUSH1 0x4 DUP2 LT PUSH2 0x1918 JUMPI PUSH2 0x1917 PUSH2 0x4886 JUMP JUMPDEST JUMPDEST PUSH1 0x2 MUL ADD PUSH1 0x1 PUSH1 0x2 DUP2 LT PUSH2 0x192F JUMPI PUSH2 0x192E PUSH2 0x4886 JUMP JUMPDEST JUMPDEST ADD SLOAD PUSH1 0x1 DUP5 PUSH2 0x193E SWAP2 SWAP1 PUSH2 0x462F JUMP JUMPDEST PUSH2 0x2514 JUMP JUMPDEST PUSH2 0x194B PUSH2 0x2876 JUMP JUMPDEST PUSH2 0x1953 PUSH2 0x2AED JUMP JUMPDEST POP JUMP JUMPDEST PUSH1 0x9 SLOAD DUP2 JUMP JUMPDEST PUSH1 0x0 PUSH1 0xC SLOAD EQ PUSH2 0x19A1 JUMPI PUSH1 0x40 MLOAD PUSH32 0x8C379A000000000000000000000000000000000000000000000000000000000 DUP2 MSTORE PUSH1 0x4 ADD PUSH2 0x1998 SWAP1 PUSH2 0x45A3 JUMP JUMPDEST PUSH1 0x40 MLOAD DUP1 SWAP2 SUB SWAP1 REVERT JUMPDEST PUSH1 0x0 PUSH1 0x8 SLOAD EQ PUSH2 0x19E6 JUMPI PUSH1 0x40 MLOAD PUSH32 0x8C379A000000000000000000000000000000000000000000000000000000000 DUP2 MSTORE PUSH1 0x4 ADD PUSH2 0x19DD SWAP1 PUSH2 0x44A3 JUMP JUMPDEST PUSH1 0x40 MLOAD DUP1 SWAP2 SUB SWAP1 REVERT JUMPDEST PUSH1 0x1 DUP1 SLOAD EQ PUSH2 0x1A2A JUMPI PUSH1 0x40 MLOAD PUSH32 0x8C379A000000000000000000000000000000000000000000000000000000000 DUP2 MSTORE PUSH1 0x4 ADD PUSH2 0x1A21 SWAP1 PUSH2 0x4523 JUMP JUMPDEST PUSH1 0x40 MLOAD DUP1 SWAP2 SUB SWAP1 REVERT JUMPDEST PUSH1 0x1 PUSH1 0xC DUP2 SWAP1 SSTORE POP PUSH2 0x1A3A PUSH2 0x3079 JUMP JUMPDEST JUMPDEST PUSH1 0x1 DUP1 SLOAD EQ ISZERO PUSH2 0x1A52 JUMPI PUSH2 0x1A4D PUSH2 0x1626 JUMP JUMPDEST PUSH2 0x1A3B JUMP JUMPDEST JUMP JUMPDEST PUSH1 0xA SLOAD DUP2 JUMP JUMPDEST PUSH8 0xDE0B6B3A7640000 DUP2 JUMP JUMPDEST PUSH1 0x4 SLOAD DUP2 JUMP JUMPDEST PUSH1 0x1 DUP1 SLOAD EQ PUSH2 0x1AB0 JUMPI PUSH1 0x40 MLOAD PUSH32 0x8C379A000000000000000000000000000000000000000000000000000000000 DUP2 MSTORE PUSH1 0x4 ADD PUSH2 0x1AA7 SWAP1 PUSH2 0x4523 JUMP JUMPDEST PUSH1 0x40 MLOAD DUP1 SWAP2 SUB SWAP1 REVERT JUMPDEST PUSH1 0x0 PUSH1 0x8 SLOAD EQ PUSH2 0x1AF5 JUMPI PUSH1 0x40 MLOAD PUSH32 0x8C379A000000000000000000000000000000000000000000000000000000000 DUP2 MSTORE PUSH1 0x4 ADD PUSH2 0x1AEC SWAP1 PUSH2 0x44A3 JUMP JUMPDEST PUSH1 0x40 MLOAD DUP1 SWAP2 SUB SWAP1 REVERT JUMPDEST PUSH1 0x0 PUSH1 0xC SLOAD EQ PUSH2 0x1B3A JUMPI PUSH1 0x40 MLOAD PUSH32 0x8C379A000000000000000000000000000000000000000000000000000000000 DUP2 MSTORE PUSH1 0x4 ADD PUSH2 0x1B31 SWAP1 PUSH2 0x45A3 JUMP JUMPDEST PUSH1 0x40 MLOAD DUP1 SWAP2 SUB SWAP1 REVERT JUMPDEST PUSH1 0x0 PUSH2 0x1BBA PUSH1 0xF PUSH1 0x10 DUP1 PUSH1 0x20 MUL PUSH1 0x40 MLOAD SWAP1 DUP2 ADD PUSH1 0x40 MSTORE DUP1 SWAP3 SWAP2 SWAP1 PUSH1 0x0 SWAP1 JUMPDEST DUP3 DUP3 LT ISZERO PUSH2 0x1BB1 JUMPI DUP4 DUP3 PUSH1 0x2 MUL ADD PUSH1 0x2 DUP1 PUSH1 0x20 MUL PUSH1 0x40 MLOAD SWAP1 DUP2 ADD PUSH1 0x40 MSTORE DUP1 SWAP3 SWAP2 SWAP1 DUP3 PUSH1 0x2 DUP1 ISZERO PUSH2 0x1B9D JUMPI PUSH1 0x20 MUL DUP3 ADD SWAP2 JUMPDEST DUP2 SLOAD DUP2 MSTORE PUSH1 0x20 ADD SWAP1 PUSH1 0x1 ADD SWAP1 DUP1 DUP4 GT PUSH2 0x1B89 JUMPI JUMPDEST POP POP POP POP POP DUP2 MSTORE PUSH1 0x20 ADD SWAP1 PUSH1 0x1 ADD SWAP1 PUSH2 0x1B58 JUMP JUMPDEST POP POP POP POP PUSH2 0x38F3 JUMP JUMPDEST SWAP1 POP PUSH2 0x1BC6 PUSH1 0x1 PUSH2 0x1E09 JUMP JUMPDEST PUSH1 0x0 PUSH1 0x1 SWAP1 POP JUMPDEST PUSH1 0xB DUP2 GT PUSH2 0x1D84 JUMPI JUMPDEST PUSH1 0x57 PUSH1 0x1 PUSH1 0x4 DUP2 LT PUSH2 0x1BEB JUMPI PUSH2 0x1BEA PUSH2 0x4886 JUMP JUMPDEST JUMPDEST PUSH1 0x2 MUL ADD PUSH1 0x0 PUSH1 0x2 DUP2 LT PUSH2 0x1C02 JUMPI PUSH2 0x1C01 PUSH2 0x4886 JUMP JUMPDEST JUMPDEST ADD SLOAD PUSH1 0xF DUP3 PUSH1 0x10 DUP2 LT PUSH2 0x1C18 JUMPI PUSH2 0x1C17 PUSH2 0x4886 JUMP JUMPDEST JUMPDEST PUSH1 0x2 MUL ADD PUSH1 0x0 PUSH1 0x2 DUP2 LT PUSH2 0x1C2F JUMPI PUSH2 0x1C2E PUSH2 0x4886 JUMP JUMPDEST JUMPDEST ADD SLOAD EQ DUP1 ISZERO PUSH2 0x1C96 JUMPI POP PUSH1 0x57 PUSH1 0x1 PUSH1 0x4 DUP2 LT PUSH2 0x1C4E JUMPI PUSH2 0x1C4D PUSH2 0x4886 JUMP JUMPDEST JUMPDEST PUSH1 0x2 MUL ADD PUSH1 0x1 PUSH1 0x2 DUP2 LT PUSH2 0x1C65 JUMPI PUSH2 0x1C64 PUSH2 0x4886 JUMP JUMPDEST JUMPDEST ADD SLOAD PUSH1 0xF DUP3 PUSH1 0x10 DUP2 LT PUSH2 0x1C7B JUMPI PUSH2 0x1C7A PUSH2 0x4886 JUMP JUMPDEST JUMPDEST PUSH1 0x2 MUL ADD PUSH1 0x0 PUSH1 0x2 DUP2 LT PUSH2 0x1C92 JUMPI PUSH2 0x1C91 PUSH2 0x4886 JUMP JUMPDEST JUMPDEST ADD SLOAD EQ JUMPDEST DUP1 PUSH2 0x1D5D JUMPI POP PUSH1 0x57 PUSH1 0x1 PUSH1 0x4 DUP2 LT PUSH2 0x1CB1 JUMPI PUSH2 0x1CB0 PUSH2 0x4886 JUMP JUMPDEST JUMPDEST PUSH1 0x2 MUL ADD PUSH1 0x0 PUSH1 0x2 DUP2 LT PUSH2 0x1CC8 JUMPI PUSH2 0x1CC7 PUSH2 0x4886 JUMP JUMPDEST JUMPDEST ADD SLOAD PUSH1 0x2F DUP3 PUSH1 0x10 DUP2 LT PUSH2 0x1CDE JUMPI PUSH2 0x1CDD PUSH2 0x4886 JUMP JUMPDEST JUMPDEST PUSH1 0x2 MUL ADD PUSH1 0x0 PUSH1 0x2 DUP2 LT PUSH2 0x1CF5 JUMPI PUSH2 0x1CF4 PUSH2 0x4886 JUMP JUMPDEST JUMPDEST ADD SLOAD EQ DUP1 ISZERO PUSH2 0x1D5C JUMPI POP PUSH1 0x57 PUSH1 0x1 PUSH1 0x4 DUP2 LT PUSH2 0x1D14 JUMPI PUSH2 0x1D13 PUSH2 0x4886 JUMP JUMPDEST JUMPDEST PUSH1 0x2 MUL ADD PUSH1 0x1 PUSH1 0x2 DUP2 LT PUSH2 0x1D2B JUMPI PUSH2 0x1D2A PUSH2 0x4886 JUMP JUMPDEST JUMPDEST ADD SLOAD PUSH1 0x2F DUP3 PUSH1 0x10 DUP2 LT PUSH2 0x1D41 JUMPI PUSH2 0x1D40 PUSH2 0x4886 JUMP JUMPDEST JUMPDEST PUSH1 0x2 MUL ADD PUSH1 0x1 PUSH1 0x2 DUP2 LT PUSH2 0x1D58 JUMPI PUSH2 0x1D57 PUSH2 0x4886 JUMP JUMPDEST JUMPDEST ADD SLOAD EQ JUMPDEST JUMPDEST ISZERO PUSH2 0x1D71 JUMPI PUSH2 0x1D6C PUSH1 0x1 PUSH2 0x1E09 JUMP JUMPDEST PUSH2 0x1BD6 JUMP JUMPDEST DUP1 DUP1 PUSH2 0x1D7C SWAP1 PUSH2 0x4780 JUMP JUMPDEST SWAP2 POP POP PUSH2 0x1BCD JUMP JUMPDEST POP PUSH2 0x1DF6 PUSH1 0x57 PUSH1 0x1 PUSH1 0x4 DUP2 LT PUSH2 0x1D9D JUMPI PUSH2 0x1D9C PUSH2 0x4886 JUMP JUMPDEST JUMPDEST PUSH1 0x2 MUL ADD PUSH1 0x0 PUSH1 0x2 DUP2 LT PUSH2 0x1DB4 JUMPI PUSH2 0x1DB3 PUSH2 0x4886 JUMP JUMPDEST JUMPDEST ADD SLOAD PUSH1 0x57 PUSH1 0x1 PUSH1 0x4 DUP2 LT PUSH2 0x1DCB JUMPI PUSH2 0x1DCA PUSH2 0x4886 JUMP JUMPDEST JUMPDEST PUSH1 0x2 MUL ADD PUSH1 0x1 PUSH1 0x2 DUP2 LT PUSH2 0x1DE2 JUMPI PUSH2 0x1DE1 PUSH2 0x4886 JUMP JUMPDEST JUMPDEST ADD SLOAD PUSH1 0x1 DUP5 PUSH2 0x1DF1 SWAP2 SWAP1 PUSH2 0x462F JUMP JUMPDEST PUSH2 0x2429 JUMP JUMPDEST PUSH2 0x1DFE PUSH2 0x25FF JUMP JUMPDEST PUSH2 0x1E06 PUSH2 0x3079 JUMP JUMPDEST POP JUMP JUMPDEST PUSH1 0x0 PUSH1 0x40 MLOAD DUP1 PUSH1 0x20 ADD PUSH1 0x40 MSTORE DUP1 PUSH1 0x0 DUP2 MSTORE POP SWAP1 POP PUSH1 0x0 PUSH1 0x40 MLOAD DUP1 PUSH1 0x20 ADD PUSH1 0x40 MSTORE DUP1 PUSH1 0x0 DUP2 MSTORE POP SWAP1 POP PUSH1 0x0 DUP1 PUSH1 0x1 SWAP1 POP PUSH1 0x0 JUMPDEST DUP6 DUP3 GT PUSH2 0x20BF JUMPI PUSH1 0x0 PUSH1 0x3 SWAP1 POP PUSH1 0x0 PUSH1 0x4 SWAP1 POP PUSH1 0x0 PUSH1 0x60 DUP2 SWAP1 SSTORE POP PUSH1 0x0 PUSH1 0x5F DUP2 SWAP1 SSTORE POP PUSH2 0x1E66 PUSH2 0x396B JUMP JUMPDEST PUSH1 0x5 DUP2 SWAP1 SSTORE POP PUSH2 0x1E77 PUSH1 0x5 SLOAD PUSH2 0x3A1F JUMP JUMPDEST SWAP7 POP PUSH2 0x1E84 DUP3 DUP3 DUP10 PUSH2 0x3AF7 JUMP JUMPDEST SWAP6 POP PUSH2 0x1E8F DUP7 PUSH2 0x3C0C JUMP JUMPDEST SWAP3 POP DUP7 MLOAD SWAP5 POP JUMPDEST PUSH1 0x1 DUP4 LT DUP1 PUSH2 0x1EA5 JUMPI POP PUSH1 0xD DUP4 GT JUMPDEST DUP1 ISZERO PUSH2 0x1EBC JUMPI POP PUSH1 0x3 DUP6 PUSH2 0x1EB9 SWAP2 SWAP1 PUSH2 0x4710 JUMP JUMPDEST DUP3 LT JUMPDEST ISZERO PUSH2 0x1F50 JUMPI PUSH1 0x2 DUP3 PUSH2 0x1ECE SWAP2 SWAP1 PUSH2 0x462F JUMP JUMPDEST SWAP2 POP PUSH1 0x2 DUP2 PUSH2 0x1EDD SWAP2 SWAP1 PUSH2 0x462F JUMP JUMPDEST SWAP1 POP PUSH2 0x1EEA DUP3 DUP3 DUP10 PUSH2 0x3AF7 JUMP JUMPDEST SWAP6 POP PUSH2 0x1EF5 DUP7 PUSH2 0x3C0C JUMP JUMPDEST SWAP3 POP PUSH1 0x3 DUP6 PUSH2 0x1F04 SWAP2 SWAP1 PUSH2 0x4710 JUMP JUMPDEST DUP3 GT ISZERO PUSH2 0x1F4B JUMPI PUSH1 0x3 SWAP2 POP PUSH1 0x4 SWAP1 POP PUSH2 0x1F1B PUSH2 0x396B JUMP JUMPDEST PUSH1 0x5 DUP2 SWAP1 SSTORE POP PUSH2 0x1F2C PUSH1 0x5 SLOAD PUSH2 0x3A1F JUMP JUMPDEST SWAP7 POP PUSH2 0x1F39 DUP3 DUP3 DUP10 PUSH2 0x3AF7 JUMP JUMPDEST SWAP6 POP PUSH2 0x1F44 DUP7 PUSH2 0x3C0C JUMP JUMPDEST SWAP3 POP DUP7 MLOAD SWAP5 POP JUMPDEST PUSH2 0x1E96 JUMP JUMPDEST DUP3 PUSH1 0x60 DUP2 SWAP1 SSTORE POP PUSH1 0x2 DUP3 PUSH2 0x1F64 SWAP2 SWAP1 PUSH2 0x462F JUMP JUMPDEST SWAP2 POP PUSH1 0x2 DUP2 PUSH2 0x1F73 SWAP2 SWAP1 PUSH2 0x462F JUMP JUMPDEST SWAP1 POP PUSH2 0x1F80 DUP3 DUP3 DUP10 PUSH2 0x3AF7 JUMP JUMPDEST SWAP6 POP PUSH2 0x1F8B DUP7 PUSH2 0x3C0C JUMP JUMPDEST SWAP3 POP JUMPDEST PUSH1 0x1 DUP4 LT DUP1 PUSH2 0x1F9D JUMPI POP PUSH1 0x4 DUP4 GT JUMPDEST DUP1 ISZERO PUSH2 0x1FB4 JUMPI POP PUSH1 0x3 DUP6 PUSH2 0x1FB1 SWAP2 SWAP1 PUSH2 0x4710 JUMP JUMPDEST DUP3 LT JUMPDEST ISZERO PUSH2 0x203C JUMPI PUSH1 0x1 DUP3 PUSH2 0x1FC6 SWAP2 SWAP1 PUSH2 0x462F JUMP JUMPDEST SWAP2 POP DUP2 SWAP1 POP PUSH2 0x1FD6 DUP3 DUP3 DUP10 PUSH2 0x3AF7 JUMP JUMPDEST SWAP6 POP PUSH2 0x1FE1 DUP7 PUSH2 0x3C0C JUMP JUMPDEST SWAP3 POP PUSH1 0x3 DUP6 PUSH2 0x1FF0 SWAP2 SWAP1 PUSH2 0x4710 JUMP JUMPDEST DUP3 GT ISZERO PUSH2 0x2037 JUMPI PUSH1 0x4 SWAP2 POP PUSH1 0x4 SWAP1 POP PUSH2 0x2007 PUSH2 0x396B JUMP JUMPDEST PUSH1 0x5 DUP2 SWAP1 SSTORE POP PUSH2 0x2018 PUSH1 0x5 SLOAD PUSH2 0x3A1F JUMP JUMPDEST SWAP7 POP PUSH2 0x2025 DUP3 DUP3 DUP10 PUSH2 0x3AF7 JUMP JUMPDEST SWAP6 POP PUSH2 0x2030 DUP7 PUSH2 0x3C0C JUMP JUMPDEST SWAP3 POP DUP7 MLOAD SWAP5 POP JUMPDEST PUSH2 0x1F8E JUMP JUMPDEST DUP3 PUSH1 0x5F DUP2 SWAP1 SSTORE POP PUSH1 0x60 SLOAD PUSH1 0x57 DUP6 PUSH1 0x4 DUP2 LT PUSH2 0x205A JUMPI PUSH2 0x2059 PUSH2 0x4886 JUMP JUMPDEST JUMPDEST PUSH1 0x2 MUL ADD PUSH1 0x0 PUSH1 0x2 DUP2 LT PUSH2 0x2071 JUMPI PUSH2 0x2070 PUSH2 0x4886 JUMP JUMPDEST JUMPDEST ADD DUP2 SWAP1 SSTORE POP PUSH1 0x5F SLOAD PUSH1 0x57 DUP6 PUSH1 0x4 DUP2 LT PUSH2 0x208D JUMPI PUSH2 0x208C PUSH2 0x4886 JUMP JUMPDEST JUMPDEST PUSH1 0x2 MUL ADD PUSH1 0x1 PUSH1 0x2 DUP2 LT PUSH2 0x20A4 JUMPI PUSH2 0x20A3 PUSH2 0x4886 JUMP JUMPDEST JUMPDEST ADD DUP2 SWAP1 SSTORE POP PUSH1 0x1 DUP5 PUSH2 0x20B6 SWAP2 SWAP1 PUSH2 0x462F JUMP JUMPDEST SWAP4 POP POP POP PUSH2 0x1E3B JUMP JUMPDEST POP POP POP POP POP POP JUMP JUMPDEST PUSH2 0x20CF PUSH2 0x3F73 JUMP JUMPDEST JUMPDEST DUP2 PUSH1 0x2 PUSH1 0x4 DUP2 LT PUSH2 0x20E4 JUMPI PUSH2 0x20E3 PUSH2 0x4886 JUMP JUMPDEST JUMPDEST PUSH1 0x20 MUL ADD MLOAD PUSH1 0x0 PUSH1 0x2 DUP2 LT PUSH2 0x20FC JUMPI PUSH2 0x20FB PUSH2 0x4886 JUMP JUMPDEST JUMPDEST PUSH1 0x20 MUL ADD MLOAD DUP3 PUSH1 0x1 PUSH1 0x4 DUP2 LT PUSH2 0x2115 JUMPI PUSH2 0x2114 PUSH2 0x4886 JUMP JUMPDEST JUMPDEST PUSH1 0x20 MUL ADD MLOAD PUSH1 0x0 PUSH1 0x2 DUP2 LT PUSH2 0x212D JUMPI PUSH2 0x212C PUSH2 0x4886 JUMP JUMPDEST JUMPDEST PUSH1 0x20 MUL ADD MLOAD EQ DUP1 ISZERO PUSH2 0x219E JUMPI POP DUP2 PUSH1 0x2 PUSH1 0x4 DUP2 LT PUSH2 0x214E JUMPI PUSH2 0x214D PUSH2 0x4886 JUMP JUMPDEST JUMPDEST PUSH1 0x20 MUL ADD MLOAD PUSH1 0x1 PUSH1 0x2 DUP2 LT PUSH2 0x2166 JUMPI PUSH2 0x2165 PUSH2 0x4886 JUMP JUMPDEST JUMPDEST PUSH1 0x20 MUL ADD MLOAD DUP3 PUSH1 0x1 PUSH1 0x4 DUP2 LT PUSH2 0x217F JUMPI PUSH2 0x217E PUSH2 0x4886 JUMP JUMPDEST JUMPDEST PUSH1 0x20 MUL ADD MLOAD PUSH1 0x1 PUSH1 0x2 DUP2 LT PUSH2 0x2197 JUMPI PUSH2 0x2196 PUSH2 0x4886 JUMP JUMPDEST JUMPDEST PUSH1 0x20 MUL ADD MLOAD EQ JUMPDEST ISZERO PUSH2 0x2278 JUMPI PUSH2 0x21AD PUSH1 0x1 PUSH2 0x1E09 JUMP JUMPDEST PUSH1 0x57 PUSH1 0x1 PUSH1 0x4 DUP2 LT PUSH2 0x21C2 JUMPI PUSH2 0x21C1 PUSH2 0x4886 JUMP JUMPDEST JUMPDEST PUSH1 0x2 MUL ADD PUSH1 0x0 PUSH1 0x2 DUP2 LT PUSH2 0x21D9 JUMPI PUSH2 0x21D8 PUSH2 0x4886 JUMP JUMPDEST JUMPDEST ADD SLOAD DUP3 PUSH1 0x2 PUSH1 0x4 DUP2 LT PUSH2 0x21EF JUMPI PUSH2 0x21EE PUSH2 0x4886 JUMP JUMPDEST JUMPDEST PUSH1 0x20 MUL ADD MLOAD PUSH1 0x0 PUSH1 0x2 DUP2 LT PUSH2 0x2207 JUMPI PUSH2 0x2206 PUSH2 0x4886 JUMP JUMPDEST JUMPDEST PUSH1 0x20 MUL ADD DUP2 DUP2 MSTORE POP POP PUSH1 0x57 PUSH1 0x1 PUSH1 0x4 DUP2 LT PUSH2 0x2225 JUMPI PUSH2 0x2224 PUSH2 0x4886 JUMP JUMPDEST JUMPDEST PUSH1 0x2 MUL ADD PUSH1 0x1 PUSH1 0x2 DUP2 LT PUSH2 0x223C JUMPI PUSH2 0x223B PUSH2 0x4886 JUMP JUMPDEST JUMPDEST ADD SLOAD DUP3 PUSH1 0x2 PUSH1 0x4 DUP2 LT PUSH2 0x2252 JUMPI PUSH2 0x2251 PUSH2 0x4886 JUMP JUMPDEST JUMPDEST PUSH1 0x20 MUL ADD MLOAD PUSH1 0x1 PUSH1 0x2 DUP2 LT PUSH2 0x226A JUMPI PUSH2 0x2269 PUSH2 0x4886 JUMP JUMPDEST JUMPDEST PUSH1 0x20 MUL ADD DUP2 DUP2 MSTORE POP POP PUSH2 0x20D0 JUMP JUMPDEST JUMPDEST DUP2 PUSH1 0x3 PUSH1 0x4 DUP2 LT PUSH2 0x228D JUMPI PUSH2 0x228C PUSH2 0x4886 JUMP JUMPDEST JUMPDEST PUSH1 0x20 MUL ADD MLOAD PUSH1 0x0 PUSH1 0x2 DUP2 LT PUSH2 0x22A5 JUMPI PUSH2 0x22A4 PUSH2 0x4886 JUMP JUMPDEST JUMPDEST PUSH1 0x20 MUL ADD MLOAD DUP3 PUSH1 0x2 PUSH1 0x4 DUP2 LT PUSH2 0x22BE JUMPI PUSH2 0x22BD PUSH2 0x4886 JUMP JUMPDEST JUMPDEST PUSH1 0x20 MUL ADD MLOAD PUSH1 0x0 PUSH1 0x2 DUP2 LT PUSH2 0x22D6 JUMPI PUSH2 0x22D5 PUSH2 0x4886 JUMP JUMPDEST JUMPDEST PUSH1 0x20 MUL ADD MLOAD EQ DUP1 ISZERO PUSH2 0x2347 JUMPI POP DUP2 PUSH1 0x3 PUSH1 0x4 DUP2 LT PUSH2 0x22F7 JUMPI PUSH2 0x22F6 PUSH2 0x4886 JUMP JUMPDEST JUMPDEST PUSH1 0x20 MUL ADD MLOAD PUSH1 0x1 PUSH1 0x2 DUP2 LT PUSH2 0x230F JUMPI PUSH2 0x230E PUSH2 0x4886 JUMP JUMPDEST JUMPDEST PUSH1 0x20 MUL ADD MLOAD DUP3 PUSH1 0x2 PUSH1 0x4 DUP2 LT PUSH2 0x2328 JUMPI PUSH2 0x2327 PUSH2 0x4886 JUMP JUMPDEST JUMPDEST PUSH1 0x20 MUL ADD MLOAD PUSH1 0x1 PUSH1 0x2 DUP2 LT PUSH2 0x2340 JUMPI PUSH2 0x233F PUSH2 0x4886 JUMP JUMPDEST JUMPDEST PUSH1 0x20 MUL ADD MLOAD EQ JUMPDEST ISZERO PUSH2 0x2421 JUMPI PUSH2 0x2356 PUSH1 0x1 PUSH2 0x1E09 JUMP JUMPDEST PUSH1 0x57 PUSH1 0x1 PUSH1 0x4 DUP2 LT PUSH2 0x236B JUMPI PUSH2 0x236A PUSH2 0x4886 JUMP JUMPDEST JUMPDEST PUSH1 0x2 MUL ADD PUSH1 0x0 PUSH1 0x2 DUP2 LT PUSH2 0x2382 JUMPI PUSH2 0x2381 PUSH2 0x4886 JUMP JUMPDEST JUMPDEST ADD SLOAD DUP3 PUSH1 0x3 PUSH1 0x4 DUP2 LT PUSH2 0x2398 JUMPI PUSH2 0x2397 PUSH2 0x4886 JUMP JUMPDEST JUMPDEST PUSH1 0x20 MUL ADD MLOAD PUSH1 0x0 PUSH1 0x2 DUP2 LT PUSH2 0x23B0 JUMPI PUSH2 0x23AF PUSH2 0x4886 JUMP JUMPDEST JUMPDEST PUSH1 0x20 MUL ADD DUP2 DUP2 MSTORE POP POP PUSH1 0x57 PUSH1 0x1 PUSH1 0x4 DUP2 LT PUSH2 0x23CE JUMPI PUSH2 0x23CD PUSH2 0x4886 JUMP JUMPDEST JUMPDEST PUSH1 0x2 MUL ADD PUSH1 0x1 PUSH1 0x2 DUP2 LT PUSH2 0x23E5 JUMPI PUSH2 0x23E4 PUSH2 0x4886 JUMP JUMPDEST JUMPDEST ADD SLOAD DUP3 PUSH1 0x3 PUSH1 0x4 DUP2 LT PUSH2 0x23FB JUMPI PUSH2 0x23FA PUSH2 0x4886 JUMP JUMPDEST JUMPDEST PUSH1 0x20 MUL ADD MLOAD PUSH1 0x1 PUSH1 0x2 DUP2 LT PUSH2 0x2413 JUMPI PUSH2 0x2412 PUSH2 0x4886 JUMP JUMPDEST JUMPDEST PUSH1 0x20 MUL ADD DUP2 DUP2 MSTORE POP POP PUSH2 0x2279 JUMP JUMPDEST DUP2 SWAP1 POP SWAP2 SWAP1 POP JUMP JUMPDEST DUP3 PUSH1 0xF DUP3 PUSH1 0x10 DUP2 LT PUSH2 0x243E JUMPI PUSH2 0x243D PUSH2 0x4886 JUMP JUMPDEST JUMPDEST PUSH1 0x2 MUL ADD PUSH1 0x0 PUSH1 0x2 DUP2 LT PUSH2 0x2455 JUMPI PUSH2 0x2454 PUSH2 0x4886 JUMP JUMPDEST JUMPDEST ADD DUP2 SWAP1 SSTORE POP DUP2 PUSH1 0xF DUP3 PUSH1 0x10 DUP2 LT PUSH2 0x246F JUMPI PUSH2 0x246E PUSH2 0x4886 JUMP JUMPDEST JUMPDEST PUSH1 0x2 MUL ADD PUSH1 0x1 PUSH1 0x2 DUP2 LT PUSH2 0x2486 JUMPI PUSH2 0x2485 PUSH2 0x4886 JUMP JUMPDEST JUMPDEST ADD DUP2 SWAP1 SSTORE POP PUSH2 0x2509 PUSH1 0xF PUSH1 0x10 DUP1 PUSH1 0x20 MUL PUSH1 0x40 MLOAD SWAP1 DUP2 ADD PUSH1 0x40 MSTORE DUP1 SWAP3 SWAP2 SWAP1 PUSH1 0x0 SWAP1 JUMPDEST DUP3 DUP3 LT ISZERO PUSH2 0x2500 JUMPI DUP4 DUP3 PUSH1 0x2 MUL ADD PUSH1 0x2 DUP1 PUSH1 0x20 MUL PUSH1 0x40 MLOAD SWAP1 DUP2 ADD PUSH1 0x40 MSTORE DUP1 SWAP3 SWAP2 SWAP1 DUP3 PUSH1 0x2 DUP1 ISZERO PUSH2 0x24EC JUMPI PUSH1 0x20 MUL DUP3 ADD SWAP2 JUMPDEST DUP2 SLOAD DUP2 MSTORE PUSH1 0x20 ADD SWAP1 PUSH1 0x1 ADD SWAP1 DUP1 DUP4 GT PUSH2 0x24D8 JUMPI JUMPDEST POP POP POP POP POP DUP2 MSTORE PUSH1 0x20 ADD SWAP1 PUSH1 0x1 ADD SWAP1 PUSH2 0x24A7 JUMP JUMPDEST POP POP POP POP PUSH2 0x38F3 JUMP JUMPDEST PUSH1 0x6 DUP2 SWAP1 SSTORE POP POP POP POP JUMP JUMPDEST DUP3 PUSH1 0x2F DUP3 PUSH1 0x10 DUP2 LT PUSH2 0x2529 JUMPI PUSH2 0x2528 PUSH2 0x4886 JUMP JUMPDEST JUMPDEST PUSH1 0x2 MUL ADD PUSH1 0x0 PUSH1 0x2 DUP2 LT PUSH2 0x2540 JUMPI PUSH2 0x253F PUSH2 0x4886 JUMP JUMPDEST JUMPDEST ADD DUP2 SWAP1 SSTORE POP DUP2 PUSH1 0x2F DUP3 PUSH1 0x10 DUP2 LT PUSH2 0x255A JUMPI PUSH2 0x2559 PUSH2 0x4886 JUMP JUMPDEST JUMPDEST PUSH1 0x2 MUL ADD PUSH1 0x1 PUSH1 0x2 DUP2 LT PUSH2 0x2571 JUMPI PUSH2 0x2570 PUSH2 0x4886 JUMP JUMPDEST JUMPDEST ADD DUP2 SWAP1 SSTORE POP PUSH2 0x25F4 PUSH1 0x2F PUSH1 0x10 DUP1 PUSH1 0x20 MUL PUSH1 0x40 MLOAD SWAP1 DUP2 ADD PUSH1 0x40 MSTORE DUP1 SWAP3 SWAP2 SWAP1 PUSH1 0x0 SWAP1 JUMPDEST DUP3 DUP3 LT ISZERO PUSH2 0x25EB JUMPI DUP4 DUP3 PUSH1 0x2 MUL ADD PUSH1 0x2 DUP1 PUSH1 0x20 MUL PUSH1 0x40 MLOAD SWAP1 DUP2 ADD PUSH1 0x40 MSTORE DUP1 SWAP3 SWAP2 SWAP1 DUP3 PUSH1 0x2 DUP1 ISZERO PUSH2 0x25D7 JUMPI PUSH1 0x20 MUL DUP3 ADD SWAP2 JUMPDEST DUP2 SLOAD DUP2 MSTORE PUSH1 0x20 ADD SWAP1 PUSH1 0x1 ADD SWAP1 DUP1 DUP4 GT PUSH2 0x25C3 JUMPI JUMPDEST POP POP POP POP POP DUP2 MSTORE PUSH1 0x20 ADD SWAP1 PUSH1 0x1 ADD SWAP1 PUSH2 0x2592 JUMP JUMPDEST POP POP POP POP PUSH2 0x38F3 JUMP JUMPDEST PUSH1 0x7 DUP2 SWAP1 SSTORE POP POP POP POP JUMP JUMPDEST PUSH1 0x0 DUP1 PUSH2 0x2680 PUSH1 0xF PUSH1 0x10 DUP1 PUSH1 0x20 MUL PUSH1 0x40 MLOAD SWAP1 DUP2 ADD PUSH1 0x40 MSTORE DUP1 SWAP3 SWAP2 SWAP1 PUSH1 0x0 SWAP1 JUMPDEST DUP3 DUP3 LT ISZERO PUSH2 0x2677 JUMPI DUP4 DUP3 PUSH1 0x2 MUL ADD PUSH1 0x2 DUP1 PUSH1 0x20 MUL PUSH1 0x40 MLOAD SWAP1 DUP2 ADD PUSH1 0x40 MSTORE DUP1 SWAP3 SWAP2 SWAP1 DUP3 PUSH1 0x2 DUP1 ISZERO PUSH2 0x2663 JUMPI PUSH1 0x20 MUL DUP3 ADD SWAP2 JUMPDEST DUP2 SLOAD DUP2 MSTORE PUSH1 0x20 ADD SWAP1 PUSH1 0x1 ADD SWAP1 DUP1 DUP4 GT PUSH2 0x264F JUMPI JUMPDEST POP POP POP POP POP DUP2 MSTORE PUSH1 0x20 ADD SWAP1 PUSH1 0x1 ADD SWAP1 PUSH2 0x261E JUMP JUMPDEST POP POP POP POP PUSH2 0x38F3 JUMP JUMPDEST PUSH1 0x6 DUP2 SWAP1 SSTORE POP PUSH1 0x0 PUSH1 0x1 SWAP1 POP JUMPDEST PUSH1 0x6 SLOAD DUP2 GT PUSH2 0x2798 JUMPI PUSH1 0x9 PUSH1 0xF DUP3 PUSH1 0x10 DUP2 LT PUSH2 0x26AC JUMPI PUSH2 0x26AB PUSH2 0x4886 JUMP JUMPDEST JUMPDEST PUSH1 0x2 MUL ADD PUSH1 0x0 PUSH1 0x2 DUP2 LT PUSH2 0x26C3 JUMPI PUSH2 0x26C2 PUSH2 0x4886 JUMP JUMPDEST JUMPDEST ADD SLOAD GT ISZERO PUSH2 0x26DB JUMPI PUSH1 0xA DUP4 PUSH2 0x26D8 SWAP2 SWAP1 PUSH2 0x462F JUMP JUMPDEST SWAP3 POP JUMPDEST PUSH1 0xA PUSH1 0xF DUP3 PUSH1 0x10 DUP2 LT PUSH2 0x26F1 JUMPI PUSH2 0x26F0 PUSH2 0x4886 JUMP JUMPDEST JUMPDEST PUSH1 0x2 MUL ADD PUSH1 0x0 PUSH1 0x2 DUP2 LT PUSH2 0x2708 JUMPI PUSH2 0x2707 PUSH2 0x4886 JUMP JUMPDEST JUMPDEST ADD SLOAD LT ISZERO PUSH2 0x274B JUMPI PUSH1 0xF DUP2 PUSH1 0x10 DUP2 LT PUSH2 0x2724 JUMPI PUSH2 0x2723 PUSH2 0x4886 JUMP JUMPDEST JUMPDEST PUSH1 0x2 MUL ADD PUSH1 0x0 PUSH1 0x2 DUP2 LT PUSH2 0x273B JUMPI PUSH2 0x273A PUSH2 0x4886 JUMP JUMPDEST JUMPDEST ADD SLOAD DUP4 PUSH2 0x2748 SWAP2 SWAP1 PUSH2 0x462F JUMP JUMPDEST SWAP3 POP JUMPDEST PUSH1 0x1 PUSH1 0xF DUP3 PUSH1 0x10 DUP2 LT PUSH2 0x2761 JUMPI PUSH2 0x2760 PUSH2 0x4886 JUMP JUMPDEST JUMPDEST PUSH1 0x2 MUL ADD PUSH1 0x0 PUSH1 0x2 DUP2 LT PUSH2 0x2778 JUMPI PUSH2 0x2777 PUSH2 0x4886 JUMP JUMPDEST JUMPDEST ADD SLOAD EQ ISZERO PUSH2 0x2785 JUMPI PUSH1 0x1 SWAP2 POP JUMPDEST DUP1 DUP1 PUSH2 0x2790 SWAP1 PUSH2 0x4780 JUMP JUMPDEST SWAP2 POP POP PUSH2 0x268D JUMP JUMPDEST POP DUP2 PUSH1 0x4F PUSH1 0x1 PUSH1 0x2 DUP2 LT PUSH2 0x27AF JUMPI PUSH2 0x27AE PUSH2 0x4886 JUMP JUMPDEST JUMPDEST PUSH1 0x2 MUL ADD PUSH1 0x0 PUSH1 0x2 DUP2 LT PUSH2 0x27C6 JUMPI PUSH2 0x27C5 PUSH2 0x4886 JUMP JUMPDEST JUMPDEST ADD DUP2 SWAP1 SSTORE POP DUP2 PUSH1 0x4F PUSH1 0x1 PUSH1 0x2 DUP2 LT PUSH2 0x27E1 JUMPI PUSH2 0x27E0 PUSH2 0x4886 JUMP JUMPDEST JUMPDEST PUSH1 0x2 MUL ADD PUSH1 0x1 PUSH1 0x2 DUP2 LT PUSH2 0x27F8 JUMPI PUSH2 0x27F7 PUSH2 0x4886 JUMP JUMPDEST JUMPDEST ADD DUP2 SWAP1 SSTORE POP PUSH1 0x1 DUP2 EQ ISZERO PUSH2 0x2872 JUMPI PUSH1 0xA PUSH1 0x4F PUSH1 0x1 PUSH1 0x2 DUP2 LT PUSH2 0x281D JUMPI PUSH2 0x281C PUSH2 0x4886 JUMP JUMPDEST JUMPDEST PUSH1 0x2 MUL ADD PUSH1 0x1 PUSH1 0x2 DUP2 LT PUSH2 0x2834 JUMPI PUSH2 0x2833 PUSH2 0x4886 JUMP JUMPDEST JUMPDEST ADD SLOAD PUSH2 0x2840 SWAP2 SWAP1 PUSH2 0x462F JUMP JUMPDEST PUSH1 0x4F PUSH1 0x1 PUSH1 0x2 DUP2 LT PUSH2 0x2855 JUMPI PUSH2 0x2854 PUSH2 0x4886 JUMP JUMPDEST JUMPDEST PUSH1 0x2 MUL ADD PUSH1 0x1 PUSH1 0x2 DUP2 LT PUSH2 0x286C JUMPI PUSH2 0x286B PUSH2 0x4886 JUMP JUMPDEST JUMPDEST ADD DUP2 SWAP1 SSTORE POP JUMPDEST POP POP JUMP JUMPDEST PUSH1 0x0 DUP1 PUSH2 0x28F7 PUSH1 0x2F PUSH1 0x10 DUP1 PUSH1 0x20 MUL PUSH1 0x40 MLOAD SWAP1 DUP2 ADD PUSH1 0x40 MSTORE DUP1 SWAP3 SWAP2 SWAP1 PUSH1 0x0 SWAP1 JUMPDEST DUP3 DUP3 LT ISZERO PUSH2 0x28EE JUMPI DUP4 DUP3 PUSH1 0x2 MUL ADD PUSH1 0x2 DUP1 PUSH1 0x20 MUL PUSH1 0x40 MLOAD SWAP1 DUP2 ADD PUSH1 0x40 MSTORE DUP1 SWAP3 SWAP2 SWAP1 DUP3 PUSH1 0x2 DUP1 ISZERO PUSH2 0x28DA JUMPI PUSH1 0x20 MUL DUP3 ADD SWAP2 JUMPDEST DUP2 SLOAD DUP2 MSTORE PUSH1 0x20 ADD SWAP1 PUSH1 0x1 ADD SWAP1 DUP1 DUP4 GT PUSH2 0x28C6 JUMPI JUMPDEST POP POP POP POP POP DUP2 MSTORE PUSH1 0x20 ADD SWAP1 PUSH1 0x1 ADD SWAP1 PUSH2 0x2895 JUMP JUMPDEST POP POP POP POP PUSH2 0x38F3 JUMP JUMPDEST PUSH1 0x7 DUP2 SWAP1 SSTORE POP PUSH1 0x0 PUSH1 0x1 SWAP1 POP JUMPDEST PUSH1 0x7 SLOAD DUP2 GT PUSH2 0x2A0F JUMPI PUSH1 0x9 PUSH1 0x2F DUP3 PUSH1 0x10 DUP2 LT PUSH2 0x2923 JUMPI PUSH2 0x2922 PUSH2 0x4886 JUMP JUMPDEST JUMPDEST PUSH1 0x2 MUL ADD PUSH1 0x0 PUSH1 0x2 DUP2 LT PUSH2 0x293A JUMPI PUSH2 0x2939 PUSH2 0x4886 JUMP JUMPDEST JUMPDEST ADD SLOAD GT ISZERO PUSH2 0x2952 JUMPI PUSH1 0xA DUP4 PUSH2 0x294F SWAP2 SWAP1 PUSH2 0x462F JUMP JUMPDEST SWAP3 POP JUMPDEST PUSH1 0xA PUSH1 0x2F DUP3 PUSH1 0x10 DUP2 LT PUSH2 0x2968 JUMPI PUSH2 0x2967 PUSH2 0x4886 JUMP JUMPDEST JUMPDEST PUSH1 0x2 MUL ADD PUSH1 0x0 PUSH1 0x2 DUP2 LT PUSH2 0x297F JUMPI PUSH2 0x297E PUSH2 0x4886 JUMP JUMPDEST JUMPDEST ADD SLOAD LT ISZERO PUSH2 0x29C2 JUMPI PUSH1 0x2F DUP2 PUSH1 0x10 DUP2 LT PUSH2 0x299B JUMPI PUSH2 0x299A PUSH2 0x4886 JUMP JUMPDEST JUMPDEST PUSH1 0x2 MUL ADD PUSH1 0x0 PUSH1 0x2 DUP2 LT PUSH2 0x29B2 JUMPI PUSH2 0x29B1 PUSH2 0x4886 JUMP JUMPDEST JUMPDEST ADD SLOAD DUP4 PUSH2 0x29BF SWAP2 SWAP1 PUSH2 0x462F JUMP JUMPDEST SWAP3 POP JUMPDEST PUSH1 0x1 PUSH1 0x2F DUP3 PUSH1 0x10 DUP2 LT PUSH2 0x29D8 JUMPI PUSH2 0x29D7 PUSH2 0x4886 JUMP JUMPDEST JUMPDEST PUSH1 0x2 MUL ADD PUSH1 0x0 PUSH1 0x2 DUP2 LT PUSH2 0x29EF JUMPI PUSH2 0x29EE PUSH2 0x4886 JUMP JUMPDEST JUMPDEST ADD SLOAD EQ ISZERO PUSH2 0x29FC JUMPI PUSH1 0x1 SWAP2 POP JUMPDEST DUP1 DUP1 PUSH2 0x2A07 SWAP1 PUSH2 0x4780 JUMP JUMPDEST SWAP2 POP POP PUSH2 0x2904 JUMP JUMPDEST POP DUP2 PUSH1 0x53 PUSH1 0x1 PUSH1 0x2 DUP2 LT PUSH2 0x2A26 JUMPI PUSH2 0x2A25 PUSH2 0x4886 JUMP JUMPDEST JUMPDEST PUSH1 0x2 MUL ADD PUSH1 0x0 PUSH1 0x2 DUP2 LT PUSH2 0x2A3D JUMPI PUSH2 0x2A3C PUSH2 0x4886 JUMP JUMPDEST JUMPDEST ADD DUP2 SWAP1 SSTORE POP DUP2 PUSH1 0x53 PUSH1 0x1 PUSH1 0x2 DUP2 LT PUSH2 0x2A58 JUMPI PUSH2 0x2A57 PUSH2 0x4886 JUMP JUMPDEST JUMPDEST PUSH1 0x2 MUL ADD PUSH1 0x1 PUSH1 0x2 DUP2 LT PUSH2 0x2A6F JUMPI PUSH2 0x2A6E PUSH2 0x4886 JUMP JUMPDEST JUMPDEST ADD DUP2 SWAP1 SSTORE POP PUSH1 0x1 DUP2 EQ ISZERO PUSH2 0x2AE9 JUMPI PUSH1 0xA PUSH1 0x53 PUSH1 0x1 PUSH1 0x2 DUP2 LT PUSH2 0x2A94 JUMPI PUSH2 0x2A93 PUSH2 0x4886 JUMP JUMPDEST JUMPDEST PUSH1 0x2 MUL ADD PUSH1 0x1 PUSH1 0x2 DUP2 LT PUSH2 0x2AAB JUMPI PUSH2 0x2AAA PUSH2 0x4886 JUMP JUMPDEST JUMPDEST ADD SLOAD PUSH2 0x2AB7 SWAP2 SWAP1 PUSH2 0x462F JUMP JUMPDEST PUSH1 0x53 PUSH1 0x1 PUSH1 0x2 DUP2 LT PUSH2 0x2ACC JUMPI PUSH2 0x2ACB PUSH2 0x4886 JUMP JUMPDEST JUMPDEST PUSH1 0x2 MUL ADD PUSH1 0x1 PUSH1 0x2 DUP2 LT PUSH2 0x2AE3 JUMPI PUSH2 0x2AE2 PUSH2 0x4886 JUMP JUMPDEST JUMPDEST ADD DUP2 SWAP1 SSTORE POP JUMPDEST POP POP JUMP JUMPDEST PUSH1 0x15 PUSH1 0x53 PUSH1 0x1 PUSH1 0x2 DUP2 LT PUSH2 0x2B04 JUMPI PUSH2 0x2B03 PUSH2 0x4886 JUMP JUMPDEST JUMPDEST PUSH1 0x2 MUL ADD PUSH1 0x0 PUSH1 0x2 DUP2 LT PUSH2 0x2B1B JUMPI PUSH2 0x2B1A PUSH2 0x4886 JUMP JUMPDEST JUMPDEST ADD SLOAD GT ISZERO DUP1 ISZERO PUSH2 0x2B58 JUMPI POP PUSH1 0x15 PUSH1 0x53 PUSH1 0x1 PUSH1 0x2 DUP2 LT PUSH2 0x2B3D JUMPI PUSH2 0x2B3C PUSH2 0x4886 JUMP JUMPDEST JUMPDEST PUSH1 0x2 MUL ADD PUSH1 0x1 PUSH1 0x2 DUP2 LT PUSH2 0x2B54 JUMPI PUSH2 0x2B53 PUSH2 0x4886 JUMP JUMPDEST JUMPDEST ADD SLOAD GT JUMPDEST ISZERO PUSH2 0x2B92 JUMPI PUSH1 0x53 PUSH1 0x1 PUSH1 0x2 DUP2 LT PUSH2 0x2B72 JUMPI PUSH2 0x2B71 PUSH2 0x4886 JUMP JUMPDEST JUMPDEST PUSH1 0x2 MUL ADD PUSH1 0x0 PUSH1 0x2 DUP2 LT PUSH2 0x2B89 JUMPI PUSH2 0x2B88 PUSH2 0x4886 JUMP JUMPDEST JUMPDEST ADD SLOAD PUSH1 0xB DUP2 SWAP1 SSTORE POP JUMPDEST PUSH1 0x15 PUSH1 0x53 PUSH1 0x1 PUSH1 0x2 DUP2 LT PUSH2 0x2BA9 JUMPI PUSH2 0x2BA8 PUSH2 0x4886 JUMP JUMPDEST JUMPDEST PUSH1 0x2 MUL ADD PUSH1 0x0 PUSH1 0x2 DUP2 LT PUSH2 0x2BC0 JUMPI PUSH2 0x2BBF PUSH2 0x4886 JUMP JUMPDEST JUMPDEST ADD SLOAD GT DUP1 ISZERO PUSH2 0x2BFD JUMPI POP PUSH1 0x15 PUSH1 0x4F PUSH1 0x1 PUSH1 0x2 DUP2 LT PUSH2 0x2BE1 JUMPI PUSH2 0x2BE0 PUSH2 0x4886 JUMP JUMPDEST JUMPDEST PUSH1 0x2 MUL ADD PUSH1 0x1 PUSH1 0x2 DUP2 LT PUSH2 0x2BF8 JUMPI PUSH2 0x2BF7 PUSH2 0x4886 JUMP JUMPDEST JUMPDEST ADD SLOAD GT ISZERO JUMPDEST ISZERO PUSH2 0x2C37 JUMPI PUSH1 0x53 PUSH1 0x1 PUSH1 0x2 DUP2 LT PUSH2 0x2C17 JUMPI PUSH2 0x2C16 PUSH2 0x4886 JUMP JUMPDEST JUMPDEST PUSH1 0x2 MUL ADD PUSH1 0x1 PUSH1 0x2 DUP2 LT PUSH2 0x2C2E JUMPI PUSH2 0x2C2D PUSH2 0x4886 JUMP JUMPDEST JUMPDEST ADD SLOAD PUSH1 0xB DUP2 SWAP1 SSTORE POP JUMPDEST PUSH1 0x15 PUSH1 0x53 PUSH1 0x1 PUSH1 0x2 DUP2 LT PUSH2 0x2C4E JUMPI PUSH2 0x2C4D PUSH2 0x4886 JUMP JUMPDEST JUMPDEST PUSH1 0x2 MUL ADD PUSH1 0x0 PUSH1 0x2 DUP2 LT PUSH2 0x2C65 JUMPI PUSH2 0x2C64 PUSH2 0x4886 JUMP JUMPDEST JUMPDEST ADD SLOAD GT ISZERO DUP1 ISZERO PUSH2 0x2CA3 JUMPI POP PUSH1 0x15 PUSH1 0x53 PUSH1 0x1 PUSH1 0x2 DUP2 LT PUSH2 0x2C87 JUMPI PUSH2 0x2C86 PUSH2 0x4886 JUMP JUMPDEST JUMPDEST PUSH1 0x2 MUL ADD PUSH1 0x1 PUSH1 0x2 DUP2 LT PUSH2 0x2C9E JUMPI PUSH2 0x2C9D PUSH2 0x4886 JUMP JUMPDEST JUMPDEST ADD SLOAD GT ISZERO JUMPDEST ISZERO PUSH2 0x2DD6 JUMPI PUSH1 0x53 PUSH1 0x1 PUSH1 0x2 DUP2 LT PUSH2 0x2CBD JUMPI PUSH2 0x2CBC PUSH2 0x4886 JUMP JUMPDEST JUMPDEST PUSH1 0x2 MUL ADD PUSH1 0x1 PUSH1 0x2 DUP2 LT PUSH2 0x2CD4 JUMPI PUSH2 0x2CD3 PUSH2 0x4886 JUMP JUMPDEST JUMPDEST ADD SLOAD PUSH1 0x53 PUSH1 0x1 PUSH1 0x2 DUP2 LT PUSH2 0x2CEB JUMPI PUSH2 0x2CEA PUSH2 0x4886 JUMP JUMPDEST JUMPDEST PUSH1 0x2 MUL ADD PUSH1 0x0 PUSH1 0x2 DUP2 LT PUSH2 0x2D02 JUMPI PUSH2 0x2D01 PUSH2 0x4886 JUMP JUMPDEST JUMPDEST ADD SLOAD GT ISZERO PUSH2 0x2D3F JUMPI PUSH1 0x53 PUSH1 0x1 PUSH1 0x2 DUP2 LT PUSH2 0x2D1F JUMPI PUSH2 0x2D1E PUSH2 0x4886 JUMP JUMPDEST JUMPDEST PUSH1 0x2 MUL ADD PUSH1 0x0 PUSH1 0x2 DUP2 LT PUSH2 0x2D36 JUMPI PUSH2 0x2D35 PUSH2 0x4886 JUMP JUMPDEST JUMPDEST ADD SLOAD PUSH1 0xB DUP2 SWAP1 SSTORE POP JUMPDEST PUSH1 0x53 PUSH1 0x1 PUSH1 0x2 DUP2 LT PUSH2 0x2D54 JUMPI PUSH2 0x2D53 PUSH2 0x4886 JUMP JUMPDEST JUMPDEST PUSH1 0x2 MUL ADD PUSH1 0x1 PUSH1 0x2 DUP2 LT PUSH2 0x2D6B JUMPI PUSH2 0x2D6A PUSH2 0x4886 JUMP JUMPDEST JUMPDEST ADD SLOAD PUSH1 0x53 PUSH1 0x1 PUSH1 0x2 DUP2 LT PUSH2 0x2D82 JUMPI PUSH2 0x2D81 PUSH2 0x4886 JUMP JUMPDEST JUMPDEST PUSH1 0x2 MUL ADD PUSH1 0x0 PUSH1 0x2 DUP2 LT PUSH2 0x2D99 JUMPI PUSH2 0x2D98 PUSH2 0x4886 JUMP JUMPDEST JUMPDEST ADD SLOAD GT PUSH2 0x2DD5 JUMPI PUSH1 0x53 PUSH1 0x1 PUSH1 0x2 DUP2 LT PUSH2 0x2DB5 JUMPI PUSH2 0x2DB4 PUSH2 0x4886 JUMP JUMPDEST JUMPDEST PUSH1 0x2 MUL ADD PUSH1 0x1 PUSH1 0x2 DUP2 LT PUSH2 0x2DCC JUMPI PUSH2 0x2DCB PUSH2 0x4886 JUMP JUMPDEST JUMPDEST ADD SLOAD PUSH1 0xB DUP2 SWAP1 SSTORE POP JUMPDEST JUMPDEST PUSH1 0x10 PUSH1 0x53 PUSH1 0x1 PUSH1 0x2 DUP2 LT PUSH2 0x2DED JUMPI PUSH2 0x2DEC PUSH2 0x4886 JUMP JUMPDEST JUMPDEST PUSH1 0x2 MUL ADD PUSH1 0x0 PUSH1 0x2 DUP2 LT PUSH2 0x2E04 JUMPI PUSH2 0x2E03 PUSH2 0x4886 JUMP JUMPDEST JUMPDEST ADD SLOAD GT DUP1 PUSH2 0x2E3F JUMPI POP PUSH1 0x10 PUSH1 0x53 PUSH1 0x1 PUSH1 0x2 DUP2 LT PUSH2 0x2E24 JUMPI PUSH2 0x2E23 PUSH2 0x4886 JUMP JUMPDEST JUMPDEST PUSH1 0x2 MUL ADD PUSH1 0x1 PUSH1 0x2 DUP2 LT PUSH2 0x2E3B JUMPI PUSH2 0x2E3A PUSH2 0x4886 JUMP JUMPDEST JUMPDEST ADD SLOAD GT JUMPDEST ISZERO PUSH2 0x3077 JUMPI PUSH1 0x15 PUSH1 0x53 PUSH1 0x1 PUSH1 0x2 DUP2 LT PUSH2 0x2E5B JUMPI PUSH2 0x2E5A PUSH2 0x4886 JUMP JUMPDEST JUMPDEST PUSH1 0x2 MUL ADD PUSH1 0x0 PUSH1 0x2 DUP2 LT PUSH2 0x2E72 JUMPI PUSH2 0x2E71 PUSH2 0x4886 JUMP JUMPDEST JUMPDEST ADD SLOAD GT DUP1 ISZERO PUSH2 0x2EAE JUMPI POP PUSH1 0x15 PUSH1 0x53 PUSH1 0x1 PUSH1 0x2 DUP2 LT PUSH2 0x2E93 JUMPI PUSH2 0x2E92 PUSH2 0x4886 JUMP JUMPDEST JUMPDEST PUSH1 0x2 MUL ADD PUSH1 0x1 PUSH1 0x2 DUP2 LT PUSH2 0x2EAA JUMPI PUSH2 0x2EA9 PUSH2 0x4886 JUMP JUMPDEST JUMPDEST ADD SLOAD GT JUMPDEST ISZERO PUSH2 0x3053 JUMPI PUSH1 0x1 PUSH1 0x9 DUP2 SWAP1 SSTORE POP PUSH1 0x0 PUSH1 0x1 DUP2 SWAP1 SSTORE POP PUSH1 0x53 PUSH1 0x1 PUSH1 0x2 DUP2 LT PUSH2 0x2ED8 JUMPI PUSH2 0x2ED7 PUSH2 0x4886 JUMP JUMPDEST JUMPDEST PUSH1 0x2 MUL ADD PUSH1 0x1 PUSH1 0x2 DUP2 LT PUSH2 0x2EEF JUMPI PUSH2 0x2EEE PUSH2 0x4886 JUMP JUMPDEST JUMPDEST ADD SLOAD PUSH1 0x53 PUSH1 0x1 PUSH1 0x2 DUP2 LT PUSH2 0x2F06 JUMPI PUSH2 0x2F05 PUSH2 0x4886 JUMP JUMPDEST JUMPDEST PUSH1 0x2 MUL ADD PUSH1 0x0 PUSH1 0x2 DUP2 LT PUSH2 0x2F1D JUMPI PUSH2 0x2F1C PUSH2 0x4886 JUMP JUMPDEST JUMPDEST ADD SLOAD GT PUSH2 0x2F59 JUMPI PUSH1 0x53 PUSH1 0x1 PUSH1 0x2 DUP2 LT PUSH2 0x2F39 JUMPI PUSH2 0x2F38 PUSH2 0x4886 JUMP JUMPDEST JUMPDEST PUSH1 0x2 MUL ADD PUSH1 0x0 PUSH1 0x2 DUP2 LT PUSH2 0x2F50 JUMPI PUSH2 0x2F4F PUSH2 0x4886 JUMP JUMPDEST JUMPDEST ADD SLOAD PUSH1 0xB DUP2 SWAP1 SSTORE POP JUMPDEST PUSH1 0x53 PUSH1 0x1 PUSH1 0x2 DUP2 LT PUSH2 0x2F6E JUMPI PUSH2 0x2F6D PUSH2 0x4886 JUMP JUMPDEST JUMPDEST PUSH1 0x2 MUL ADD PUSH1 0x1 PUSH1 0x2 DUP2 LT PUSH2 0x2F85 JUMPI PUSH2 0x2F84 PUSH2 0x4886 JUMP JUMPDEST JUMPDEST ADD SLOAD PUSH1 0x53 PUSH1 0x1 PUSH1 0x2 DUP2 LT PUSH2 0x2F9C JUMPI PUSH2 0x2F9B PUSH2 0x4886 JUMP JUMPDEST JUMPDEST PUSH1 0x2 MUL ADD PUSH1 0x0 PUSH1 0x2 DUP2 LT PUSH2 0x2FB3 JUMPI PUSH2 0x2FB2 PUSH2 0x4886 JUMP JUMPDEST JUMPDEST ADD SLOAD GT ISZERO PUSH2 0x2FF0 JUMPI PUSH1 0x53 PUSH1 0x1 PUSH1 0x2 DUP2 LT PUSH2 0x2FD0 JUMPI PUSH2 0x2FCF PUSH2 0x4886 JUMP JUMPDEST JUMPDEST PUSH1 0x2 MUL ADD PUSH1 0x1 PUSH1 0x2 DUP2 LT PUSH2 0x2FE7 JUMPI PUSH2 0x2FE6 PUSH2 0x4886 JUMP JUMPDEST JUMPDEST ADD SLOAD PUSH1 0xB DUP2 SWAP1 SSTORE POP JUMPDEST PUSH1 0x0 PUSH1 0x8 SLOAD EQ DUP1 ISZERO PUSH2 0x3004 JUMPI POP PUSH1 0x1 PUSH1 0xC SLOAD EQ JUMPDEST ISZERO PUSH2 0x3052 JUMPI PUSH1 0x2 PUSH1 0x4 SLOAD PUSH2 0x3018 SWAP2 SWAP1 PUSH2 0x46B6 JUMP JUMPDEST PUSH1 0x3 SLOAD PUSH2 0x3025 SWAP2 SWAP1 PUSH2 0x462F JUMP JUMPDEST PUSH1 0x3 DUP2 SWAP1 SSTORE POP PUSH1 0x4 SLOAD PUSH1 0x2 SLOAD PUSH2 0x303B SWAP2 SWAP1 PUSH2 0x4710 JUMP JUMPDEST PUSH1 0x2 DUP2 SWAP1 SSTORE POP PUSH1 0x0 PUSH1 0x4 DUP2 SWAP1 SSTORE POP PUSH1 0x2 PUSH1 0xE DUP2 SWAP1 SSTORE POP JUMPDEST JUMPDEST PUSH1 0x1 PUSH1 0x9 SLOAD EQ PUSH2 0x3076 JUMPI PUSH1 0x0 PUSH1 0x1 DUP2 SWAP1 SSTORE POP PUSH1 0x1 PUSH1 0xD DUP2 SWAP1 SSTORE POP PUSH2 0x3075 PUSH2 0x3CA4 JUMP JUMPDEST JUMPDEST JUMPDEST JUMP JUMPDEST PUSH1 0x15 PUSH1 0x4F PUSH1 0x1 PUSH1 0x2 DUP2 LT PUSH2 0x3090 JUMPI PUSH2 0x308F PUSH2 0x4886 JUMP JUMPDEST JUMPDEST PUSH1 0x2 MUL ADD PUSH1 0x0 PUSH1 0x2 DUP2 LT PUSH2 0x30A7 JUMPI PUSH2 0x30A6 PUSH2 0x4886 JUMP JUMPDEST JUMPDEST ADD SLOAD GT DUP1 ISZERO PUSH2 0x30E3 JUMPI POP PUSH1 0x15 PUSH1 0x4F PUSH1 0x1 PUSH1 0x2 DUP2 LT PUSH2 0x30C8 JUMPI PUSH2 0x30C7 PUSH2 0x4886 JUMP JUMPDEST JUMPDEST PUSH1 0x2 MUL ADD PUSH1 0x1 PUSH1 0x2 DUP2 LT PUSH2 0x30DF JUMPI PUSH2 0x30DE PUSH2 0x4886 JUMP JUMPDEST JUMPDEST ADD SLOAD GT JUMPDEST ISZERO PUSH2 0x3265 JUMPI PUSH1 0x1 PUSH1 0x8 DUP2 SWAP1 SSTORE POP PUSH1 0x0 PUSH1 0x1 DUP2 SWAP1 SSTORE POP PUSH1 0x4F PUSH1 0x1 PUSH1 0x2 DUP2 LT PUSH2 0x310D JUMPI PUSH2 0x310C PUSH2 0x4886 JUMP JUMPDEST JUMPDEST PUSH1 0x2 MUL ADD PUSH1 0x1 PUSH1 0x2 DUP2 LT PUSH2 0x3124 JUMPI PUSH2 0x3123 PUSH2 0x4886 JUMP JUMPDEST JUMPDEST ADD SLOAD PUSH1 0x4F PUSH1 0x1 PUSH1 0x2 DUP2 LT PUSH2 0x313B JUMPI PUSH2 0x313A PUSH2 0x4886 JUMP JUMPDEST JUMPDEST PUSH1 0x2 MUL ADD PUSH1 0x0 PUSH1 0x2 DUP2 LT PUSH2 0x3152 JUMPI PUSH2 0x3151 PUSH2 0x4886 JUMP JUMPDEST JUMPDEST ADD SLOAD GT PUSH2 0x318E JUMPI PUSH1 0x4F PUSH1 0x1 PUSH1 0x2 DUP2 LT PUSH2 0x316E JUMPI PUSH2 0x316D PUSH2 0x4886 JUMP JUMPDEST JUMPDEST PUSH1 0x2 MUL ADD PUSH1 0x0 PUSH1 0x2 DUP2 LT PUSH2 0x3185 JUMPI PUSH2 0x3184 PUSH2 0x4886 JUMP JUMPDEST JUMPDEST ADD SLOAD PUSH1 0xA DUP2 SWAP1 SSTORE POP JUMPDEST PUSH1 0x4F PUSH1 0x1 PUSH1 0x2 DUP2 LT PUSH2 0x31A3 JUMPI PUSH2 0x31A2 PUSH2 0x4886 JUMP JUMPDEST JUMPDEST PUSH1 0x2 MUL ADD PUSH1 0x1 PUSH1 0x2 DUP2 LT PUSH2 0x31BA JUMPI PUSH2 0x31B9 PUSH2 0x4886 JUMP JUMPDEST JUMPDEST ADD SLOAD PUSH1 0x4F PUSH1 0x1 PUSH1 0x2 DUP2 LT PUSH2 0x31D1 JUMPI PUSH2 0x31D0 PUSH2 0x4886 JUMP JUMPDEST JUMPDEST PUSH1 0x2 MUL ADD PUSH1 0x0 PUSH1 0x2 DUP2 LT PUSH2 0x31E8 JUMPI PUSH2 0x31E7 PUSH2 0x4886 JUMP JUMPDEST JUMPDEST ADD SLOAD GT ISZERO PUSH2 0x3225 JUMPI PUSH1 0x4F PUSH1 0x1 PUSH1 0x2 DUP2 LT PUSH2 0x3205 JUMPI PUSH2 0x3204 PUSH2 0x4886 JUMP JUMPDEST JUMPDEST PUSH1 0x2 MUL ADD PUSH1 0x1 PUSH1 0x2 DUP2 LT PUSH2 0x321C JUMPI PUSH2 0x321B PUSH2 0x4886 JUMP JUMPDEST JUMPDEST ADD SLOAD PUSH1 0xA DUP2 SWAP1 SSTORE POP JUMPDEST PUSH1 0x4 SLOAD PUSH1 0x2 SLOAD PUSH2 0x3235 SWAP2 SWAP1 PUSH2 0x462F JUMP JUMPDEST PUSH1 0x2 DUP2 SWAP1 SSTORE POP PUSH1 0x0 PUSH1 0x4 DUP2 SWAP1 SSTORE POP PUSH1 0x1 PUSH1 0xE DUP2 SWAP1 SSTORE POP JUMPDEST PUSH1 0x11 PUSH1 0xB SLOAD LT ISZERO PUSH2 0x3264 JUMPI PUSH2 0x325F PUSH2 0x1626 JUMP JUMPDEST PUSH2 0x324C JUMP JUMPDEST JUMPDEST PUSH1 0x15 PUSH1 0x4F PUSH1 0x1 PUSH1 0x2 DUP2 LT PUSH2 0x327C JUMPI PUSH2 0x327B PUSH2 0x4886 JUMP JUMPDEST JUMPDEST PUSH1 0x2 MUL ADD PUSH1 0x0 PUSH1 0x2 DUP2 LT PUSH2 0x3293 JUMPI PUSH2 0x3292 PUSH2 0x4886 JUMP JUMPDEST JUMPDEST ADD SLOAD GT ISZERO DUP1 ISZERO PUSH2 0x32D0 JUMPI POP PUSH1 0x15 PUSH1 0x4F PUSH1 0x1 PUSH1 0x2 DUP2 LT PUSH2 0x32B5 JUMPI PUSH2 0x32B4 PUSH2 0x4886 JUMP JUMPDEST JUMPDEST PUSH1 0x2 MUL ADD PUSH1 0x1 PUSH1 0x2 DUP2 LT PUSH2 0x32CC JUMPI PUSH2 0x32CB PUSH2 0x4886 JUMP JUMPDEST JUMPDEST ADD SLOAD GT JUMPDEST ISZERO PUSH2 0x330A JUMPI PUSH1 0x4F PUSH1 0x1 PUSH1 0x2 DUP2 LT PUSH2 0x32EA JUMPI PUSH2 0x32E9 PUSH2 0x4886 JUMP JUMPDEST JUMPDEST PUSH1 0x2 MUL ADD PUSH1 0x0 PUSH1 0x2 DUP2 LT PUSH2 0x3301 JUMPI PUSH2 0x3300 PUSH2 0x4886 JUMP JUMPDEST JUMPDEST ADD SLOAD PUSH1 0xA DUP2 SWAP1 SSTORE POP JUMPDEST PUSH1 0x15 PUSH1 0x4F PUSH1 0x1 PUSH1 0x2 DUP2 LT PUSH2 0x3321 JUMPI PUSH2 0x3320 PUSH2 0x4886 JUMP JUMPDEST JUMPDEST PUSH1 0x2 MUL ADD PUSH1 0x0 PUSH1 0x2 DUP2 LT PUSH2 0x3338 JUMPI PUSH2 0x3337 PUSH2 0x4886 JUMP JUMPDEST JUMPDEST ADD SLOAD GT DUP1 ISZERO PUSH2 0x3375 JUMPI POP PUSH1 0x15 PUSH1 0x4F PUSH1 0x1 PUSH1 0x2 DUP2 LT PUSH2 0x3359 JUMPI PUSH2 0x3358 PUSH2 0x4886 JUMP JUMPDEST JUMPDEST PUSH1 0x2 MUL ADD PUSH1 0x1 PUSH1 0x2 DUP2 LT PUSH2 0x3370 JUMPI PUSH2 0x336F PUSH2 0x4886 JUMP JUMPDEST JUMPDEST ADD SLOAD GT ISZERO JUMPDEST ISZERO PUSH2 0x33AF JUMPI PUSH1 0x4F PUSH1 0x1 PUSH1 0x2 DUP2 LT PUSH2 0x338F JUMPI PUSH2 0x338E PUSH2 0x4886 JUMP JUMPDEST JUMPDEST PUSH1 0x2 MUL ADD PUSH1 0x1 PUSH1 0x2 DUP2 LT PUSH2 0x33A6 JUMPI PUSH2 0x33A5 PUSH2 0x4886 JUMP JUMPDEST JUMPDEST ADD SLOAD PUSH1 0xA DUP2 SWAP1 SSTORE POP JUMPDEST PUSH1 0x15 PUSH1 0x4F PUSH1 0x1 PUSH1 0x2 DUP2 LT PUSH2 0x33C6 JUMPI PUSH2 0x33C5 PUSH2 0x4886 JUMP JUMPDEST JUMPDEST PUSH1 0x2 MUL ADD PUSH1 0x0 PUSH1 0x2 DUP2 LT PUSH2 0x33DD JUMPI PUSH2 0x33DC PUSH2 0x4886 JUMP JUMPDEST JUMPDEST ADD SLOAD GT ISZERO DUP1 ISZERO PUSH2 0x341B JUMPI POP PUSH1 0x15 PUSH1 0x4F PUSH1 0x1 PUSH1 0x2 DUP2 LT PUSH2 0x33FF JUMPI PUSH2 0x33FE PUSH2 0x4886 JUMP JUMPDEST JUMPDEST PUSH1 0x2 MUL ADD PUSH1 0x1 PUSH1 0x2 DUP2 LT PUSH2 0x3416 JUMPI PUSH2 0x3415 PUSH2 0x4886 JUMP JUMPDEST JUMPDEST ADD SLOAD GT ISZERO JUMPDEST ISZERO PUSH2 0x354E JUMPI PUSH1 0x4F PUSH1 0x1 PUSH1 0x2 DUP2 LT PUSH2 0x3435 JUMPI PUSH2 0x3434 PUSH2 0x4886 JUMP JUMPDEST JUMPDEST PUSH1 0x2 MUL ADD PUSH1 0x1 PUSH1 0x2 DUP2 LT PUSH2 0x344C JUMPI PUSH2 0x344B PUSH2 0x4886 JUMP JUMPDEST JUMPDEST ADD SLOAD PUSH1 0x4F PUSH1 0x1 PUSH1 0x2 DUP2 LT PUSH2 0x3463 JUMPI PUSH2 0x3462 PUSH2 0x4886 JUMP JUMPDEST JUMPDEST PUSH1 0x2 MUL ADD PUSH1 0x0 PUSH1 0x2 DUP2 LT PUSH2 0x347A JUMPI PUSH2 0x3479 PUSH2 0x4886 JUMP JUMPDEST JUMPDEST ADD SLOAD GT ISZERO PUSH2 0x34B7 JUMPI PUSH1 0x4F PUSH1 0x1 PUSH1 0x2 DUP2 LT PUSH2 0x3497 JUMPI PUSH2 0x3496 PUSH2 0x4886 JUMP JUMPDEST JUMPDEST PUSH1 0x2 MUL ADD PUSH1 0x0 PUSH1 0x2 DUP2 LT PUSH2 0x34AE JUMPI PUSH2 0x34AD PUSH2 0x4886 JUMP JUMPDEST JUMPDEST ADD SLOAD PUSH1 0xA DUP2 SWAP1 SSTORE POP JUMPDEST PUSH1 0x4F PUSH1 0x1 PUSH1 0x2 DUP2 LT PUSH2 0x34CC JUMPI PUSH2 0x34CB PUSH2 0x4886 JUMP JUMPDEST JUMPDEST PUSH1 0x2 MUL ADD PUSH1 0x1 PUSH1 0x2 DUP2 LT PUSH2 0x34E3 JUMPI PUSH2 0x34E2 PUSH2 0x4886 JUMP JUMPDEST JUMPDEST ADD SLOAD PUSH1 0x4F PUSH1 0x1 PUSH1 0x2 DUP2 LT PUSH2 0x34FA JUMPI PUSH2 0x34F9 PUSH2 0x4886 JUMP JUMPDEST JUMPDEST PUSH1 0x2 MUL ADD PUSH1 0x0 PUSH1 0x2 DUP2 LT PUSH2 0x3511 JUMPI PUSH2 0x3510 PUSH2 0x4886 JUMP JUMPDEST JUMPDEST ADD SLOAD GT PUSH2 0x354D JUMPI PUSH1 0x4F PUSH1 0x1 PUSH1 0x2 DUP2 LT PUSH2 0x352D JUMPI PUSH2 0x352C PUSH2 0x4886 JUMP JUMPDEST JUMPDEST PUSH1 0x2 MUL ADD PUSH1 0x1 PUSH1 0x2 DUP2 LT PUSH2 0x3544 JUMPI PUSH2 0x3543 PUSH2 0x4886 JUMP JUMPDEST JUMPDEST ADD SLOAD PUSH1 0xA DUP2 SWAP1 SSTORE POP JUMPDEST JUMPDEST JUMP JUMPDEST PUSH1 0x1 PUSH1 0x2F PUSH1 0x1 PUSH1 0x10 DUP2 LT PUSH2 0x3567 JUMPI PUSH2 0x3566 PUSH2 0x4886 JUMP JUMPDEST JUMPDEST PUSH1 0x2 MUL ADD PUSH1 0x0 PUSH1 0x2 DUP2 LT PUSH2 0x357E JUMPI PUSH2 0x357D PUSH2 0x4886 JUMP JUMPDEST JUMPDEST ADD SLOAD EQ DUP1 PUSH2 0x35B9 JUMPI POP PUSH1 0xA PUSH1 0x53 PUSH1 0x1 PUSH1 0x2 DUP2 LT PUSH2 0x359E JUMPI PUSH2 0x359D PUSH2 0x4886 JUMP JUMPDEST JUMPDEST PUSH1 0x2 MUL ADD PUSH1 0x0 PUSH1 0x2 DUP2 LT PUSH2 0x35B5 JUMPI PUSH2 0x35B4 PUSH2 0x4886 JUMP JUMPDEST JUMPDEST ADD SLOAD EQ JUMPDEST ISZERO PUSH2 0x38F1 JUMPI PUSH2 0x35C8 PUSH1 0x1 PUSH2 0x1E09 JUMP JUMPDEST PUSH1 0x0 PUSH1 0x1 SWAP1 POP JUMPDEST PUSH1 0x1 DUP2 GT PUSH2 0x3783 JUMPI JUMPDEST PUSH1 0x57 PUSH1 0x1 PUSH1 0x4 DUP2 LT PUSH2 0x35ED JUMPI PUSH2 0x35EC PUSH2 0x4886 JUMP JUMPDEST JUMPDEST PUSH1 0x2 MUL ADD PUSH1 0x0 PUSH1 0x2 DUP2 LT PUSH2 0x3604 JUMPI PUSH2 0x3603 PUSH2 0x4886 JUMP JUMPDEST JUMPDEST ADD SLOAD PUSH1 0xF DUP3 PUSH1 0x10 DUP2 LT PUSH2 0x361A JUMPI PUSH2 0x3619 PUSH2 0x4886 JUMP JUMPDEST JUMPDEST PUSH1 0x2 MUL ADD PUSH1 0x0 PUSH1 0x2 DUP2 LT PUSH2 0x3631 JUMPI PUSH2 0x3630 PUSH2 0x4886 JUMP JUMPDEST JUMPDEST ADD SLOAD EQ DUP1 PUSH2 0x3697 JUMPI POP PUSH1 0x57 PUSH1 0x1 PUSH1 0x4 DUP2 LT PUSH2 0x364F JUMPI PUSH2 0x364E PUSH2 0x4886 JUMP JUMPDEST JUMPDEST PUSH1 0x2 MUL ADD PUSH1 0x0 PUSH1 0x2 DUP2 LT PUSH2 0x3666 JUMPI PUSH2 0x3665 PUSH2 0x4886 JUMP JUMPDEST JUMPDEST ADD SLOAD PUSH1 0x2F DUP3 PUSH1 0x10 DUP2 LT PUSH2 0x367C JUMPI PUSH2 0x367B PUSH2 0x4886 JUMP JUMPDEST JUMPDEST PUSH1 0x2 MUL ADD PUSH1 0x0 PUSH1 0x2 DUP2 LT PUSH2 0x3693 JUMPI PUSH2 0x3692 PUSH2 0x4886 JUMP JUMPDEST JUMPDEST ADD SLOAD EQ JUMPDEST ISZERO PUSH2 0x3770 JUMPI PUSH1 0x57 PUSH1 0x1 PUSH1 0x4 DUP2 LT PUSH2 0x36B1 JUMPI PUSH2 0x36B0 PUSH2 0x4886 JUMP JUMPDEST JUMPDEST PUSH1 0x2 MUL ADD PUSH1 0x1 PUSH1 0x2 DUP2 LT PUSH2 0x36C8 JUMPI PUSH2 0x36C7 PUSH2 0x4886 JUMP JUMPDEST JUMPDEST ADD SLOAD PUSH1 0xF DUP3 PUSH1 0x10 DUP2 LT PUSH2 0x36DE JUMPI PUSH2 0x36DD PUSH2 0x4886 JUMP JUMPDEST JUMPDEST PUSH1 0x2 MUL ADD PUSH1 0x1 PUSH1 0x2 DUP2 LT PUSH2 0x36F5 JUMPI PUSH2 0x36F4 PUSH2 0x4886 JUMP JUMPDEST JUMPDEST ADD SLOAD EQ DUP1 PUSH2 0x375B JUMPI POP PUSH1 0x57 PUSH1 0x1 PUSH1 0x4 DUP2 LT PUSH2 0x3713 JUMPI PUSH2 0x3712 PUSH2 0x4886 JUMP JUMPDEST JUMPDEST PUSH1 0x2 MUL ADD PUSH1 0x1 PUSH1 0x2 DUP2 LT PUSH2 0x372A JUMPI PUSH2 0x3729 PUSH2 0x4886 JUMP JUMPDEST JUMPDEST ADD SLOAD PUSH1 0x2F DUP3 PUSH1 0x10 DUP2 LT PUSH2 0x3740 JUMPI PUSH2 0x373F PUSH2 0x4886 JUMP JUMPDEST JUMPDEST PUSH1 0x2 MUL ADD PUSH1 0x1 PUSH1 0x2 DUP2 LT PUSH2 0x3757 JUMPI PUSH2 0x3756 PUSH2 0x4886 JUMP JUMPDEST JUMPDEST ADD SLOAD EQ JUMPDEST ISZERO PUSH2 0x376B JUMPI PUSH2 0x376A PUSH1 0x1 PUSH2 0x1E09 JUMP JUMPDEST JUMPDEST PUSH2 0x35D8 JUMP JUMPDEST DUP1 DUP1 PUSH2 0x377B SWAP1 PUSH2 0x4780 JUMP JUMPDEST SWAP2 POP POP PUSH2 0x35CF JUMP JUMPDEST POP PUSH2 0x37EA PUSH1 0x57 PUSH1 0x1 PUSH1 0x4 DUP2 LT PUSH2 0x379C JUMPI PUSH2 0x379B PUSH2 0x4886 JUMP JUMPDEST JUMPDEST PUSH1 0x2 MUL ADD PUSH1 0x0 PUSH1 0x2 DUP2 LT PUSH2 0x37B3 JUMPI PUSH2 0x37B2 PUSH2 0x4886 JUMP JUMPDEST JUMPDEST ADD SLOAD PUSH1 0x57 PUSH1 0x1 PUSH1 0x4 DUP2 LT PUSH2 0x37CA JUMPI PUSH2 0x37C9 PUSH2 0x4886 JUMP JUMPDEST JUMPDEST PUSH1 0x2 MUL ADD PUSH1 0x1 PUSH1 0x2 DUP2 LT PUSH2 0x37E1 JUMPI PUSH2 0x37E0 PUSH2 0x4886 JUMP JUMPDEST JUMPDEST ADD SLOAD PUSH1 0x2 PUSH2 0x2514 JUMP JUMPDEST PUSH2 0x37F2 PUSH2 0x2876 JUMP JUMPDEST PUSH2 0x37FA PUSH2 0x2AED JUMP JUMPDEST PUSH1 0x15 PUSH1 0x53 PUSH1 0x1 PUSH1 0x2 DUP2 LT PUSH2 0x3811 JUMPI PUSH2 0x3810 PUSH2 0x4886 JUMP JUMPDEST JUMPDEST PUSH1 0x2 MUL ADD PUSH1 0x1 PUSH1 0x2 DUP2 LT PUSH2 0x3828 JUMPI PUSH2 0x3827 PUSH2 0x4886 JUMP JUMPDEST JUMPDEST ADD SLOAD EQ ISZERO PUSH2 0x3841 JUMPI PUSH2 0x3838 PUSH2 0x3DA7 JUMP JUMPDEST PUSH1 0x3 PUSH1 0xE DUP2 SWAP1 SSTORE POP JUMPDEST PUSH1 0x15 PUSH1 0x53 PUSH1 0x1 PUSH1 0x2 DUP2 LT PUSH2 0x3858 JUMPI PUSH2 0x3857 PUSH2 0x4886 JUMP JUMPDEST JUMPDEST PUSH1 0x2 MUL ADD PUSH1 0x1 PUSH1 0x2 DUP2 LT PUSH2 0x386F JUMPI PUSH2 0x386E PUSH2 0x4886 JUMP JUMPDEST JUMPDEST ADD SLOAD EQ PUSH2 0x38F0 JUMPI PUSH1 0x2 PUSH1 0x3 PUSH1 0x4 SLOAD PUSH2 0x3887 SWAP2 SWAP1 PUSH2 0x46B6 JUMP JUMPDEST PUSH2 0x3891 SWAP2 SWAP1 PUSH2 0x4685 JUMP JUMPDEST PUSH1 0x4 SLOAD PUSH1 0x3 SLOAD PUSH2 0x38A1 SWAP2 SWAP1 PUSH2 0x462F JUMP JUMPDEST PUSH2 0x38AB SWAP2 SWAP1 PUSH2 0x462F JUMP JUMPDEST PUSH1 0x3 DUP2 SWAP1 SSTORE POP PUSH1 0x2 PUSH1 0x3 PUSH1 0x4 SLOAD PUSH2 0x38C2 SWAP2 SWAP1 PUSH2 0x46B6 JUMP JUMPDEST PUSH2 0x38CC SWAP2 SWAP1 PUSH2 0x4685 JUMP JUMPDEST PUSH1 0x2 SLOAD PUSH2 0x38D9 SWAP2 SWAP1 PUSH2 0x4710 JUMP JUMPDEST PUSH1 0x2 DUP2 SWAP1 SSTORE POP PUSH1 0x0 PUSH1 0x4 DUP2 SWAP1 SSTORE POP PUSH1 0x2 PUSH1 0xE DUP2 SWAP1 SSTORE POP JUMPDEST JUMPDEST JUMP JUMPDEST PUSH1 0x0 DUP1 PUSH1 0x0 SWAP1 POP PUSH1 0x0 JUMPDEST PUSH1 0x10 DUP3 LT ISZERO PUSH2 0x3961 JUMPI PUSH1 0x0 DUP5 DUP4 PUSH1 0x10 DUP2 LT PUSH2 0x391B JUMPI PUSH2 0x391A PUSH2 0x4886 JUMP JUMPDEST JUMPDEST PUSH1 0x20 MUL ADD MLOAD PUSH1 0x0 PUSH1 0x2 DUP2 LT PUSH2 0x3933 JUMPI PUSH2 0x3932 PUSH2 0x4886 JUMP JUMPDEST JUMPDEST PUSH1 0x20 MUL ADD MLOAD EQ PUSH2 0x394D JUMPI PUSH1 0x1 DUP2 PUSH2 0x394A SWAP2 SWAP1 PUSH2 0x462F JUMP JUMPDEST SWAP1 POP JUMPDEST PUSH1 0x1 DUP3 PUSH2 0x395A SWAP2 SWAP1 PUSH2 0x462F JUMP JUMPDEST SWAP2 POP PUSH2 0x38FD JUMP JUMPDEST DUP1 SWAP3 POP POP POP SWAP2 SWAP1 POP JUMP JUMPDEST PUSH1 0x0 PUSH1 0x61 PUSH1 0x0 DUP2 SLOAD DUP1 SWAP3 SWAP2 SWAP1 PUSH2 0x3980 SWAP1 PUSH2 0x4780 JUMP JUMPDEST SWAP2 SWAP1 POP SSTORE POP PUSH32 0x28F5C28F5C28F5C28F5C28F5C28F5C28F5C28F5C28F5C28F5C28F5C28F5C28F PUSH1 0x3 PUSH1 0x61 SLOAD PUSH2 0x39B5 SWAP2 SWAP1 PUSH2 0x46B6 JUMP JUMPDEST NUMBER PUSH2 0x39C0 SWAP2 SWAP1 PUSH2 0x462F JUMP JUMPDEST CALLER PUSH1 0x61 SLOAD PUSH1 0x40 MLOAD PUSH1 0x20 ADD PUSH2 0x39D6 SWAP4 SWAP3 SWAP2 SWAP1 PUSH2 0x4386 JUMP JUMPDEST PUSH1 0x40 MLOAD PUSH1 0x20 DUP2 DUP4 SUB SUB DUP2 MSTORE SWAP1 PUSH1 0x40 MSTORE DUP1 MLOAD SWAP1 PUSH1 0x20 ADD KECCAK256 PUSH1 0x0 SHR PUSH2 0x39F9 SWAP2 SWAP1 PUSH2 0x47F7 JUMP JUMPDEST PUSH1 0x5 DUP2 SWAP1 SSTORE POP PUSH1 0x61 PUSH1 0x0 DUP2 SLOAD DUP1 SWAP3 SWAP2 SWAP1 PUSH2 0x3A12 SWAP1 PUSH2 0x4780 JUMP JUMPDEST SWAP2 SWAP1 POP SSTORE POP PUSH1 0x5 SLOAD SWAP1 POP SWAP1 JUMP JUMPDEST PUSH1 0x60 PUSH1 0x0 PUSH1 0x1 PUSH2 0x3A2E DUP5 PUSH2 0x3DCF JUMP JUMPDEST ADD SWAP1 POP PUSH1 0x0 DUP2 PUSH8 0xFFFFFFFFFFFFFFFF DUP2 GT ISZERO PUSH2 0x3A4D JUMPI PUSH2 0x3A4C PUSH2 0x48B5 JUMP JUMPDEST JUMPDEST PUSH1 0x40 MLOAD SWAP1 DUP1 DUP3 MSTORE DUP1 PUSH1 0x1F ADD PUSH1 0x1F NOT AND PUSH1 0x20 ADD DUP3 ADD PUSH1 0x40 MSTORE DUP1 ISZERO PUSH2 0x3A7F JUMPI DUP2 PUSH1 0x20 ADD PUSH1 0x1 DUP3 MUL DUP1 CALLDATASIZE DUP4 CALLDATACOPY DUP1 DUP3 ADD SWAP2 POP POP SWAP1 POP JUMPDEST POP SWAP1 POP PUSH1 0x0 DUP3 PUSH1 0x20 ADD DUP3 ADD SWAP1 POP JUMPDEST PUSH1 0x1 ISZERO PUSH2 0x3AEC JUMPI DUP1 DUP1 PUSH1 0x1 SWAP1 SUB SWAP2 POP POP PUSH32 0x3031323334353637383961626364656600000000000000000000000000000000 PUSH1 0xA DUP7 MOD BYTE DUP2 MSTORE8 PUSH1 0xA DUP6 DUP2 PUSH2 0x3AD6 JUMPI PUSH2 0x3AD5 PUSH2 0x4857 JUMP JUMPDEST JUMPDEST DIV SWAP5 POP PUSH1 0x0 DUP6 EQ ISZERO PUSH2 0x3AE7 JUMPI PUSH2 0x3AEC JUMP JUMPDEST PUSH2 0x3A8D JUMP JUMPDEST DUP2 SWAP4 POP POP POP POP SWAP2 SWAP1 POP JUMP JUMPDEST PUSH1 0x60 PUSH1 0x0 PUSH1 0x1 DUP6 DUP6 PUSH2 0x3B09 SWAP2 SWAP1 PUSH2 0x4710 JUMP JUMPDEST PUSH2 0x3B13 SWAP2 SWAP1 PUSH2 0x462F JUMP JUMPDEST PUSH8 0xFFFFFFFFFFFFFFFF DUP2 GT ISZERO PUSH2 0x3B2C JUMPI PUSH2 0x3B2B PUSH2 0x48B5 JUMP JUMPDEST JUMPDEST PUSH1 0x40 MLOAD SWAP1 DUP1 DUP3 MSTORE DUP1 PUSH1 0x1F ADD PUSH1 0x1F NOT AND PUSH1 0x20 ADD DUP3 ADD PUSH1 0x40 MSTORE DUP1 ISZERO PUSH2 0x3B5E JUMPI DUP2 PUSH1 0x20 ADD PUSH1 0x1 DUP3 MUL DUP1 CALLDATASIZE DUP4 CALLDATACOPY DUP1 DUP3 ADD SWAP2 POP POP SWAP1 POP JUMPDEST POP SWAP1 POP PUSH1 0x0 JUMPDEST DUP6 DUP6 PUSH2 0x3B70 SWAP2 SWAP1 PUSH2 0x4710 JUMP JUMPDEST DUP2 GT PUSH2 0x3C00 JUMPI DUP4 PUSH1 0x1 DUP8 DUP4 PUSH2 0x3B85 SWAP2 SWAP1 PUSH2 0x462F JUMP JUMPDEST PUSH2 0x3B8F SWAP2 SWAP1 PUSH2 0x4710 JUMP JUMPDEST DUP2 MLOAD DUP2 LT PUSH2 0x3BA0 JUMPI PUSH2 0x3B9F PUSH2 0x4886 JUMP JUMPDEST JUMPDEST PUSH1 0x20 ADD ADD MLOAD PUSH1 0xF8 SHR PUSH1 0xF8 SHL DUP3 DUP3 DUP2 MLOAD DUP2 LT PUSH2 0x3BBE JUMPI PUSH2 0x3BBD PUSH2 0x4886 JUMP JUMPDEST JUMPDEST PUSH1 0x20 ADD ADD SWAP1 PUSH31 0xFFFFFFFFFFFFFFFFFFFFFFFFFFFFFFFFFFFFFFFFFFFFFFFFFFFFFFFFFFFFFF NOT AND SWAP1 DUP2 PUSH1 0x0 BYTE SWAP1 MSTORE8 POP DUP1 DUP1 PUSH2 0x3BF8 SWAP1 PUSH2 0x4780 JUMP JUMPDEST SWAP2 POP POP PUSH2 0x3B64 JUMP JUMPDEST POP DUP1 SWAP2 POP POP SWAP4 SWAP3 POP POP POP JUMP JUMPDEST PUSH1 0x0 DUP1 DUP3 SWAP1 POP PUSH1 0x0 DUP1 JUMPDEST DUP3 MLOAD DUP2 LT ISZERO PUSH2 0x3C99 JUMPI PUSH1 0x0 DUP4 DUP3 DUP2 MLOAD DUP2 LT PUSH2 0x3C34 JUMPI PUSH2 0x3C33 PUSH2 0x4886 JUMP JUMPDEST JUMPDEST PUSH1 0x20 ADD ADD MLOAD PUSH1 0xF8 SHR PUSH1 0xF8 SHL PUSH1 0xF8 SHR PUSH1 0xFF AND SWAP1 POP PUSH1 0x30 DUP2 LT ISZERO DUP1 ISZERO PUSH2 0x3C59 JUMPI POP PUSH1 0x39 DUP2 GT ISZERO JUMPDEST ISZERO PUSH2 0x3C85 JUMPI PUSH1 0x30 DUP2 PUSH2 0x3C6B SWAP2 SWAP1 PUSH2 0x4710 JUMP JUMPDEST PUSH1 0xA DUP5 PUSH2 0x3C78 SWAP2 SWAP1 PUSH2 0x46B6 JUMP JUMPDEST PUSH2 0x3C82 SWAP2 SWAP1 PUSH2 0x462F JUMP JUMPDEST SWAP3 POP JUMPDEST POP DUP1 DUP1 PUSH2 0x3C91 SWAP1 PUSH2 0x4780 JUMP JUMPDEST SWAP2 POP POP PUSH2 0x3C16 JUMP JUMPDEST POP DUP1 SWAP3 POP POP POP SWAP2 SWAP1 POP JUMP JUMPDEST PUSH1 0x1 PUSH1 0x8 SLOAD EQ ISZERO PUSH2 0x3CD6 JUMPI PUSH1 0x4 SLOAD PUSH1 0x2 SLOAD PUSH2 0x3CBF SWAP2 SWAP1 PUSH2 0x462F JUMP JUMPDEST PUSH1 0x2 DUP2 SWAP1 SSTORE POP PUSH1 0x0 PUSH1 0x4 DUP2 SWAP1 SSTORE POP PUSH1 0x1 PUSH1 0xE DUP2 SWAP1 SSTORE POP JUMPDEST PUSH1 0xA SLOAD PUSH1 0xB SLOAD GT DUP1 ISZERO PUSH2 0x3CEB JUMPI POP PUSH1 0x0 PUSH1 0x8 SLOAD EQ JUMPDEST ISZERO PUSH2 0x3D17 JUMPI PUSH1 0x4 SLOAD PUSH1 0x2 SLOAD PUSH2 0x3D00 SWAP2 SWAP1 PUSH2 0x462F JUMP JUMPDEST PUSH1 0x2 DUP2 SWAP1 SSTORE POP PUSH1 0x0 PUSH1 0x4 DUP2 SWAP1 SSTORE POP PUSH1 0x1 PUSH1 0xE DUP2 SWAP1 SSTORE POP JUMPDEST PUSH1 0xB SLOAD PUSH1 0xA SLOAD GT DUP1 ISZERO PUSH2 0x3D2C JUMPI POP PUSH1 0x0 PUSH1 0x8 SLOAD EQ JUMPDEST ISZERO PUSH2 0x3D7A JUMPI PUSH1 0x2 PUSH1 0x4 SLOAD PUSH2 0x3D40 SWAP2 SWAP1 PUSH2 0x46B6 JUMP JUMPDEST PUSH1 0x3 SLOAD PUSH2 0x3D4D SWAP2 SWAP1 PUSH2 0x462F JUMP JUMPDEST PUSH1 0x3 DUP2 SWAP1 SSTORE POP PUSH1 0x4 SLOAD PUSH1 0x2 SLOAD PUSH2 0x3D63 SWAP2 SWAP1 PUSH2 0x4710 JUMP JUMPDEST PUSH1 0x2 DUP2 SWAP1 SSTORE POP PUSH1 0x0 PUSH1 0x4 DUP2 SWAP1 SSTORE POP PUSH1 0x2 PUSH1 0xE DUP2 SWAP1 SSTORE POP JUMPDEST PUSH1 0xA SLOAD PUSH1 0xB SLOAD EQ DUP1 ISZERO PUSH2 0x3D8F JUMPI POP PUSH1 0x0 PUSH1 0x8 SLOAD EQ JUMPDEST ISZERO PUSH2 0x3DA5 JUMPI PUSH2 0x3D9C PUSH2 0x3DA7 JUMP JUMPDEST PUSH1 0x3 PUSH1 0xE DUP2 SWAP1 SSTORE POP JUMPDEST JUMP JUMPDEST PUSH1 0x4 SLOAD PUSH1 0x3 SLOAD PUSH2 0x3DB7 SWAP2 SWAP1 PUSH2 0x462F JUMP JUMPDEST PUSH1 0x3 DUP2 SWAP1 SSTORE POP PUSH1 0x0 PUSH1 0x4 DUP2 SWAP1 SSTORE POP PUSH1 0x3 PUSH1 0xE DUP2 SWAP1 SSTORE POP JUMP JUMPDEST PUSH1 0x0 DUP1 PUSH1 0x0 SWAP1 POP PUSH27 0x184F03E93FF9F4DAA797ED6E38ED64BF6A1F010000000000000000 DUP4 LT PUSH2 0x3E2D JUMPI PUSH27 0x184F03E93FF9F4DAA797ED6E38ED64BF6A1F010000000000000000 DUP4 DUP2 PUSH2 0x3E23 JUMPI PUSH2 0x3E22 PUSH2 0x4857 JUMP JUMPDEST JUMPDEST DIV SWAP3 POP PUSH1 0x40 DUP2 ADD SWAP1 POP JUMPDEST PUSH14 0x4EE2D6D415B85ACEF8100000000 DUP4 LT PUSH2 0x3E6A JUMPI PUSH14 0x4EE2D6D415B85ACEF8100000000 DUP4 DUP2 PUSH2 0x3E60 JUMPI PUSH2 0x3E5F PUSH2 0x4857 JUMP JUMPDEST JUMPDEST DIV SWAP3 POP PUSH1 0x20 DUP2 ADD SWAP1 POP JUMPDEST PUSH7 0x2386F26FC10000 DUP4 LT PUSH2 0x3E99 JUMPI PUSH7 0x2386F26FC10000 DUP4 DUP2 PUSH2 0x3E8F JUMPI PUSH2 0x3E8E PUSH2 0x4857 JUMP JUMPDEST JUMPDEST DIV SWAP3 POP PUSH1 0x10 DUP2 ADD SWAP1 POP JUMPDEST PUSH4 0x5F5E100 DUP4 LT PUSH2 0x3EC2 JUMPI PUSH4 0x5F5E100 DUP4 DUP2 PUSH2 0x3EB8 JUMPI PUSH2 0x3EB7 PUSH2 0x4857 JUMP JUMPDEST JUMPDEST DIV SWAP3 POP PUSH1 0x8 DUP2 ADD SWAP1 POP JUMPDEST PUSH2 0x2710 DUP4 LT PUSH2 0x3EE7 JUMPI PUSH2 0x2710 DUP4 DUP2 PUSH2 0x3EDD JUMPI PUSH2 0x3EDC PUSH2 0x4857 JUMP JUMPDEST JUMPDEST DIV SWAP3 POP PUSH1 0x4 DUP2 ADD SWAP1 POP JUMPDEST PUSH1 0x64 DUP4 LT PUSH2 0x3F0A JUMPI PUSH1 0x64 DUP4 DUP2 PUSH2 0x3F00 JUMPI PUSH2 0x3EFF PUSH2 0x4857 JUMP JUMPDEST JUMPDEST DIV SWAP3 POP PUSH1 0x2 DUP2 ADD SWAP1 POP JUMPDEST PUSH1 0xA DUP4 LT PUSH2 0x3F19 JUMPI PUSH1 0x1 DUP2 ADD SWAP1 POP JUMPDEST DUP1 SWAP2 POP POP SWAP2 SWAP1 POP JUMP JUMPDEST DUP3 PUSH1 0x4 PUSH1 0x2 MUL DUP2 ADD SWAP3 DUP3 ISZERO PUSH2 0x3F62 JUMPI SWAP2 PUSH1 0x20 MUL DUP3 ADD JUMPDEST DUP3 DUP2 GT ISZERO PUSH2 0x3F61 JUMPI DUP3 MLOAD DUP3 SWAP1 PUSH1 0x2 PUSH2 0x3F51 SWAP3 SWAP2 SWAP1 PUSH2 0x3FA0 JUMP JUMPDEST POP SWAP2 PUSH1 0x20 ADD SWAP2 SWAP1 PUSH1 0x2 ADD SWAP1 PUSH2 0x3F38 JUMP JUMPDEST JUMPDEST POP SWAP1 POP PUSH2 0x3F6F SWAP2 SWAP1 PUSH2 0x3FE0 JUMP JUMPDEST POP SWAP1 JUMP JUMPDEST PUSH1 0x40 MLOAD DUP1 PUSH1 0x80 ADD PUSH1 0x40 MSTORE DUP1 PUSH1 0x4 SWAP1 JUMPDEST PUSH2 0x3F8A PUSH2 0x4004 JUMP JUMPDEST DUP2 MSTORE PUSH1 0x20 ADD SWAP1 PUSH1 0x1 SWAP1 SUB SWAP1 DUP2 PUSH2 0x3F82 JUMPI SWAP1 POP POP SWAP1 JUMP JUMPDEST DUP3 PUSH1 0x2 DUP2 ADD SWAP3 DUP3 ISZERO PUSH2 0x3FCF JUMPI SWAP2 PUSH1 0x20 MUL DUP3 ADD JUMPDEST DUP3 DUP2 GT ISZERO PUSH2 0x3FCE JUMPI DUP3 MLOAD DUP3 SSTORE SWAP2 PUSH1 0x20 ADD SWAP2 SWAP1 PUSH1 0x1 ADD SWAP1 PUSH2 0x3FB3 JUMP JUMPDEST JUMPDEST POP SWAP1 POP PUSH2 0x3FDC SWAP2 SWAP1 PUSH2 0x4026 JUMP JUMPDEST POP SWAP1 JUMP JUMPDEST JUMPDEST DUP1 DUP3 GT ISZERO PUSH2 0x4000 JUMPI PUSH1 0x0 DUP2 DUP2 PUSH2 0x3FF7 SWAP2 SWAP1 PUSH2 0x4043 JUMP JUMPDEST POP PUSH1 0x2 ADD PUSH2 0x3FE1 JUMP JUMPDEST POP SWAP1 JUMP JUMPDEST PUSH1 0x40 MLOAD DUP1 PUSH1 0x40 ADD PUSH1 0x40 MSTORE DUP1 PUSH1 0x2 SWAP1 PUSH1 0x20 DUP3 MUL DUP1 CALLDATASIZE DUP4 CALLDATACOPY DUP1 DUP3 ADD SWAP2 POP POP SWAP1 POP POP SWAP1 JUMP JUMPDEST JUMPDEST DUP1 DUP3 GT ISZERO PUSH2 0x403F JUMPI PUSH1 0x0 DUP2 PUSH1 0x0 SWAP1 SSTORE POP PUSH1 0x1 ADD PUSH2 0x4027 JUMP JUMPDEST POP SWAP1 JUMP JUMPDEST POP PUSH1 0x0 DUP2 SSTORE PUSH1 0x1 ADD PUSH1 0x0 SWAP1 SSTORE JUMP JUMPDEST PUSH1 0x0 DUP2 CALLDATALOAD SWAP1 POP PUSH2 0x4060 DUP2 PUSH2 0x4D7A JUMP JUMPDEST SWAP3 SWAP2 POP POP JUMP JUMPDEST PUSH1 0x0 PUSH1 0x20 DUP3 DUP5 SUB SLT ISZERO PUSH2 0x407C JUMPI PUSH2 0x407B PUSH2 0x48E4 JUMP JUMPDEST JUMPDEST PUSH1 0x0 PUSH2 0x408A DUP5 DUP3 DUP6 ADD PUSH2 0x4051 JUMP JUMPDEST SWAP2 POP POP SWAP3 SWAP2 POP POP JUMP JUMPDEST PUSH1 0x0 DUP1 PUSH1 0x40 DUP4 DUP6 SUB SLT ISZERO PUSH2 0x40AA JUMPI PUSH2 0x40A9 PUSH2 0x48E4 JUMP JUMPDEST JUMPDEST PUSH1 0x0 PUSH2 0x40B8 DUP6 DUP3 DUP7 ADD PUSH2 0x4051 JUMP JUMPDEST SWAP3 POP POP PUSH1 0x20 PUSH2 0x40C9 DUP6 DUP3 DUP7 ADD PUSH2 0x4051 JUMP JUMPDEST SWAP2 POP POP SWAP3 POP SWAP3 SWAP1 POP JUMP JUMPDEST PUSH2 0x40E4 PUSH2 0x40DF DUP3 PUSH2 0x4744 JUMP JUMPDEST PUSH2 0x47C9 JUMP JUMPDEST DUP3 MSTORE POP POP JUMP JUMPDEST PUSH1 0x0 PUSH2 0x40F7 PUSH1 0x28 DUP4 PUSH2 0x461E JUMP JUMPDEST SWAP2 POP PUSH2 0x4102 DUP3 PUSH2 0x48F6 JUMP JUMPDEST PUSH1 0x40 DUP3 ADD SWAP1 POP SWAP2 SWAP1 POP JUMP JUMPDEST PUSH1 0x0 PUSH2 0x411A PUSH1 0x22 DUP4 PUSH2 0x461E JUMP JUMPDEST SWAP2 POP PUSH2 0x4125 DUP3 PUSH2 0x4945 JUMP JUMPDEST PUSH1 0x40 DUP3 ADD SWAP1 POP SWAP2 SWAP1 POP JUMP JUMPDEST PUSH1 0x0 PUSH2 0x413D PUSH1 0x26 DUP4 PUSH2 0x461E JUMP JUMPDEST SWAP2 POP PUSH2 0x4148 DUP3 PUSH2 0x4994 JUMP JUMPDEST PUSH1 0x40 DUP3 ADD SWAP1 POP SWAP2 SWAP1 POP JUMP JUMPDEST PUSH1 0x0 PUSH2 0x4160 PUSH1 0x19 DUP4 PUSH2 0x461E JUMP JUMPDEST SWAP2 POP PUSH2 0x416B DUP3 PUSH2 0x49E3 JUMP JUMPDEST PUSH1 0x20 DUP3 ADD SWAP1 POP SWAP2 SWAP1 POP JUMP JUMPDEST PUSH1 0x0 PUSH2 0x4183 PUSH1 0x23 DUP4 PUSH2 0x461E JUMP JUMPDEST SWAP2 POP PUSH2 0x418E DUP3 PUSH2 0x4A0C JUMP JUMPDEST PUSH1 0x40 DUP3 ADD SWAP1 POP SWAP2 SWAP1 POP JUMP JUMPDEST PUSH1 0x0 PUSH2 0x41A6 PUSH1 0x16 DUP4 PUSH2 0x461E JUMP JUMPDEST SWAP2 POP PUSH2 0x41B1 DUP3 PUSH2 0x4A5B JUMP JUMPDEST PUSH1 0x20 DUP3 ADD SWAP1 POP SWAP2 SWAP1 POP JUMP JUMPDEST PUSH1 0x0 PUSH2 0x41C9 PUSH1 0x24 DUP4 PUSH2 0x461E JUMP JUMPDEST SWAP2 POP PUSH2 0x41D4 DUP3 PUSH2 0x4A84 JUMP JUMPDEST PUSH1 0x40 DUP3 ADD SWAP1 POP SWAP2 SWAP1 POP JUMP JUMPDEST PUSH1 0x0 PUSH2 0x41EC PUSH1 0x15 DUP4 PUSH2 0x461E JUMP JUMPDEST SWAP2 POP PUSH2 0x41F7 DUP3 PUSH2 0x4AD3 JUMP JUMPDEST PUSH1 0x20 DUP3 ADD SWAP1 POP SWAP2 SWAP1 POP JUMP JUMPDEST PUSH1 0x0 PUSH2 0x420F PUSH1 0x21 DUP4 PUSH2 0x461E JUMP JUMPDEST SWAP2 POP PUSH2 0x421A DUP3 PUSH2 0x4AFC JUMP JUMPDEST PUSH1 0x40 DUP3 ADD SWAP1 POP SWAP2 SWAP1 POP JUMP JUMPDEST PUSH1 0x0 PUSH2 0x4232 PUSH1 0x22 DUP4 PUSH2 0x461E JUMP JUMPDEST SWAP2 POP PUSH2 0x423D DUP3 PUSH2 0x4B4B JUMP JUMPDEST PUSH1 0x40 DUP3 ADD SWAP1 POP SWAP2 SWAP1 POP JUMP JUMPDEST PUSH1 0x0 PUSH2 0x4255 PUSH1 0x27 DUP4 PUSH2 0x461E JUMP JUMPDEST SWAP2 POP PUSH2 0x4260 DUP3 PUSH2 0x4B9A JUMP JUMPDEST PUSH1 0x40 DUP3 ADD SWAP1 POP SWAP2 SWAP1 POP JUMP JUMPDEST PUSH1 0x0 PUSH2 0x4278 PUSH1 0x18 DUP4 PUSH2 0x461E JUMP JUMPDEST SWAP2 POP PUSH2 0x4283 DUP3 PUSH2 0x4BE9 JUMP JUMPDEST PUSH1 0x20 DUP3 ADD SWAP1 POP SWAP2 SWAP1 POP JUMP JUMPDEST PUSH1 0x0 PUSH2 0x429B PUSH1 0x21 DUP4 PUSH2 0x461E JUMP JUMPDEST SWAP2 POP PUSH2 0x42A6 DUP3 PUSH2 0x4C12 JUMP JUMPDEST PUSH1 0x40 DUP3 ADD SWAP1 POP SWAP2 SWAP1 POP JUMP JUMPDEST PUSH1 0x0 PUSH2 0x42BE PUSH1 0x37 DUP4 PUSH2 0x461E JUMP JUMPDEST SWAP2 POP PUSH2 0x42C9 DUP3 PUSH2 0x4C61 JUMP JUMPDEST PUSH1 0x40 DUP3 ADD SWAP1 POP SWAP2 SWAP1 POP JUMP JUMPDEST PUSH1 0x0 PUSH2 0x42E1 PUSH1 0x1C DUP4 PUSH2 0x461E JUMP JUMPDEST SWAP2 POP PUSH2 0x42EC DUP3 PUSH2 0x4CB0 JUMP JUMPDEST PUSH1 0x20 DUP3 ADD SWAP1 POP SWAP2 SWAP1 POP JUMP JUMPDEST PUSH1 0x0 PUSH2 0x4304 PUSH1 0x18 DUP4 PUSH2 0x461E JUMP JUMPDEST SWAP2 POP PUSH2 0x430F DUP3 PUSH2 0x4CD9 JUMP JUMPDEST PUSH1 0x20 DUP3 ADD SWAP1 POP SWAP2 SWAP1 POP JUMP JUMPDEST PUSH1 0x0 PUSH2 0x4327 PUSH1 0x1B DUP4 PUSH2 0x461E JUMP JUMPDEST SWAP2 POP PUSH2 0x4332 DUP3 PUSH2 0x4D02 JUMP JUMPDEST PUSH1 0x20 DUP3 ADD SWAP1 POP SWAP2 SWAP1 POP JUMP JUMPDEST PUSH1 0x0 PUSH2 0x434A PUSH1 0x2A DUP4 PUSH2 0x461E JUMP JUMPDEST SWAP2 POP PUSH2 0x4355 DUP3 PUSH2 0x4D2B JUMP JUMPDEST PUSH1 0x40 DUP3 ADD SWAP1 POP SWAP2 SWAP1 POP JUMP JUMPDEST PUSH2 0x4369 DUP2 PUSH2 0x4776 JUMP JUMPDEST DUP3 MSTORE POP POP JUMP JUMPDEST PUSH2 0x4380 PUSH2 0x437B DUP3 PUSH2 0x4776 JUMP JUMPDEST PUSH2 0x47ED JUMP JUMPDEST DUP3 MSTORE POP POP JUMP JUMPDEST PUSH1 0x0 PUSH2 0x4392 DUP3 DUP7 PUSH2 0x436F JUMP JUMPDEST PUSH1 0x20 DUP3 ADD SWAP2 POP PUSH2 0x43A2 DUP3 DUP6 PUSH2 0x40D3 JUMP JUMPDEST PUSH1 0x14 DUP3 ADD SWAP2 POP PUSH2 0x43B2 DUP3 DUP5 PUSH2 0x436F JUMP JUMPDEST PUSH1 0x20 DUP3 ADD SWAP2 POP DUP2 SWAP1 POP SWAP5 SWAP4 POP POP POP POP JUMP JUMPDEST PUSH1 0x0 PUSH1 0x20 DUP3 ADD SWAP1 POP DUP2 DUP2 SUB PUSH1 0x0 DUP4 ADD MSTORE PUSH2 0x43DC DUP2 PUSH2 0x40EA JUMP JUMPDEST SWAP1 POP SWAP2 SWAP1 POP JUMP JUMPDEST PUSH1 0x0 PUSH1 0x20 DUP3 ADD SWAP1 POP DUP2 DUP2 SUB PUSH1 0x0 DUP4 ADD MSTORE PUSH2 0x43FC DUP2 PUSH2 0x410D JUMP JUMPDEST SWAP1 POP SWAP2 SWAP1 POP JUMP JUMPDEST PUSH1 0x0 PUSH1 0x20 DUP3 ADD SWAP1 POP DUP2 DUP2 SUB PUSH1 0x0 DUP4 ADD MSTORE PUSH2 0x441C DUP2 PUSH2 0x4130 JUMP JUMPDEST SWAP1 POP SWAP2 SWAP1 POP JUMP JUMPDEST PUSH1 0x0 PUSH1 0x20 DUP3 ADD SWAP1 POP DUP2 DUP2 SUB PUSH1 0x0 DUP4 ADD MSTORE PUSH2 0x443C DUP2 PUSH2 0x4153 JUMP JUMPDEST SWAP1 POP SWAP2 SWAP1 POP JUMP JUMPDEST PUSH1 0x0 PUSH1 0x20 DUP3 ADD SWAP1 POP DUP2 DUP2 SUB PUSH1 0x0 DUP4 ADD MSTORE PUSH2 0x445C DUP2 PUSH2 0x4176 JUMP JUMPDEST SWAP1 POP SWAP2 SWAP1 POP JUMP JUMPDEST PUSH1 0x0 PUSH1 0x20 DUP3 ADD SWAP1 POP DUP2 DUP2 SUB PUSH1 0x0 DUP4 ADD MSTORE PUSH2 0x447C DUP2 PUSH2 0x4199 JUMP JUMPDEST SWAP1 POP SWAP2 SWAP1 POP JUMP JUMPDEST PUSH1 0x0 PUSH1 0x20 DUP3 ADD SWAP1 POP DUP2 DUP2 SUB PUSH1 0x0 DUP4 ADD MSTORE PUSH2 0x449C DUP2 PUSH2 0x41BC JUMP JUMPDEST SWAP1 POP SWAP2 SWAP1 POP JUMP JUMPDEST PUSH1 0x0 PUSH1 0x20 DUP3 ADD SWAP1 POP DUP2 DUP2 SUB PUSH1 0x0 DUP4 ADD MSTORE PUSH2 0x44BC DUP2 PUSH2 0x41DF JUMP JUMPDEST SWAP1 POP SWAP2 SWAP1 POP JUMP JUMPDEST PUSH1 0x0 PUSH1 0x20 DUP3 ADD SWAP1 POP DUP2 DUP2 SUB PUSH1 0x0 DUP4 ADD MSTORE PUSH2 0x44DC DUP2 PUSH2 0x4202 JUMP JUMPDEST SWAP1 POP SWAP2 SWAP1 POP JUMP JUMPDEST PUSH1 0x0 PUSH1 0x20 DUP3 ADD SWAP1 POP DUP2 DUP2 SUB PUSH1 0x0 DUP4 ADD MSTORE PUSH2 0x44FC DUP2 PUSH2 0x4225 JUMP JUMPDEST SWAP1 POP SWAP2 SWAP1 POP JUMP JUMPDEST PUSH1 0x0 PUSH1 0x20 DUP3 ADD SWAP1 POP DUP2 DUP2 SUB PUSH1 0x0 DUP4 ADD MSTORE PUSH2 0x451C DUP2 PUSH2 0x4248 JUMP JUMPDEST SWAP1 POP SWAP2 SWAP1 POP JUMP JUMPDEST PUSH1 0x0 PUSH1 0x20 DUP3 ADD SWAP1 POP DUP2 DUP2 SUB PUSH1 0x0 DUP4 ADD MSTORE PUSH2 0x453C DUP2 PUSH2 0x426B JUMP JUMPDEST SWAP1 POP SWAP2 SWAP1 POP JUMP JUMPDEST PUSH1 0x0 PUSH1 0x20 DUP3 ADD SWAP1 POP DUP2 DUP2 SUB PUSH1 0x0 DUP4 ADD MSTORE PUSH2 0x455C DUP2 PUSH2 0x428E JUMP JUMPDEST SWAP1 POP SWAP2 SWAP1 POP JUMP JUMPDEST PUSH1 0x0 PUSH1 0x20 DUP3 ADD SWAP1 POP DUP2 DUP2 SUB PUSH1 0x0 DUP4 ADD MSTORE PUSH2 0x457C DUP2 PUSH2 0x42B1 JUMP JUMPDEST SWAP1 POP SWAP2 SWAP1 POP JUMP JUMPDEST PUSH1 0x0 PUSH1 0x20 DUP3 ADD SWAP1 POP DUP2 DUP2 SUB PUSH1 0x0 DUP4 ADD MSTORE PUSH2 0x459C DUP2 PUSH2 0x42D4 JUMP JUMPDEST SWAP1 POP SWAP2 SWAP1 POP JUMP JUMPDEST PUSH1 0x0 PUSH1 0x20 DUP3 ADD SWAP1 POP DUP2 DUP2 SUB PUSH1 0x0 DUP4 ADD MSTORE PUSH2 0x45BC DUP2 PUSH2 0x42F7 JUMP JUMPDEST SWAP1 POP SWAP2 SWAP1 POP JUMP JUMPDEST PUSH1 0x0 PUSH1 0x20 DUP3 ADD SWAP1 POP DUP2 DUP2 SUB PUSH1 0x0 DUP4 ADD MSTORE PUSH2 0x45DC DUP2 PUSH2 0x431A JUMP JUMPDEST SWAP1 POP SWAP2 SWAP1 POP JUMP JUMPDEST PUSH1 0x0 PUSH1 0x20 DUP3 ADD SWAP1 POP DUP2 DUP2 SUB PUSH1 0x0 DUP4 ADD MSTORE PUSH2 0x45FC DUP2 PUSH2 0x433D JUMP JUMPDEST SWAP1 POP SWAP2 SWAP1 POP JUMP JUMPDEST PUSH1 0x0 PUSH1 0x20 DUP3 ADD SWAP1 POP PUSH2 0x4618 PUSH1 0x0 DUP4 ADD DUP5 PUSH2 0x4360 JUMP JUMPDEST SWAP3 SWAP2 POP POP JUMP JUMPDEST PUSH1 0x0 DUP3 DUP3 MSTORE PUSH1 0x20 DUP3 ADD SWAP1 POP SWAP3 SWAP2 POP POP JUMP JUMPDEST PUSH1 0x0 PUSH2 0x463A DUP3 PUSH2 0x4776 JUMP JUMPDEST SWAP2 POP PUSH2 0x4645 DUP4 PUSH2 0x4776 JUMP JUMPDEST SWAP3 POP DUP3 PUSH32 0xFFFFFFFFFFFFFFFFFFFFFFFFFFFFFFFFFFFFFFFFFFFFFFFFFFFFFFFFFFFFFFFF SUB DUP3 GT ISZERO PUSH2 0x467A JUMPI PUSH2 0x4679 PUSH2 0x4828 JUMP JUMPDEST JUMPDEST DUP3 DUP3 ADD SWAP1 POP SWAP3 SWAP2 POP POP JUMP JUMPDEST PUSH1 0x0 PUSH2 0x4690 DUP3 PUSH2 0x4776 JUMP JUMPDEST SWAP2 POP PUSH2 0x469B DUP4 PUSH2 0x4776 JUMP JUMPDEST SWAP3 POP DUP3 PUSH2 0x46AB JUMPI PUSH2 0x46AA PUSH2 0x4857 JUMP JUMPDEST JUMPDEST DUP3 DUP3 DIV SWAP1 POP SWAP3 SWAP2 POP POP JUMP JUMPDEST PUSH1 0x0 PUSH2 0x46C1 DUP3 PUSH2 0x4776 JUMP JUMPDEST SWAP2 POP PUSH2 0x46CC DUP4 PUSH2 0x4776 JUMP JUMPDEST SWAP3 POP DUP2 PUSH32 0xFFFFFFFFFFFFFFFFFFFFFFFFFFFFFFFFFFFFFFFFFFFFFFFFFFFFFFFFFFFFFFFF DIV DUP4 GT DUP3 ISZERO ISZERO AND ISZERO PUSH2 0x4705 JUMPI PUSH2 0x4704 PUSH2 0x4828 JUMP JUMPDEST JUMPDEST DUP3 DUP3 MUL SWAP1 POP SWAP3 SWAP2 POP POP JUMP JUMPDEST PUSH1 0x0 PUSH2 0x471B DUP3 PUSH2 0x4776 JUMP JUMPDEST SWAP2 POP PUSH2 0x4726 DUP4 PUSH2 0x4776 JUMP JUMPDEST SWAP3 POP DUP3 DUP3 LT ISZERO PUSH2 0x4739 JUMPI PUSH2 0x4738 PUSH2 0x4828 JUMP JUMPDEST JUMPDEST DUP3 DUP3 SUB SWAP1 POP SWAP3 SWAP2 POP POP JUMP JUMPDEST PUSH1 0x0 PUSH2 0x474F DUP3 PUSH2 0x4756 JUMP JUMPDEST SWAP1 POP SWAP2 SWAP1 POP JUMP JUMPDEST PUSH1 0x0 PUSH20 0xFFFFFFFFFFFFFFFFFFFFFFFFFFFFFFFFFFFFFFFF DUP3 AND SWAP1 POP SWAP2 SWAP1 POP JUMP JUMPDEST PUSH1 0x0 DUP2 SWAP1 POP SWAP2 SWAP1 POP JUMP JUMPDEST PUSH1 0x0 PUSH2 0x478B DUP3 PUSH2 0x4776 JUMP JUMPDEST SWAP2 POP PUSH32 0xFFFFFFFFFFFFFFFFFFFFFFFFFFFFFFFFFFFFFFFFFFFFFFFFFFFFFFFFFFFFFFFF DUP3 EQ ISZERO PUSH2 0x47BE JUMPI PUSH2 0x47BD PUSH2 0x4828 JUMP JUMPDEST JUMPDEST PUSH1 0x1 DUP3 ADD SWAP1 POP SWAP2 SWAP1 POP JUMP JUMPDEST PUSH1 0x0 PUSH2 0x47D4 DUP3 PUSH2 0x47DB JUMP JUMPDEST SWAP1 POP SWAP2 SWAP1 POP JUMP JUMPDEST PUSH1 0x0 PUSH2 0x47E6 DUP3 PUSH2 0x48E9 JUMP JUMPDEST SWAP1 POP SWAP2 SWAP1 POP JUMP JUMPDEST PUSH1 0x0 DUP2 SWAP1 POP SWAP2 SWAP1 POP JUMP JUMPDEST PUSH1 0x0 PUSH2 0x4802 DUP3 PUSH2 0x4776 JUMP JUMPDEST SWAP2 POP PUSH2 0x480D DUP4 PUSH2 0x4776 JUMP JUMPDEST SWAP3 POP DUP3 PUSH2 0x481D JUMPI PUSH2 0x481C PUSH2 0x4857 JUMP JUMPDEST JUMPDEST DUP3 DUP3 MOD SWAP1 POP SWAP3 SWAP2 POP POP JUMP JUMPDEST PUSH32 0x4E487B7100000000000000000000000000000000000000000000000000000000 PUSH1 0x0 MSTORE PUSH1 0x11 PUSH1 0x4 MSTORE PUSH1 0x24 PUSH1 0x0 REVERT JUMPDEST PUSH32 0x4E487B7100000000000000000000000000000000000000000000000000000000 PUSH1 0x0 MSTORE PUSH1 0x12 PUSH1 0x4 MSTORE PUSH1 0x24 PUSH1 0x0 REVERT JUMPDEST PUSH32 0x4E487B7100000000000000000000000000000000000000000000000000000000 PUSH1 0x0 MSTORE PUSH1 0x32 PUSH1 0x4 MSTORE PUSH1 0x24 PUSH1 0x0 REVERT JUMPDEST PUSH32 0x4E487B7100000000000000000000000000000000000000000000000000000000 PUSH1 0x0 MSTORE PUSH1 0x41 PUSH1 0x4 MSTORE PUSH1 0x24 PUSH1 0x0 REVERT JUMPDEST PUSH1 0x0 DUP1 REVERT JUMPDEST PUSH1 0x0 DUP2 PUSH1 0x60 SHL SWAP1 POP SWAP2 SWAP1 POP JUMP JUMPDEST PUSH32 0x596F752063616E206F6E6C7920646F75626C6520646F776E206F6E2066697273 PUSH1 0x0 DUP3 ADD MSTORE PUSH32 0x7420616374696F6E000000000000000000000000000000000000000000000000 PUSH1 0x20 DUP3 ADD MSTORE POP JUMP JUMPDEST PUSH32 0x4465616C6572206D757374207374616E64206F6E20313720616E642068696768 PUSH1 0x0 DUP3 ADD MSTORE PUSH32 0x6572000000000000000000000000000000000000000000000000000000000000 PUSH1 0x20 DUP3 ADD MSTORE POP JUMP JUMPDEST PUSH32 0x42657420616D6F756E74206973206D6F7265207468616E20706C617965722062 PUSH1 0x0 DUP3 ADD MSTORE PUSH32 0x616C616E63650000000000000000000000000000000000000000000000000000 PUSH1 0x20 DUP3 ADD MSTORE POP JUMP JUMPDEST PUSH32 0x4F6E6C7920706C617965722063616E20706C6163652062657400000000000000 PUSH1 0x0 DUP3 ADD MSTORE POP JUMP JUMPDEST PUSH32 0x53656E6465722061646472657373206D75737420626520706C6179657257616C PUSH1 0x0 DUP3 ADD MSTORE PUSH32 0x6C65740000000000000000000000000000000000000000000000000000000000 PUSH1 0x20 DUP3 ADD MSTORE POP JUMP JUMPDEST PUSH32 0x5265656E7472616E6379206E6F7420616C6C6F77656400000000000000000000 PUSH1 0x0 DUP3 ADD MSTORE POP JUMP JUMPDEST PUSH32 0x506C61796572206D75737420626520686F757365283029206F7220706C617965 PUSH1 0x0 DUP3 ADD MSTORE PUSH32 0x7228312900000000000000000000000000000000000000000000000000000000 PUSH1 0x20 DUP3 ADD MSTORE POP JUMP JUMPDEST PUSH32 0x596F7527766520616C7265616479206275737465640000000000000000000000 PUSH1 0x0 DUP3 ADD MSTORE POP JUMP JUMPDEST PUSH32 0x526567697374726174696F6E2061646472657373206973206E6F742076616C69 PUSH1 0x0 DUP3 ADD MSTORE PUSH32 0x6400000000000000000000000000000000000000000000000000000000000000 PUSH1 0x20 DUP3 ADD MSTORE POP JUMP JUMPDEST PUSH32 0x53656E6465722061646472657373206D75737420626520686F75736557616C6C PUSH1 0x0 DUP3 ADD MSTORE PUSH32 0x6574000000000000000000000000000000000000000000000000000000000000 PUSH1 0x20 DUP3 ADD MSTORE POP JUMP JUMPDEST PUSH32 0x796F75206D75737420626574206265666F726520746865206361726473206172 PUSH1 0x0 DUP3 ADD MSTORE PUSH32 0x65206465616C7400000000000000000000000000000000000000000000000000 PUSH1 0x20 DUP3 ADD MSTORE POP JUMP JUMPDEST PUSH32 0x47616D65206D75737420626520696E2070726F67726573730000000000000000 PUSH1 0x0 DUP3 ADD MSTORE POP JUMP JUMPDEST PUSH32 0x506C6179657220686173206E6F2062616C616E636520746F2077697468647261 PUSH1 0x0 DUP3 ADD MSTORE PUSH32 0x7700000000000000000000000000000000000000000000000000000000000000 PUSH1 0x20 DUP3 ADD MSTORE POP JUMP JUMPDEST PUSH32 0x596F75206172652072657175657374696E67206D6F7265207468616E20746865 PUSH1 0x0 DUP3 ADD MSTORE PUSH32 0x20706C617965722077616C6C657420636F6E7461696E73000000000000000000 PUSH1 0x20 DUP3 ADD MSTORE POP JUMP JUMPDEST PUSH32 0x596F7520646F6E2774206861766520656E6F7567682066756E64732E00000000 PUSH1 0x0 DUP3 ADD MSTORE POP JUMP JUMPDEST PUSH32 0x506C617965722068617320616C72656164792073746F6F640000000000000000 PUSH1 0x0 DUP3 ADD MSTORE POP JUMP JUMPDEST PUSH32 0x4265742068617320616C7265616479206265656E20706C616365640000000000 PUSH1 0x0 DUP3 ADD MSTORE POP JUMP JUMPDEST PUSH32 0x4F6E6C7920706C617965722063616E2075736520746869732066756E6374696F PUSH1 0x0 DUP3 ADD MSTORE PUSH32 0x6E20776974686472617700000000000000000000000000000000000000000000 PUSH1 0x20 DUP3 ADD MSTORE POP JUMP JUMPDEST PUSH2 0x4D83 DUP2 PUSH2 0x4776 JUMP JUMPDEST DUP2 EQ PUSH2 0x4D8E JUMPI PUSH1 0x0 DUP1 REVERT JUMPDEST POP JUMP INVALID LOG2 PUSH5 0x6970667358 0x22 SLT KECCAK256 RETURNDATASIZE 0xE0 0x5E PUSH18 0x8E8FBCC4A9FB9108D701D3C9089AC65C8195 0xFC ADDMOD PUSH17 0x2393A82E75265764736F6C634300080700 CALLER "
		},
		"gasEstimates": {
			"creation": {
				"codeDepositCost": "3982200",
				"executionCost": "138183",
				"totalCost": "4120383"
			},
			"external": {
				"BET_MAX()": "395",
				"BET_MIN()": "441",
				"betAmount()": "2517",
				"deal()": "infinite",
				"dealerBusted()": "2496",
				"dealerCardCount()": "2474",
				"dealerHandValue(uint256,uint256)": "infinite",
				"dealerStands()": "2496",
				"dealersCards(uint256,uint256)": "infinite",
				"doubleDown()": "infinite",
				"finalDealerCount()": "2497",
				"finalPlayerCount()": "2473",
				"fundContract(uint256)": "infinite",
				"gameInProgress()": "2519",
				"gameOutcome()": "2453",
				"hitDealer()": "infinite",
				"hitPlayer()": "infinite",
				"houseBalance()": "2475",
				"placeBet(uint256)": "infinite",
				"playerBalance()": "2540",
				"playerBusted()": "2563",
				"playerCardCount()": "2497",
				"playerHandValue(uint256,uint256)": "infinite",
				"playerStand()": "infinite",
				"playerStands()": "2497",
				"playerWithdraw(uint256)": "infinite",
				"playersCards(uint256,uint256)": "infinite"
			},
			"internal": {
				"dealerStand()": "infinite",
				"evaluateDealerHand()": "infinite",
				"evaluatePlayerHand()": "infinite",
				"evaluateWinner()": "infinite",
				"gameIsPushed()": "infinite",
				"getCards(uint256)": "infinite",
				"getRandom()": "infinite",
				"getSlice(uint256,uint256,string memory)": "infinite",
				"numCardsInArray(uint256[2] memory[16] memory)": "infinite",
				"playerHasBlackJack()": "infinite",
				"pushToDealer(uint256,uint256,uint256)": "infinite",
				"pushToPlayer(uint256,uint256,uint256)": "infinite",
				"replaceDuplicates(uint256[2] memory[4] memory)": "infinite",
				"stringToUint(string memory)": "infinite",
				"sumDealersCards()": "infinite",
				"sumPlayersCards()": "infinite"
			}
		},
		"methodIdentifiers": {
			"BET_MAX()": "d0017a0c",
			"BET_MIN()": "2626ab08",
			"betAmount()": "d24257c0",
			"deal()": "553df021",
			"dealerBusted()": "c5c3cd78",
			"dealerCardCount()": "908a0979",
			"dealerHandValue(uint256,uint256)": "53a218c9",
			"dealerStands()": "a10926d6",
			"dealersCards(uint256,uint256)": "8bbb236f",
			"doubleDown()": "a7e1f6a2",
			"finalDealerCount()": "13bf01ed",
			"finalPlayerCount()": "cdc7ea51",
			"fundContract(uint256)": "3519a2f8",
			"gameInProgress()": "3fb64e75",
			"gameOutcome()": "053a2cfb",
			"hitDealer()": "c2855a59",
			"hitPlayer()": "dae10ed5",
			"houseBalance()": "67084eb3",
			"placeBet(uint256)": "10fe7c48",
			"playerBalance()": "651f066a",
			"playerBusted()": "325eb3f5",
			"playerCardCount()": "8914d63b",
			"playerHandValue(uint256,uint256)": "16dd37dd",
			"playerStand()": "c9f09d38",
			"playerStands()": "3c3248d5",
			"playerWithdraw(uint256)": "5629365b",
			"playersCards(uint256,uint256)": "bdbe451b"
		}
	},
	"abi": [
		{
			"inputs": [],
			"name": "BET_MAX",
			"outputs": [
				{
					"internalType": "uint256",
					"name": "",
					"type": "uint256"
				}
			],
			"stateMutability": "view",
			"type": "function"
		},
		{
			"inputs": [],
			"name": "BET_MIN",
			"outputs": [
				{
					"internalType": "uint256",
					"name": "",
					"type": "uint256"
				}
			],
			"stateMutability": "view",
			"type": "function"
		},
		{
			"inputs": [],
			"name": "betAmount",
			"outputs": [
				{
					"internalType": "uint256",
					"name": "",
					"type": "uint256"
				}
			],
			"stateMutability": "view",
			"type": "function"
		},
		{
			"inputs": [],
			"name": "deal",
			"outputs": [],
			"stateMutability": "nonpayable",
			"type": "function"
		},
		{
			"inputs": [],
			"name": "dealerBusted",
			"outputs": [
				{
					"internalType": "uint256",
					"name": "",
					"type": "uint256"
				}
			],
			"stateMutability": "view",
			"type": "function"
		},
		{
			"inputs": [],
			"name": "dealerCardCount",
			"outputs": [
				{
					"internalType": "uint256",
					"name": "",
					"type": "uint256"
				}
			],
			"stateMutability": "view",
			"type": "function"
		},
		{
			"inputs": [
				{
					"internalType": "uint256",
					"name": "",
					"type": "uint256"
				},
				{
					"internalType": "uint256",
					"name": "",
					"type": "uint256"
				}
			],
			"name": "dealerHandValue",
			"outputs": [
				{
					"internalType": "uint256",
					"name": "",
					"type": "uint256"
				}
			],
			"stateMutability": "view",
			"type": "function"
		},
		{
			"inputs": [],
			"name": "dealerStands",
			"outputs": [
				{
					"internalType": "uint256",
					"name": "",
					"type": "uint256"
				}
			],
			"stateMutability": "view",
			"type": "function"
		},
		{
			"inputs": [
				{
					"internalType": "uint256",
					"name": "",
					"type": "uint256"
				},
				{
					"internalType": "uint256",
					"name": "",
					"type": "uint256"
				}
			],
			"name": "dealersCards",
			"outputs": [
				{
					"internalType": "uint256",
					"name": "",
					"type": "uint256"
				}
			],
			"stateMutability": "view",
			"type": "function"
		},
		{
			"inputs": [],
			"name": "doubleDown",
			"outputs": [],
			"stateMutability": "nonpayable",
			"type": "function"
		},
		{
			"inputs": [],
			"name": "finalDealerCount",
			"outputs": [
				{
					"internalType": "uint256",
					"name": "",
					"type": "uint256"
				}
			],
			"stateMutability": "view",
			"type": "function"
		},
		{
			"inputs": [],
			"name": "finalPlayerCount",
			"outputs": [
				{
					"internalType": "uint256",
					"name": "",
					"type": "uint256"
				}
			],
			"stateMutability": "view",
			"type": "function"
		},
		{
			"inputs": [
				{
					"internalType": "uint256",
					"name": "house_or_player",
					"type": "uint256"
				}
			],
			"name": "fundContract",
			"outputs": [],
			"stateMutability": "payable",
			"type": "function"
		},
		{
			"inputs": [],
			"name": "gameInProgress",
			"outputs": [
				{
					"internalType": "uint256",
					"name": "",
					"type": "uint256"
				}
			],
			"stateMutability": "view",
			"type": "function"
		},
		{
			"inputs": [],
			"name": "gameOutcome",
			"outputs": [
				{
					"internalType": "uint256",
					"name": "",
					"type": "uint256"
				}
			],
			"stateMutability": "view",
			"type": "function"
		},
		{
			"inputs": [],
			"name": "hitDealer",
			"outputs": [],
			"stateMutability": "nonpayable",
			"type": "function"
		},
		{
			"inputs": [],
			"name": "hitPlayer",
			"outputs": [],
			"stateMutability": "nonpayable",
			"type": "function"
		},
		{
			"inputs": [],
			"name": "houseBalance",
			"outputs": [
				{
					"internalType": "uint256",
					"name": "",
					"type": "uint256"
				}
			],
			"stateMutability": "view",
			"type": "function"
		},
		{
			"inputs": [
				{
					"internalType": "uint256",
					"name": "_betAmount",
					"type": "uint256"
				}
			],
			"name": "placeBet",
			"outputs": [],
			"stateMutability": "nonpayable",
			"type": "function"
		},
		{
			"inputs": [],
			"name": "playerBalance",
			"outputs": [
				{
					"internalType": "uint256",
					"name": "",
					"type": "uint256"
				}
			],
			"stateMutability": "view",
			"type": "function"
		},
		{
			"inputs": [],
			"name": "playerBusted",
			"outputs": [
				{
					"internalType": "uint256",
					"name": "",
					"type": "uint256"
				}
			],
			"stateMutability": "view",
			"type": "function"
		},
		{
			"inputs": [],
			"name": "playerCardCount",
			"outputs": [
				{
					"internalType": "uint256",
					"name": "",
					"type": "uint256"
				}
			],
			"stateMutability": "view",
			"type": "function"
		},
		{
			"inputs": [
				{
					"internalType": "uint256",
					"name": "",
					"type": "uint256"
				},
				{
					"internalType": "uint256",
					"name": "",
					"type": "uint256"
				}
			],
			"name": "playerHandValue",
			"outputs": [
				{
					"internalType": "uint256",
					"name": "",
					"type": "uint256"
				}
			],
			"stateMutability": "view",
			"type": "function"
		},
		{
			"inputs": [],
			"name": "playerStand",
			"outputs": [],
			"stateMutability": "nonpayable",
			"type": "function"
		},
		{
			"inputs": [],
			"name": "playerStands",
			"outputs": [
				{
					"internalType": "uint256",
					"name": "",
					"type": "uint256"
				}
			],
			"stateMutability": "view",
			"type": "function"
		},
		{
			"inputs": [
				{
					"internalType": "uint256",
					"name": "amount",
					"type": "uint256"
				}
			],
			"name": "playerWithdraw",
			"outputs": [],
			"stateMutability": "payable",
			"type": "function"
		},
		{
			"inputs": [
				{
					"internalType": "uint256",
					"name": "",
					"type": "uint256"
				},
				{
					"internalType": "uint256",
					"name": "",
					"type": "uint256"
				}
			],
			"name": "playersCards",
			"outputs": [
				{
					"internalType": "uint256",
					"name": "",
					"type": "uint256"
				}
			],
			"stateMutability": "view",
			"type": "function"
		}
	]
}